{
	"Smart_Contract/contracts/2_variables_modificadores.sol": {
		"variables_modificadores": {
			"abi": [
				{
					"inputs": [],
					"name": "address1",
					"outputs": [
						{
							"internalType": "address",
							"name": "",
							"type": "address"
						}
					],
					"stateMutability": "view",
					"type": "function"
				},
				{
					"inputs": [],
					"name": "address2",
					"outputs": [
						{
							"internalType": "address",
							"name": "",
							"type": "address"
						}
					],
					"stateMutability": "view",
					"type": "function"
				},
				{
					"inputs": [],
					"name": "b",
					"outputs": [
						{
							"internalType": "uint8",
							"name": "",
							"type": "uint8"
						}
					],
					"stateMutability": "view",
					"type": "function"
				},
				{
					"inputs": [],
					"name": "boolean_true",
					"outputs": [
						{
							"internalType": "bool",
							"name": "",
							"type": "bool"
						}
					],
					"stateMutability": "view",
					"type": "function"
				},
				{
					"inputs": [],
					"name": "d",
					"outputs": [
						{
							"internalType": "int8",
							"name": "",
							"type": "int8"
						}
					],
					"stateMutability": "view",
					"type": "function"
				},
				{
					"inputs": [],
					"name": "displayState",
					"outputs": [
						{
							"internalType": "enum variables_modificadores.options",
							"name": "",
							"type": "uint8"
						}
					],
					"stateMutability": "view",
					"type": "function"
				},
				{
					"inputs": [],
					"name": "hashing_keccak256",
					"outputs": [
						{
							"internalType": "bytes32",
							"name": "",
							"type": "bytes32"
						}
					],
					"stateMutability": "view",
					"type": "function"
				},
				{
					"inputs": [],
					"name": "hashing_ripemd160",
					"outputs": [
						{
							"internalType": "bytes20",
							"name": "",
							"type": "bytes20"
						}
					],
					"stateMutability": "view",
					"type": "function"
				},
				{
					"inputs": [],
					"name": "hashing_sha256",
					"outputs": [
						{
							"internalType": "bytes32",
							"name": "",
							"type": "bytes32"
						}
					],
					"stateMutability": "view",
					"type": "function"
				},
				{
					"inputs": [],
					"name": "str_public",
					"outputs": [
						{
							"internalType": "string",
							"name": "",
							"type": "string"
						}
					],
					"stateMutability": "view",
					"type": "function"
				},
				{
					"inputs": [],
					"name": "turnOff",
					"outputs": [],
					"stateMutability": "nonpayable",
					"type": "function"
				},
				{
					"inputs": [],
					"name": "turnOn",
					"outputs": [],
					"stateMutability": "nonpayable",
					"type": "function"
				}
			],
			"devdoc": {
				"kind": "dev",
				"methods": {},
				"version": 1
			},
			"evm": {
				"assembly": "    /* \"Smart_Contract/contracts/2_variables_modificadores.sol\":62:1572  contract variables_modificadores {... */\n  mstore(0x40, 0x80)\n    /* \"Smart_Contract/contracts/2_variables_modificadores.sol\":178:179  3 */\n  0x03\n    /* \"Smart_Contract/contracts/2_variables_modificadores.sol\":161:179  uint8 public b = 3 */\n  0x01\n  exp(0x0100, 0x00)\n  dup2\n  sload\n  dup2\n  0xff\n  mul\n  not\n  and\n  swap1\n  dup4\n  0xff\n  and\n  mul\n  or\n  swap1\n  sstore\n  pop\n    /* \"Smart_Contract/contracts/2_variables_modificadores.sol\":261:264  -32 */\n  0xffffffffffffffffffffffffffffffffffffffffffffffffffffffffffffffe0\n    /* \"Smart_Contract/contracts/2_variables_modificadores.sol\":245:264  int8 public d = -32 */\n  0x03\n  exp(0x0100, 0x00)\n  dup2\n  sload\n  dup2\n  0xff\n  mul\n  not\n  and\n  swap1\n  dup4\n  0x00\n  signextend\n  0xff\n  and\n  mul\n  or\n  swap1\n  sstore\n  pop\n    /* \"Smart_Contract/contracts/2_variables_modificadores.sol\":279:281  65 */\n  0x41\n    /* \"Smart_Contract/contracts/2_variables_modificadores.sol\":271:281  int e = 65 */\n  0x04\n  sstore\n    /* \"Smart_Contract/contracts/2_variables_modificadores.sol\":331:375  string public str_public = \"Esto es publico\" */\n  mload(0x40)\n  dup1\n  0x40\n  add\n  0x40\n  mstore\n  dup1\n  0x0f\n  dup2\n  mstore\n  0x20\n  add\n  0x4573746f206573207075626c69636f0000000000000000000000000000000000\n  dup2\n  mstore\n  pop\n  0x06\n  swap1\n  dup2\n  tag_1\n  swap2\n  swap1\n  tag_2\n  jump\t// in\ntag_1:\n  pop\n    /* \"Smart_Contract/contracts/2_variables_modificadores.sol\":382:428  string private str_private = \"Esto es privado\" */\n  mload(0x40)\n  dup1\n  0x40\n  add\n  0x40\n  mstore\n  dup1\n  0x0f\n  dup2\n  mstore\n  0x20\n  add\n  0x4573746f206573207072697661646f0000000000000000000000000000000000\n  dup2\n  mstore\n  pop\n  0x07\n  swap1\n  dup2\n  tag_3\n  swap2\n  swap1\n  tag_2\n  jump\t// in\ntag_3:\n  pop\n    /* \"Smart_Contract/contracts/2_variables_modificadores.sol\":509:513  true */\n  0x01\n    /* \"Smart_Contract/contracts/2_variables_modificadores.sol\":482:513  bool public boolean_true = true */\n  0x08\n  exp(0x0100, 0x01)\n  dup2\n  sload\n  dup2\n  0xff\n  mul\n  not\n  and\n  swap1\n  dup4\n  iszero\n  iszero\n  mul\n  or\n  swap1\n  sstore\n  pop\n    /* \"Smart_Contract/contracts/2_variables_modificadores.sol\":549:554  false */\n  0x00\n    /* \"Smart_Contract/contracts/2_variables_modificadores.sol\":520:554  bool private boolean_false = false */\n  0x08\n  exp(0x0100, 0x02)\n  dup2\n  sload\n  dup2\n  0xff\n  mul\n  not\n  and\n  swap1\n  dup4\n  iszero\n  iszero\n  mul\n  or\n  swap1\n  sstore\n  pop\n    /* \"Smart_Contract/contracts/2_variables_modificadores.sol\":797:799  10 */\n  0x0a\n    /* \"Smart_Contract/contracts/2_variables_modificadores.sol\":802:812  msg.sender */\n  caller\n    /* \"Smart_Contract/contracts/2_variables_modificadores.sol\":814:856  0x5B38Da6a701c568545dCfcB03FcB875f56beddC4 */\n  0x5b38da6a701c568545dcfcb03fcb875f56beddc4\n    /* \"Smart_Contract/contracts/2_variables_modificadores.sol\":760:857  abi.encodePacked(\"Hello world\", uint(10), msg.sender, 0x5B38Da6a701c568545dCfcB03FcB875f56beddC4) */\n  add(0x20, mload(0x40))\n  tag_4\n  swap4\n  swap3\n  swap2\n  swap1\n  tag_5\n  jump\t// in\ntag_4:\n  mload(0x40)\n  0x20\n  dup2\n  dup4\n  sub\n  sub\n  dup2\n  mstore\n  swap1\n  0x40\n  mstore\n    /* \"Smart_Contract/contracts/2_variables_modificadores.sol\":750:858  keccak256(abi.encodePacked(\"Hello world\", uint(10), msg.sender, 0x5B38Da6a701c568545dCfcB03FcB875f56beddC4)) */\n  dup1\n  mload\n  swap1\n  0x20\n  add\n  keccak256\n    /* \"Smart_Contract/contracts/2_variables_modificadores.sol\":715:858  bytes32 public hashing_keccak256 = keccak256(abi.encodePacked(\"Hello world\", uint(10), msg.sender, 0x5B38Da6a701c568545dCfcB03FcB875f56beddC4)) */\n  0x0b\n  sstore\n    /* \"Smart_Contract/contracts/2_variables_modificadores.sol\":897:936  sha256(abi.encodePacked(\"Hello world\")) */\n  0x02\n    /* \"Smart_Contract/contracts/2_variables_modificadores.sol\":904:935  abi.encodePacked(\"Hello world\") */\n  add(0x20, mload(0x40))\n  tag_6\n  swap1\n  tag_7\n  jump\t// in\ntag_6:\n  mload(0x40)\n  0x20\n  dup2\n  dup4\n  sub\n  sub\n  dup2\n  mstore\n  swap1\n  0x40\n  mstore\n    /* \"Smart_Contract/contracts/2_variables_modificadores.sol\":897:936  sha256(abi.encodePacked(\"Hello world\")) */\n  mload(0x40)\n  tag_8\n  swap2\n  swap1\n  tag_9\n  jump\t// in\ntag_8:\n  0x20\n  mload(0x40)\n  dup1\n  dup4\n  sub\n  dup2\n  dup6\n  gas\n  staticcall\n  iszero\n  dup1\n  iszero\n  tag_11\n  jumpi\n  returndatasize\n  0x00\n  dup1\n  returndatacopy\n  revert(0x00, returndatasize)\ntag_11:\n  pop\n  pop\n  pop\n  mload(0x40)\n  returndatasize\n  not(0x1f)\n  0x1f\n  dup3\n  add\n  and\n  dup3\n  add\n  dup1\n  0x40\n  mstore\n  pop\n  dup2\n  add\n  swap1\n  tag_12\n  swap2\n  swap1\n  tag_13\n  jump\t// in\ntag_12:\n    /* \"Smart_Contract/contracts/2_variables_modificadores.sol\":865:936  bytes32 public hashing_sha256 = sha256(abi.encodePacked(\"Hello world\")) */\n  0x0c\n  sstore\n    /* \"Smart_Contract/contracts/2_variables_modificadores.sol\":978:1020  ripemd160(abi.encodePacked(\"Hello world\")) */\n  0x03\n    /* \"Smart_Contract/contracts/2_variables_modificadores.sol\":988:1019  abi.encodePacked(\"Hello world\") */\n  add(0x20, mload(0x40))\n  tag_14\n  swap1\n  tag_7\n  jump\t// in\ntag_14:\n  mload(0x40)\n  0x20\n  dup2\n  dup4\n  sub\n  sub\n  dup2\n  mstore\n  swap1\n  0x40\n  mstore\n    /* \"Smart_Contract/contracts/2_variables_modificadores.sol\":978:1020  ripemd160(abi.encodePacked(\"Hello world\")) */\n  mload(0x40)\n  tag_15\n  swap2\n  swap1\n  tag_9\n  jump\t// in\ntag_15:\n  0x20\n  mload(0x40)\n  dup1\n  dup4\n  sub\n  dup2\n  dup6\n  gas\n  staticcall\n  iszero\n  dup1\n  iszero\n  tag_17\n  jumpi\n  returndatasize\n  0x00\n  dup1\n  returndatacopy\n  revert(0x00, returndatasize)\ntag_17:\n  pop\n  pop\n  pop\n  shl(0x60, mload(mload(0x40)))\n    /* \"Smart_Contract/contracts/2_variables_modificadores.sol\":943:1020  bytes20 public hashing_ripemd160 = ripemd160(abi.encodePacked(\"Hello world\")) */\n  0x0d\n  exp(0x0100, 0x00)\n  dup2\n  sload\n  dup2\n  0xffffffffffffffffffffffffffffffffffffffff\n  mul\n  not\n  and\n  swap1\n  dup4\n  0x60\n  shr\n  mul\n  or\n  swap1\n  sstore\n  pop\n    /* \"Smart_Contract/contracts/2_variables_modificadores.sol\":1105:1147  0x5B38Da6a701c568545dCfcB03FcB875f56beddC4 */\n  0x5b38da6a701c568545dcfcb03fcb875f56beddc4\n    /* \"Smart_Contract/contracts/2_variables_modificadores.sol\":1079:1147  address public address1 = 0x5B38Da6a701c568545dCfcB03FcB875f56beddC4 */\n  0x0f\n  exp(0x0100, 0x00)\n  dup2\n  sload\n  dup2\n  0xffffffffffffffffffffffffffffffffffffffff\n  mul\n  not\n  and\n  swap1\n  dup4\n  0xffffffffffffffffffffffffffffffffffffffff\n  and\n  mul\n  or\n  swap1\n  sstore\n  pop\n    /* \"Smart_Contract/contracts/2_variables_modificadores.sol\":1180:1190  msg.sender */\n  caller\n    /* \"Smart_Contract/contracts/2_variables_modificadores.sol\":1154:1190  address public address2 = msg.sender */\n  0x10\n  exp(0x0100, 0x00)\n  dup2\n  sload\n  dup2\n  0xffffffffffffffffffffffffffffffffffffffff\n  mul\n  not\n  and\n  swap1\n  dup4\n  0xffffffffffffffffffffffffffffffffffffffff\n  and\n  mul\n  or\n  swap1\n  sstore\n  pop\n    /* \"Smart_Contract/contracts/2_variables_modificadores.sol\":62:1572  contract variables_modificadores {... */\n  callvalue\n  dup1\n  iszero\n  tag_18\n  jumpi\n  0x00\n  dup1\n  revert\ntag_18:\n  pop\n  jump(tag_19)\n    /* \"#utility.yul\":7:106   */\ntag_20:\n    /* \"#utility.yul\":59:65   */\n  0x00\n    /* \"#utility.yul\":93:98   */\n  dup2\n    /* \"#utility.yul\":87:99   */\n  mload\n    /* \"#utility.yul\":77:99   */\n  swap1\n  pop\n    /* \"#utility.yul\":7:106   */\n  swap2\n  swap1\n  pop\n  jump\t// out\n    /* \"#utility.yul\":112:292   */\ntag_21:\n    /* \"#utility.yul\":160:237   */\n  0x4e487b7100000000000000000000000000000000000000000000000000000000\n    /* \"#utility.yul\":157:158   */\n  0x00\n    /* \"#utility.yul\":150:238   */\n  mstore\n    /* \"#utility.yul\":257:261   */\n  0x41\n    /* \"#utility.yul\":254:255   */\n  0x04\n    /* \"#utility.yul\":247:262   */\n  mstore\n    /* \"#utility.yul\":281:285   */\n  0x24\n    /* \"#utility.yul\":278:279   */\n  0x00\n    /* \"#utility.yul\":271:286   */\n  revert\n    /* \"#utility.yul\":298:478   */\ntag_22:\n    /* \"#utility.yul\":346:423   */\n  0x4e487b7100000000000000000000000000000000000000000000000000000000\n    /* \"#utility.yul\":343:344   */\n  0x00\n    /* \"#utility.yul\":336:424   */\n  mstore\n    /* \"#utility.yul\":443:447   */\n  0x22\n    /* \"#utility.yul\":440:441   */\n  0x04\n    /* \"#utility.yul\":433:448   */\n  mstore\n    /* \"#utility.yul\":467:471   */\n  0x24\n    /* \"#utility.yul\":464:465   */\n  0x00\n    /* \"#utility.yul\":457:472   */\n  revert\n    /* \"#utility.yul\":484:804   */\ntag_23:\n    /* \"#utility.yul\":528:534   */\n  0x00\n    /* \"#utility.yul\":565:566   */\n  0x02\n    /* \"#utility.yul\":559:563   */\n  dup3\n    /* \"#utility.yul\":555:567   */\n  div\n    /* \"#utility.yul\":545:567   */\n  swap1\n  pop\n    /* \"#utility.yul\":612:613   */\n  0x01\n    /* \"#utility.yul\":606:610   */\n  dup3\n    /* \"#utility.yul\":602:614   */\n  and\n    /* \"#utility.yul\":633:651   */\n  dup1\n    /* \"#utility.yul\":623:704   */\n  tag_66\n  jumpi\n    /* \"#utility.yul\":689:693   */\n  0x7f\n    /* \"#utility.yul\":681:687   */\n  dup3\n    /* \"#utility.yul\":677:694   */\n  and\n    /* \"#utility.yul\":667:694   */\n  swap2\n  pop\n    /* \"#utility.yul\":623:704   */\ntag_66:\n    /* \"#utility.yul\":751:753   */\n  0x20\n    /* \"#utility.yul\":743:749   */\n  dup3\n    /* \"#utility.yul\":740:754   */\n  lt\n    /* \"#utility.yul\":720:738   */\n  dup2\n    /* \"#utility.yul\":717:755   */\n  sub\n    /* \"#utility.yul\":714:798   */\n  tag_67\n  jumpi\n    /* \"#utility.yul\":770:788   */\n  tag_68\n  tag_22\n  jump\t// in\ntag_68:\n    /* \"#utility.yul\":714:798   */\ntag_67:\n    /* \"#utility.yul\":535:804   */\n  pop\n    /* \"#utility.yul\":484:804   */\n  swap2\n  swap1\n  pop\n  jump\t// out\n    /* \"#utility.yul\":810:951   */\ntag_24:\n    /* \"#utility.yul\":859:863   */\n  0x00\n    /* \"#utility.yul\":882:885   */\n  dup2\n    /* \"#utility.yul\":874:885   */\n  swap1\n  pop\n    /* \"#utility.yul\":905:908   */\n  dup2\n    /* \"#utility.yul\":902:903   */\n  0x00\n    /* \"#utility.yul\":895:909   */\n  mstore\n    /* \"#utility.yul\":939:943   */\n  0x20\n    /* \"#utility.yul\":936:937   */\n  0x00\n    /* \"#utility.yul\":926:944   */\n  keccak256\n    /* \"#utility.yul\":918:944   */\n  swap1\n  pop\n    /* \"#utility.yul\":810:951   */\n  swap2\n  swap1\n  pop\n  jump\t// out\n    /* \"#utility.yul\":957:1050   */\ntag_25:\n    /* \"#utility.yul\":994:1000   */\n  0x00\n    /* \"#utility.yul\":1041:1043   */\n  0x20\n    /* \"#utility.yul\":1036:1038   */\n  0x1f\n    /* \"#utility.yul\":1029:1034   */\n  dup4\n    /* \"#utility.yul\":1025:1039   */\n  add\n    /* \"#utility.yul\":1021:1044   */\n  div\n    /* \"#utility.yul\":1011:1044   */\n  swap1\n  pop\n    /* \"#utility.yul\":957:1050   */\n  swap2\n  swap1\n  pop\n  jump\t// out\n    /* \"#utility.yul\":1056:1163   */\ntag_26:\n    /* \"#utility.yul\":1100:1108   */\n  0x00\n    /* \"#utility.yul\":1150:1155   */\n  dup3\n    /* \"#utility.yul\":1144:1148   */\n  dup3\n    /* \"#utility.yul\":1140:1156   */\n  shl\n    /* \"#utility.yul\":1119:1156   */\n  swap1\n  pop\n    /* \"#utility.yul\":1056:1163   */\n  swap3\n  swap2\n  pop\n  pop\n  jump\t// out\n    /* \"#utility.yul\":1169:1562   */\ntag_27:\n    /* \"#utility.yul\":1238:1244   */\n  0x00\n    /* \"#utility.yul\":1288:1289   */\n  0x08\n    /* \"#utility.yul\":1276:1286   */\n  dup4\n    /* \"#utility.yul\":1272:1290   */\n  mul\n    /* \"#utility.yul\":1311:1408   */\n  tag_73\n    /* \"#utility.yul\":1341:1407   */\n  0xffffffffffffffffffffffffffffffffffffffffffffffffffffffffffffffff\n    /* \"#utility.yul\":1330:1339   */\n  dup3\n    /* \"#utility.yul\":1311:1408   */\n  tag_26\n  jump\t// in\ntag_73:\n    /* \"#utility.yul\":1429:1468   */\n  tag_74\n    /* \"#utility.yul\":1459:1467   */\n  dup7\n    /* \"#utility.yul\":1448:1457   */\n  dup4\n    /* \"#utility.yul\":1429:1468   */\n  tag_26\n  jump\t// in\ntag_74:\n    /* \"#utility.yul\":1417:1468   */\n  swap6\n  pop\n    /* \"#utility.yul\":1501:1505   */\n  dup1\n    /* \"#utility.yul\":1497:1506   */\n  not\n    /* \"#utility.yul\":1490:1495   */\n  dup5\n    /* \"#utility.yul\":1486:1507   */\n  and\n    /* \"#utility.yul\":1477:1507   */\n  swap4\n  pop\n    /* \"#utility.yul\":1550:1554   */\n  dup1\n    /* \"#utility.yul\":1540:1548   */\n  dup7\n    /* \"#utility.yul\":1536:1555   */\n  and\n    /* \"#utility.yul\":1529:1534   */\n  dup5\n    /* \"#utility.yul\":1526:1556   */\n  or\n    /* \"#utility.yul\":1516:1556   */\n  swap3\n  pop\n    /* \"#utility.yul\":1245:1562   */\n  pop\n  pop\n    /* \"#utility.yul\":1169:1562   */\n  swap4\n  swap3\n  pop\n  pop\n  pop\n  jump\t// out\n    /* \"#utility.yul\":1568:1645   */\ntag_28:\n    /* \"#utility.yul\":1605:1612   */\n  0x00\n    /* \"#utility.yul\":1634:1639   */\n  dup2\n    /* \"#utility.yul\":1623:1639   */\n  swap1\n  pop\n    /* \"#utility.yul\":1568:1645   */\n  swap2\n  swap1\n  pop\n  jump\t// out\n    /* \"#utility.yul\":1651:1711   */\ntag_29:\n    /* \"#utility.yul\":1679:1682   */\n  0x00\n    /* \"#utility.yul\":1700:1705   */\n  dup2\n    /* \"#utility.yul\":1693:1705   */\n  swap1\n  pop\n    /* \"#utility.yul\":1651:1711   */\n  swap2\n  swap1\n  pop\n  jump\t// out\n    /* \"#utility.yul\":1717:1859   */\ntag_30:\n    /* \"#utility.yul\":1767:1776   */\n  0x00\n    /* \"#utility.yul\":1800:1853   */\n  tag_78\n    /* \"#utility.yul\":1818:1852   */\n  tag_79\n    /* \"#utility.yul\":1827:1851   */\n  tag_80\n    /* \"#utility.yul\":1845:1850   */\n  dup5\n    /* \"#utility.yul\":1827:1851   */\n  tag_28\n  jump\t// in\ntag_80:\n    /* \"#utility.yul\":1818:1852   */\n  tag_29\n  jump\t// in\ntag_79:\n    /* \"#utility.yul\":1800:1853   */\n  tag_28\n  jump\t// in\ntag_78:\n    /* \"#utility.yul\":1787:1853   */\n  swap1\n  pop\n    /* \"#utility.yul\":1717:1859   */\n  swap2\n  swap1\n  pop\n  jump\t// out\n    /* \"#utility.yul\":1865:1940   */\ntag_31:\n    /* \"#utility.yul\":1908:1911   */\n  0x00\n    /* \"#utility.yul\":1929:1934   */\n  dup2\n    /* \"#utility.yul\":1922:1934   */\n  swap1\n  pop\n    /* \"#utility.yul\":1865:1940   */\n  swap2\n  swap1\n  pop\n  jump\t// out\n    /* \"#utility.yul\":1946:2215   */\ntag_32:\n    /* \"#utility.yul\":2056:2095   */\n  tag_83\n    /* \"#utility.yul\":2087:2094   */\n  dup4\n    /* \"#utility.yul\":2056:2095   */\n  tag_30\n  jump\t// in\ntag_83:\n    /* \"#utility.yul\":2117:2208   */\n  tag_84\n    /* \"#utility.yul\":2166:2207   */\n  tag_85\n    /* \"#utility.yul\":2190:2206   */\n  dup3\n    /* \"#utility.yul\":2166:2207   */\n  tag_31\n  jump\t// in\ntag_85:\n    /* \"#utility.yul\":2158:2164   */\n  dup5\n    /* \"#utility.yul\":2151:2155   */\n  dup5\n    /* \"#utility.yul\":2145:2156   */\n  sload\n    /* \"#utility.yul\":2117:2208   */\n  tag_27\n  jump\t// in\ntag_84:\n    /* \"#utility.yul\":2111:2115   */\n  dup3\n    /* \"#utility.yul\":2104:2209   */\n  sstore\n    /* \"#utility.yul\":2022:2215   */\n  pop\n    /* \"#utility.yul\":1946:2215   */\n  pop\n  pop\n  pop\n  jump\t// out\n    /* \"#utility.yul\":2221:2294   */\ntag_33:\n    /* \"#utility.yul\":2266:2269   */\n  0x00\n    /* \"#utility.yul\":2221:2294   */\n  swap1\n  jump\t// out\n    /* \"#utility.yul\":2300:2489   */\ntag_34:\n    /* \"#utility.yul\":2377:2409   */\n  tag_88\n  tag_33\n  jump\t// in\ntag_88:\n    /* \"#utility.yul\":2418:2483   */\n  tag_89\n    /* \"#utility.yul\":2476:2482   */\n  dup2\n    /* \"#utility.yul\":2468:2474   */\n  dup5\n    /* \"#utility.yul\":2462:2466   */\n  dup5\n    /* \"#utility.yul\":2418:2483   */\n  tag_32\n  jump\t// in\ntag_89:\n    /* \"#utility.yul\":2353:2489   */\n  pop\n    /* \"#utility.yul\":2300:2489   */\n  pop\n  pop\n  jump\t// out\n    /* \"#utility.yul\":2495:2681   */\ntag_35:\n    /* \"#utility.yul\":2555:2675   */\ntag_91:\n    /* \"#utility.yul\":2572:2575   */\n  dup2\n    /* \"#utility.yul\":2565:2570   */\n  dup2\n    /* \"#utility.yul\":2562:2576   */\n  lt\n    /* \"#utility.yul\":2555:2675   */\n  iszero\n  tag_93\n  jumpi\n    /* \"#utility.yul\":2626:2665   */\n  tag_94\n    /* \"#utility.yul\":2663:2664   */\n  0x00\n    /* \"#utility.yul\":2656:2661   */\n  dup3\n    /* \"#utility.yul\":2626:2665   */\n  tag_34\n  jump\t// in\ntag_94:\n    /* \"#utility.yul\":2599:2600   */\n  0x01\n    /* \"#utility.yul\":2592:2597   */\n  dup2\n    /* \"#utility.yul\":2588:2601   */\n  add\n    /* \"#utility.yul\":2579:2601   */\n  swap1\n  pop\n    /* \"#utility.yul\":2555:2675   */\n  jump(tag_91)\ntag_93:\n    /* \"#utility.yul\":2495:2681   */\n  pop\n  pop\n  jump\t// out\n    /* \"#utility.yul\":2687:3230   */\ntag_36:\n    /* \"#utility.yul\":2788:2790   */\n  0x1f\n    /* \"#utility.yul\":2783:2786   */\n  dup3\n    /* \"#utility.yul\":2780:2791   */\n  gt\n    /* \"#utility.yul\":2777:3223   */\n  iszero\n  tag_96\n  jumpi\n    /* \"#utility.yul\":2822:2860   */\n  tag_97\n    /* \"#utility.yul\":2854:2859   */\n  dup2\n    /* \"#utility.yul\":2822:2860   */\n  tag_24\n  jump\t// in\ntag_97:\n    /* \"#utility.yul\":2906:2935   */\n  tag_98\n    /* \"#utility.yul\":2924:2934   */\n  dup5\n    /* \"#utility.yul\":2906:2935   */\n  tag_25\n  jump\t// in\ntag_98:\n    /* \"#utility.yul\":2896:2904   */\n  dup2\n    /* \"#utility.yul\":2892:2936   */\n  add\n    /* \"#utility.yul\":3089:3091   */\n  0x20\n    /* \"#utility.yul\":3077:3087   */\n  dup6\n    /* \"#utility.yul\":3074:3092   */\n  lt\n    /* \"#utility.yul\":3071:3120   */\n  iszero\n  tag_99\n  jumpi\n    /* \"#utility.yul\":3110:3118   */\n  dup2\n    /* \"#utility.yul\":3095:3118   */\n  swap1\n  pop\n    /* \"#utility.yul\":3071:3120   */\ntag_99:\n    /* \"#utility.yul\":3133:3213   */\n  tag_100\n    /* \"#utility.yul\":3189:3211   */\n  tag_101\n    /* \"#utility.yul\":3207:3210   */\n  dup6\n    /* \"#utility.yul\":3189:3211   */\n  tag_25\n  jump\t// in\ntag_101:\n    /* \"#utility.yul\":3179:3187   */\n  dup4\n    /* \"#utility.yul\":3175:3212   */\n  add\n    /* \"#utility.yul\":3162:3173   */\n  dup3\n    /* \"#utility.yul\":3133:3213   */\n  tag_35\n  jump\t// in\ntag_100:\n    /* \"#utility.yul\":2792:3223   */\n  pop\n  pop\n    /* \"#utility.yul\":2777:3223   */\ntag_96:\n    /* \"#utility.yul\":2687:3230   */\n  pop\n  pop\n  pop\n  jump\t// out\n    /* \"#utility.yul\":3236:3353   */\ntag_37:\n    /* \"#utility.yul\":3290:3298   */\n  0x00\n    /* \"#utility.yul\":3340:3345   */\n  dup3\n    /* \"#utility.yul\":3334:3338   */\n  dup3\n    /* \"#utility.yul\":3330:3346   */\n  shr\n    /* \"#utility.yul\":3309:3346   */\n  swap1\n  pop\n    /* \"#utility.yul\":3236:3353   */\n  swap3\n  swap2\n  pop\n  pop\n  jump\t// out\n    /* \"#utility.yul\":3359:3528   */\ntag_38:\n    /* \"#utility.yul\":3403:3409   */\n  0x00\n    /* \"#utility.yul\":3436:3487   */\n  tag_104\n    /* \"#utility.yul\":3484:3485   */\n  0x00\n    /* \"#utility.yul\":3480:3486   */\n  not\n    /* \"#utility.yul\":3472:3477   */\n  dup5\n    /* \"#utility.yul\":3469:3470   */\n  0x08\n    /* \"#utility.yul\":3465:3478   */\n  mul\n    /* \"#utility.yul\":3436:3487   */\n  tag_37\n  jump\t// in\ntag_104:\n    /* \"#utility.yul\":3432:3488   */\n  not\n    /* \"#utility.yul\":3517:3521   */\n  dup1\n    /* \"#utility.yul\":3511:3515   */\n  dup4\n    /* \"#utility.yul\":3507:3522   */\n  and\n    /* \"#utility.yul\":3497:3522   */\n  swap2\n  pop\n    /* \"#utility.yul\":3410:3528   */\n  pop\n    /* \"#utility.yul\":3359:3528   */\n  swap3\n  swap2\n  pop\n  pop\n  jump\t// out\n    /* \"#utility.yul\":3533:3828   */\ntag_39:\n    /* \"#utility.yul\":3609:3613   */\n  0x00\n    /* \"#utility.yul\":3755:3784   */\n  tag_106\n    /* \"#utility.yul\":3780:3783   */\n  dup4\n    /* \"#utility.yul\":3774:3778   */\n  dup4\n    /* \"#utility.yul\":3755:3784   */\n  tag_38\n  jump\t// in\ntag_106:\n    /* \"#utility.yul\":3747:3784   */\n  swap2\n  pop\n    /* \"#utility.yul\":3817:3820   */\n  dup3\n    /* \"#utility.yul\":3814:3815   */\n  0x02\n    /* \"#utility.yul\":3810:3821   */\n  mul\n    /* \"#utility.yul\":3804:3808   */\n  dup3\n    /* \"#utility.yul\":3801:3822   */\n  or\n    /* \"#utility.yul\":3793:3822   */\n  swap1\n  pop\n    /* \"#utility.yul\":3533:3828   */\n  swap3\n  swap2\n  pop\n  pop\n  jump\t// out\n    /* \"#utility.yul\":3833:5228   */\ntag_2:\n    /* \"#utility.yul\":3950:3987   */\n  tag_108\n    /* \"#utility.yul\":3983:3986   */\n  dup3\n    /* \"#utility.yul\":3950:3987   */\n  tag_20\n  jump\t// in\ntag_108:\n    /* \"#utility.yul\":4052:4070   */\n  0xffffffffffffffff\n    /* \"#utility.yul\":4044:4050   */\n  dup2\n    /* \"#utility.yul\":4041:4071   */\n  gt\n    /* \"#utility.yul\":4038:4094   */\n  iszero\n  tag_109\n  jumpi\n    /* \"#utility.yul\":4074:4092   */\n  tag_110\n  tag_21\n  jump\t// in\ntag_110:\n    /* \"#utility.yul\":4038:4094   */\ntag_109:\n    /* \"#utility.yul\":4118:4156   */\n  tag_111\n    /* \"#utility.yul\":4150:4154   */\n  dup3\n    /* \"#utility.yul\":4144:4155   */\n  sload\n    /* \"#utility.yul\":4118:4156   */\n  tag_23\n  jump\t// in\ntag_111:\n    /* \"#utility.yul\":4203:4270   */\n  tag_112\n    /* \"#utility.yul\":4263:4269   */\n  dup3\n    /* \"#utility.yul\":4255:4261   */\n  dup3\n    /* \"#utility.yul\":4249:4253   */\n  dup6\n    /* \"#utility.yul\":4203:4270   */\n  tag_36\n  jump\t// in\ntag_112:\n    /* \"#utility.yul\":4297:4298   */\n  0x00\n    /* \"#utility.yul\":4321:4325   */\n  0x20\n    /* \"#utility.yul\":4308:4325   */\n  swap1\n  pop\n    /* \"#utility.yul\":4353:4355   */\n  0x1f\n    /* \"#utility.yul\":4345:4351   */\n  dup4\n    /* \"#utility.yul\":4342:4356   */\n  gt\n    /* \"#utility.yul\":4370:4371   */\n  0x01\n    /* \"#utility.yul\":4365:4983   */\n  dup2\n  eq\n  tag_114\n  jumpi\n    /* \"#utility.yul\":5027:5028   */\n  0x00\n    /* \"#utility.yul\":5044:5050   */\n  dup5\n    /* \"#utility.yul\":5041:5118   */\n  iszero\n  tag_115\n  jumpi\n    /* \"#utility.yul\":5093:5102   */\n  dup3\n    /* \"#utility.yul\":5088:5091   */\n  dup8\n    /* \"#utility.yul\":5084:5103   */\n  add\n    /* \"#utility.yul\":5078:5104   */\n  mload\n    /* \"#utility.yul\":5069:5104   */\n  swap1\n  pop\n    /* \"#utility.yul\":5041:5118   */\ntag_115:\n    /* \"#utility.yul\":5144:5211   */\n  tag_116\n    /* \"#utility.yul\":5204:5210   */\n  dup6\n    /* \"#utility.yul\":5197:5202   */\n  dup3\n    /* \"#utility.yul\":5144:5211   */\n  tag_39\n  jump\t// in\ntag_116:\n    /* \"#utility.yul\":5138:5142   */\n  dup7\n    /* \"#utility.yul\":5131:5212   */\n  sstore\n    /* \"#utility.yul\":5000:5222   */\n  pop\n    /* \"#utility.yul\":4335:5222   */\n  jump(tag_113)\n    /* \"#utility.yul\":4365:4983   */\ntag_114:\n    /* \"#utility.yul\":4417:4421   */\n  0x1f\n    /* \"#utility.yul\":4413:4422   */\n  not\n    /* \"#utility.yul\":4405:4411   */\n  dup5\n    /* \"#utility.yul\":4401:4423   */\n  and\n    /* \"#utility.yul\":4451:4488   */\n  tag_117\n    /* \"#utility.yul\":4483:4487   */\n  dup7\n    /* \"#utility.yul\":4451:4488   */\n  tag_24\n  jump\t// in\ntag_117:\n    /* \"#utility.yul\":4510:4511   */\n  0x00\n    /* \"#utility.yul\":4524:4732   */\ntag_118:\n    /* \"#utility.yul\":4538:4545   */\n  dup3\n    /* \"#utility.yul\":4535:4536   */\n  dup2\n    /* \"#utility.yul\":4532:4546   */\n  lt\n    /* \"#utility.yul\":4524:4732   */\n  iszero\n  tag_120\n  jumpi\n    /* \"#utility.yul\":4617:4626   */\n  dup5\n    /* \"#utility.yul\":4612:4615   */\n  dup10\n    /* \"#utility.yul\":4608:4627   */\n  add\n    /* \"#utility.yul\":4602:4628   */\n  mload\n    /* \"#utility.yul\":4594:4600   */\n  dup3\n    /* \"#utility.yul\":4587:4629   */\n  sstore\n    /* \"#utility.yul\":4668:4669   */\n  0x01\n    /* \"#utility.yul\":4660:4666   */\n  dup3\n    /* \"#utility.yul\":4656:4670   */\n  add\n    /* \"#utility.yul\":4646:4670   */\n  swap2\n  pop\n    /* \"#utility.yul\":4715:4717   */\n  0x20\n    /* \"#utility.yul\":4704:4713   */\n  dup6\n    /* \"#utility.yul\":4700:4718   */\n  add\n    /* \"#utility.yul\":4687:4718   */\n  swap5\n  pop\n    /* \"#utility.yul\":4561:4565   */\n  0x20\n    /* \"#utility.yul\":4558:4559   */\n  dup2\n    /* \"#utility.yul\":4554:4566   */\n  add\n    /* \"#utility.yul\":4549:4566   */\n  swap1\n  pop\n    /* \"#utility.yul\":4524:4732   */\n  jump(tag_118)\ntag_120:\n    /* \"#utility.yul\":4760:4766   */\n  dup7\n    /* \"#utility.yul\":4751:4758   */\n  dup4\n    /* \"#utility.yul\":4748:4767   */\n  lt\n    /* \"#utility.yul\":4745:4924   */\n  iszero\n  tag_121\n  jumpi\n    /* \"#utility.yul\":4818:4827   */\n  dup5\n    /* \"#utility.yul\":4813:4816   */\n  dup10\n    /* \"#utility.yul\":4809:4828   */\n  add\n    /* \"#utility.yul\":4803:4829   */\n  mload\n    /* \"#utility.yul\":4861:4909   */\n  tag_122\n    /* \"#utility.yul\":4903:4907   */\n  0x1f\n    /* \"#utility.yul\":4895:4901   */\n  dup10\n    /* \"#utility.yul\":4891:4908   */\n  and\n    /* \"#utility.yul\":4880:4889   */\n  dup3\n    /* \"#utility.yul\":4861:4909   */\n  tag_38\n  jump\t// in\ntag_122:\n    /* \"#utility.yul\":4853:4859   */\n  dup4\n    /* \"#utility.yul\":4846:4910   */\n  sstore\n    /* \"#utility.yul\":4768:4924   */\n  pop\n    /* \"#utility.yul\":4745:4924   */\ntag_121:\n    /* \"#utility.yul\":4970:4971   */\n  0x01\n    /* \"#utility.yul\":4966:4967   */\n  0x02\n    /* \"#utility.yul\":4958:4964   */\n  dup9\n    /* \"#utility.yul\":4954:4968   */\n  mul\n    /* \"#utility.yul\":4950:4972   */\n  add\n    /* \"#utility.yul\":4944:4948   */\n  dup9\n    /* \"#utility.yul\":4937:4973   */\n  sstore\n    /* \"#utility.yul\":4372:4983   */\n  pop\n  pop\n  pop\n    /* \"#utility.yul\":4335:5222   */\ntag_113:\n  pop\n    /* \"#utility.yul\":3925:5228   */\n  pop\n  pop\n  pop\n    /* \"#utility.yul\":3833:5228   */\n  pop\n  pop\n  jump\t// out\n    /* \"#utility.yul\":5234:5382   */\ntag_40:\n    /* \"#utility.yul\":5336:5347   */\n  0x00\n    /* \"#utility.yul\":5373:5376   */\n  dup2\n    /* \"#utility.yul\":5358:5376   */\n  swap1\n  pop\n    /* \"#utility.yul\":5234:5382   */\n  swap3\n  swap2\n  pop\n  pop\n  jump\t// out\n    /* \"#utility.yul\":5388:5549   */\ntag_41:\n    /* \"#utility.yul\":5528:5541   */\n  0x48656c6c6f20776f726c64000000000000000000000000000000000000000000\n    /* \"#utility.yul\":5524:5525   */\n  0x00\n    /* \"#utility.yul\":5516:5522   */\n  dup3\n    /* \"#utility.yul\":5512:5526   */\n  add\n    /* \"#utility.yul\":5505:5542   */\n  mstore\n    /* \"#utility.yul\":5388:5549   */\n  pop\n  jump\t// out\n    /* \"#utility.yul\":5555:5957   */\ntag_42:\n    /* \"#utility.yul\":5715:5718   */\n  0x00\n    /* \"#utility.yul\":5736:5821   */\n  tag_126\n    /* \"#utility.yul\":5818:5820   */\n  0x0b\n    /* \"#utility.yul\":5813:5816   */\n  dup4\n    /* \"#utility.yul\":5736:5821   */\n  tag_40\n  jump\t// in\ntag_126:\n    /* \"#utility.yul\":5729:5821   */\n  swap2\n  pop\n    /* \"#utility.yul\":5830:5923   */\n  tag_127\n    /* \"#utility.yul\":5919:5922   */\n  dup3\n    /* \"#utility.yul\":5830:5923   */\n  tag_41\n  jump\t// in\ntag_127:\n    /* \"#utility.yul\":5948:5950   */\n  0x0b\n    /* \"#utility.yul\":5943:5946   */\n  dup3\n    /* \"#utility.yul\":5939:5951   */\n  add\n    /* \"#utility.yul\":5932:5951   */\n  swap1\n  pop\n    /* \"#utility.yul\":5555:5957   */\n  swap2\n  swap1\n  pop\n  jump\t// out\n    /* \"#utility.yul\":5963:6042   */\ntag_43:\n    /* \"#utility.yul\":6002:6009   */\n  0x00\n    /* \"#utility.yul\":6031:6036   */\n  dup2\n    /* \"#utility.yul\":6020:6036   */\n  swap1\n  pop\n    /* \"#utility.yul\":5963:6042   */\n  swap2\n  swap1\n  pop\n  jump\t// out\n    /* \"#utility.yul\":6048:6205   */\ntag_44:\n    /* \"#utility.yul\":6153:6198   */\n  tag_130\n    /* \"#utility.yul\":6173:6197   */\n  tag_131\n    /* \"#utility.yul\":6191:6196   */\n  dup3\n    /* \"#utility.yul\":6173:6197   */\n  tag_28\n  jump\t// in\ntag_131:\n    /* \"#utility.yul\":6153:6198   */\n  tag_43\n  jump\t// in\ntag_130:\n    /* \"#utility.yul\":6148:6151   */\n  dup3\n    /* \"#utility.yul\":6141:6199   */\n  mstore\n    /* \"#utility.yul\":6048:6205   */\n  pop\n  pop\n  jump\t// out\n    /* \"#utility.yul\":6211:6337   */\ntag_45:\n    /* \"#utility.yul\":6248:6255   */\n  0x00\n    /* \"#utility.yul\":6288:6330   */\n  0xffffffffffffffffffffffffffffffffffffffff\n    /* \"#utility.yul\":6281:6286   */\n  dup3\n    /* \"#utility.yul\":6277:6331   */\n  and\n    /* \"#utility.yul\":6266:6331   */\n  swap1\n  pop\n    /* \"#utility.yul\":6211:6337   */\n  swap2\n  swap1\n  pop\n  jump\t// out\n    /* \"#utility.yul\":6343:6439   */\ntag_46:\n    /* \"#utility.yul\":6380:6387   */\n  0x00\n    /* \"#utility.yul\":6409:6433   */\n  tag_134\n    /* \"#utility.yul\":6427:6432   */\n  dup3\n    /* \"#utility.yul\":6409:6433   */\n  tag_45\n  jump\t// in\ntag_134:\n    /* \"#utility.yul\":6398:6433   */\n  swap1\n  pop\n    /* \"#utility.yul\":6343:6439   */\n  swap2\n  swap1\n  pop\n  jump\t// out\n    /* \"#utility.yul\":6445:6539   */\ntag_47:\n    /* \"#utility.yul\":6478:6486   */\n  0x00\n    /* \"#utility.yul\":6526:6531   */\n  dup2\n    /* \"#utility.yul\":6522:6524   */\n  0x60\n    /* \"#utility.yul\":6518:6532   */\n  shl\n    /* \"#utility.yul\":6497:6532   */\n  swap1\n  pop\n    /* \"#utility.yul\":6445:6539   */\n  swap2\n  swap1\n  pop\n  jump\t// out\n    /* \"#utility.yul\":6545:6639   */\ntag_48:\n    /* \"#utility.yul\":6584:6591   */\n  0x00\n    /* \"#utility.yul\":6613:6633   */\n  tag_137\n    /* \"#utility.yul\":6627:6632   */\n  dup3\n    /* \"#utility.yul\":6613:6633   */\n  tag_47\n  jump\t// in\ntag_137:\n    /* \"#utility.yul\":6602:6633   */\n  swap1\n  pop\n    /* \"#utility.yul\":6545:6639   */\n  swap2\n  swap1\n  pop\n  jump\t// out\n    /* \"#utility.yul\":6645:6745   */\ntag_49:\n    /* \"#utility.yul\":6684:6691   */\n  0x00\n    /* \"#utility.yul\":6713:6739   */\n  tag_139\n    /* \"#utility.yul\":6733:6738   */\n  dup3\n    /* \"#utility.yul\":6713:6739   */\n  tag_48\n  jump\t// in\ntag_139:\n    /* \"#utility.yul\":6702:6739   */\n  swap1\n  pop\n    /* \"#utility.yul\":6645:6745   */\n  swap2\n  swap1\n  pop\n  jump\t// out\n    /* \"#utility.yul\":6751:6908   */\ntag_50:\n    /* \"#utility.yul\":6856:6901   */\n  tag_141\n    /* \"#utility.yul\":6876:6900   */\n  tag_142\n    /* \"#utility.yul\":6894:6899   */\n  dup3\n    /* \"#utility.yul\":6876:6900   */\n  tag_46\n  jump\t// in\ntag_142:\n    /* \"#utility.yul\":6856:6901   */\n  tag_49\n  jump\t// in\ntag_141:\n    /* \"#utility.yul\":6851:6854   */\n  dup3\n    /* \"#utility.yul\":6844:6902   */\n  mstore\n    /* \"#utility.yul\":6751:6908   */\n  pop\n  pop\n  jump\t// out\n    /* \"#utility.yul\":6914:7718   */\ntag_5:\n    /* \"#utility.yul\":7183:7186   */\n  0x00\n    /* \"#utility.yul\":7205:7353   */\n  tag_144\n    /* \"#utility.yul\":7349:7352   */\n  dup3\n    /* \"#utility.yul\":7205:7353   */\n  tag_42\n  jump\t// in\ntag_144:\n    /* \"#utility.yul\":7198:7353   */\n  swap2\n  pop\n    /* \"#utility.yul\":7363:7438   */\n  tag_145\n    /* \"#utility.yul\":7434:7437   */\n  dup3\n    /* \"#utility.yul\":7425:7431   */\n  dup7\n    /* \"#utility.yul\":7363:7438   */\n  tag_44\n  jump\t// in\ntag_145:\n    /* \"#utility.yul\":7463:7465   */\n  0x20\n    /* \"#utility.yul\":7458:7461   */\n  dup3\n    /* \"#utility.yul\":7454:7466   */\n  add\n    /* \"#utility.yul\":7447:7466   */\n  swap2\n  pop\n    /* \"#utility.yul\":7476:7551   */\n  tag_146\n    /* \"#utility.yul\":7547:7550   */\n  dup3\n    /* \"#utility.yul\":7538:7544   */\n  dup6\n    /* \"#utility.yul\":7476:7551   */\n  tag_50\n  jump\t// in\ntag_146:\n    /* \"#utility.yul\":7576:7578   */\n  0x14\n    /* \"#utility.yul\":7571:7574   */\n  dup3\n    /* \"#utility.yul\":7567:7579   */\n  add\n    /* \"#utility.yul\":7560:7579   */\n  swap2\n  pop\n    /* \"#utility.yul\":7589:7664   */\n  tag_147\n    /* \"#utility.yul\":7660:7663   */\n  dup3\n    /* \"#utility.yul\":7651:7657   */\n  dup5\n    /* \"#utility.yul\":7589:7664   */\n  tag_50\n  jump\t// in\ntag_147:\n    /* \"#utility.yul\":7689:7691   */\n  0x14\n    /* \"#utility.yul\":7684:7687   */\n  dup3\n    /* \"#utility.yul\":7680:7692   */\n  add\n    /* \"#utility.yul\":7673:7692   */\n  swap2\n  pop\n    /* \"#utility.yul\":7709:7712   */\n  dup2\n    /* \"#utility.yul\":7702:7712   */\n  swap1\n  pop\n    /* \"#utility.yul\":6914:7718   */\n  swap5\n  swap4\n  pop\n  pop\n  pop\n  pop\n  jump\t// out\n    /* \"#utility.yul\":7724:8105   */\ntag_7:\n    /* \"#utility.yul\":7909:7912   */\n  0x00\n    /* \"#utility.yul\":7931:8079   */\n  tag_149\n    /* \"#utility.yul\":8075:8078   */\n  dup3\n    /* \"#utility.yul\":7931:8079   */\n  tag_42\n  jump\t// in\ntag_149:\n    /* \"#utility.yul\":7924:8079   */\n  swap2\n  pop\n    /* \"#utility.yul\":8096:8099   */\n  dup2\n    /* \"#utility.yul\":8089:8099   */\n  swap1\n  pop\n    /* \"#utility.yul\":7724:8105   */\n  swap2\n  swap1\n  pop\n  jump\t// out\n    /* \"#utility.yul\":8111:8209   */\ntag_51:\n    /* \"#utility.yul\":8162:8168   */\n  0x00\n    /* \"#utility.yul\":8196:8201   */\n  dup2\n    /* \"#utility.yul\":8190:8202   */\n  mload\n    /* \"#utility.yul\":8180:8202   */\n  swap1\n  pop\n    /* \"#utility.yul\":8111:8209   */\n  swap2\n  swap1\n  pop\n  jump\t// out\n    /* \"#utility.yul\":8215:8362   */\ntag_52:\n    /* \"#utility.yul\":8316:8327   */\n  0x00\n    /* \"#utility.yul\":8353:8356   */\n  dup2\n    /* \"#utility.yul\":8338:8356   */\n  swap1\n  pop\n    /* \"#utility.yul\":8215:8362   */\n  swap3\n  swap2\n  pop\n  pop\n  jump\t// out\n    /* \"#utility.yul\":8368:8614   */\ntag_53:\n    /* \"#utility.yul\":8449:8450   */\n  0x00\n    /* \"#utility.yul\":8459:8572   */\ntag_153:\n    /* \"#utility.yul\":8473:8479   */\n  dup4\n    /* \"#utility.yul\":8470:8471   */\n  dup2\n    /* \"#utility.yul\":8467:8480   */\n  lt\n    /* \"#utility.yul\":8459:8572   */\n  iszero\n  tag_155\n  jumpi\n    /* \"#utility.yul\":8558:8559   */\n  dup1\n    /* \"#utility.yul\":8553:8556   */\n  dup3\n    /* \"#utility.yul\":8549:8560   */\n  add\n    /* \"#utility.yul\":8543:8561   */\n  mload\n    /* \"#utility.yul\":8539:8540   */\n  dup2\n    /* \"#utility.yul\":8534:8537   */\n  dup5\n    /* \"#utility.yul\":8530:8541   */\n  add\n    /* \"#utility.yul\":8523:8562   */\n  mstore\n    /* \"#utility.yul\":8495:8497   */\n  0x20\n    /* \"#utility.yul\":8492:8493   */\n  dup2\n    /* \"#utility.yul\":8488:8498   */\n  add\n    /* \"#utility.yul\":8483:8498   */\n  swap1\n  pop\n    /* \"#utility.yul\":8459:8572   */\n  jump(tag_153)\ntag_155:\n    /* \"#utility.yul\":8606:8607   */\n  0x00\n    /* \"#utility.yul\":8597:8603   */\n  dup5\n    /* \"#utility.yul\":8592:8595   */\n  dup5\n    /* \"#utility.yul\":8588:8604   */\n  add\n    /* \"#utility.yul\":8581:8608   */\n  mstore\n    /* \"#utility.yul\":8430:8614   */\n  pop\n    /* \"#utility.yul\":8368:8614   */\n  pop\n  pop\n  pop\n  jump\t// out\n    /* \"#utility.yul\":8620:9006   */\ntag_54:\n    /* \"#utility.yul\":8724:8727   */\n  0x00\n    /* \"#utility.yul\":8752:8790   */\n  tag_157\n    /* \"#utility.yul\":8784:8789   */\n  dup3\n    /* \"#utility.yul\":8752:8790   */\n  tag_51\n  jump\t// in\ntag_157:\n    /* \"#utility.yul\":8806:8894   */\n  tag_158\n    /* \"#utility.yul\":8887:8893   */\n  dup2\n    /* \"#utility.yul\":8882:8885   */\n  dup6\n    /* \"#utility.yul\":8806:8894   */\n  tag_52\n  jump\t// in\ntag_158:\n    /* \"#utility.yul\":8799:8894   */\n  swap4\n  pop\n    /* \"#utility.yul\":8903:8968   */\n  tag_159\n    /* \"#utility.yul\":8961:8967   */\n  dup2\n    /* \"#utility.yul\":8956:8959   */\n  dup6\n    /* \"#utility.yul\":8949:8953   */\n  0x20\n    /* \"#utility.yul\":8942:8947   */\n  dup7\n    /* \"#utility.yul\":8938:8954   */\n  add\n    /* \"#utility.yul\":8903:8968   */\n  tag_53\n  jump\t// in\ntag_159:\n    /* \"#utility.yul\":8993:8999   */\n  dup1\n    /* \"#utility.yul\":8988:8991   */\n  dup5\n    /* \"#utility.yul\":8984:9000   */\n  add\n    /* \"#utility.yul\":8977:9000   */\n  swap2\n  pop\n    /* \"#utility.yul\":8728:9006   */\n  pop\n    /* \"#utility.yul\":8620:9006   */\n  swap3\n  swap2\n  pop\n  pop\n  jump\t// out\n    /* \"#utility.yul\":9012:9283   */\ntag_9:\n    /* \"#utility.yul\":9142:9145   */\n  0x00\n    /* \"#utility.yul\":9164:9257   */\n  tag_161\n    /* \"#utility.yul\":9253:9256   */\n  dup3\n    /* \"#utility.yul\":9244:9250   */\n  dup5\n    /* \"#utility.yul\":9164:9257   */\n  tag_54\n  jump\t// in\ntag_161:\n    /* \"#utility.yul\":9157:9257   */\n  swap2\n  pop\n    /* \"#utility.yul\":9274:9277   */\n  dup2\n    /* \"#utility.yul\":9267:9277   */\n  swap1\n  pop\n    /* \"#utility.yul\":9012:9283   */\n  swap3\n  swap2\n  pop\n  pop\n  jump\t// out\n    /* \"#utility.yul\":9370:9487   */\ntag_56:\n    /* \"#utility.yul\":9479:9480   */\n  0x00\n    /* \"#utility.yul\":9476:9477   */\n  dup1\n    /* \"#utility.yul\":9469:9481   */\n  revert\n    /* \"#utility.yul\":9616:9693   */\ntag_58:\n    /* \"#utility.yul\":9653:9660   */\n  0x00\n    /* \"#utility.yul\":9682:9687   */\n  dup2\n    /* \"#utility.yul\":9671:9687   */\n  swap1\n  pop\n    /* \"#utility.yul\":9616:9693   */\n  swap2\n  swap1\n  pop\n  jump\t// out\n    /* \"#utility.yul\":9699:9821   */\ntag_59:\n    /* \"#utility.yul\":9772:9796   */\n  tag_167\n    /* \"#utility.yul\":9790:9795   */\n  dup2\n    /* \"#utility.yul\":9772:9796   */\n  tag_58\n  jump\t// in\ntag_167:\n    /* \"#utility.yul\":9765:9770   */\n  dup2\n    /* \"#utility.yul\":9762:9797   */\n  eq\n    /* \"#utility.yul\":9752:9815   */\n  tag_168\n  jumpi\n    /* \"#utility.yul\":9811:9812   */\n  0x00\n    /* \"#utility.yul\":9808:9809   */\n  dup1\n    /* \"#utility.yul\":9801:9813   */\n  revert\n    /* \"#utility.yul\":9752:9815   */\ntag_168:\n    /* \"#utility.yul\":9699:9821   */\n  pop\n  jump\t// out\n    /* \"#utility.yul\":9827:9970   */\ntag_60:\n    /* \"#utility.yul\":9884:9889   */\n  0x00\n    /* \"#utility.yul\":9915:9921   */\n  dup2\n    /* \"#utility.yul\":9909:9922   */\n  mload\n    /* \"#utility.yul\":9900:9922   */\n  swap1\n  pop\n    /* \"#utility.yul\":9931:9964   */\n  tag_170\n    /* \"#utility.yul\":9958:9963   */\n  dup2\n    /* \"#utility.yul\":9931:9964   */\n  tag_59\n  jump\t// in\ntag_170:\n    /* \"#utility.yul\":9827:9970   */\n  swap3\n  swap2\n  pop\n  pop\n  jump\t// out\n    /* \"#utility.yul\":9976:10327   */\ntag_13:\n    /* \"#utility.yul\":10046:10052   */\n  0x00\n    /* \"#utility.yul\":10095:10097   */\n  0x20\n    /* \"#utility.yul\":10083:10092   */\n  dup3\n    /* \"#utility.yul\":10074:10081   */\n  dup5\n    /* \"#utility.yul\":10070:10093   */\n  sub\n    /* \"#utility.yul\":10066:10098   */\n  slt\n    /* \"#utility.yul\":10063:10182   */\n  iszero\n  tag_172\n  jumpi\n    /* \"#utility.yul\":10101:10180   */\n  tag_173\n  tag_56\n  jump\t// in\ntag_173:\n    /* \"#utility.yul\":10063:10182   */\ntag_172:\n    /* \"#utility.yul\":10221:10222   */\n  0x00\n    /* \"#utility.yul\":10246:10310   */\n  tag_174\n    /* \"#utility.yul\":10302:10309   */\n  dup5\n    /* \"#utility.yul\":10293:10299   */\n  dup3\n    /* \"#utility.yul\":10282:10291   */\n  dup6\n    /* \"#utility.yul\":10278:10300   */\n  add\n    /* \"#utility.yul\":10246:10310   */\n  tag_60\n  jump\t// in\ntag_174:\n    /* \"#utility.yul\":10236:10310   */\n  swap2\n  pop\n    /* \"#utility.yul\":10192:10320   */\n  pop\n    /* \"#utility.yul\":9976:10327   */\n  swap3\n  swap2\n  pop\n  pop\n  jump\t// out\n    /* \"Smart_Contract/contracts/2_variables_modificadores.sol\":62:1572  contract variables_modificadores {... */\ntag_19:\n  dataSize(sub_0)\n  dup1\n  dataOffset(sub_0)\n  0x00\n  codecopy\n  0x00\n  return\nstop\n\nsub_0: assembly {\n        /* \"Smart_Contract/contracts/2_variables_modificadores.sol\":62:1572  contract variables_modificadores {... */\n      mstore(0x40, 0x80)\n      callvalue\n      dup1\n      iszero\n      tag_1\n      jumpi\n      0x00\n      dup1\n      revert\n    tag_1:\n      pop\n      jumpi(tag_2, lt(calldatasize, 0x04))\n      shr(0xe0, calldataload(0x00))\n      dup1\n      0x8a054ac2\n      gt\n      tag_15\n      jumpi\n      dup1\n      0x8a054ac2\n      eq\n      tag_9\n      jumpi\n      dup1\n      0x9eea4a3a\n      eq\n      tag_10\n      jumpi\n      dup1\n      0xaf10c810\n      eq\n      tag_11\n      jumpi\n      dup1\n      0xb83d07b7\n      eq\n      tag_12\n      jumpi\n      dup1\n      0xba33ed7d\n      eq\n      tag_13\n      jumpi\n      dup1\n      0xc7109d04\n      eq\n      tag_14\n      jumpi\n      jump(tag_2)\n    tag_15:\n      dup1\n      0x2b73648d\n      eq\n      tag_3\n      jumpi\n      dup1\n      0x312eef29\n      eq\n      tag_4\n      jumpi\n      dup1\n      0x3a36399e\n      eq\n      tag_5\n      jumpi\n      dup1\n      0x4df7e3d0\n      eq\n      tag_6\n      jumpi\n      dup1\n      0x7272eea1\n      eq\n      tag_7\n      jumpi\n      dup1\n      0x7a68ef7f\n      eq\n      tag_8\n      jumpi\n    tag_2:\n      0x00\n      dup1\n      revert\n        /* \"Smart_Contract/contracts/2_variables_modificadores.sol\":715:858  bytes32 public hashing_keccak256 = keccak256(abi.encodePacked(\"Hello world\", uint(10), msg.sender, 0x5B38Da6a701c568545dCfcB03FcB875f56beddC4)) */\n    tag_3:\n      tag_16\n      tag_17\n      jump\t// in\n    tag_16:\n      mload(0x40)\n      tag_18\n      swap2\n      swap1\n      tag_19\n      jump\t// in\n    tag_18:\n      mload(0x40)\n      dup1\n      swap2\n      sub\n      swap1\n      return\n        /* \"Smart_Contract/contracts/2_variables_modificadores.sol\":482:513  bool public boolean_true = true */\n    tag_4:\n      tag_20\n      tag_21\n      jump\t// in\n    tag_20:\n      mload(0x40)\n      tag_22\n      swap2\n      swap1\n      tag_23\n      jump\t// in\n    tag_22:\n      mload(0x40)\n      dup1\n      swap2\n      sub\n      swap1\n      return\n        /* \"Smart_Contract/contracts/2_variables_modificadores.sol\":1079:1147  address public address1 = 0x5B38Da6a701c568545dCfcB03FcB875f56beddC4 */\n    tag_5:\n      tag_24\n      tag_25\n      jump\t// in\n    tag_24:\n      mload(0x40)\n      tag_26\n      swap2\n      swap1\n      tag_27\n      jump\t// in\n    tag_26:\n      mload(0x40)\n      dup1\n      swap2\n      sub\n      swap1\n      return\n        /* \"Smart_Contract/contracts/2_variables_modificadores.sol\":161:179  uint8 public b = 3 */\n    tag_6:\n      tag_28\n      tag_29\n      jump\t// in\n    tag_28:\n      mload(0x40)\n      tag_30\n      swap2\n      swap1\n      tag_31\n      jump\t// in\n    tag_30:\n      mload(0x40)\n      dup1\n      swap2\n      sub\n      swap1\n      return\n        /* \"Smart_Contract/contracts/2_variables_modificadores.sol\":1478:1563  function displayState() public view returns (options) {... */\n    tag_7:\n      tag_32\n      tag_33\n      jump\t// in\n    tag_32:\n      mload(0x40)\n      tag_34\n      swap2\n      swap1\n      tag_35\n      jump\t// in\n    tag_34:\n      mload(0x40)\n      dup1\n      swap2\n      sub\n      swap1\n      return\n        /* \"Smart_Contract/contracts/2_variables_modificadores.sol\":943:1020  bytes20 public hashing_ripemd160 = ripemd160(abi.encodePacked(\"Hello world\")) */\n    tag_8:\n      tag_36\n      tag_37\n      jump\t// in\n    tag_36:\n      mload(0x40)\n      tag_38\n      swap2\n      swap1\n      tag_39\n      jump\t// in\n    tag_38:\n      mload(0x40)\n      dup1\n      swap2\n      sub\n      swap1\n      return\n        /* \"Smart_Contract/contracts/2_variables_modificadores.sol\":245:264  int8 public d = -32 */\n    tag_9:\n      tag_40\n      tag_41\n      jump\t// in\n    tag_40:\n      mload(0x40)\n      tag_42\n      swap2\n      swap1\n      tag_43\n      jump\t// in\n    tag_42:\n      mload(0x40)\n      dup1\n      swap2\n      sub\n      swap1\n      return\n        /* \"Smart_Contract/contracts/2_variables_modificadores.sol\":1154:1190  address public address2 = msg.sender */\n    tag_10:\n      tag_44\n      tag_45\n      jump\t// in\n    tag_44:\n      mload(0x40)\n      tag_46\n      swap2\n      swap1\n      tag_27\n      jump\t// in\n    tag_46:\n      mload(0x40)\n      dup1\n      swap2\n      sub\n      swap1\n      return\n        /* \"Smart_Contract/contracts/2_variables_modificadores.sol\":1402:1466  function turnOff() public {... */\n    tag_11:\n      tag_47\n      tag_48\n      jump\t// in\n    tag_47:\n      stop\n        /* \"Smart_Contract/contracts/2_variables_modificadores.sol\":331:375  string public str_public = \"Esto es publico\" */\n    tag_12:\n      tag_49\n      tag_50\n      jump\t// in\n    tag_49:\n      mload(0x40)\n      tag_51\n      swap2\n      swap1\n      tag_52\n      jump\t// in\n    tag_51:\n      mload(0x40)\n      dup1\n      swap2\n      sub\n      swap1\n      return\n        /* \"Smart_Contract/contracts/2_variables_modificadores.sol\":1332:1394  function turnOn() public {... */\n    tag_13:\n      tag_53\n      tag_54\n      jump\t// in\n    tag_53:\n      stop\n        /* \"Smart_Contract/contracts/2_variables_modificadores.sol\":865:936  bytes32 public hashing_sha256 = sha256(abi.encodePacked(\"Hello world\")) */\n    tag_14:\n      tag_55\n      tag_56\n      jump\t// in\n    tag_55:\n      mload(0x40)\n      tag_57\n      swap2\n      swap1\n      tag_19\n      jump\t// in\n    tag_57:\n      mload(0x40)\n      dup1\n      swap2\n      sub\n      swap1\n      return\n        /* \"Smart_Contract/contracts/2_variables_modificadores.sol\":715:858  bytes32 public hashing_keccak256 = keccak256(abi.encodePacked(\"Hello world\", uint(10), msg.sender, 0x5B38Da6a701c568545dCfcB03FcB875f56beddC4)) */\n    tag_17:\n      sload(0x0b)\n      dup2\n      jump\t// out\n        /* \"Smart_Contract/contracts/2_variables_modificadores.sol\":482:513  bool public boolean_true = true */\n    tag_21:\n      0x08\n      0x01\n      swap1\n      sload\n      swap1\n      0x0100\n      exp\n      swap1\n      div\n      0xff\n      and\n      dup2\n      jump\t// out\n        /* \"Smart_Contract/contracts/2_variables_modificadores.sol\":1079:1147  address public address1 = 0x5B38Da6a701c568545dCfcB03FcB875f56beddC4 */\n    tag_25:\n      0x0f\n      0x00\n      swap1\n      sload\n      swap1\n      0x0100\n      exp\n      swap1\n      div\n      0xffffffffffffffffffffffffffffffffffffffff\n      and\n      dup2\n      jump\t// out\n        /* \"Smart_Contract/contracts/2_variables_modificadores.sol\":161:179  uint8 public b = 3 */\n    tag_29:\n      0x01\n      0x00\n      swap1\n      sload\n      swap1\n      0x0100\n      exp\n      swap1\n      div\n      0xff\n      and\n      dup2\n      jump\t// out\n        /* \"Smart_Contract/contracts/2_variables_modificadores.sol\":1478:1563  function displayState() public view returns (options) {... */\n    tag_33:\n        /* \"Smart_Contract/contracts/2_variables_modificadores.sol\":1523:1530  options */\n      0x00\n        /* \"Smart_Contract/contracts/2_variables_modificadores.sol\":1550:1555  state */\n      0x10\n      0x14\n      swap1\n      sload\n      swap1\n      0x0100\n      exp\n      swap1\n      div\n      0xff\n      and\n        /* \"Smart_Contract/contracts/2_variables_modificadores.sol\":1543:1555  return state */\n      swap1\n      pop\n        /* \"Smart_Contract/contracts/2_variables_modificadores.sol\":1478:1563  function displayState() public view returns (options) {... */\n      swap1\n      jump\t// out\n        /* \"Smart_Contract/contracts/2_variables_modificadores.sol\":943:1020  bytes20 public hashing_ripemd160 = ripemd160(abi.encodePacked(\"Hello world\")) */\n    tag_37:\n      0x0d\n      0x00\n      swap1\n      sload\n      swap1\n      0x0100\n      exp\n      swap1\n      div\n      0x60\n      shl\n      dup2\n      jump\t// out\n        /* \"Smart_Contract/contracts/2_variables_modificadores.sol\":245:264  int8 public d = -32 */\n    tag_41:\n      0x03\n      0x00\n      swap1\n      sload\n      swap1\n      0x0100\n      exp\n      swap1\n      div\n      0x00\n      signextend\n      dup2\n      jump\t// out\n        /* \"Smart_Contract/contracts/2_variables_modificadores.sol\":1154:1190  address public address2 = msg.sender */\n    tag_45:\n      0x10\n      0x00\n      swap1\n      sload\n      swap1\n      0x0100\n      exp\n      swap1\n      div\n      0xffffffffffffffffffffffffffffffffffffffff\n      and\n      dup2\n      jump\t// out\n        /* \"Smart_Contract/contracts/2_variables_modificadores.sol\":1402:1466  function turnOff() public {... */\n    tag_48:\n        /* \"Smart_Contract/contracts/2_variables_modificadores.sol\":1447:1458  options.OFF */\n      0x01\n        /* \"Smart_Contract/contracts/2_variables_modificadores.sol\":1439:1444  state */\n      0x10\n      0x14\n        /* \"Smart_Contract/contracts/2_variables_modificadores.sol\":1439:1458  state = options.OFF */\n      0x0100\n      exp\n      dup2\n      sload\n      dup2\n      0xff\n      mul\n      not\n      and\n      swap1\n      dup4\n      0x01\n      dup2\n      gt\n      iszero\n      tag_60\n      jumpi\n      tag_61\n      tag_62\n      jump\t// in\n    tag_61:\n    tag_60:\n      mul\n      or\n      swap1\n      sstore\n      pop\n        /* \"Smart_Contract/contracts/2_variables_modificadores.sol\":1402:1466  function turnOff() public {... */\n      jump\t// out\n        /* \"Smart_Contract/contracts/2_variables_modificadores.sol\":331:375  string public str_public = \"Esto es publico\" */\n    tag_50:\n      0x06\n      dup1\n      sload\n      tag_63\n      swap1\n      tag_64\n      jump\t// in\n    tag_63:\n      dup1\n      0x1f\n      add\n      0x20\n      dup1\n      swap2\n      div\n      mul\n      0x20\n      add\n      mload(0x40)\n      swap1\n      dup2\n      add\n      0x40\n      mstore\n      dup1\n      swap3\n      swap2\n      swap1\n      dup2\n      dup2\n      mstore\n      0x20\n      add\n      dup3\n      dup1\n      sload\n      tag_65\n      swap1\n      tag_64\n      jump\t// in\n    tag_65:\n      dup1\n      iszero\n      tag_66\n      jumpi\n      dup1\n      0x1f\n      lt\n      tag_67\n      jumpi\n      0x0100\n      dup1\n      dup4\n      sload\n      div\n      mul\n      dup4\n      mstore\n      swap2\n      0x20\n      add\n      swap2\n      jump(tag_66)\n    tag_67:\n      dup3\n      add\n      swap2\n      swap1\n      0x00\n      mstore\n      keccak256(0x00, 0x20)\n      swap1\n    tag_68:\n      dup2\n      sload\n      dup2\n      mstore\n      swap1\n      0x01\n      add\n      swap1\n      0x20\n      add\n      dup1\n      dup4\n      gt\n      tag_68\n      jumpi\n      dup3\n      swap1\n      sub\n      0x1f\n      and\n      dup3\n      add\n      swap2\n    tag_66:\n      pop\n      pop\n      pop\n      pop\n      pop\n      dup2\n      jump\t// out\n        /* \"Smart_Contract/contracts/2_variables_modificadores.sol\":1332:1394  function turnOn() public {... */\n    tag_54:\n        /* \"Smart_Contract/contracts/2_variables_modificadores.sol\":1376:1386  options.ON */\n      0x00\n        /* \"Smart_Contract/contracts/2_variables_modificadores.sol\":1368:1373  state */\n      0x10\n      0x14\n        /* \"Smart_Contract/contracts/2_variables_modificadores.sol\":1368:1386  state = options.ON */\n      0x0100\n      exp\n      dup2\n      sload\n      dup2\n      0xff\n      mul\n      not\n      and\n      swap1\n      dup4\n      0x01\n      dup2\n      gt\n      iszero\n      tag_70\n      jumpi\n      tag_71\n      tag_62\n      jump\t// in\n    tag_71:\n    tag_70:\n      mul\n      or\n      swap1\n      sstore\n      pop\n        /* \"Smart_Contract/contracts/2_variables_modificadores.sol\":1332:1394  function turnOn() public {... */\n      jump\t// out\n        /* \"Smart_Contract/contracts/2_variables_modificadores.sol\":865:936  bytes32 public hashing_sha256 = sha256(abi.encodePacked(\"Hello world\")) */\n    tag_56:\n      sload(0x0c)\n      dup2\n      jump\t// out\n        /* \"#utility.yul\":7:84   */\n    tag_72:\n        /* \"#utility.yul\":44:51   */\n      0x00\n        /* \"#utility.yul\":73:78   */\n      dup2\n        /* \"#utility.yul\":62:78   */\n      swap1\n      pop\n        /* \"#utility.yul\":7:84   */\n      swap2\n      swap1\n      pop\n      jump\t// out\n        /* \"#utility.yul\":90:208   */\n    tag_73:\n        /* \"#utility.yul\":177:201   */\n      tag_98\n        /* \"#utility.yul\":195:200   */\n      dup2\n        /* \"#utility.yul\":177:201   */\n      tag_72\n      jump\t// in\n    tag_98:\n        /* \"#utility.yul\":172:175   */\n      dup3\n        /* \"#utility.yul\":165:202   */\n      mstore\n        /* \"#utility.yul\":90:208   */\n      pop\n      pop\n      jump\t// out\n        /* \"#utility.yul\":214:436   */\n    tag_19:\n        /* \"#utility.yul\":307:311   */\n      0x00\n        /* \"#utility.yul\":345:347   */\n      0x20\n        /* \"#utility.yul\":334:343   */\n      dup3\n        /* \"#utility.yul\":330:348   */\n      add\n        /* \"#utility.yul\":322:348   */\n      swap1\n      pop\n        /* \"#utility.yul\":358:429   */\n      tag_100\n        /* \"#utility.yul\":426:427   */\n      0x00\n        /* \"#utility.yul\":415:424   */\n      dup4\n        /* \"#utility.yul\":411:428   */\n      add\n        /* \"#utility.yul\":402:408   */\n      dup5\n        /* \"#utility.yul\":358:429   */\n      tag_73\n      jump\t// in\n    tag_100:\n        /* \"#utility.yul\":214:436   */\n      swap3\n      swap2\n      pop\n      pop\n      jump\t// out\n        /* \"#utility.yul\":442:532   */\n    tag_74:\n        /* \"#utility.yul\":476:483   */\n      0x00\n        /* \"#utility.yul\":519:524   */\n      dup2\n        /* \"#utility.yul\":512:525   */\n      iszero\n        /* \"#utility.yul\":505:526   */\n      iszero\n        /* \"#utility.yul\":494:526   */\n      swap1\n      pop\n        /* \"#utility.yul\":442:532   */\n      swap2\n      swap1\n      pop\n      jump\t// out\n        /* \"#utility.yul\":538:647   */\n    tag_75:\n        /* \"#utility.yul\":619:640   */\n      tag_103\n        /* \"#utility.yul\":634:639   */\n      dup2\n        /* \"#utility.yul\":619:640   */\n      tag_74\n      jump\t// in\n    tag_103:\n        /* \"#utility.yul\":614:617   */\n      dup3\n        /* \"#utility.yul\":607:641   */\n      mstore\n        /* \"#utility.yul\":538:647   */\n      pop\n      pop\n      jump\t// out\n        /* \"#utility.yul\":653:863   */\n    tag_23:\n        /* \"#utility.yul\":740:744   */\n      0x00\n        /* \"#utility.yul\":778:780   */\n      0x20\n        /* \"#utility.yul\":767:776   */\n      dup3\n        /* \"#utility.yul\":763:781   */\n      add\n        /* \"#utility.yul\":755:781   */\n      swap1\n      pop\n        /* \"#utility.yul\":791:856   */\n      tag_105\n        /* \"#utility.yul\":853:854   */\n      0x00\n        /* \"#utility.yul\":842:851   */\n      dup4\n        /* \"#utility.yul\":838:855   */\n      add\n        /* \"#utility.yul\":829:835   */\n      dup5\n        /* \"#utility.yul\":791:856   */\n      tag_75\n      jump\t// in\n    tag_105:\n        /* \"#utility.yul\":653:863   */\n      swap3\n      swap2\n      pop\n      pop\n      jump\t// out\n        /* \"#utility.yul\":869:995   */\n    tag_76:\n        /* \"#utility.yul\":906:913   */\n      0x00\n        /* \"#utility.yul\":946:988   */\n      0xffffffffffffffffffffffffffffffffffffffff\n        /* \"#utility.yul\":939:944   */\n      dup3\n        /* \"#utility.yul\":935:989   */\n      and\n        /* \"#utility.yul\":924:989   */\n      swap1\n      pop\n        /* \"#utility.yul\":869:995   */\n      swap2\n      swap1\n      pop\n      jump\t// out\n        /* \"#utility.yul\":1001:1097   */\n    tag_77:\n        /* \"#utility.yul\":1038:1045   */\n      0x00\n        /* \"#utility.yul\":1067:1091   */\n      tag_108\n        /* \"#utility.yul\":1085:1090   */\n      dup3\n        /* \"#utility.yul\":1067:1091   */\n      tag_76\n      jump\t// in\n    tag_108:\n        /* \"#utility.yul\":1056:1091   */\n      swap1\n      pop\n        /* \"#utility.yul\":1001:1097   */\n      swap2\n      swap1\n      pop\n      jump\t// out\n        /* \"#utility.yul\":1103:1221   */\n    tag_78:\n        /* \"#utility.yul\":1190:1214   */\n      tag_110\n        /* \"#utility.yul\":1208:1213   */\n      dup2\n        /* \"#utility.yul\":1190:1214   */\n      tag_77\n      jump\t// in\n    tag_110:\n        /* \"#utility.yul\":1185:1188   */\n      dup3\n        /* \"#utility.yul\":1178:1215   */\n      mstore\n        /* \"#utility.yul\":1103:1221   */\n      pop\n      pop\n      jump\t// out\n        /* \"#utility.yul\":1227:1449   */\n    tag_27:\n        /* \"#utility.yul\":1320:1324   */\n      0x00\n        /* \"#utility.yul\":1358:1360   */\n      0x20\n        /* \"#utility.yul\":1347:1356   */\n      dup3\n        /* \"#utility.yul\":1343:1361   */\n      add\n        /* \"#utility.yul\":1335:1361   */\n      swap1\n      pop\n        /* \"#utility.yul\":1371:1442   */\n      tag_112\n        /* \"#utility.yul\":1439:1440   */\n      0x00\n        /* \"#utility.yul\":1428:1437   */\n      dup4\n        /* \"#utility.yul\":1424:1441   */\n      add\n        /* \"#utility.yul\":1415:1421   */\n      dup5\n        /* \"#utility.yul\":1371:1442   */\n      tag_78\n      jump\t// in\n    tag_112:\n        /* \"#utility.yul\":1227:1449   */\n      swap3\n      swap2\n      pop\n      pop\n      jump\t// out\n        /* \"#utility.yul\":1455:1541   */\n    tag_79:\n        /* \"#utility.yul\":1490:1497   */\n      0x00\n        /* \"#utility.yul\":1530:1534   */\n      0xff\n        /* \"#utility.yul\":1523:1528   */\n      dup3\n        /* \"#utility.yul\":1519:1535   */\n      and\n        /* \"#utility.yul\":1508:1535   */\n      swap1\n      pop\n        /* \"#utility.yul\":1455:1541   */\n      swap2\n      swap1\n      pop\n      jump\t// out\n        /* \"#utility.yul\":1547:1659   */\n    tag_80:\n        /* \"#utility.yul\":1630:1652   */\n      tag_115\n        /* \"#utility.yul\":1646:1651   */\n      dup2\n        /* \"#utility.yul\":1630:1652   */\n      tag_79\n      jump\t// in\n    tag_115:\n        /* \"#utility.yul\":1625:1628   */\n      dup3\n        /* \"#utility.yul\":1618:1653   */\n      mstore\n        /* \"#utility.yul\":1547:1659   */\n      pop\n      pop\n      jump\t// out\n        /* \"#utility.yul\":1665:1879   */\n    tag_31:\n        /* \"#utility.yul\":1754:1758   */\n      0x00\n        /* \"#utility.yul\":1792:1794   */\n      0x20\n        /* \"#utility.yul\":1781:1790   */\n      dup3\n        /* \"#utility.yul\":1777:1795   */\n      add\n        /* \"#utility.yul\":1769:1795   */\n      swap1\n      pop\n        /* \"#utility.yul\":1805:1872   */\n      tag_117\n        /* \"#utility.yul\":1869:1870   */\n      0x00\n        /* \"#utility.yul\":1858:1867   */\n      dup4\n        /* \"#utility.yul\":1854:1871   */\n      add\n        /* \"#utility.yul\":1845:1851   */\n      dup5\n        /* \"#utility.yul\":1805:1872   */\n      tag_80\n      jump\t// in\n    tag_117:\n        /* \"#utility.yul\":1665:1879   */\n      swap3\n      swap2\n      pop\n      pop\n      jump\t// out\n        /* \"#utility.yul\":1885:2065   */\n    tag_62:\n        /* \"#utility.yul\":1933:2010   */\n      0x4e487b7100000000000000000000000000000000000000000000000000000000\n        /* \"#utility.yul\":1930:1931   */\n      0x00\n        /* \"#utility.yul\":1923:2011   */\n      mstore\n        /* \"#utility.yul\":2030:2034   */\n      0x21\n        /* \"#utility.yul\":2027:2028   */\n      0x04\n        /* \"#utility.yul\":2020:2035   */\n      mstore\n        /* \"#utility.yul\":2054:2058   */\n      0x24\n        /* \"#utility.yul\":2051:2052   */\n      0x00\n        /* \"#utility.yul\":2044:2059   */\n      revert\n        /* \"#utility.yul\":2071:2186   */\n    tag_81:\n        /* \"#utility.yul\":2154:2155   */\n      0x02\n        /* \"#utility.yul\":2147:2152   */\n      dup2\n        /* \"#utility.yul\":2144:2156   */\n      lt\n        /* \"#utility.yul\":2134:2180   */\n      tag_120\n      jumpi\n        /* \"#utility.yul\":2160:2178   */\n      tag_121\n      tag_62\n      jump\t// in\n    tag_121:\n        /* \"#utility.yul\":2134:2180   */\n    tag_120:\n        /* \"#utility.yul\":2071:2186   */\n      pop\n      jump\t// out\n        /* \"#utility.yul\":2192:2323   */\n    tag_82:\n        /* \"#utility.yul\":2239:2246   */\n      0x00\n        /* \"#utility.yul\":2268:2273   */\n      dup2\n        /* \"#utility.yul\":2257:2273   */\n      swap1\n      pop\n        /* \"#utility.yul\":2274:2317   */\n      tag_123\n        /* \"#utility.yul\":2311:2316   */\n      dup3\n        /* \"#utility.yul\":2274:2317   */\n      tag_81\n      jump\t// in\n    tag_123:\n        /* \"#utility.yul\":2192:2323   */\n      swap2\n      swap1\n      pop\n      jump\t// out\n        /* \"#utility.yul\":2329:2460   */\n    tag_83:\n        /* \"#utility.yul\":2387:2396   */\n      0x00\n        /* \"#utility.yul\":2420:2454   */\n      tag_125\n        /* \"#utility.yul\":2448:2453   */\n      dup3\n        /* \"#utility.yul\":2420:2454   */\n      tag_82\n      jump\t// in\n    tag_125:\n        /* \"#utility.yul\":2407:2454   */\n      swap1\n      pop\n        /* \"#utility.yul\":2329:2460   */\n      swap2\n      swap1\n      pop\n      jump\t// out\n        /* \"#utility.yul\":2466:2613   */\n    tag_84:\n        /* \"#utility.yul\":2561:2606   */\n      tag_127\n        /* \"#utility.yul\":2600:2605   */\n      dup2\n        /* \"#utility.yul\":2561:2606   */\n      tag_83\n      jump\t// in\n    tag_127:\n        /* \"#utility.yul\":2556:2559   */\n      dup3\n        /* \"#utility.yul\":2549:2607   */\n      mstore\n        /* \"#utility.yul\":2466:2613   */\n      pop\n      pop\n      jump\t// out\n        /* \"#utility.yul\":2619:2857   */\n    tag_35:\n        /* \"#utility.yul\":2720:2724   */\n      0x00\n        /* \"#utility.yul\":2758:2760   */\n      0x20\n        /* \"#utility.yul\":2747:2756   */\n      dup3\n        /* \"#utility.yul\":2743:2761   */\n      add\n        /* \"#utility.yul\":2735:2761   */\n      swap1\n      pop\n        /* \"#utility.yul\":2771:2850   */\n      tag_129\n        /* \"#utility.yul\":2847:2848   */\n      0x00\n        /* \"#utility.yul\":2836:2845   */\n      dup4\n        /* \"#utility.yul\":2832:2849   */\n      add\n        /* \"#utility.yul\":2823:2829   */\n      dup5\n        /* \"#utility.yul\":2771:2850   */\n      tag_84\n      jump\t// in\n    tag_129:\n        /* \"#utility.yul\":2619:2857   */\n      swap3\n      swap2\n      pop\n      pop\n      jump\t// out\n        /* \"#utility.yul\":2863:3013   */\n    tag_85:\n        /* \"#utility.yul\":2900:2907   */\n      0x00\n        /* \"#utility.yul\":2940:3006   */\n      0xffffffffffffffffffffffffffffffffffffffff000000000000000000000000\n        /* \"#utility.yul\":2933:2938   */\n      dup3\n        /* \"#utility.yul\":2929:3007   */\n      and\n        /* \"#utility.yul\":2918:3007   */\n      swap1\n      pop\n        /* \"#utility.yul\":2863:3013   */\n      swap2\n      swap1\n      pop\n      jump\t// out\n        /* \"#utility.yul\":3019:3137   */\n    tag_86:\n        /* \"#utility.yul\":3106:3130   */\n      tag_132\n        /* \"#utility.yul\":3124:3129   */\n      dup2\n        /* \"#utility.yul\":3106:3130   */\n      tag_85\n      jump\t// in\n    tag_132:\n        /* \"#utility.yul\":3101:3104   */\n      dup3\n        /* \"#utility.yul\":3094:3131   */\n      mstore\n        /* \"#utility.yul\":3019:3137   */\n      pop\n      pop\n      jump\t// out\n        /* \"#utility.yul\":3143:3365   */\n    tag_39:\n        /* \"#utility.yul\":3236:3240   */\n      0x00\n        /* \"#utility.yul\":3274:3276   */\n      0x20\n        /* \"#utility.yul\":3263:3272   */\n      dup3\n        /* \"#utility.yul\":3259:3277   */\n      add\n        /* \"#utility.yul\":3251:3277   */\n      swap1\n      pop\n        /* \"#utility.yul\":3287:3358   */\n      tag_134\n        /* \"#utility.yul\":3355:3356   */\n      0x00\n        /* \"#utility.yul\":3344:3353   */\n      dup4\n        /* \"#utility.yul\":3340:3357   */\n      add\n        /* \"#utility.yul\":3331:3337   */\n      dup5\n        /* \"#utility.yul\":3287:3358   */\n      tag_86\n      jump\t// in\n    tag_134:\n        /* \"#utility.yul\":3143:3365   */\n      swap3\n      swap2\n      pop\n      pop\n      jump\t// out\n        /* \"#utility.yul\":3371:3460   */\n    tag_87:\n        /* \"#utility.yul\":3405:3412   */\n      0x00\n        /* \"#utility.yul\":3448:3453   */\n      dup2\n        /* \"#utility.yul\":3445:3446   */\n      0x00\n        /* \"#utility.yul\":3434:3454   */\n      signextend\n        /* \"#utility.yul\":3423:3454   */\n      swap1\n      pop\n        /* \"#utility.yul\":3371:3460   */\n      swap2\n      swap1\n      pop\n      jump\t// out\n        /* \"#utility.yul\":3466:3575   */\n    tag_88:\n        /* \"#utility.yul\":3547:3568   */\n      tag_137\n        /* \"#utility.yul\":3562:3567   */\n      dup2\n        /* \"#utility.yul\":3547:3568   */\n      tag_87\n      jump\t// in\n    tag_137:\n        /* \"#utility.yul\":3542:3545   */\n      dup3\n        /* \"#utility.yul\":3535:3569   */\n      mstore\n        /* \"#utility.yul\":3466:3575   */\n      pop\n      pop\n      jump\t// out\n        /* \"#utility.yul\":3581:3791   */\n    tag_43:\n        /* \"#utility.yul\":3668:3672   */\n      0x00\n        /* \"#utility.yul\":3706:3708   */\n      0x20\n        /* \"#utility.yul\":3695:3704   */\n      dup3\n        /* \"#utility.yul\":3691:3709   */\n      add\n        /* \"#utility.yul\":3683:3709   */\n      swap1\n      pop\n        /* \"#utility.yul\":3719:3784   */\n      tag_139\n        /* \"#utility.yul\":3781:3782   */\n      0x00\n        /* \"#utility.yul\":3770:3779   */\n      dup4\n        /* \"#utility.yul\":3766:3783   */\n      add\n        /* \"#utility.yul\":3757:3763   */\n      dup5\n        /* \"#utility.yul\":3719:3784   */\n      tag_88\n      jump\t// in\n    tag_139:\n        /* \"#utility.yul\":3581:3791   */\n      swap3\n      swap2\n      pop\n      pop\n      jump\t// out\n        /* \"#utility.yul\":3797:3896   */\n    tag_89:\n        /* \"#utility.yul\":3849:3855   */\n      0x00\n        /* \"#utility.yul\":3883:3888   */\n      dup2\n        /* \"#utility.yul\":3877:3889   */\n      mload\n        /* \"#utility.yul\":3867:3889   */\n      swap1\n      pop\n        /* \"#utility.yul\":3797:3896   */\n      swap2\n      swap1\n      pop\n      jump\t// out\n        /* \"#utility.yul\":3902:4071   */\n    tag_90:\n        /* \"#utility.yul\":3986:3997   */\n      0x00\n        /* \"#utility.yul\":4020:4026   */\n      dup3\n        /* \"#utility.yul\":4015:4018   */\n      dup3\n        /* \"#utility.yul\":4008:4027   */\n      mstore\n        /* \"#utility.yul\":4060:4064   */\n      0x20\n        /* \"#utility.yul\":4055:4058   */\n      dup3\n        /* \"#utility.yul\":4051:4065   */\n      add\n        /* \"#utility.yul\":4036:4065   */\n      swap1\n      pop\n        /* \"#utility.yul\":3902:4071   */\n      swap3\n      swap2\n      pop\n      pop\n      jump\t// out\n        /* \"#utility.yul\":4077:4323   */\n    tag_91:\n        /* \"#utility.yul\":4158:4159   */\n      0x00\n        /* \"#utility.yul\":4168:4281   */\n    tag_143:\n        /* \"#utility.yul\":4182:4188   */\n      dup4\n        /* \"#utility.yul\":4179:4180   */\n      dup2\n        /* \"#utility.yul\":4176:4189   */\n      lt\n        /* \"#utility.yul\":4168:4281   */\n      iszero\n      tag_145\n      jumpi\n        /* \"#utility.yul\":4267:4268   */\n      dup1\n        /* \"#utility.yul\":4262:4265   */\n      dup3\n        /* \"#utility.yul\":4258:4269   */\n      add\n        /* \"#utility.yul\":4252:4270   */\n      mload\n        /* \"#utility.yul\":4248:4249   */\n      dup2\n        /* \"#utility.yul\":4243:4246   */\n      dup5\n        /* \"#utility.yul\":4239:4250   */\n      add\n        /* \"#utility.yul\":4232:4271   */\n      mstore\n        /* \"#utility.yul\":4204:4206   */\n      0x20\n        /* \"#utility.yul\":4201:4202   */\n      dup2\n        /* \"#utility.yul\":4197:4207   */\n      add\n        /* \"#utility.yul\":4192:4207   */\n      swap1\n      pop\n        /* \"#utility.yul\":4168:4281   */\n      jump(tag_143)\n    tag_145:\n        /* \"#utility.yul\":4315:4316   */\n      0x00\n        /* \"#utility.yul\":4306:4312   */\n      dup5\n        /* \"#utility.yul\":4301:4304   */\n      dup5\n        /* \"#utility.yul\":4297:4313   */\n      add\n        /* \"#utility.yul\":4290:4317   */\n      mstore\n        /* \"#utility.yul\":4139:4323   */\n      pop\n        /* \"#utility.yul\":4077:4323   */\n      pop\n      pop\n      pop\n      jump\t// out\n        /* \"#utility.yul\":4329:4431   */\n    tag_92:\n        /* \"#utility.yul\":4370:4376   */\n      0x00\n        /* \"#utility.yul\":4421:4423   */\n      0x1f\n        /* \"#utility.yul\":4417:4424   */\n      not\n        /* \"#utility.yul\":4412:4414   */\n      0x1f\n        /* \"#utility.yul\":4405:4410   */\n      dup4\n        /* \"#utility.yul\":4401:4415   */\n      add\n        /* \"#utility.yul\":4397:4425   */\n      and\n        /* \"#utility.yul\":4387:4425   */\n      swap1\n      pop\n        /* \"#utility.yul\":4329:4431   */\n      swap2\n      swap1\n      pop\n      jump\t// out\n        /* \"#utility.yul\":4437:4814   */\n    tag_93:\n        /* \"#utility.yul\":4525:4528   */\n      0x00\n        /* \"#utility.yul\":4553:4592   */\n      tag_148\n        /* \"#utility.yul\":4586:4591   */\n      dup3\n        /* \"#utility.yul\":4553:4592   */\n      tag_89\n      jump\t// in\n    tag_148:\n        /* \"#utility.yul\":4608:4679   */\n      tag_149\n        /* \"#utility.yul\":4672:4678   */\n      dup2\n        /* \"#utility.yul\":4667:4670   */\n      dup6\n        /* \"#utility.yul\":4608:4679   */\n      tag_90\n      jump\t// in\n    tag_149:\n        /* \"#utility.yul\":4601:4679   */\n      swap4\n      pop\n        /* \"#utility.yul\":4688:4753   */\n      tag_150\n        /* \"#utility.yul\":4746:4752   */\n      dup2\n        /* \"#utility.yul\":4741:4744   */\n      dup6\n        /* \"#utility.yul\":4734:4738   */\n      0x20\n        /* \"#utility.yul\":4727:4732   */\n      dup7\n        /* \"#utility.yul\":4723:4739   */\n      add\n        /* \"#utility.yul\":4688:4753   */\n      tag_91\n      jump\t// in\n    tag_150:\n        /* \"#utility.yul\":4778:4807   */\n      tag_151\n        /* \"#utility.yul\":4800:4806   */\n      dup2\n        /* \"#utility.yul\":4778:4807   */\n      tag_92\n      jump\t// in\n    tag_151:\n        /* \"#utility.yul\":4773:4776   */\n      dup5\n        /* \"#utility.yul\":4769:4808   */\n      add\n        /* \"#utility.yul\":4762:4808   */\n      swap2\n      pop\n        /* \"#utility.yul\":4529:4814   */\n      pop\n        /* \"#utility.yul\":4437:4814   */\n      swap3\n      swap2\n      pop\n      pop\n      jump\t// out\n        /* \"#utility.yul\":4820:5133   */\n    tag_52:\n        /* \"#utility.yul\":4933:4937   */\n      0x00\n        /* \"#utility.yul\":4971:4973   */\n      0x20\n        /* \"#utility.yul\":4960:4969   */\n      dup3\n        /* \"#utility.yul\":4956:4974   */\n      add\n        /* \"#utility.yul\":4948:4974   */\n      swap1\n      pop\n        /* \"#utility.yul\":5020:5029   */\n      dup2\n        /* \"#utility.yul\":5014:5018   */\n      dup2\n        /* \"#utility.yul\":5010:5030   */\n      sub\n        /* \"#utility.yul\":5006:5007   */\n      0x00\n        /* \"#utility.yul\":4995:5004   */\n      dup4\n        /* \"#utility.yul\":4991:5008   */\n      add\n        /* \"#utility.yul\":4984:5031   */\n      mstore\n        /* \"#utility.yul\":5048:5126   */\n      tag_153\n        /* \"#utility.yul\":5121:5125   */\n      dup2\n        /* \"#utility.yul\":5112:5118   */\n      dup5\n        /* \"#utility.yul\":5048:5126   */\n      tag_93\n      jump\t// in\n    tag_153:\n        /* \"#utility.yul\":5040:5126   */\n      swap1\n      pop\n        /* \"#utility.yul\":4820:5133   */\n      swap3\n      swap2\n      pop\n      pop\n      jump\t// out\n        /* \"#utility.yul\":5139:5319   */\n    tag_94:\n        /* \"#utility.yul\":5187:5264   */\n      0x4e487b7100000000000000000000000000000000000000000000000000000000\n        /* \"#utility.yul\":5184:5185   */\n      0x00\n        /* \"#utility.yul\":5177:5265   */\n      mstore\n        /* \"#utility.yul\":5284:5288   */\n      0x22\n        /* \"#utility.yul\":5281:5282   */\n      0x04\n        /* \"#utility.yul\":5274:5289   */\n      mstore\n        /* \"#utility.yul\":5308:5312   */\n      0x24\n        /* \"#utility.yul\":5305:5306   */\n      0x00\n        /* \"#utility.yul\":5298:5313   */\n      revert\n        /* \"#utility.yul\":5325:5645   */\n    tag_64:\n        /* \"#utility.yul\":5369:5375   */\n      0x00\n        /* \"#utility.yul\":5406:5407   */\n      0x02\n        /* \"#utility.yul\":5400:5404   */\n      dup3\n        /* \"#utility.yul\":5396:5408   */\n      div\n        /* \"#utility.yul\":5386:5408   */\n      swap1\n      pop\n        /* \"#utility.yul\":5453:5454   */\n      0x01\n        /* \"#utility.yul\":5447:5451   */\n      dup3\n        /* \"#utility.yul\":5443:5455   */\n      and\n        /* \"#utility.yul\":5474:5492   */\n      dup1\n        /* \"#utility.yul\":5464:5545   */\n      tag_156\n      jumpi\n        /* \"#utility.yul\":5530:5534   */\n      0x7f\n        /* \"#utility.yul\":5522:5528   */\n      dup3\n        /* \"#utility.yul\":5518:5535   */\n      and\n        /* \"#utility.yul\":5508:5535   */\n      swap2\n      pop\n        /* \"#utility.yul\":5464:5545   */\n    tag_156:\n        /* \"#utility.yul\":5592:5594   */\n      0x20\n        /* \"#utility.yul\":5584:5590   */\n      dup3\n        /* \"#utility.yul\":5581:5595   */\n      lt\n        /* \"#utility.yul\":5561:5579   */\n      dup2\n        /* \"#utility.yul\":5558:5596   */\n      sub\n        /* \"#utility.yul\":5555:5639   */\n      tag_157\n      jumpi\n        /* \"#utility.yul\":5611:5629   */\n      tag_158\n      tag_94\n      jump\t// in\n    tag_158:\n        /* \"#utility.yul\":5555:5639   */\n    tag_157:\n        /* \"#utility.yul\":5376:5645   */\n      pop\n        /* \"#utility.yul\":5325:5645   */\n      swap2\n      swap1\n      pop\n      jump\t// out\n\n    auxdata: 0xa2646970667358221220d363237be9e3171eb41bc08c6048768fa5f973fc80ef38e05530bd00800a2b1864736f6c63430008120033\n}\n",
				"bytecode": {
					"linkReferences": {},
					"object": "60806040526003600160006101000a81548160ff021916908360ff1602179055507fffffffffffffffffffffffffffffffffffffffffffffffffffffffffffffffe0600360006101000a81548160ff021916908360000b60ff16021790555060416004556040518060400160405280600f81526020017f4573746f206573207075626c69636f000000000000000000000000000000000081525060069081620000a991906200058d565b506040518060400160405280600f81526020017f4573746f206573207072697661646f000000000000000000000000000000000081525060079081620000f091906200058d565b506001600860016101000a81548160ff0219169083151502179055506000600860026101000a81548160ff021916908315150217905550600a33735b38da6a701c568545dcfcb03fcb875f56beddc4604051602001620001539392919062000778565b60405160208183030381529060405280519060200120600b5560026040516020016200017f90620007c8565b6040516020818303038152906040526040516200019d919062000858565b602060405180830381855afa158015620001bb573d6000803e3d6000fd5b5050506040513d601f19601f82011682018060405250810190620001e09190620008b1565b600c556003604051602001620001f690620007c8565b60405160208183030381529060405260405162000214919062000858565b602060405180830381855afa15801562000232573d6000803e3d6000fd5b5050506040515160601b600d60006101000a81548173ffffffffffffffffffffffffffffffffffffffff021916908360601c0217905550735b38da6a701c568545dcfcb03fcb875f56beddc4600f60006101000a81548173ffffffffffffffffffffffffffffffffffffffff021916908373ffffffffffffffffffffffffffffffffffffffff16021790555033601060006101000a81548173ffffffffffffffffffffffffffffffffffffffff021916908373ffffffffffffffffffffffffffffffffffffffff1602179055503480156200030c57600080fd5b50620008e3565b600081519050919050565b7f4e487b7100000000000000000000000000000000000000000000000000000000600052604160045260246000fd5b7f4e487b7100000000000000000000000000000000000000000000000000000000600052602260045260246000fd5b600060028204905060018216806200039557607f821691505b602082108103620003ab57620003aa6200034d565b5b50919050565b60008190508160005260206000209050919050565b60006020601f8301049050919050565b600082821b905092915050565b600060088302620004157fffffffffffffffffffffffffffffffffffffffffffffffffffffffffffffffff82620003d6565b620004218683620003d6565b95508019841693508086168417925050509392505050565b6000819050919050565b6000819050919050565b60006200046e62000468620004628462000439565b62000443565b62000439565b9050919050565b6000819050919050565b6200048a836200044d565b620004a2620004998262000475565b848454620003e3565b825550505050565b600090565b620004b9620004aa565b620004c68184846200047f565b505050565b5b81811015620004ee57620004e2600082620004af565b600181019050620004cc565b5050565b601f8211156200053d576200050781620003b1565b6200051284620003c6565b8101602085101562000522578190505b6200053a6200053185620003c6565b830182620004cb565b50505b505050565b600082821c905092915050565b6000620005626000198460080262000542565b1980831691505092915050565b60006200057d83836200054f565b9150826002028217905092915050565b620005988262000313565b67ffffffffffffffff811115620005b457620005b36200031e565b5b620005c082546200037c565b620005cd828285620004f2565b600060209050601f831160018114620006055760008415620005f0578287015190505b620005fc85826200056f565b8655506200066c565b601f1984166200061586620003b1565b60005b828110156200063f5784890151825560018201915060208501945060208101905062000618565b868310156200065f57848901516200065b601f8916826200054f565b8355505b6001600288020188555050505b505050505050565b600081905092915050565b7f48656c6c6f20776f726c64000000000000000000000000000000000000000000600082015250565b6000620006b7600b8362000674565b9150620006c4826200067f565b600b82019050919050565b6000819050919050565b620006ee620006e88262000439565b620006cf565b82525050565b600073ffffffffffffffffffffffffffffffffffffffff82169050919050565b60006200072182620006f4565b9050919050565b60008160601b9050919050565b6000620007428262000728565b9050919050565b6000620007568262000735565b9050919050565b620007726200076c8262000714565b62000749565b82525050565b60006200078582620006a8565b9150620007938286620006d9565b602082019150620007a582856200075d565b601482019150620007b782846200075d565b601482019150819050949350505050565b6000620007d582620006a8565b9150819050919050565b600081519050919050565b600081905092915050565b60005b8381101562000815578082015181840152602081019050620007f8565b60008484015250505050565b60006200082e82620007df565b6200083a8185620007ea565b93506200084c818560208601620007f5565b80840191505092915050565b600062000866828462000821565b915081905092915050565b600080fd5b6000819050919050565b6200088b8162000876565b81146200089757600080fd5b50565b600081519050620008ab8162000880565b92915050565b600060208284031215620008ca57620008c962000871565b5b6000620008da848285016200089a565b91505092915050565b61070080620008f36000396000f3fe608060405234801561001057600080fd5b50600436106100b45760003560e01c80638a054ac2116100715780638a054ac21461016d5780639eea4a3a1461018b578063af10c810146101a9578063b83d07b7146101b3578063ba33ed7d146101d1578063c7109d04146101db576100b4565b80632b73648d146100b9578063312eef29146100d75780633a36399e146100f55780634df7e3d0146101135780637272eea1146101315780637a68ef7f1461014f575b600080fd5b6100c16101f9565b6040516100ce91906103b5565b60405180910390f35b6100df6101ff565b6040516100ec91906103eb565b60405180910390f35b6100fd610212565b60405161010a9190610447565b60405180910390f35b61011b610238565b604051610128919061047e565b60405180910390f35b61013961024b565b6040516101469190610510565b60405180910390f35b610157610262565b6040516101649190610566565b60405180910390f35b610175610275565b604051610182919061059d565b60405180910390f35b610193610288565b6040516101a09190610447565b60405180910390f35b6101b16102ae565b005b6101bb6102db565b6040516101c89190610648565b60405180910390f35b6101d9610369565b005b6101e3610396565b6040516101f091906103b5565b60405180910390f35b600b5481565b600860019054906101000a900460ff1681565b600f60009054906101000a900473ffffffffffffffffffffffffffffffffffffffff1681565b600160009054906101000a900460ff1681565b6000601060149054906101000a900460ff16905090565b600d60009054906101000a900460601b81565b600360009054906101000a900460000b81565b601060009054906101000a900473ffffffffffffffffffffffffffffffffffffffff1681565b6001601060146101000a81548160ff021916908360018111156102d4576102d3610499565b5b0217905550565b600680546102e890610699565b80601f016020809104026020016040519081016040528092919081815260200182805461031490610699565b80156103615780601f1061033657610100808354040283529160200191610361565b820191906000526020600020905b81548152906001019060200180831161034457829003601f168201915b505050505081565b6000601060146101000a81548160ff0219169083600181111561038f5761038e610499565b5b0217905550565b600c5481565b6000819050919050565b6103af8161039c565b82525050565b60006020820190506103ca60008301846103a6565b92915050565b60008115159050919050565b6103e5816103d0565b82525050565b600060208201905061040060008301846103dc565b92915050565b600073ffffffffffffffffffffffffffffffffffffffff82169050919050565b600061043182610406565b9050919050565b61044181610426565b82525050565b600060208201905061045c6000830184610438565b92915050565b600060ff82169050919050565b61047881610462565b82525050565b6000602082019050610493600083018461046f565b92915050565b7f4e487b7100000000000000000000000000000000000000000000000000000000600052602160045260246000fd5b600281106104d9576104d8610499565b5b50565b60008190506104ea826104c8565b919050565b60006104fa826104dc565b9050919050565b61050a816104ef565b82525050565b60006020820190506105256000830184610501565b92915050565b60007fffffffffffffffffffffffffffffffffffffffff00000000000000000000000082169050919050565b6105608161052b565b82525050565b600060208201905061057b6000830184610557565b92915050565b60008160000b9050919050565b61059781610581565b82525050565b60006020820190506105b2600083018461058e565b92915050565b600081519050919050565b600082825260208201905092915050565b60005b838110156105f25780820151818401526020810190506105d7565b60008484015250505050565b6000601f19601f8301169050919050565b600061061a826105b8565b61062481856105c3565b93506106348185602086016105d4565b61063d816105fe565b840191505092915050565b60006020820190508181036000830152610662818461060f565b905092915050565b7f4e487b7100000000000000000000000000000000000000000000000000000000600052602260045260246000fd5b600060028204905060018216806106b157607f821691505b6020821081036106c4576106c361066a565b5b5091905056fea2646970667358221220d363237be9e3171eb41bc08c6048768fa5f973fc80ef38e05530bd00800a2b1864736f6c63430008120033",
					"opcodes": "PUSH1 0x80 PUSH1 0x40 MSTORE PUSH1 0x3 PUSH1 0x1 PUSH1 0x0 PUSH2 0x100 EXP DUP2 SLOAD DUP2 PUSH1 0xFF MUL NOT AND SWAP1 DUP4 PUSH1 0xFF AND MUL OR SWAP1 SSTORE POP PUSH32 0xFFFFFFFFFFFFFFFFFFFFFFFFFFFFFFFFFFFFFFFFFFFFFFFFFFFFFFFFFFFFFFE0 PUSH1 0x3 PUSH1 0x0 PUSH2 0x100 EXP DUP2 SLOAD DUP2 PUSH1 0xFF MUL NOT AND SWAP1 DUP4 PUSH1 0x0 SIGNEXTEND PUSH1 0xFF AND MUL OR SWAP1 SSTORE POP PUSH1 0x41 PUSH1 0x4 SSTORE PUSH1 0x40 MLOAD DUP1 PUSH1 0x40 ADD PUSH1 0x40 MSTORE DUP1 PUSH1 0xF DUP2 MSTORE PUSH1 0x20 ADD PUSH32 0x4573746F206573207075626C69636F0000000000000000000000000000000000 DUP2 MSTORE POP PUSH1 0x6 SWAP1 DUP2 PUSH3 0xA9 SWAP2 SWAP1 PUSH3 0x58D JUMP JUMPDEST POP PUSH1 0x40 MLOAD DUP1 PUSH1 0x40 ADD PUSH1 0x40 MSTORE DUP1 PUSH1 0xF DUP2 MSTORE PUSH1 0x20 ADD PUSH32 0x4573746F206573207072697661646F0000000000000000000000000000000000 DUP2 MSTORE POP PUSH1 0x7 SWAP1 DUP2 PUSH3 0xF0 SWAP2 SWAP1 PUSH3 0x58D JUMP JUMPDEST POP PUSH1 0x1 PUSH1 0x8 PUSH1 0x1 PUSH2 0x100 EXP DUP2 SLOAD DUP2 PUSH1 0xFF MUL NOT AND SWAP1 DUP4 ISZERO ISZERO MUL OR SWAP1 SSTORE POP PUSH1 0x0 PUSH1 0x8 PUSH1 0x2 PUSH2 0x100 EXP DUP2 SLOAD DUP2 PUSH1 0xFF MUL NOT AND SWAP1 DUP4 ISZERO ISZERO MUL OR SWAP1 SSTORE POP PUSH1 0xA CALLER PUSH20 0x5B38DA6A701C568545DCFCB03FCB875F56BEDDC4 PUSH1 0x40 MLOAD PUSH1 0x20 ADD PUSH3 0x153 SWAP4 SWAP3 SWAP2 SWAP1 PUSH3 0x778 JUMP JUMPDEST PUSH1 0x40 MLOAD PUSH1 0x20 DUP2 DUP4 SUB SUB DUP2 MSTORE SWAP1 PUSH1 0x40 MSTORE DUP1 MLOAD SWAP1 PUSH1 0x20 ADD KECCAK256 PUSH1 0xB SSTORE PUSH1 0x2 PUSH1 0x40 MLOAD PUSH1 0x20 ADD PUSH3 0x17F SWAP1 PUSH3 0x7C8 JUMP JUMPDEST PUSH1 0x40 MLOAD PUSH1 0x20 DUP2 DUP4 SUB SUB DUP2 MSTORE SWAP1 PUSH1 0x40 MSTORE PUSH1 0x40 MLOAD PUSH3 0x19D SWAP2 SWAP1 PUSH3 0x858 JUMP JUMPDEST PUSH1 0x20 PUSH1 0x40 MLOAD DUP1 DUP4 SUB DUP2 DUP6 GAS STATICCALL ISZERO DUP1 ISZERO PUSH3 0x1BB JUMPI RETURNDATASIZE PUSH1 0x0 DUP1 RETURNDATACOPY RETURNDATASIZE PUSH1 0x0 REVERT JUMPDEST POP POP POP PUSH1 0x40 MLOAD RETURNDATASIZE PUSH1 0x1F NOT PUSH1 0x1F DUP3 ADD AND DUP3 ADD DUP1 PUSH1 0x40 MSTORE POP DUP2 ADD SWAP1 PUSH3 0x1E0 SWAP2 SWAP1 PUSH3 0x8B1 JUMP JUMPDEST PUSH1 0xC SSTORE PUSH1 0x3 PUSH1 0x40 MLOAD PUSH1 0x20 ADD PUSH3 0x1F6 SWAP1 PUSH3 0x7C8 JUMP JUMPDEST PUSH1 0x40 MLOAD PUSH1 0x20 DUP2 DUP4 SUB SUB DUP2 MSTORE SWAP1 PUSH1 0x40 MSTORE PUSH1 0x40 MLOAD PUSH3 0x214 SWAP2 SWAP1 PUSH3 0x858 JUMP JUMPDEST PUSH1 0x20 PUSH1 0x40 MLOAD DUP1 DUP4 SUB DUP2 DUP6 GAS STATICCALL ISZERO DUP1 ISZERO PUSH3 0x232 JUMPI RETURNDATASIZE PUSH1 0x0 DUP1 RETURNDATACOPY RETURNDATASIZE PUSH1 0x0 REVERT JUMPDEST POP POP POP PUSH1 0x40 MLOAD MLOAD PUSH1 0x60 SHL PUSH1 0xD PUSH1 0x0 PUSH2 0x100 EXP DUP2 SLOAD DUP2 PUSH20 0xFFFFFFFFFFFFFFFFFFFFFFFFFFFFFFFFFFFFFFFF MUL NOT AND SWAP1 DUP4 PUSH1 0x60 SHR MUL OR SWAP1 SSTORE POP PUSH20 0x5B38DA6A701C568545DCFCB03FCB875F56BEDDC4 PUSH1 0xF PUSH1 0x0 PUSH2 0x100 EXP DUP2 SLOAD DUP2 PUSH20 0xFFFFFFFFFFFFFFFFFFFFFFFFFFFFFFFFFFFFFFFF MUL NOT AND SWAP1 DUP4 PUSH20 0xFFFFFFFFFFFFFFFFFFFFFFFFFFFFFFFFFFFFFFFF AND MUL OR SWAP1 SSTORE POP CALLER PUSH1 0x10 PUSH1 0x0 PUSH2 0x100 EXP DUP2 SLOAD DUP2 PUSH20 0xFFFFFFFFFFFFFFFFFFFFFFFFFFFFFFFFFFFFFFFF MUL NOT AND SWAP1 DUP4 PUSH20 0xFFFFFFFFFFFFFFFFFFFFFFFFFFFFFFFFFFFFFFFF AND MUL OR SWAP1 SSTORE POP CALLVALUE DUP1 ISZERO PUSH3 0x30C JUMPI PUSH1 0x0 DUP1 REVERT JUMPDEST POP PUSH3 0x8E3 JUMP JUMPDEST PUSH1 0x0 DUP2 MLOAD SWAP1 POP SWAP2 SWAP1 POP JUMP JUMPDEST PUSH32 0x4E487B7100000000000000000000000000000000000000000000000000000000 PUSH1 0x0 MSTORE PUSH1 0x41 PUSH1 0x4 MSTORE PUSH1 0x24 PUSH1 0x0 REVERT JUMPDEST PUSH32 0x4E487B7100000000000000000000000000000000000000000000000000000000 PUSH1 0x0 MSTORE PUSH1 0x22 PUSH1 0x4 MSTORE PUSH1 0x24 PUSH1 0x0 REVERT JUMPDEST PUSH1 0x0 PUSH1 0x2 DUP3 DIV SWAP1 POP PUSH1 0x1 DUP3 AND DUP1 PUSH3 0x395 JUMPI PUSH1 0x7F DUP3 AND SWAP2 POP JUMPDEST PUSH1 0x20 DUP3 LT DUP2 SUB PUSH3 0x3AB JUMPI PUSH3 0x3AA PUSH3 0x34D JUMP JUMPDEST JUMPDEST POP SWAP2 SWAP1 POP JUMP JUMPDEST PUSH1 0x0 DUP2 SWAP1 POP DUP2 PUSH1 0x0 MSTORE PUSH1 0x20 PUSH1 0x0 KECCAK256 SWAP1 POP SWAP2 SWAP1 POP JUMP JUMPDEST PUSH1 0x0 PUSH1 0x20 PUSH1 0x1F DUP4 ADD DIV SWAP1 POP SWAP2 SWAP1 POP JUMP JUMPDEST PUSH1 0x0 DUP3 DUP3 SHL SWAP1 POP SWAP3 SWAP2 POP POP JUMP JUMPDEST PUSH1 0x0 PUSH1 0x8 DUP4 MUL PUSH3 0x415 PUSH32 0xFFFFFFFFFFFFFFFFFFFFFFFFFFFFFFFFFFFFFFFFFFFFFFFFFFFFFFFFFFFFFFFF DUP3 PUSH3 0x3D6 JUMP JUMPDEST PUSH3 0x421 DUP7 DUP4 PUSH3 0x3D6 JUMP JUMPDEST SWAP6 POP DUP1 NOT DUP5 AND SWAP4 POP DUP1 DUP7 AND DUP5 OR SWAP3 POP POP POP SWAP4 SWAP3 POP POP POP JUMP JUMPDEST PUSH1 0x0 DUP2 SWAP1 POP SWAP2 SWAP1 POP JUMP JUMPDEST PUSH1 0x0 DUP2 SWAP1 POP SWAP2 SWAP1 POP JUMP JUMPDEST PUSH1 0x0 PUSH3 0x46E PUSH3 0x468 PUSH3 0x462 DUP5 PUSH3 0x439 JUMP JUMPDEST PUSH3 0x443 JUMP JUMPDEST PUSH3 0x439 JUMP JUMPDEST SWAP1 POP SWAP2 SWAP1 POP JUMP JUMPDEST PUSH1 0x0 DUP2 SWAP1 POP SWAP2 SWAP1 POP JUMP JUMPDEST PUSH3 0x48A DUP4 PUSH3 0x44D JUMP JUMPDEST PUSH3 0x4A2 PUSH3 0x499 DUP3 PUSH3 0x475 JUMP JUMPDEST DUP5 DUP5 SLOAD PUSH3 0x3E3 JUMP JUMPDEST DUP3 SSTORE POP POP POP POP JUMP JUMPDEST PUSH1 0x0 SWAP1 JUMP JUMPDEST PUSH3 0x4B9 PUSH3 0x4AA JUMP JUMPDEST PUSH3 0x4C6 DUP2 DUP5 DUP5 PUSH3 0x47F JUMP JUMPDEST POP POP POP JUMP JUMPDEST JUMPDEST DUP2 DUP2 LT ISZERO PUSH3 0x4EE JUMPI PUSH3 0x4E2 PUSH1 0x0 DUP3 PUSH3 0x4AF JUMP JUMPDEST PUSH1 0x1 DUP2 ADD SWAP1 POP PUSH3 0x4CC JUMP JUMPDEST POP POP JUMP JUMPDEST PUSH1 0x1F DUP3 GT ISZERO PUSH3 0x53D JUMPI PUSH3 0x507 DUP2 PUSH3 0x3B1 JUMP JUMPDEST PUSH3 0x512 DUP5 PUSH3 0x3C6 JUMP JUMPDEST DUP2 ADD PUSH1 0x20 DUP6 LT ISZERO PUSH3 0x522 JUMPI DUP2 SWAP1 POP JUMPDEST PUSH3 0x53A PUSH3 0x531 DUP6 PUSH3 0x3C6 JUMP JUMPDEST DUP4 ADD DUP3 PUSH3 0x4CB JUMP JUMPDEST POP POP JUMPDEST POP POP POP JUMP JUMPDEST PUSH1 0x0 DUP3 DUP3 SHR SWAP1 POP SWAP3 SWAP2 POP POP JUMP JUMPDEST PUSH1 0x0 PUSH3 0x562 PUSH1 0x0 NOT DUP5 PUSH1 0x8 MUL PUSH3 0x542 JUMP JUMPDEST NOT DUP1 DUP4 AND SWAP2 POP POP SWAP3 SWAP2 POP POP JUMP JUMPDEST PUSH1 0x0 PUSH3 0x57D DUP4 DUP4 PUSH3 0x54F JUMP JUMPDEST SWAP2 POP DUP3 PUSH1 0x2 MUL DUP3 OR SWAP1 POP SWAP3 SWAP2 POP POP JUMP JUMPDEST PUSH3 0x598 DUP3 PUSH3 0x313 JUMP JUMPDEST PUSH8 0xFFFFFFFFFFFFFFFF DUP2 GT ISZERO PUSH3 0x5B4 JUMPI PUSH3 0x5B3 PUSH3 0x31E JUMP JUMPDEST JUMPDEST PUSH3 0x5C0 DUP3 SLOAD PUSH3 0x37C JUMP JUMPDEST PUSH3 0x5CD DUP3 DUP3 DUP6 PUSH3 0x4F2 JUMP JUMPDEST PUSH1 0x0 PUSH1 0x20 SWAP1 POP PUSH1 0x1F DUP4 GT PUSH1 0x1 DUP2 EQ PUSH3 0x605 JUMPI PUSH1 0x0 DUP5 ISZERO PUSH3 0x5F0 JUMPI DUP3 DUP8 ADD MLOAD SWAP1 POP JUMPDEST PUSH3 0x5FC DUP6 DUP3 PUSH3 0x56F JUMP JUMPDEST DUP7 SSTORE POP PUSH3 0x66C JUMP JUMPDEST PUSH1 0x1F NOT DUP5 AND PUSH3 0x615 DUP7 PUSH3 0x3B1 JUMP JUMPDEST PUSH1 0x0 JUMPDEST DUP3 DUP2 LT ISZERO PUSH3 0x63F JUMPI DUP5 DUP10 ADD MLOAD DUP3 SSTORE PUSH1 0x1 DUP3 ADD SWAP2 POP PUSH1 0x20 DUP6 ADD SWAP5 POP PUSH1 0x20 DUP2 ADD SWAP1 POP PUSH3 0x618 JUMP JUMPDEST DUP7 DUP4 LT ISZERO PUSH3 0x65F JUMPI DUP5 DUP10 ADD MLOAD PUSH3 0x65B PUSH1 0x1F DUP10 AND DUP3 PUSH3 0x54F JUMP JUMPDEST DUP4 SSTORE POP JUMPDEST PUSH1 0x1 PUSH1 0x2 DUP9 MUL ADD DUP9 SSTORE POP POP POP JUMPDEST POP POP POP POP POP POP JUMP JUMPDEST PUSH1 0x0 DUP2 SWAP1 POP SWAP3 SWAP2 POP POP JUMP JUMPDEST PUSH32 0x48656C6C6F20776F726C64000000000000000000000000000000000000000000 PUSH1 0x0 DUP3 ADD MSTORE POP JUMP JUMPDEST PUSH1 0x0 PUSH3 0x6B7 PUSH1 0xB DUP4 PUSH3 0x674 JUMP JUMPDEST SWAP2 POP PUSH3 0x6C4 DUP3 PUSH3 0x67F JUMP JUMPDEST PUSH1 0xB DUP3 ADD SWAP1 POP SWAP2 SWAP1 POP JUMP JUMPDEST PUSH1 0x0 DUP2 SWAP1 POP SWAP2 SWAP1 POP JUMP JUMPDEST PUSH3 0x6EE PUSH3 0x6E8 DUP3 PUSH3 0x439 JUMP JUMPDEST PUSH3 0x6CF JUMP JUMPDEST DUP3 MSTORE POP POP JUMP JUMPDEST PUSH1 0x0 PUSH20 0xFFFFFFFFFFFFFFFFFFFFFFFFFFFFFFFFFFFFFFFF DUP3 AND SWAP1 POP SWAP2 SWAP1 POP JUMP JUMPDEST PUSH1 0x0 PUSH3 0x721 DUP3 PUSH3 0x6F4 JUMP JUMPDEST SWAP1 POP SWAP2 SWAP1 POP JUMP JUMPDEST PUSH1 0x0 DUP2 PUSH1 0x60 SHL SWAP1 POP SWAP2 SWAP1 POP JUMP JUMPDEST PUSH1 0x0 PUSH3 0x742 DUP3 PUSH3 0x728 JUMP JUMPDEST SWAP1 POP SWAP2 SWAP1 POP JUMP JUMPDEST PUSH1 0x0 PUSH3 0x756 DUP3 PUSH3 0x735 JUMP JUMPDEST SWAP1 POP SWAP2 SWAP1 POP JUMP JUMPDEST PUSH3 0x772 PUSH3 0x76C DUP3 PUSH3 0x714 JUMP JUMPDEST PUSH3 0x749 JUMP JUMPDEST DUP3 MSTORE POP POP JUMP JUMPDEST PUSH1 0x0 PUSH3 0x785 DUP3 PUSH3 0x6A8 JUMP JUMPDEST SWAP2 POP PUSH3 0x793 DUP3 DUP7 PUSH3 0x6D9 JUMP JUMPDEST PUSH1 0x20 DUP3 ADD SWAP2 POP PUSH3 0x7A5 DUP3 DUP6 PUSH3 0x75D JUMP JUMPDEST PUSH1 0x14 DUP3 ADD SWAP2 POP PUSH3 0x7B7 DUP3 DUP5 PUSH3 0x75D JUMP JUMPDEST PUSH1 0x14 DUP3 ADD SWAP2 POP DUP2 SWAP1 POP SWAP5 SWAP4 POP POP POP POP JUMP JUMPDEST PUSH1 0x0 PUSH3 0x7D5 DUP3 PUSH3 0x6A8 JUMP JUMPDEST SWAP2 POP DUP2 SWAP1 POP SWAP2 SWAP1 POP JUMP JUMPDEST PUSH1 0x0 DUP2 MLOAD SWAP1 POP SWAP2 SWAP1 POP JUMP JUMPDEST PUSH1 0x0 DUP2 SWAP1 POP SWAP3 SWAP2 POP POP JUMP JUMPDEST PUSH1 0x0 JUMPDEST DUP4 DUP2 LT ISZERO PUSH3 0x815 JUMPI DUP1 DUP3 ADD MLOAD DUP2 DUP5 ADD MSTORE PUSH1 0x20 DUP2 ADD SWAP1 POP PUSH3 0x7F8 JUMP JUMPDEST PUSH1 0x0 DUP5 DUP5 ADD MSTORE POP POP POP POP JUMP JUMPDEST PUSH1 0x0 PUSH3 0x82E DUP3 PUSH3 0x7DF JUMP JUMPDEST PUSH3 0x83A DUP2 DUP6 PUSH3 0x7EA JUMP JUMPDEST SWAP4 POP PUSH3 0x84C DUP2 DUP6 PUSH1 0x20 DUP7 ADD PUSH3 0x7F5 JUMP JUMPDEST DUP1 DUP5 ADD SWAP2 POP POP SWAP3 SWAP2 POP POP JUMP JUMPDEST PUSH1 0x0 PUSH3 0x866 DUP3 DUP5 PUSH3 0x821 JUMP JUMPDEST SWAP2 POP DUP2 SWAP1 POP SWAP3 SWAP2 POP POP JUMP JUMPDEST PUSH1 0x0 DUP1 REVERT JUMPDEST PUSH1 0x0 DUP2 SWAP1 POP SWAP2 SWAP1 POP JUMP JUMPDEST PUSH3 0x88B DUP2 PUSH3 0x876 JUMP JUMPDEST DUP2 EQ PUSH3 0x897 JUMPI PUSH1 0x0 DUP1 REVERT JUMPDEST POP JUMP JUMPDEST PUSH1 0x0 DUP2 MLOAD SWAP1 POP PUSH3 0x8AB DUP2 PUSH3 0x880 JUMP JUMPDEST SWAP3 SWAP2 POP POP JUMP JUMPDEST PUSH1 0x0 PUSH1 0x20 DUP3 DUP5 SUB SLT ISZERO PUSH3 0x8CA JUMPI PUSH3 0x8C9 PUSH3 0x871 JUMP JUMPDEST JUMPDEST PUSH1 0x0 PUSH3 0x8DA DUP5 DUP3 DUP6 ADD PUSH3 0x89A JUMP JUMPDEST SWAP2 POP POP SWAP3 SWAP2 POP POP JUMP JUMPDEST PUSH2 0x700 DUP1 PUSH3 0x8F3 PUSH1 0x0 CODECOPY PUSH1 0x0 RETURN INVALID PUSH1 0x80 PUSH1 0x40 MSTORE CALLVALUE DUP1 ISZERO PUSH2 0x10 JUMPI PUSH1 0x0 DUP1 REVERT JUMPDEST POP PUSH1 0x4 CALLDATASIZE LT PUSH2 0xB4 JUMPI PUSH1 0x0 CALLDATALOAD PUSH1 0xE0 SHR DUP1 PUSH4 0x8A054AC2 GT PUSH2 0x71 JUMPI DUP1 PUSH4 0x8A054AC2 EQ PUSH2 0x16D JUMPI DUP1 PUSH4 0x9EEA4A3A EQ PUSH2 0x18B JUMPI DUP1 PUSH4 0xAF10C810 EQ PUSH2 0x1A9 JUMPI DUP1 PUSH4 0xB83D07B7 EQ PUSH2 0x1B3 JUMPI DUP1 PUSH4 0xBA33ED7D EQ PUSH2 0x1D1 JUMPI DUP1 PUSH4 0xC7109D04 EQ PUSH2 0x1DB JUMPI PUSH2 0xB4 JUMP JUMPDEST DUP1 PUSH4 0x2B73648D EQ PUSH2 0xB9 JUMPI DUP1 PUSH4 0x312EEF29 EQ PUSH2 0xD7 JUMPI DUP1 PUSH4 0x3A36399E EQ PUSH2 0xF5 JUMPI DUP1 PUSH4 0x4DF7E3D0 EQ PUSH2 0x113 JUMPI DUP1 PUSH4 0x7272EEA1 EQ PUSH2 0x131 JUMPI DUP1 PUSH4 0x7A68EF7F EQ PUSH2 0x14F JUMPI JUMPDEST PUSH1 0x0 DUP1 REVERT JUMPDEST PUSH2 0xC1 PUSH2 0x1F9 JUMP JUMPDEST PUSH1 0x40 MLOAD PUSH2 0xCE SWAP2 SWAP1 PUSH2 0x3B5 JUMP JUMPDEST PUSH1 0x40 MLOAD DUP1 SWAP2 SUB SWAP1 RETURN JUMPDEST PUSH2 0xDF PUSH2 0x1FF JUMP JUMPDEST PUSH1 0x40 MLOAD PUSH2 0xEC SWAP2 SWAP1 PUSH2 0x3EB JUMP JUMPDEST PUSH1 0x40 MLOAD DUP1 SWAP2 SUB SWAP1 RETURN JUMPDEST PUSH2 0xFD PUSH2 0x212 JUMP JUMPDEST PUSH1 0x40 MLOAD PUSH2 0x10A SWAP2 SWAP1 PUSH2 0x447 JUMP JUMPDEST PUSH1 0x40 MLOAD DUP1 SWAP2 SUB SWAP1 RETURN JUMPDEST PUSH2 0x11B PUSH2 0x238 JUMP JUMPDEST PUSH1 0x40 MLOAD PUSH2 0x128 SWAP2 SWAP1 PUSH2 0x47E JUMP JUMPDEST PUSH1 0x40 MLOAD DUP1 SWAP2 SUB SWAP1 RETURN JUMPDEST PUSH2 0x139 PUSH2 0x24B JUMP JUMPDEST PUSH1 0x40 MLOAD PUSH2 0x146 SWAP2 SWAP1 PUSH2 0x510 JUMP JUMPDEST PUSH1 0x40 MLOAD DUP1 SWAP2 SUB SWAP1 RETURN JUMPDEST PUSH2 0x157 PUSH2 0x262 JUMP JUMPDEST PUSH1 0x40 MLOAD PUSH2 0x164 SWAP2 SWAP1 PUSH2 0x566 JUMP JUMPDEST PUSH1 0x40 MLOAD DUP1 SWAP2 SUB SWAP1 RETURN JUMPDEST PUSH2 0x175 PUSH2 0x275 JUMP JUMPDEST PUSH1 0x40 MLOAD PUSH2 0x182 SWAP2 SWAP1 PUSH2 0x59D JUMP JUMPDEST PUSH1 0x40 MLOAD DUP1 SWAP2 SUB SWAP1 RETURN JUMPDEST PUSH2 0x193 PUSH2 0x288 JUMP JUMPDEST PUSH1 0x40 MLOAD PUSH2 0x1A0 SWAP2 SWAP1 PUSH2 0x447 JUMP JUMPDEST PUSH1 0x40 MLOAD DUP1 SWAP2 SUB SWAP1 RETURN JUMPDEST PUSH2 0x1B1 PUSH2 0x2AE JUMP JUMPDEST STOP JUMPDEST PUSH2 0x1BB PUSH2 0x2DB JUMP JUMPDEST PUSH1 0x40 MLOAD PUSH2 0x1C8 SWAP2 SWAP1 PUSH2 0x648 JUMP JUMPDEST PUSH1 0x40 MLOAD DUP1 SWAP2 SUB SWAP1 RETURN JUMPDEST PUSH2 0x1D9 PUSH2 0x369 JUMP JUMPDEST STOP JUMPDEST PUSH2 0x1E3 PUSH2 0x396 JUMP JUMPDEST PUSH1 0x40 MLOAD PUSH2 0x1F0 SWAP2 SWAP1 PUSH2 0x3B5 JUMP JUMPDEST PUSH1 0x40 MLOAD DUP1 SWAP2 SUB SWAP1 RETURN JUMPDEST PUSH1 0xB SLOAD DUP2 JUMP JUMPDEST PUSH1 0x8 PUSH1 0x1 SWAP1 SLOAD SWAP1 PUSH2 0x100 EXP SWAP1 DIV PUSH1 0xFF AND DUP2 JUMP JUMPDEST PUSH1 0xF PUSH1 0x0 SWAP1 SLOAD SWAP1 PUSH2 0x100 EXP SWAP1 DIV PUSH20 0xFFFFFFFFFFFFFFFFFFFFFFFFFFFFFFFFFFFFFFFF AND DUP2 JUMP JUMPDEST PUSH1 0x1 PUSH1 0x0 SWAP1 SLOAD SWAP1 PUSH2 0x100 EXP SWAP1 DIV PUSH1 0xFF AND DUP2 JUMP JUMPDEST PUSH1 0x0 PUSH1 0x10 PUSH1 0x14 SWAP1 SLOAD SWAP1 PUSH2 0x100 EXP SWAP1 DIV PUSH1 0xFF AND SWAP1 POP SWAP1 JUMP JUMPDEST PUSH1 0xD PUSH1 0x0 SWAP1 SLOAD SWAP1 PUSH2 0x100 EXP SWAP1 DIV PUSH1 0x60 SHL DUP2 JUMP JUMPDEST PUSH1 0x3 PUSH1 0x0 SWAP1 SLOAD SWAP1 PUSH2 0x100 EXP SWAP1 DIV PUSH1 0x0 SIGNEXTEND DUP2 JUMP JUMPDEST PUSH1 0x10 PUSH1 0x0 SWAP1 SLOAD SWAP1 PUSH2 0x100 EXP SWAP1 DIV PUSH20 0xFFFFFFFFFFFFFFFFFFFFFFFFFFFFFFFFFFFFFFFF AND DUP2 JUMP JUMPDEST PUSH1 0x1 PUSH1 0x10 PUSH1 0x14 PUSH2 0x100 EXP DUP2 SLOAD DUP2 PUSH1 0xFF MUL NOT AND SWAP1 DUP4 PUSH1 0x1 DUP2 GT ISZERO PUSH2 0x2D4 JUMPI PUSH2 0x2D3 PUSH2 0x499 JUMP JUMPDEST JUMPDEST MUL OR SWAP1 SSTORE POP JUMP JUMPDEST PUSH1 0x6 DUP1 SLOAD PUSH2 0x2E8 SWAP1 PUSH2 0x699 JUMP JUMPDEST DUP1 PUSH1 0x1F ADD PUSH1 0x20 DUP1 SWAP2 DIV MUL PUSH1 0x20 ADD PUSH1 0x40 MLOAD SWAP1 DUP2 ADD PUSH1 0x40 MSTORE DUP1 SWAP3 SWAP2 SWAP1 DUP2 DUP2 MSTORE PUSH1 0x20 ADD DUP3 DUP1 SLOAD PUSH2 0x314 SWAP1 PUSH2 0x699 JUMP JUMPDEST DUP1 ISZERO PUSH2 0x361 JUMPI DUP1 PUSH1 0x1F LT PUSH2 0x336 JUMPI PUSH2 0x100 DUP1 DUP4 SLOAD DIV MUL DUP4 MSTORE SWAP2 PUSH1 0x20 ADD SWAP2 PUSH2 0x361 JUMP JUMPDEST DUP3 ADD SWAP2 SWAP1 PUSH1 0x0 MSTORE PUSH1 0x20 PUSH1 0x0 KECCAK256 SWAP1 JUMPDEST DUP2 SLOAD DUP2 MSTORE SWAP1 PUSH1 0x1 ADD SWAP1 PUSH1 0x20 ADD DUP1 DUP4 GT PUSH2 0x344 JUMPI DUP3 SWAP1 SUB PUSH1 0x1F AND DUP3 ADD SWAP2 JUMPDEST POP POP POP POP POP DUP2 JUMP JUMPDEST PUSH1 0x0 PUSH1 0x10 PUSH1 0x14 PUSH2 0x100 EXP DUP2 SLOAD DUP2 PUSH1 0xFF MUL NOT AND SWAP1 DUP4 PUSH1 0x1 DUP2 GT ISZERO PUSH2 0x38F JUMPI PUSH2 0x38E PUSH2 0x499 JUMP JUMPDEST JUMPDEST MUL OR SWAP1 SSTORE POP JUMP JUMPDEST PUSH1 0xC SLOAD DUP2 JUMP JUMPDEST PUSH1 0x0 DUP2 SWAP1 POP SWAP2 SWAP1 POP JUMP JUMPDEST PUSH2 0x3AF DUP2 PUSH2 0x39C JUMP JUMPDEST DUP3 MSTORE POP POP JUMP JUMPDEST PUSH1 0x0 PUSH1 0x20 DUP3 ADD SWAP1 POP PUSH2 0x3CA PUSH1 0x0 DUP4 ADD DUP5 PUSH2 0x3A6 JUMP JUMPDEST SWAP3 SWAP2 POP POP JUMP JUMPDEST PUSH1 0x0 DUP2 ISZERO ISZERO SWAP1 POP SWAP2 SWAP1 POP JUMP JUMPDEST PUSH2 0x3E5 DUP2 PUSH2 0x3D0 JUMP JUMPDEST DUP3 MSTORE POP POP JUMP JUMPDEST PUSH1 0x0 PUSH1 0x20 DUP3 ADD SWAP1 POP PUSH2 0x400 PUSH1 0x0 DUP4 ADD DUP5 PUSH2 0x3DC JUMP JUMPDEST SWAP3 SWAP2 POP POP JUMP JUMPDEST PUSH1 0x0 PUSH20 0xFFFFFFFFFFFFFFFFFFFFFFFFFFFFFFFFFFFFFFFF DUP3 AND SWAP1 POP SWAP2 SWAP1 POP JUMP JUMPDEST PUSH1 0x0 PUSH2 0x431 DUP3 PUSH2 0x406 JUMP JUMPDEST SWAP1 POP SWAP2 SWAP1 POP JUMP JUMPDEST PUSH2 0x441 DUP2 PUSH2 0x426 JUMP JUMPDEST DUP3 MSTORE POP POP JUMP JUMPDEST PUSH1 0x0 PUSH1 0x20 DUP3 ADD SWAP1 POP PUSH2 0x45C PUSH1 0x0 DUP4 ADD DUP5 PUSH2 0x438 JUMP JUMPDEST SWAP3 SWAP2 POP POP JUMP JUMPDEST PUSH1 0x0 PUSH1 0xFF DUP3 AND SWAP1 POP SWAP2 SWAP1 POP JUMP JUMPDEST PUSH2 0x478 DUP2 PUSH2 0x462 JUMP JUMPDEST DUP3 MSTORE POP POP JUMP JUMPDEST PUSH1 0x0 PUSH1 0x20 DUP3 ADD SWAP1 POP PUSH2 0x493 PUSH1 0x0 DUP4 ADD DUP5 PUSH2 0x46F JUMP JUMPDEST SWAP3 SWAP2 POP POP JUMP JUMPDEST PUSH32 0x4E487B7100000000000000000000000000000000000000000000000000000000 PUSH1 0x0 MSTORE PUSH1 0x21 PUSH1 0x4 MSTORE PUSH1 0x24 PUSH1 0x0 REVERT JUMPDEST PUSH1 0x2 DUP2 LT PUSH2 0x4D9 JUMPI PUSH2 0x4D8 PUSH2 0x499 JUMP JUMPDEST JUMPDEST POP JUMP JUMPDEST PUSH1 0x0 DUP2 SWAP1 POP PUSH2 0x4EA DUP3 PUSH2 0x4C8 JUMP JUMPDEST SWAP2 SWAP1 POP JUMP JUMPDEST PUSH1 0x0 PUSH2 0x4FA DUP3 PUSH2 0x4DC JUMP JUMPDEST SWAP1 POP SWAP2 SWAP1 POP JUMP JUMPDEST PUSH2 0x50A DUP2 PUSH2 0x4EF JUMP JUMPDEST DUP3 MSTORE POP POP JUMP JUMPDEST PUSH1 0x0 PUSH1 0x20 DUP3 ADD SWAP1 POP PUSH2 0x525 PUSH1 0x0 DUP4 ADD DUP5 PUSH2 0x501 JUMP JUMPDEST SWAP3 SWAP2 POP POP JUMP JUMPDEST PUSH1 0x0 PUSH32 0xFFFFFFFFFFFFFFFFFFFFFFFFFFFFFFFFFFFFFFFF000000000000000000000000 DUP3 AND SWAP1 POP SWAP2 SWAP1 POP JUMP JUMPDEST PUSH2 0x560 DUP2 PUSH2 0x52B JUMP JUMPDEST DUP3 MSTORE POP POP JUMP JUMPDEST PUSH1 0x0 PUSH1 0x20 DUP3 ADD SWAP1 POP PUSH2 0x57B PUSH1 0x0 DUP4 ADD DUP5 PUSH2 0x557 JUMP JUMPDEST SWAP3 SWAP2 POP POP JUMP JUMPDEST PUSH1 0x0 DUP2 PUSH1 0x0 SIGNEXTEND SWAP1 POP SWAP2 SWAP1 POP JUMP JUMPDEST PUSH2 0x597 DUP2 PUSH2 0x581 JUMP JUMPDEST DUP3 MSTORE POP POP JUMP JUMPDEST PUSH1 0x0 PUSH1 0x20 DUP3 ADD SWAP1 POP PUSH2 0x5B2 PUSH1 0x0 DUP4 ADD DUP5 PUSH2 0x58E JUMP JUMPDEST SWAP3 SWAP2 POP POP JUMP JUMPDEST PUSH1 0x0 DUP2 MLOAD SWAP1 POP SWAP2 SWAP1 POP JUMP JUMPDEST PUSH1 0x0 DUP3 DUP3 MSTORE PUSH1 0x20 DUP3 ADD SWAP1 POP SWAP3 SWAP2 POP POP JUMP JUMPDEST PUSH1 0x0 JUMPDEST DUP4 DUP2 LT ISZERO PUSH2 0x5F2 JUMPI DUP1 DUP3 ADD MLOAD DUP2 DUP5 ADD MSTORE PUSH1 0x20 DUP2 ADD SWAP1 POP PUSH2 0x5D7 JUMP JUMPDEST PUSH1 0x0 DUP5 DUP5 ADD MSTORE POP POP POP POP JUMP JUMPDEST PUSH1 0x0 PUSH1 0x1F NOT PUSH1 0x1F DUP4 ADD AND SWAP1 POP SWAP2 SWAP1 POP JUMP JUMPDEST PUSH1 0x0 PUSH2 0x61A DUP3 PUSH2 0x5B8 JUMP JUMPDEST PUSH2 0x624 DUP2 DUP6 PUSH2 0x5C3 JUMP JUMPDEST SWAP4 POP PUSH2 0x634 DUP2 DUP6 PUSH1 0x20 DUP7 ADD PUSH2 0x5D4 JUMP JUMPDEST PUSH2 0x63D DUP2 PUSH2 0x5FE JUMP JUMPDEST DUP5 ADD SWAP2 POP POP SWAP3 SWAP2 POP POP JUMP JUMPDEST PUSH1 0x0 PUSH1 0x20 DUP3 ADD SWAP1 POP DUP2 DUP2 SUB PUSH1 0x0 DUP4 ADD MSTORE PUSH2 0x662 DUP2 DUP5 PUSH2 0x60F JUMP JUMPDEST SWAP1 POP SWAP3 SWAP2 POP POP JUMP JUMPDEST PUSH32 0x4E487B7100000000000000000000000000000000000000000000000000000000 PUSH1 0x0 MSTORE PUSH1 0x22 PUSH1 0x4 MSTORE PUSH1 0x24 PUSH1 0x0 REVERT JUMPDEST PUSH1 0x0 PUSH1 0x2 DUP3 DIV SWAP1 POP PUSH1 0x1 DUP3 AND DUP1 PUSH2 0x6B1 JUMPI PUSH1 0x7F DUP3 AND SWAP2 POP JUMPDEST PUSH1 0x20 DUP3 LT DUP2 SUB PUSH2 0x6C4 JUMPI PUSH2 0x6C3 PUSH2 0x66A JUMP JUMPDEST JUMPDEST POP SWAP2 SWAP1 POP JUMP INVALID LOG2 PUSH5 0x6970667358 0x22 SLT KECCAK256 0xD3 PUSH4 0x237BE9E3 OR 0x1E 0xB4 SHL 0xC0 DUP13 PUSH1 0x48 PUSH23 0x8FA5F973FC80EF38E05530BD00800A2B1864736F6C6343 STOP ADDMOD SLT STOP CALLER "
				},
				"gasEstimates": {
					"creation": {
						"codeDepositCost": "358400",
						"executionCost": "infinite",
						"totalCost": "infinite"
					},
					"external": {
						"address1()": "2559",
						"address2()": "2536",
						"b()": "2538",
						"boolean_true()": "2544",
						"d()": "2475",
						"displayState()": "2707",
						"hashing_keccak256()": "2430",
						"hashing_ripemd160()": "2582",
						"hashing_sha256()": "2539",
						"str_public()": "infinite",
						"turnOff()": "24525",
						"turnOn()": "24569"
					}
				},
				"methodIdentifiers": {
					"address1()": "3a36399e",
					"address2()": "9eea4a3a",
					"b()": "4df7e3d0",
					"boolean_true()": "312eef29",
					"d()": "8a054ac2",
					"displayState()": "7272eea1",
					"hashing_keccak256()": "2b73648d",
					"hashing_ripemd160()": "7a68ef7f",
					"hashing_sha256()": "c7109d04",
					"str_public()": "b83d07b7",
					"turnOff()": "af10c810",
					"turnOn()": "ba33ed7d"
				}
			},
			"storageLayout": {
				"storage": [
					{
						"astId": 3,
						"contract": "Smart_Contract/contracts/2_variables_modificadores.sol:variables_modificadores",
						"label": "a",
						"offset": 0,
						"slot": "0",
						"type": "t_uint256"
					},
					{
						"astId": 6,
						"contract": "Smart_Contract/contracts/2_variables_modificadores.sol:variables_modificadores",
						"label": "b",
						"offset": 0,
						"slot": "1",
						"type": "t_uint8"
					},
					{
						"astId": 8,
						"contract": "Smart_Contract/contracts/2_variables_modificadores.sol:variables_modificadores",
						"label": "c",
						"offset": 0,
						"slot": "2",
						"type": "t_int256"
					},
					{
						"astId": 12,
						"contract": "Smart_Contract/contracts/2_variables_modificadores.sol:variables_modificadores",
						"label": "d",
						"offset": 0,
						"slot": "3",
						"type": "t_int8"
					},
					{
						"astId": 15,
						"contract": "Smart_Contract/contracts/2_variables_modificadores.sol:variables_modificadores",
						"label": "e",
						"offset": 0,
						"slot": "4",
						"type": "t_int256"
					},
					{
						"astId": 17,
						"contract": "Smart_Contract/contracts/2_variables_modificadores.sol:variables_modificadores",
						"label": "str",
						"offset": 0,
						"slot": "5",
						"type": "t_string_storage"
					},
					{
						"astId": 20,
						"contract": "Smart_Contract/contracts/2_variables_modificadores.sol:variables_modificadores",
						"label": "str_public",
						"offset": 0,
						"slot": "6",
						"type": "t_string_storage"
					},
					{
						"astId": 23,
						"contract": "Smart_Contract/contracts/2_variables_modificadores.sol:variables_modificadores",
						"label": "str_private",
						"offset": 0,
						"slot": "7",
						"type": "t_string_storage"
					},
					{
						"astId": 25,
						"contract": "Smart_Contract/contracts/2_variables_modificadores.sol:variables_modificadores",
						"label": "boolean",
						"offset": 0,
						"slot": "8",
						"type": "t_bool"
					},
					{
						"astId": 28,
						"contract": "Smart_Contract/contracts/2_variables_modificadores.sol:variables_modificadores",
						"label": "boolean_true",
						"offset": 1,
						"slot": "8",
						"type": "t_bool"
					},
					{
						"astId": 31,
						"contract": "Smart_Contract/contracts/2_variables_modificadores.sol:variables_modificadores",
						"label": "boolean_false",
						"offset": 2,
						"slot": "8",
						"type": "t_bool"
					},
					{
						"astId": 33,
						"contract": "Smart_Contract/contracts/2_variables_modificadores.sol:variables_modificadores",
						"label": "first_bytes",
						"offset": 0,
						"slot": "9",
						"type": "t_bytes32"
					},
					{
						"astId": 35,
						"contract": "Smart_Contract/contracts/2_variables_modificadores.sol:variables_modificadores",
						"label": "second_bytes",
						"offset": 0,
						"slot": "10",
						"type": "t_bytes4"
					},
					{
						"astId": 37,
						"contract": "Smart_Contract/contracts/2_variables_modificadores.sol:variables_modificadores",
						"label": "byte_1",
						"offset": 4,
						"slot": "10",
						"type": "t_bytes1"
					},
					{
						"astId": 52,
						"contract": "Smart_Contract/contracts/2_variables_modificadores.sol:variables_modificadores",
						"label": "hashing_keccak256",
						"offset": 0,
						"slot": "11",
						"type": "t_bytes32"
					},
					{
						"astId": 60,
						"contract": "Smart_Contract/contracts/2_variables_modificadores.sol:variables_modificadores",
						"label": "hashing_sha256",
						"offset": 0,
						"slot": "12",
						"type": "t_bytes32"
					},
					{
						"astId": 68,
						"contract": "Smart_Contract/contracts/2_variables_modificadores.sol:variables_modificadores",
						"label": "hashing_ripemd160",
						"offset": 0,
						"slot": "13",
						"type": "t_bytes20"
					},
					{
						"astId": 70,
						"contract": "Smart_Contract/contracts/2_variables_modificadores.sol:variables_modificadores",
						"label": "my_address",
						"offset": 0,
						"slot": "14",
						"type": "t_address"
					},
					{
						"astId": 73,
						"contract": "Smart_Contract/contracts/2_variables_modificadores.sol:variables_modificadores",
						"label": "address1",
						"offset": 0,
						"slot": "15",
						"type": "t_address"
					},
					{
						"astId": 77,
						"contract": "Smart_Contract/contracts/2_variables_modificadores.sol:variables_modificadores",
						"label": "address2",
						"offset": 0,
						"slot": "16",
						"type": "t_address"
					},
					{
						"astId": 83,
						"contract": "Smart_Contract/contracts/2_variables_modificadores.sol:variables_modificadores",
						"label": "state",
						"offset": 20,
						"slot": "16",
						"type": "t_enum(options)80"
					}
				],
				"types": {
					"t_address": {
						"encoding": "inplace",
						"label": "address",
						"numberOfBytes": "20"
					},
					"t_bool": {
						"encoding": "inplace",
						"label": "bool",
						"numberOfBytes": "1"
					},
					"t_bytes1": {
						"encoding": "inplace",
						"label": "bytes1",
						"numberOfBytes": "1"
					},
					"t_bytes20": {
						"encoding": "inplace",
						"label": "bytes20",
						"numberOfBytes": "20"
					},
					"t_bytes32": {
						"encoding": "inplace",
						"label": "bytes32",
						"numberOfBytes": "32"
					},
					"t_bytes4": {
						"encoding": "inplace",
						"label": "bytes4",
						"numberOfBytes": "4"
					},
					"t_enum(options)80": {
						"encoding": "inplace",
						"label": "enum variables_modificadores.options",
						"numberOfBytes": "1"
					},
					"t_int256": {
						"encoding": "inplace",
						"label": "int256",
						"numberOfBytes": "32"
					},
					"t_int8": {
						"encoding": "inplace",
						"label": "int8",
						"numberOfBytes": "1"
					},
					"t_string_storage": {
						"encoding": "bytes",
						"label": "string",
						"numberOfBytes": "32"
					},
					"t_uint256": {
						"encoding": "inplace",
						"label": "uint256",
						"numberOfBytes": "32"
					},
					"t_uint8": {
						"encoding": "inplace",
						"label": "uint8",
						"numberOfBytes": "1"
					}
				}
			},
			"userdoc": {
				"kind": "user",
				"methods": {},
				"version": 1
			}
		}
	}
}