{
	"Smart_Contract/contracts/7_operaciones_matematicas.sol": {
		"maths": {
			"abi": [
				{
					"inputs": [
						{
							"internalType": "uint256",
							"name": "x",
							"type": "uint256"
						},
						{
							"internalType": "uint256",
							"name": "y",
							"type": "uint256"
						},
						{
							"internalType": "uint256",
							"name": "k",
							"type": "uint256"
						}
					],
					"name": "_addmod",
					"outputs": [
						{
							"internalType": "uint256",
							"name": "",
							"type": "uint256"
						}
					],
					"stateMutability": "pure",
					"type": "function"
				},
				{
					"inputs": [
						{
							"internalType": "uint256",
							"name": "x",
							"type": "uint256"
						},
						{
							"internalType": "uint256",
							"name": "y",
							"type": "uint256"
						},
						{
							"internalType": "uint256",
							"name": "k",
							"type": "uint256"
						}
					],
					"name": "_mulmod",
					"outputs": [
						{
							"internalType": "uint256",
							"name": "",
							"type": "uint256"
						}
					],
					"stateMutability": "pure",
					"type": "function"
				},
				{
					"inputs": [
						{
							"internalType": "uint256",
							"name": "a",
							"type": "uint256"
						},
						{
							"internalType": "uint256",
							"name": "b",
							"type": "uint256"
						}
					],
					"name": "div",
					"outputs": [
						{
							"internalType": "uint256",
							"name": "",
							"type": "uint256"
						}
					],
					"stateMutability": "pure",
					"type": "function"
				},
				{
					"inputs": [
						{
							"internalType": "uint256",
							"name": "a",
							"type": "uint256"
						},
						{
							"internalType": "uint256",
							"name": "b",
							"type": "uint256"
						}
					],
					"name": "exp",
					"outputs": [
						{
							"internalType": "uint256",
							"name": "",
							"type": "uint256"
						}
					],
					"stateMutability": "pure",
					"type": "function"
				},
				{
					"inputs": [
						{
							"internalType": "uint256",
							"name": "a",
							"type": "uint256"
						},
						{
							"internalType": "uint256",
							"name": "b",
							"type": "uint256"
						}
					],
					"name": "mod",
					"outputs": [
						{
							"internalType": "uint256",
							"name": "",
							"type": "uint256"
						}
					],
					"stateMutability": "pure",
					"type": "function"
				},
				{
					"inputs": [
						{
							"internalType": "uint256",
							"name": "a",
							"type": "uint256"
						},
						{
							"internalType": "uint256",
							"name": "b",
							"type": "uint256"
						}
					],
					"name": "prod",
					"outputs": [
						{
							"internalType": "uint256",
							"name": "",
							"type": "uint256"
						}
					],
					"stateMutability": "pure",
					"type": "function"
				},
				{
					"inputs": [
						{
							"internalType": "uint256",
							"name": "a",
							"type": "uint256"
						},
						{
							"internalType": "uint256",
							"name": "b",
							"type": "uint256"
						}
					],
					"name": "resta",
					"outputs": [
						{
							"internalType": "uint256",
							"name": "",
							"type": "uint256"
						}
					],
					"stateMutability": "pure",
					"type": "function"
				},
				{
					"inputs": [
						{
							"internalType": "uint256",
							"name": "a",
							"type": "uint256"
						},
						{
							"internalType": "uint256",
							"name": "b",
							"type": "uint256"
						}
					],
					"name": "suma",
					"outputs": [
						{
							"internalType": "uint256",
							"name": "",
							"type": "uint256"
						}
					],
					"stateMutability": "pure",
					"type": "function"
				}
			],
			"devdoc": {
				"kind": "dev",
				"methods": {},
				"version": 1
			},
			"evm": {
				"assembly": "    /* \"Smart_Contract/contracts/7_operaciones_matematicas.sol\":61:901  contract maths {... */\n  mstore(0x40, 0x80)\n  callvalue\n  dup1\n  iszero\n  tag_1\n  jumpi\n  0x00\n  dup1\n  revert\ntag_1:\n  pop\n  dataSize(sub_0)\n  dup1\n  dataOffset(sub_0)\n  0x00\n  codecopy\n  0x00\n  return\nstop\n\nsub_0: assembly {\n        /* \"Smart_Contract/contracts/7_operaciones_matematicas.sol\":61:901  contract maths {... */\n      mstore(0x40, 0x80)\n      callvalue\n      dup1\n      iszero\n      tag_1\n      jumpi\n      0x00\n      dup1\n      revert\n    tag_1:\n      pop\n      jumpi(tag_2, lt(calldatasize, 0x04))\n      shr(0xe0, calldataload(0x00))\n      dup1\n      0xb1b45b1b\n      gt\n      tag_11\n      jumpi\n      dup1\n      0xb1b45b1b\n      eq\n      tag_7\n      jumpi\n      dup1\n      0xdd125e37\n      eq\n      tag_8\n      jumpi\n      dup1\n      0xf43f523a\n      eq\n      tag_9\n      jumpi\n      dup1\n      0xf5f565f8\n      eq\n      tag_10\n      jumpi\n      jump(tag_2)\n    tag_11:\n      dup1\n      0x424bd620\n      eq\n      tag_3\n      jumpi\n      dup1\n      0x52f294bc\n      eq\n      tag_4\n      jumpi\n      dup1\n      0x871f9af4\n      eq\n      tag_5\n      jumpi\n      dup1\n      0xa391c15b\n      eq\n      tag_6\n      jumpi\n    tag_2:\n      0x00\n      dup1\n      revert\n        /* \"Smart_Contract/contracts/7_operaciones_matematicas.sol\":272:357  function prod(uint a, uint b) public pure returns (uint){... */\n    tag_3:\n      tag_12\n      0x04\n      dup1\n      calldatasize\n      sub\n      dup2\n      add\n      swap1\n      tag_13\n      swap2\n      swap1\n      tag_14\n      jump\t// in\n    tag_13:\n      tag_15\n      jump\t// in\n    tag_12:\n      mload(0x40)\n      tag_16\n      swap2\n      swap1\n      tag_17\n      jump\t// in\n    tag_16:\n      mload(0x40)\n      dup1\n      swap2\n      sub\n      swap1\n      return\n        /* \"Smart_Contract/contracts/7_operaciones_matematicas.sol\":178:264  function resta(uint a, uint b) public pure returns (uint){... */\n    tag_4:\n      tag_18\n      0x04\n      dup1\n      calldatasize\n      sub\n      dup2\n      add\n      swap1\n      tag_19\n      swap2\n      swap1\n      tag_14\n      jump\t// in\n    tag_19:\n      tag_20\n      jump\t// in\n    tag_18:\n      mload(0x40)\n      tag_21\n      swap2\n      swap1\n      tag_17\n      jump\t// in\n    tag_21:\n      mload(0x40)\n      dup1\n      swap2\n      sub\n      swap1\n      return\n        /* \"Smart_Contract/contracts/7_operaciones_matematicas.sol\":788:894  function _mulmod(uint x, uint y, uint k) public pure returns (uint){... */\n    tag_5:\n      tag_22\n      0x04\n      dup1\n      calldatasize\n      sub\n      dup2\n      add\n      swap1\n      tag_23\n      swap2\n      swap1\n      tag_24\n      jump\t// in\n    tag_23:\n      tag_25\n      jump\t// in\n    tag_22:\n      mload(0x40)\n      tag_26\n      swap2\n      swap1\n      tag_17\n      jump\t// in\n    tag_26:\n      mload(0x40)\n      dup1\n      swap2\n      sub\n      swap1\n      return\n        /* \"Smart_Contract/contracts/7_operaciones_matematicas.sol\":365:449  function div(uint a, uint b) public pure returns (uint){... */\n    tag_6:\n      tag_27\n      0x04\n      dup1\n      calldatasize\n      sub\n      dup2\n      add\n      swap1\n      tag_28\n      swap2\n      swap1\n      tag_14\n      jump\t// in\n    tag_28:\n      tag_29\n      jump\t// in\n    tag_27:\n      mload(0x40)\n      tag_30\n      swap2\n      swap1\n      tag_17\n      jump\t// in\n    tag_30:\n      mload(0x40)\n      dup1\n      swap2\n      sub\n      swap1\n      return\n        /* \"Smart_Contract/contracts/7_operaciones_matematicas.sol\":85:170  function suma(uint a, uint b) public pure returns (uint){... */\n    tag_7:\n      tag_31\n      0x04\n      dup1\n      calldatasize\n      sub\n      dup2\n      add\n      swap1\n      tag_32\n      swap2\n      swap1\n      tag_14\n      jump\t// in\n    tag_32:\n      tag_33\n      jump\t// in\n    tag_31:\n      mload(0x40)\n      tag_34\n      swap2\n      swap1\n      tag_17\n      jump\t// in\n    tag_34:\n      mload(0x40)\n      dup1\n      swap2\n      sub\n      swap1\n      return\n        /* \"Smart_Contract/contracts/7_operaciones_matematicas.sol\":658:764  function _addmod(uint x, uint y, uint k) public pure returns (uint){... */\n    tag_8:\n      tag_35\n      0x04\n      dup1\n      calldatasize\n      sub\n      dup2\n      add\n      swap1\n      tag_36\n      swap2\n      swap1\n      tag_24\n      jump\t// in\n    tag_36:\n      tag_37\n      jump\t// in\n    tag_35:\n      mload(0x40)\n      tag_38\n      swap2\n      swap1\n      tag_17\n      jump\t// in\n    tag_38:\n      mload(0x40)\n      dup1\n      swap2\n      sub\n      swap1\n      return\n        /* \"Smart_Contract/contracts/7_operaciones_matematicas.sol\":550:634  function mod(uint a, uint b) public pure returns (uint){... */\n    tag_9:\n      tag_39\n      0x04\n      dup1\n      calldatasize\n      sub\n      dup2\n      add\n      swap1\n      tag_40\n      swap2\n      swap1\n      tag_14\n      jump\t// in\n    tag_40:\n      tag_41\n      jump\t// in\n    tag_39:\n      mload(0x40)\n      tag_42\n      swap2\n      swap1\n      tag_17\n      jump\t// in\n    tag_42:\n      mload(0x40)\n      dup1\n      swap2\n      sub\n      swap1\n      return\n        /* \"Smart_Contract/contracts/7_operaciones_matematicas.sol\":457:542  function exp(uint a, uint b) public pure returns (uint){... */\n    tag_10:\n      tag_43\n      0x04\n      dup1\n      calldatasize\n      sub\n      dup2\n      add\n      swap1\n      tag_44\n      swap2\n      swap1\n      tag_14\n      jump\t// in\n    tag_44:\n      tag_45\n      jump\t// in\n    tag_43:\n      mload(0x40)\n      tag_46\n      swap2\n      swap1\n      tag_17\n      jump\t// in\n    tag_46:\n      mload(0x40)\n      dup1\n      swap2\n      sub\n      swap1\n      return\n        /* \"Smart_Contract/contracts/7_operaciones_matematicas.sol\":272:357  function prod(uint a, uint b) public pure returns (uint){... */\n    tag_15:\n        /* \"Smart_Contract/contracts/7_operaciones_matematicas.sol\":323:327  uint */\n      0x00\n        /* \"Smart_Contract/contracts/7_operaciones_matematicas.sol\":348:349  b */\n      dup2\n        /* \"Smart_Contract/contracts/7_operaciones_matematicas.sol\":346:347  a */\n      dup4\n        /* \"Smart_Contract/contracts/7_operaciones_matematicas.sol\":346:349  a*b */\n      tag_48\n      swap2\n      swap1\n      tag_49\n      jump\t// in\n    tag_48:\n        /* \"Smart_Contract/contracts/7_operaciones_matematicas.sol\":339:349  return a*b */\n      swap1\n      pop\n        /* \"Smart_Contract/contracts/7_operaciones_matematicas.sol\":272:357  function prod(uint a, uint b) public pure returns (uint){... */\n      swap3\n      swap2\n      pop\n      pop\n      jump\t// out\n        /* \"Smart_Contract/contracts/7_operaciones_matematicas.sol\":178:264  function resta(uint a, uint b) public pure returns (uint){... */\n    tag_20:\n        /* \"Smart_Contract/contracts/7_operaciones_matematicas.sol\":230:234  uint */\n      0x00\n        /* \"Smart_Contract/contracts/7_operaciones_matematicas.sol\":255:256  b */\n      dup2\n        /* \"Smart_Contract/contracts/7_operaciones_matematicas.sol\":253:254  a */\n      dup4\n        /* \"Smart_Contract/contracts/7_operaciones_matematicas.sol\":253:256  a-b */\n      tag_51\n      swap2\n      swap1\n      tag_52\n      jump\t// in\n    tag_51:\n        /* \"Smart_Contract/contracts/7_operaciones_matematicas.sol\":246:256  return a-b */\n      swap1\n      pop\n        /* \"Smart_Contract/contracts/7_operaciones_matematicas.sol\":178:264  function resta(uint a, uint b) public pure returns (uint){... */\n      swap3\n      swap2\n      pop\n      pop\n      jump\t// out\n        /* \"Smart_Contract/contracts/7_operaciones_matematicas.sol\":788:894  function _mulmod(uint x, uint y, uint k) public pure returns (uint){... */\n    tag_25:\n        /* \"Smart_Contract/contracts/7_operaciones_matematicas.sol\":850:854  uint */\n      0x00\n        /* \"Smart_Contract/contracts/7_operaciones_matematicas.sol\":884:885  k */\n      dup2\n        /* \"Smart_Contract/contracts/7_operaciones_matematicas.sol\":873:886  mulmod(x,y,k) */\n      dup1\n      tag_54\n      jumpi\n      tag_55\n      tag_56\n      jump\t// in\n    tag_55:\n    tag_54:\n        /* \"Smart_Contract/contracts/7_operaciones_matematicas.sol\":882:883  y */\n      dup4\n        /* \"Smart_Contract/contracts/7_operaciones_matematicas.sol\":880:881  x */\n      dup6\n        /* \"Smart_Contract/contracts/7_operaciones_matematicas.sol\":873:886  mulmod(x,y,k) */\n      mulmod\n        /* \"Smart_Contract/contracts/7_operaciones_matematicas.sol\":866:886  return mulmod(x,y,k) */\n      swap1\n      pop\n        /* \"Smart_Contract/contracts/7_operaciones_matematicas.sol\":788:894  function _mulmod(uint x, uint y, uint k) public pure returns (uint){... */\n      swap4\n      swap3\n      pop\n      pop\n      pop\n      jump\t// out\n        /* \"Smart_Contract/contracts/7_operaciones_matematicas.sol\":365:449  function div(uint a, uint b) public pure returns (uint){... */\n    tag_29:\n        /* \"Smart_Contract/contracts/7_operaciones_matematicas.sol\":415:419  uint */\n      0x00\n        /* \"Smart_Contract/contracts/7_operaciones_matematicas.sol\":440:441  b */\n      dup2\n        /* \"Smart_Contract/contracts/7_operaciones_matematicas.sol\":438:439  a */\n      dup4\n        /* \"Smart_Contract/contracts/7_operaciones_matematicas.sol\":438:441  a/b */\n      tag_58\n      swap2\n      swap1\n      tag_59\n      jump\t// in\n    tag_58:\n        /* \"Smart_Contract/contracts/7_operaciones_matematicas.sol\":431:441  return a/b */\n      swap1\n      pop\n        /* \"Smart_Contract/contracts/7_operaciones_matematicas.sol\":365:449  function div(uint a, uint b) public pure returns (uint){... */\n      swap3\n      swap2\n      pop\n      pop\n      jump\t// out\n        /* \"Smart_Contract/contracts/7_operaciones_matematicas.sol\":85:170  function suma(uint a, uint b) public pure returns (uint){... */\n    tag_33:\n        /* \"Smart_Contract/contracts/7_operaciones_matematicas.sol\":136:140  uint */\n      0x00\n        /* \"Smart_Contract/contracts/7_operaciones_matematicas.sol\":161:162  b */\n      dup2\n        /* \"Smart_Contract/contracts/7_operaciones_matematicas.sol\":159:160  a */\n      dup4\n        /* \"Smart_Contract/contracts/7_operaciones_matematicas.sol\":159:162  a+b */\n      tag_61\n      swap2\n      swap1\n      tag_62\n      jump\t// in\n    tag_61:\n        /* \"Smart_Contract/contracts/7_operaciones_matematicas.sol\":152:162  return a+b */\n      swap1\n      pop\n        /* \"Smart_Contract/contracts/7_operaciones_matematicas.sol\":85:170  function suma(uint a, uint b) public pure returns (uint){... */\n      swap3\n      swap2\n      pop\n      pop\n      jump\t// out\n        /* \"Smart_Contract/contracts/7_operaciones_matematicas.sol\":658:764  function _addmod(uint x, uint y, uint k) public pure returns (uint){... */\n    tag_37:\n        /* \"Smart_Contract/contracts/7_operaciones_matematicas.sol\":720:724  uint */\n      0x00\n        /* \"Smart_Contract/contracts/7_operaciones_matematicas.sol\":754:755  k */\n      dup2\n        /* \"Smart_Contract/contracts/7_operaciones_matematicas.sol\":743:756  addmod(x,y,k) */\n      dup1\n      tag_64\n      jumpi\n      tag_65\n      tag_56\n      jump\t// in\n    tag_65:\n    tag_64:\n        /* \"Smart_Contract/contracts/7_operaciones_matematicas.sol\":752:753  y */\n      dup4\n        /* \"Smart_Contract/contracts/7_operaciones_matematicas.sol\":750:751  x */\n      dup6\n        /* \"Smart_Contract/contracts/7_operaciones_matematicas.sol\":743:756  addmod(x,y,k) */\n      addmod\n        /* \"Smart_Contract/contracts/7_operaciones_matematicas.sol\":736:756  return addmod(x,y,k) */\n      swap1\n      pop\n        /* \"Smart_Contract/contracts/7_operaciones_matematicas.sol\":658:764  function _addmod(uint x, uint y, uint k) public pure returns (uint){... */\n      swap4\n      swap3\n      pop\n      pop\n      pop\n      jump\t// out\n        /* \"Smart_Contract/contracts/7_operaciones_matematicas.sol\":550:634  function mod(uint a, uint b) public pure returns (uint){... */\n    tag_41:\n        /* \"Smart_Contract/contracts/7_operaciones_matematicas.sol\":600:604  uint */\n      0x00\n        /* \"Smart_Contract/contracts/7_operaciones_matematicas.sol\":625:626  b */\n      dup2\n        /* \"Smart_Contract/contracts/7_operaciones_matematicas.sol\":623:624  a */\n      dup4\n        /* \"Smart_Contract/contracts/7_operaciones_matematicas.sol\":623:626  a%b */\n      tag_67\n      swap2\n      swap1\n      tag_68\n      jump\t// in\n    tag_67:\n        /* \"Smart_Contract/contracts/7_operaciones_matematicas.sol\":616:626  return a%b */\n      swap1\n      pop\n        /* \"Smart_Contract/contracts/7_operaciones_matematicas.sol\":550:634  function mod(uint a, uint b) public pure returns (uint){... */\n      swap3\n      swap2\n      pop\n      pop\n      jump\t// out\n        /* \"Smart_Contract/contracts/7_operaciones_matematicas.sol\":457:542  function exp(uint a, uint b) public pure returns (uint){... */\n    tag_45:\n        /* \"Smart_Contract/contracts/7_operaciones_matematicas.sol\":507:511  uint */\n      0x00\n        /* \"Smart_Contract/contracts/7_operaciones_matematicas.sol\":533:534  b */\n      dup2\n        /* \"Smart_Contract/contracts/7_operaciones_matematicas.sol\":530:531  a */\n      dup4\n        /* \"Smart_Contract/contracts/7_operaciones_matematicas.sol\":530:534  a**b */\n      tag_70\n      swap2\n      swap1\n      tag_71\n      jump\t// in\n    tag_70:\n        /* \"Smart_Contract/contracts/7_operaciones_matematicas.sol\":523:534  return a**b */\n      swap1\n      pop\n        /* \"Smart_Contract/contracts/7_operaciones_matematicas.sol\":457:542  function exp(uint a, uint b) public pure returns (uint){... */\n      swap3\n      swap2\n      pop\n      pop\n      jump\t// out\n        /* \"#utility.yul\":88:205   */\n    tag_73:\n        /* \"#utility.yul\":197:198   */\n      0x00\n        /* \"#utility.yul\":194:195   */\n      dup1\n        /* \"#utility.yul\":187:199   */\n      revert\n        /* \"#utility.yul\":334:411   */\n    tag_75:\n        /* \"#utility.yul\":371:378   */\n      0x00\n        /* \"#utility.yul\":400:405   */\n      dup2\n        /* \"#utility.yul\":389:405   */\n      swap1\n      pop\n        /* \"#utility.yul\":334:411   */\n      swap2\n      swap1\n      pop\n      jump\t// out\n        /* \"#utility.yul\":417:539   */\n    tag_76:\n        /* \"#utility.yul\":490:514   */\n      tag_89\n        /* \"#utility.yul\":508:513   */\n      dup2\n        /* \"#utility.yul\":490:514   */\n      tag_75\n      jump\t// in\n    tag_89:\n        /* \"#utility.yul\":483:488   */\n      dup2\n        /* \"#utility.yul\":480:515   */\n      eq\n        /* \"#utility.yul\":470:533   */\n      tag_90\n      jumpi\n        /* \"#utility.yul\":529:530   */\n      0x00\n        /* \"#utility.yul\":526:527   */\n      dup1\n        /* \"#utility.yul\":519:531   */\n      revert\n        /* \"#utility.yul\":470:533   */\n    tag_90:\n        /* \"#utility.yul\":417:539   */\n      pop\n      jump\t// out\n        /* \"#utility.yul\":545:684   */\n    tag_77:\n        /* \"#utility.yul\":591:596   */\n      0x00\n        /* \"#utility.yul\":629:635   */\n      dup2\n        /* \"#utility.yul\":616:636   */\n      calldataload\n        /* \"#utility.yul\":607:636   */\n      swap1\n      pop\n        /* \"#utility.yul\":645:678   */\n      tag_92\n        /* \"#utility.yul\":672:677   */\n      dup2\n        /* \"#utility.yul\":645:678   */\n      tag_76\n      jump\t// in\n    tag_92:\n        /* \"#utility.yul\":545:684   */\n      swap3\n      swap2\n      pop\n      pop\n      jump\t// out\n        /* \"#utility.yul\":690:1164   */\n    tag_14:\n        /* \"#utility.yul\":758:764   */\n      0x00\n        /* \"#utility.yul\":766:772   */\n      dup1\n        /* \"#utility.yul\":815:817   */\n      0x40\n        /* \"#utility.yul\":803:812   */\n      dup4\n        /* \"#utility.yul\":794:801   */\n      dup6\n        /* \"#utility.yul\":790:813   */\n      sub\n        /* \"#utility.yul\":786:818   */\n      slt\n        /* \"#utility.yul\":783:902   */\n      iszero\n      tag_94\n      jumpi\n        /* \"#utility.yul\":821:900   */\n      tag_95\n      tag_73\n      jump\t// in\n    tag_95:\n        /* \"#utility.yul\":783:902   */\n    tag_94:\n        /* \"#utility.yul\":941:942   */\n      0x00\n        /* \"#utility.yul\":966:1019   */\n      tag_96\n        /* \"#utility.yul\":1011:1018   */\n      dup6\n        /* \"#utility.yul\":1002:1008   */\n      dup3\n        /* \"#utility.yul\":991:1000   */\n      dup7\n        /* \"#utility.yul\":987:1009   */\n      add\n        /* \"#utility.yul\":966:1019   */\n      tag_77\n      jump\t// in\n    tag_96:\n        /* \"#utility.yul\":956:1019   */\n      swap3\n      pop\n        /* \"#utility.yul\":912:1029   */\n      pop\n        /* \"#utility.yul\":1068:1070   */\n      0x20\n        /* \"#utility.yul\":1094:1147   */\n      tag_97\n        /* \"#utility.yul\":1139:1146   */\n      dup6\n        /* \"#utility.yul\":1130:1136   */\n      dup3\n        /* \"#utility.yul\":1119:1128   */\n      dup7\n        /* \"#utility.yul\":1115:1137   */\n      add\n        /* \"#utility.yul\":1094:1147   */\n      tag_77\n      jump\t// in\n    tag_97:\n        /* \"#utility.yul\":1084:1147   */\n      swap2\n      pop\n        /* \"#utility.yul\":1039:1157   */\n      pop\n        /* \"#utility.yul\":690:1164   */\n      swap3\n      pop\n      swap3\n      swap1\n      pop\n      jump\t// out\n        /* \"#utility.yul\":1170:1288   */\n    tag_78:\n        /* \"#utility.yul\":1257:1281   */\n      tag_99\n        /* \"#utility.yul\":1275:1280   */\n      dup2\n        /* \"#utility.yul\":1257:1281   */\n      tag_75\n      jump\t// in\n    tag_99:\n        /* \"#utility.yul\":1252:1255   */\n      dup3\n        /* \"#utility.yul\":1245:1282   */\n      mstore\n        /* \"#utility.yul\":1170:1288   */\n      pop\n      pop\n      jump\t// out\n        /* \"#utility.yul\":1294:1516   */\n    tag_17:\n        /* \"#utility.yul\":1387:1391   */\n      0x00\n        /* \"#utility.yul\":1425:1427   */\n      0x20\n        /* \"#utility.yul\":1414:1423   */\n      dup3\n        /* \"#utility.yul\":1410:1428   */\n      add\n        /* \"#utility.yul\":1402:1428   */\n      swap1\n      pop\n        /* \"#utility.yul\":1438:1509   */\n      tag_101\n        /* \"#utility.yul\":1506:1507   */\n      0x00\n        /* \"#utility.yul\":1495:1504   */\n      dup4\n        /* \"#utility.yul\":1491:1508   */\n      add\n        /* \"#utility.yul\":1482:1488   */\n      dup5\n        /* \"#utility.yul\":1438:1509   */\n      tag_78\n      jump\t// in\n    tag_101:\n        /* \"#utility.yul\":1294:1516   */\n      swap3\n      swap2\n      pop\n      pop\n      jump\t// out\n        /* \"#utility.yul\":1522:2141   */\n    tag_24:\n        /* \"#utility.yul\":1599:1605   */\n      0x00\n        /* \"#utility.yul\":1607:1613   */\n      dup1\n        /* \"#utility.yul\":1615:1621   */\n      0x00\n        /* \"#utility.yul\":1664:1666   */\n      0x60\n        /* \"#utility.yul\":1652:1661   */\n      dup5\n        /* \"#utility.yul\":1643:1650   */\n      dup7\n        /* \"#utility.yul\":1639:1662   */\n      sub\n        /* \"#utility.yul\":1635:1667   */\n      slt\n        /* \"#utility.yul\":1632:1751   */\n      iszero\n      tag_103\n      jumpi\n        /* \"#utility.yul\":1670:1749   */\n      tag_104\n      tag_73\n      jump\t// in\n    tag_104:\n        /* \"#utility.yul\":1632:1751   */\n    tag_103:\n        /* \"#utility.yul\":1790:1791   */\n      0x00\n        /* \"#utility.yul\":1815:1868   */\n      tag_105\n        /* \"#utility.yul\":1860:1867   */\n      dup7\n        /* \"#utility.yul\":1851:1857   */\n      dup3\n        /* \"#utility.yul\":1840:1849   */\n      dup8\n        /* \"#utility.yul\":1836:1858   */\n      add\n        /* \"#utility.yul\":1815:1868   */\n      tag_77\n      jump\t// in\n    tag_105:\n        /* \"#utility.yul\":1805:1868   */\n      swap4\n      pop\n        /* \"#utility.yul\":1761:1878   */\n      pop\n        /* \"#utility.yul\":1917:1919   */\n      0x20\n        /* \"#utility.yul\":1943:1996   */\n      tag_106\n        /* \"#utility.yul\":1988:1995   */\n      dup7\n        /* \"#utility.yul\":1979:1985   */\n      dup3\n        /* \"#utility.yul\":1968:1977   */\n      dup8\n        /* \"#utility.yul\":1964:1986   */\n      add\n        /* \"#utility.yul\":1943:1996   */\n      tag_77\n      jump\t// in\n    tag_106:\n        /* \"#utility.yul\":1933:1996   */\n      swap3\n      pop\n        /* \"#utility.yul\":1888:2006   */\n      pop\n        /* \"#utility.yul\":2045:2047   */\n      0x40\n        /* \"#utility.yul\":2071:2124   */\n      tag_107\n        /* \"#utility.yul\":2116:2123   */\n      dup7\n        /* \"#utility.yul\":2107:2113   */\n      dup3\n        /* \"#utility.yul\":2096:2105   */\n      dup8\n        /* \"#utility.yul\":2092:2114   */\n      add\n        /* \"#utility.yul\":2071:2124   */\n      tag_77\n      jump\t// in\n    tag_107:\n        /* \"#utility.yul\":2061:2124   */\n      swap2\n      pop\n        /* \"#utility.yul\":2016:2134   */\n      pop\n        /* \"#utility.yul\":1522:2141   */\n      swap3\n      pop\n      swap3\n      pop\n      swap3\n      jump\t// out\n        /* \"#utility.yul\":2147:2327   */\n    tag_79:\n        /* \"#utility.yul\":2195:2272   */\n      0x4e487b7100000000000000000000000000000000000000000000000000000000\n        /* \"#utility.yul\":2192:2193   */\n      0x00\n        /* \"#utility.yul\":2185:2273   */\n      mstore\n        /* \"#utility.yul\":2292:2296   */\n      0x11\n        /* \"#utility.yul\":2289:2290   */\n      0x04\n        /* \"#utility.yul\":2282:2297   */\n      mstore\n        /* \"#utility.yul\":2316:2320   */\n      0x24\n        /* \"#utility.yul\":2313:2314   */\n      0x00\n        /* \"#utility.yul\":2306:2321   */\n      revert\n        /* \"#utility.yul\":2333:2743   */\n    tag_49:\n        /* \"#utility.yul\":2373:2380   */\n      0x00\n        /* \"#utility.yul\":2396:2416   */\n      tag_110\n        /* \"#utility.yul\":2414:2415   */\n      dup3\n        /* \"#utility.yul\":2396:2416   */\n      tag_75\n      jump\t// in\n    tag_110:\n        /* \"#utility.yul\":2391:2416   */\n      swap2\n      pop\n        /* \"#utility.yul\":2430:2450   */\n      tag_111\n        /* \"#utility.yul\":2448:2449   */\n      dup4\n        /* \"#utility.yul\":2430:2450   */\n      tag_75\n      jump\t// in\n    tag_111:\n        /* \"#utility.yul\":2425:2450   */\n      swap3\n      pop\n        /* \"#utility.yul\":2485:2486   */\n      dup3\n        /* \"#utility.yul\":2482:2483   */\n      dup3\n        /* \"#utility.yul\":2478:2487   */\n      mul\n        /* \"#utility.yul\":2507:2537   */\n      tag_112\n        /* \"#utility.yul\":2525:2536   */\n      dup2\n        /* \"#utility.yul\":2507:2537   */\n      tag_75\n      jump\t// in\n    tag_112:\n        /* \"#utility.yul\":2496:2537   */\n      swap2\n      pop\n        /* \"#utility.yul\":2686:2687   */\n      dup3\n        /* \"#utility.yul\":2677:2684   */\n      dup3\n        /* \"#utility.yul\":2673:2688   */\n      div\n        /* \"#utility.yul\":2670:2671   */\n      dup5\n        /* \"#utility.yul\":2667:2689   */\n      eq\n        /* \"#utility.yul\":2647:2648   */\n      dup4\n        /* \"#utility.yul\":2640:2649   */\n      iszero\n        /* \"#utility.yul\":2620:2703   */\n      or\n        /* \"#utility.yul\":2597:2736   */\n      tag_113\n      jumpi\n        /* \"#utility.yul\":2716:2734   */\n      tag_114\n      tag_79\n      jump\t// in\n    tag_114:\n        /* \"#utility.yul\":2597:2736   */\n    tag_113:\n        /* \"#utility.yul\":2381:2743   */\n      pop\n        /* \"#utility.yul\":2333:2743   */\n      swap3\n      swap2\n      pop\n      pop\n      jump\t// out\n        /* \"#utility.yul\":2749:2943   */\n    tag_52:\n        /* \"#utility.yul\":2789:2793   */\n      0x00\n        /* \"#utility.yul\":2809:2829   */\n      tag_116\n        /* \"#utility.yul\":2827:2828   */\n      dup3\n        /* \"#utility.yul\":2809:2829   */\n      tag_75\n      jump\t// in\n    tag_116:\n        /* \"#utility.yul\":2804:2829   */\n      swap2\n      pop\n        /* \"#utility.yul\":2843:2863   */\n      tag_117\n        /* \"#utility.yul\":2861:2862   */\n      dup4\n        /* \"#utility.yul\":2843:2863   */\n      tag_75\n      jump\t// in\n    tag_117:\n        /* \"#utility.yul\":2838:2863   */\n      swap3\n      pop\n        /* \"#utility.yul\":2887:2888   */\n      dup3\n        /* \"#utility.yul\":2884:2885   */\n      dup3\n        /* \"#utility.yul\":2880:2889   */\n      sub\n        /* \"#utility.yul\":2872:2889   */\n      swap1\n      pop\n        /* \"#utility.yul\":2911:2912   */\n      dup2\n        /* \"#utility.yul\":2905:2909   */\n      dup2\n        /* \"#utility.yul\":2902:2913   */\n      gt\n        /* \"#utility.yul\":2899:2936   */\n      iszero\n      tag_118\n      jumpi\n        /* \"#utility.yul\":2916:2934   */\n      tag_119\n      tag_79\n      jump\t// in\n    tag_119:\n        /* \"#utility.yul\":2899:2936   */\n    tag_118:\n        /* \"#utility.yul\":2749:2943   */\n      swap3\n      swap2\n      pop\n      pop\n      jump\t// out\n        /* \"#utility.yul\":2949:3129   */\n    tag_56:\n        /* \"#utility.yul\":2997:3074   */\n      0x4e487b7100000000000000000000000000000000000000000000000000000000\n        /* \"#utility.yul\":2994:2995   */\n      0x00\n        /* \"#utility.yul\":2987:3075   */\n      mstore\n        /* \"#utility.yul\":3094:3098   */\n      0x12\n        /* \"#utility.yul\":3091:3092   */\n      0x04\n        /* \"#utility.yul\":3084:3099   */\n      mstore\n        /* \"#utility.yul\":3118:3122   */\n      0x24\n        /* \"#utility.yul\":3115:3116   */\n      0x00\n        /* \"#utility.yul\":3108:3123   */\n      revert\n        /* \"#utility.yul\":3135:3320   */\n    tag_59:\n        /* \"#utility.yul\":3175:3176   */\n      0x00\n        /* \"#utility.yul\":3192:3212   */\n      tag_122\n        /* \"#utility.yul\":3210:3211   */\n      dup3\n        /* \"#utility.yul\":3192:3212   */\n      tag_75\n      jump\t// in\n    tag_122:\n        /* \"#utility.yul\":3187:3212   */\n      swap2\n      pop\n        /* \"#utility.yul\":3226:3246   */\n      tag_123\n        /* \"#utility.yul\":3244:3245   */\n      dup4\n        /* \"#utility.yul\":3226:3246   */\n      tag_75\n      jump\t// in\n    tag_123:\n        /* \"#utility.yul\":3221:3246   */\n      swap3\n      pop\n        /* \"#utility.yul\":3265:3266   */\n      dup3\n        /* \"#utility.yul\":3255:3290   */\n      tag_124\n      jumpi\n        /* \"#utility.yul\":3270:3288   */\n      tag_125\n      tag_56\n      jump\t// in\n    tag_125:\n        /* \"#utility.yul\":3255:3290   */\n    tag_124:\n        /* \"#utility.yul\":3312:3313   */\n      dup3\n        /* \"#utility.yul\":3309:3310   */\n      dup3\n        /* \"#utility.yul\":3305:3314   */\n      div\n        /* \"#utility.yul\":3300:3314   */\n      swap1\n      pop\n        /* \"#utility.yul\":3135:3320   */\n      swap3\n      swap2\n      pop\n      pop\n      jump\t// out\n        /* \"#utility.yul\":3326:3517   */\n    tag_62:\n        /* \"#utility.yul\":3366:3369   */\n      0x00\n        /* \"#utility.yul\":3385:3405   */\n      tag_127\n        /* \"#utility.yul\":3403:3404   */\n      dup3\n        /* \"#utility.yul\":3385:3405   */\n      tag_75\n      jump\t// in\n    tag_127:\n        /* \"#utility.yul\":3380:3405   */\n      swap2\n      pop\n        /* \"#utility.yul\":3419:3439   */\n      tag_128\n        /* \"#utility.yul\":3437:3438   */\n      dup4\n        /* \"#utility.yul\":3419:3439   */\n      tag_75\n      jump\t// in\n    tag_128:\n        /* \"#utility.yul\":3414:3439   */\n      swap3\n      pop\n        /* \"#utility.yul\":3462:3463   */\n      dup3\n        /* \"#utility.yul\":3459:3460   */\n      dup3\n        /* \"#utility.yul\":3455:3464   */\n      add\n        /* \"#utility.yul\":3448:3464   */\n      swap1\n      pop\n        /* \"#utility.yul\":3483:3486   */\n      dup1\n        /* \"#utility.yul\":3480:3481   */\n      dup3\n        /* \"#utility.yul\":3477:3487   */\n      gt\n        /* \"#utility.yul\":3474:3510   */\n      iszero\n      tag_129\n      jumpi\n        /* \"#utility.yul\":3490:3508   */\n      tag_130\n      tag_79\n      jump\t// in\n    tag_130:\n        /* \"#utility.yul\":3474:3510   */\n    tag_129:\n        /* \"#utility.yul\":3326:3517   */\n      swap3\n      swap2\n      pop\n      pop\n      jump\t// out\n        /* \"#utility.yul\":3523:3699   */\n    tag_68:\n        /* \"#utility.yul\":3555:3556   */\n      0x00\n        /* \"#utility.yul\":3572:3592   */\n      tag_132\n        /* \"#utility.yul\":3590:3591   */\n      dup3\n        /* \"#utility.yul\":3572:3592   */\n      tag_75\n      jump\t// in\n    tag_132:\n        /* \"#utility.yul\":3567:3592   */\n      swap2\n      pop\n        /* \"#utility.yul\":3606:3626   */\n      tag_133\n        /* \"#utility.yul\":3624:3625   */\n      dup4\n        /* \"#utility.yul\":3606:3626   */\n      tag_75\n      jump\t// in\n    tag_133:\n        /* \"#utility.yul\":3601:3626   */\n      swap3\n      pop\n        /* \"#utility.yul\":3645:3646   */\n      dup3\n        /* \"#utility.yul\":3635:3670   */\n      tag_134\n      jumpi\n        /* \"#utility.yul\":3650:3668   */\n      tag_135\n      tag_56\n      jump\t// in\n    tag_135:\n        /* \"#utility.yul\":3635:3670   */\n    tag_134:\n        /* \"#utility.yul\":3691:3692   */\n      dup3\n        /* \"#utility.yul\":3688:3689   */\n      dup3\n        /* \"#utility.yul\":3684:3693   */\n      mod\n        /* \"#utility.yul\":3679:3693   */\n      swap1\n      pop\n        /* \"#utility.yul\":3523:3699   */\n      swap3\n      swap2\n      pop\n      pop\n      jump\t// out\n        /* \"#utility.yul\":3705:3807   */\n    tag_80:\n        /* \"#utility.yul\":3747:3755   */\n      0x00\n        /* \"#utility.yul\":3794:3799   */\n      dup2\n        /* \"#utility.yul\":3791:3792   */\n      0x01\n        /* \"#utility.yul\":3787:3800   */\n      shr\n        /* \"#utility.yul\":3766:3800   */\n      swap1\n      pop\n        /* \"#utility.yul\":3705:3807   */\n      swap2\n      swap1\n      pop\n      jump\t// out\n        /* \"#utility.yul\":3813:4661   */\n    tag_81:\n        /* \"#utility.yul\":3874:3879   */\n      0x00\n        /* \"#utility.yul\":3881:3885   */\n      dup1\n        /* \"#utility.yul\":3905:3911   */\n      dup3\n        /* \"#utility.yul\":3896:3911   */\n      swap2\n      pop\n        /* \"#utility.yul\":3929:3934   */\n      dup4\n        /* \"#utility.yul\":3920:3934   */\n      swap1\n      pop\n        /* \"#utility.yul\":3943:4655   */\n    tag_138:\n        /* \"#utility.yul\":3964:3965   */\n      0x01\n        /* \"#utility.yul\":3954:3962   */\n      dup6\n        /* \"#utility.yul\":3951:3966   */\n      gt\n        /* \"#utility.yul\":3943:4655   */\n      iszero\n      tag_140\n      jumpi\n        /* \"#utility.yul\":4059:4063   */\n      dup1\n        /* \"#utility.yul\":4054:4057   */\n      dup7\n        /* \"#utility.yul\":4050:4064   */\n      div\n        /* \"#utility.yul\":4044:4048   */\n      dup2\n        /* \"#utility.yul\":4041:4065   */\n      gt\n        /* \"#utility.yul\":4038:4088   */\n      iszero\n      tag_141\n      jumpi\n        /* \"#utility.yul\":4068:4086   */\n      tag_142\n      tag_79\n      jump\t// in\n    tag_142:\n        /* \"#utility.yul\":4038:4088   */\n    tag_141:\n        /* \"#utility.yul\":4118:4119   */\n      0x01\n        /* \"#utility.yul\":4108:4116   */\n      dup6\n        /* \"#utility.yul\":4104:4120   */\n      and\n        /* \"#utility.yul\":4101:4552   */\n      iszero\n      tag_143\n      jumpi\n        /* \"#utility.yul\":4533:4537   */\n      dup1\n        /* \"#utility.yul\":4526:4531   */\n      dup3\n        /* \"#utility.yul\":4522:4538   */\n      mul\n        /* \"#utility.yul\":4513:4538   */\n      swap2\n      pop\n        /* \"#utility.yul\":4101:4552   */\n    tag_143:\n        /* \"#utility.yul\":4583:4587   */\n      dup1\n        /* \"#utility.yul\":4577:4581   */\n      dup2\n        /* \"#utility.yul\":4573:4588   */\n      mul\n        /* \"#utility.yul\":4565:4588   */\n      swap1\n      pop\n        /* \"#utility.yul\":4613:4645   */\n      tag_144\n        /* \"#utility.yul\":4636:4644   */\n      dup6\n        /* \"#utility.yul\":4613:4645   */\n      tag_80\n      jump\t// in\n    tag_144:\n        /* \"#utility.yul\":4601:4645   */\n      swap5\n      pop\n        /* \"#utility.yul\":3943:4655   */\n      jump(tag_138)\n    tag_140:\n        /* \"#utility.yul\":3813:4661   */\n      swap5\n      pop\n      swap5\n      swap3\n      pop\n      pop\n      pop\n      jump\t// out\n        /* \"#utility.yul\":4667:5740   */\n    tag_82:\n        /* \"#utility.yul\":4721:4726   */\n      0x00\n        /* \"#utility.yul\":4912:4920   */\n      dup3\n        /* \"#utility.yul\":4902:4942   */\n      tag_146\n      jumpi\n        /* \"#utility.yul\":4933:4934   */\n      0x01\n        /* \"#utility.yul\":4924:4934   */\n      swap1\n      pop\n        /* \"#utility.yul\":4935:4940   */\n      jump(tag_145)\n        /* \"#utility.yul\":4902:4942   */\n    tag_146:\n        /* \"#utility.yul\":4961:4965   */\n      dup2\n        /* \"#utility.yul\":4951:4987   */\n      tag_147\n      jumpi\n        /* \"#utility.yul\":4978:4979   */\n      0x00\n        /* \"#utility.yul\":4969:4979   */\n      swap1\n      pop\n        /* \"#utility.yul\":4980:4985   */\n      jump(tag_145)\n        /* \"#utility.yul\":4951:4987   */\n    tag_147:\n        /* \"#utility.yul\":5047:5051   */\n      dup2\n        /* \"#utility.yul\":5095:5096   */\n      0x01\n        /* \"#utility.yul\":5090:5117   */\n      dup2\n      eq\n      tag_149\n      jumpi\n        /* \"#utility.yul\":5131:5132   */\n      0x02\n        /* \"#utility.yul\":5126:5317   */\n      dup2\n      eq\n      tag_150\n      jumpi\n        /* \"#utility.yul\":5040:5317   */\n      jump(tag_148)\n        /* \"#utility.yul\":5090:5117   */\n    tag_149:\n        /* \"#utility.yul\":5108:5109   */\n      0x01\n        /* \"#utility.yul\":5099:5109   */\n      swap2\n      pop\n        /* \"#utility.yul\":5110:5115   */\n      pop\n      jump(tag_145)\n        /* \"#utility.yul\":5126:5317   */\n    tag_150:\n        /* \"#utility.yul\":5171:5174   */\n      0xff\n        /* \"#utility.yul\":5161:5169   */\n      dup5\n        /* \"#utility.yul\":5158:5175   */\n      gt\n        /* \"#utility.yul\":5155:5198   */\n      iszero\n      tag_151\n      jumpi\n        /* \"#utility.yul\":5178:5196   */\n      tag_152\n      tag_79\n      jump\t// in\n    tag_152:\n        /* \"#utility.yul\":5155:5198   */\n    tag_151:\n        /* \"#utility.yul\":5227:5235   */\n      dup4\n        /* \"#utility.yul\":5224:5225   */\n      0x02\n        /* \"#utility.yul\":5220:5236   */\n      exp\n        /* \"#utility.yul\":5211:5236   */\n      swap2\n      pop\n        /* \"#utility.yul\":5262:5265   */\n      dup5\n        /* \"#utility.yul\":5255:5260   */\n      dup3\n        /* \"#utility.yul\":5252:5266   */\n      gt\n        /* \"#utility.yul\":5249:5289   */\n      iszero\n      tag_153\n      jumpi\n        /* \"#utility.yul\":5269:5287   */\n      tag_154\n      tag_79\n      jump\t// in\n    tag_154:\n        /* \"#utility.yul\":5249:5289   */\n    tag_153:\n        /* \"#utility.yul\":5302:5307   */\n      pop\n      jump(tag_145)\n        /* \"#utility.yul\":5040:5317   */\n    tag_148:\n      pop\n        /* \"#utility.yul\":5426:5428   */\n      0x20\n        /* \"#utility.yul\":5416:5424   */\n      dup4\n        /* \"#utility.yul\":5413:5429   */\n      lt\n        /* \"#utility.yul\":5407:5410   */\n      0x0133\n        /* \"#utility.yul\":5401:5405   */\n      dup4\n        /* \"#utility.yul\":5398:5411   */\n      lt\n        /* \"#utility.yul\":5394:5430   */\n      and\n        /* \"#utility.yul\":5376:5378   */\n      0x4e\n        /* \"#utility.yul\":5366:5374   */\n      dup5\n        /* \"#utility.yul\":5363:5379   */\n      lt\n        /* \"#utility.yul\":5358:5360   */\n      0x0b\n        /* \"#utility.yul\":5352:5356   */\n      dup5\n        /* \"#utility.yul\":5349:5361   */\n      lt\n        /* \"#utility.yul\":5345:5380   */\n      and\n        /* \"#utility.yul\":5329:5440   */\n      or\n        /* \"#utility.yul\":5326:5572   */\n      iszero\n      tag_155\n      jumpi\n        /* \"#utility.yul\":5482:5490   */\n      dup3\n        /* \"#utility.yul\":5476:5480   */\n      dup3\n        /* \"#utility.yul\":5472:5491   */\n      exp\n        /* \"#utility.yul\":5463:5491   */\n      swap1\n      pop\n        /* \"#utility.yul\":5517:5520   */\n      dup4\n        /* \"#utility.yul\":5510:5515   */\n      dup2\n        /* \"#utility.yul\":5507:5521   */\n      gt\n        /* \"#utility.yul\":5504:5544   */\n      iszero\n      tag_156\n      jumpi\n        /* \"#utility.yul\":5524:5542   */\n      tag_157\n      tag_79\n      jump\t// in\n    tag_157:\n        /* \"#utility.yul\":5504:5544   */\n    tag_156:\n        /* \"#utility.yul\":5557:5562   */\n      jump(tag_145)\n        /* \"#utility.yul\":5326:5572   */\n    tag_155:\n        /* \"#utility.yul\":5597:5639   */\n      tag_158\n        /* \"#utility.yul\":5635:5638   */\n      dup5\n        /* \"#utility.yul\":5625:5633   */\n      dup5\n        /* \"#utility.yul\":5619:5623   */\n      dup5\n        /* \"#utility.yul\":5616:5617   */\n      0x01\n        /* \"#utility.yul\":5597:5639   */\n      tag_81\n      jump\t// in\n    tag_158:\n        /* \"#utility.yul\":5582:5639   */\n      swap3\n      pop\n      swap1\n      pop\n        /* \"#utility.yul\":5671:5675   */\n      dup2\n        /* \"#utility.yul\":5666:5669   */\n      dup5\n        /* \"#utility.yul\":5662:5676   */\n      div\n        /* \"#utility.yul\":5655:5660   */\n      dup2\n        /* \"#utility.yul\":5652:5677   */\n      gt\n        /* \"#utility.yul\":5649:5700   */\n      iszero\n      tag_159\n      jumpi\n        /* \"#utility.yul\":5680:5698   */\n      tag_160\n      tag_79\n      jump\t// in\n    tag_160:\n        /* \"#utility.yul\":5649:5700   */\n    tag_159:\n        /* \"#utility.yul\":5729:5733   */\n      dup2\n        /* \"#utility.yul\":5722:5727   */\n      dup2\n        /* \"#utility.yul\":5718:5734   */\n      mul\n        /* \"#utility.yul\":5709:5734   */\n      swap1\n      pop\n        /* \"#utility.yul\":4667:5740   */\n    tag_145:\n      swap4\n      swap3\n      pop\n      pop\n      pop\n      jump\t// out\n        /* \"#utility.yul\":5746:6031   */\n    tag_71:\n        /* \"#utility.yul\":5806:5811   */\n      0x00\n        /* \"#utility.yul\":5830:5853   */\n      tag_162\n        /* \"#utility.yul\":5848:5852   */\n      dup3\n        /* \"#utility.yul\":5830:5853   */\n      tag_75\n      jump\t// in\n    tag_162:\n        /* \"#utility.yul\":5822:5853   */\n      swap2\n      pop\n        /* \"#utility.yul\":5874:5901   */\n      tag_163\n        /* \"#utility.yul\":5892:5900   */\n      dup4\n        /* \"#utility.yul\":5874:5901   */\n      tag_75\n      jump\t// in\n    tag_163:\n        /* \"#utility.yul\":5862:5901   */\n      swap3\n      pop\n        /* \"#utility.yul\":5920:6024   */\n      tag_164\n        /* \"#utility.yul\":5957:6023   */\n      0xffffffffffffffffffffffffffffffffffffffffffffffffffffffffffffffff\n        /* \"#utility.yul\":5947:5955   */\n      dup5\n        /* \"#utility.yul\":5941:5945   */\n      dup5\n        /* \"#utility.yul\":5920:6024   */\n      tag_82\n      jump\t// in\n    tag_164:\n        /* \"#utility.yul\":5911:6024   */\n      swap1\n      pop\n        /* \"#utility.yul\":5746:6031   */\n      swap3\n      swap2\n      pop\n      pop\n      jump\t// out\n\n    auxdata: 0xa264697066735822122033594652982feb4e9824080b50a2e21057bcec884b5812381a3d38b11709639c64736f6c63430008120033\n}\n",
				"bytecode": {
					"linkReferences": {},
					"object": "608060405234801561001057600080fd5b506106e1806100206000396000f3fe608060405234801561001057600080fd5b50600436106100885760003560e01c8063b1b45b1b1161005b578063b1b45b1b1461014d578063dd125e371461017d578063f43f523a146101ad578063f5f565f8146101dd57610088565b8063424bd6201461008d57806352f294bc146100bd578063871f9af4146100ed578063a391c15b1461011d575b600080fd5b6100a760048036038101906100a29190610306565b61020d565b6040516100b49190610355565b60405180910390f35b6100d760048036038101906100d29190610306565b610223565b6040516100e49190610355565b60405180910390f35b61010760048036038101906101029190610370565b610239565b6040516101149190610355565b60405180910390f35b61013760048036038101906101329190610306565b610256565b6040516101449190610355565b60405180910390f35b61016760048036038101906101629190610306565b61026c565b6040516101749190610355565b60405180910390f35b61019760048036038101906101929190610370565b610282565b6040516101a49190610355565b60405180910390f35b6101c760048036038101906101c29190610306565b61029f565b6040516101d49190610355565b60405180910390f35b6101f760048036038101906101f29190610306565b6102b5565b6040516102049190610355565b60405180910390f35b6000818361021b91906103f2565b905092915050565b600081836102319190610434565b905092915050565b6000818061024a57610249610468565b5b83850990509392505050565b600081836102649190610497565b905092915050565b6000818361027a91906104c8565b905092915050565b6000818061029357610292610468565b5b83850890509392505050565b600081836102ad91906104fc565b905092915050565b600081836102c39190610660565b905092915050565b600080fd5b6000819050919050565b6102e3816102d0565b81146102ee57600080fd5b50565b600081359050610300816102da565b92915050565b6000806040838503121561031d5761031c6102cb565b5b600061032b858286016102f1565b925050602061033c858286016102f1565b9150509250929050565b61034f816102d0565b82525050565b600060208201905061036a6000830184610346565b92915050565b600080600060608486031215610389576103886102cb565b5b6000610397868287016102f1565b93505060206103a8868287016102f1565b92505060406103b9868287016102f1565b9150509250925092565b7f4e487b7100000000000000000000000000000000000000000000000000000000600052601160045260246000fd5b60006103fd826102d0565b9150610408836102d0565b9250828202610416816102d0565b9150828204841483151761042d5761042c6103c3565b5b5092915050565b600061043f826102d0565b915061044a836102d0565b9250828203905081811115610462576104616103c3565b5b92915050565b7f4e487b7100000000000000000000000000000000000000000000000000000000600052601260045260246000fd5b60006104a2826102d0565b91506104ad836102d0565b9250826104bd576104bc610468565b5b828204905092915050565b60006104d3826102d0565b91506104de836102d0565b92508282019050808211156104f6576104f56103c3565b5b92915050565b6000610507826102d0565b9150610512836102d0565b92508261052257610521610468565b5b828206905092915050565b60008160011c9050919050565b6000808291508390505b6001851115610584578086048111156105605761055f6103c3565b5b600185161561056f5780820291505b808102905061057d8561052d565b9450610544565b94509492505050565b60008261059d5760019050610659565b816105ab5760009050610659565b81600181146105c157600281146105cb576105fa565b6001915050610659565b60ff8411156105dd576105dc6103c3565b5b8360020a9150848211156105f4576105f36103c3565b5b50610659565b5060208310610133831016604e8410600b841016171561062f5782820a90508381111561062a576106296103c3565b5b610659565b61063c848484600161053a565b92509050818404811115610653576106526103c3565b5b81810290505b9392505050565b600061066b826102d0565b9150610676836102d0565b92506106a37fffffffffffffffffffffffffffffffffffffffffffffffffffffffffffffffff848461058d565b90509291505056fea264697066735822122033594652982feb4e9824080b50a2e21057bcec884b5812381a3d38b11709639c64736f6c63430008120033",
					"opcodes": "PUSH1 0x80 PUSH1 0x40 MSTORE CALLVALUE DUP1 ISZERO PUSH2 0x10 JUMPI PUSH1 0x0 DUP1 REVERT JUMPDEST POP PUSH2 0x6E1 DUP1 PUSH2 0x20 PUSH1 0x0 CODECOPY PUSH1 0x0 RETURN INVALID PUSH1 0x80 PUSH1 0x40 MSTORE CALLVALUE DUP1 ISZERO PUSH2 0x10 JUMPI PUSH1 0x0 DUP1 REVERT JUMPDEST POP PUSH1 0x4 CALLDATASIZE LT PUSH2 0x88 JUMPI PUSH1 0x0 CALLDATALOAD PUSH1 0xE0 SHR DUP1 PUSH4 0xB1B45B1B GT PUSH2 0x5B JUMPI DUP1 PUSH4 0xB1B45B1B EQ PUSH2 0x14D JUMPI DUP1 PUSH4 0xDD125E37 EQ PUSH2 0x17D JUMPI DUP1 PUSH4 0xF43F523A EQ PUSH2 0x1AD JUMPI DUP1 PUSH4 0xF5F565F8 EQ PUSH2 0x1DD JUMPI PUSH2 0x88 JUMP JUMPDEST DUP1 PUSH4 0x424BD620 EQ PUSH2 0x8D JUMPI DUP1 PUSH4 0x52F294BC EQ PUSH2 0xBD JUMPI DUP1 PUSH4 0x871F9AF4 EQ PUSH2 0xED JUMPI DUP1 PUSH4 0xA391C15B EQ PUSH2 0x11D JUMPI JUMPDEST PUSH1 0x0 DUP1 REVERT JUMPDEST PUSH2 0xA7 PUSH1 0x4 DUP1 CALLDATASIZE SUB DUP2 ADD SWAP1 PUSH2 0xA2 SWAP2 SWAP1 PUSH2 0x306 JUMP JUMPDEST PUSH2 0x20D JUMP JUMPDEST PUSH1 0x40 MLOAD PUSH2 0xB4 SWAP2 SWAP1 PUSH2 0x355 JUMP JUMPDEST PUSH1 0x40 MLOAD DUP1 SWAP2 SUB SWAP1 RETURN JUMPDEST PUSH2 0xD7 PUSH1 0x4 DUP1 CALLDATASIZE SUB DUP2 ADD SWAP1 PUSH2 0xD2 SWAP2 SWAP1 PUSH2 0x306 JUMP JUMPDEST PUSH2 0x223 JUMP JUMPDEST PUSH1 0x40 MLOAD PUSH2 0xE4 SWAP2 SWAP1 PUSH2 0x355 JUMP JUMPDEST PUSH1 0x40 MLOAD DUP1 SWAP2 SUB SWAP1 RETURN JUMPDEST PUSH2 0x107 PUSH1 0x4 DUP1 CALLDATASIZE SUB DUP2 ADD SWAP1 PUSH2 0x102 SWAP2 SWAP1 PUSH2 0x370 JUMP JUMPDEST PUSH2 0x239 JUMP JUMPDEST PUSH1 0x40 MLOAD PUSH2 0x114 SWAP2 SWAP1 PUSH2 0x355 JUMP JUMPDEST PUSH1 0x40 MLOAD DUP1 SWAP2 SUB SWAP1 RETURN JUMPDEST PUSH2 0x137 PUSH1 0x4 DUP1 CALLDATASIZE SUB DUP2 ADD SWAP1 PUSH2 0x132 SWAP2 SWAP1 PUSH2 0x306 JUMP JUMPDEST PUSH2 0x256 JUMP JUMPDEST PUSH1 0x40 MLOAD PUSH2 0x144 SWAP2 SWAP1 PUSH2 0x355 JUMP JUMPDEST PUSH1 0x40 MLOAD DUP1 SWAP2 SUB SWAP1 RETURN JUMPDEST PUSH2 0x167 PUSH1 0x4 DUP1 CALLDATASIZE SUB DUP2 ADD SWAP1 PUSH2 0x162 SWAP2 SWAP1 PUSH2 0x306 JUMP JUMPDEST PUSH2 0x26C JUMP JUMPDEST PUSH1 0x40 MLOAD PUSH2 0x174 SWAP2 SWAP1 PUSH2 0x355 JUMP JUMPDEST PUSH1 0x40 MLOAD DUP1 SWAP2 SUB SWAP1 RETURN JUMPDEST PUSH2 0x197 PUSH1 0x4 DUP1 CALLDATASIZE SUB DUP2 ADD SWAP1 PUSH2 0x192 SWAP2 SWAP1 PUSH2 0x370 JUMP JUMPDEST PUSH2 0x282 JUMP JUMPDEST PUSH1 0x40 MLOAD PUSH2 0x1A4 SWAP2 SWAP1 PUSH2 0x355 JUMP JUMPDEST PUSH1 0x40 MLOAD DUP1 SWAP2 SUB SWAP1 RETURN JUMPDEST PUSH2 0x1C7 PUSH1 0x4 DUP1 CALLDATASIZE SUB DUP2 ADD SWAP1 PUSH2 0x1C2 SWAP2 SWAP1 PUSH2 0x306 JUMP JUMPDEST PUSH2 0x29F JUMP JUMPDEST PUSH1 0x40 MLOAD PUSH2 0x1D4 SWAP2 SWAP1 PUSH2 0x355 JUMP JUMPDEST PUSH1 0x40 MLOAD DUP1 SWAP2 SUB SWAP1 RETURN JUMPDEST PUSH2 0x1F7 PUSH1 0x4 DUP1 CALLDATASIZE SUB DUP2 ADD SWAP1 PUSH2 0x1F2 SWAP2 SWAP1 PUSH2 0x306 JUMP JUMPDEST PUSH2 0x2B5 JUMP JUMPDEST PUSH1 0x40 MLOAD PUSH2 0x204 SWAP2 SWAP1 PUSH2 0x355 JUMP JUMPDEST PUSH1 0x40 MLOAD DUP1 SWAP2 SUB SWAP1 RETURN JUMPDEST PUSH1 0x0 DUP2 DUP4 PUSH2 0x21B SWAP2 SWAP1 PUSH2 0x3F2 JUMP JUMPDEST SWAP1 POP SWAP3 SWAP2 POP POP JUMP JUMPDEST PUSH1 0x0 DUP2 DUP4 PUSH2 0x231 SWAP2 SWAP1 PUSH2 0x434 JUMP JUMPDEST SWAP1 POP SWAP3 SWAP2 POP POP JUMP JUMPDEST PUSH1 0x0 DUP2 DUP1 PUSH2 0x24A JUMPI PUSH2 0x249 PUSH2 0x468 JUMP JUMPDEST JUMPDEST DUP4 DUP6 MULMOD SWAP1 POP SWAP4 SWAP3 POP POP POP JUMP JUMPDEST PUSH1 0x0 DUP2 DUP4 PUSH2 0x264 SWAP2 SWAP1 PUSH2 0x497 JUMP JUMPDEST SWAP1 POP SWAP3 SWAP2 POP POP JUMP JUMPDEST PUSH1 0x0 DUP2 DUP4 PUSH2 0x27A SWAP2 SWAP1 PUSH2 0x4C8 JUMP JUMPDEST SWAP1 POP SWAP3 SWAP2 POP POP JUMP JUMPDEST PUSH1 0x0 DUP2 DUP1 PUSH2 0x293 JUMPI PUSH2 0x292 PUSH2 0x468 JUMP JUMPDEST JUMPDEST DUP4 DUP6 ADDMOD SWAP1 POP SWAP4 SWAP3 POP POP POP JUMP JUMPDEST PUSH1 0x0 DUP2 DUP4 PUSH2 0x2AD SWAP2 SWAP1 PUSH2 0x4FC JUMP JUMPDEST SWAP1 POP SWAP3 SWAP2 POP POP JUMP JUMPDEST PUSH1 0x0 DUP2 DUP4 PUSH2 0x2C3 SWAP2 SWAP1 PUSH2 0x660 JUMP JUMPDEST SWAP1 POP SWAP3 SWAP2 POP POP JUMP JUMPDEST PUSH1 0x0 DUP1 REVERT JUMPDEST PUSH1 0x0 DUP2 SWAP1 POP SWAP2 SWAP1 POP JUMP JUMPDEST PUSH2 0x2E3 DUP2 PUSH2 0x2D0 JUMP JUMPDEST DUP2 EQ PUSH2 0x2EE JUMPI PUSH1 0x0 DUP1 REVERT JUMPDEST POP JUMP JUMPDEST PUSH1 0x0 DUP2 CALLDATALOAD SWAP1 POP PUSH2 0x300 DUP2 PUSH2 0x2DA JUMP JUMPDEST SWAP3 SWAP2 POP POP JUMP JUMPDEST PUSH1 0x0 DUP1 PUSH1 0x40 DUP4 DUP6 SUB SLT ISZERO PUSH2 0x31D JUMPI PUSH2 0x31C PUSH2 0x2CB JUMP JUMPDEST JUMPDEST PUSH1 0x0 PUSH2 0x32B DUP6 DUP3 DUP7 ADD PUSH2 0x2F1 JUMP JUMPDEST SWAP3 POP POP PUSH1 0x20 PUSH2 0x33C DUP6 DUP3 DUP7 ADD PUSH2 0x2F1 JUMP JUMPDEST SWAP2 POP POP SWAP3 POP SWAP3 SWAP1 POP JUMP JUMPDEST PUSH2 0x34F DUP2 PUSH2 0x2D0 JUMP JUMPDEST DUP3 MSTORE POP POP JUMP JUMPDEST PUSH1 0x0 PUSH1 0x20 DUP3 ADD SWAP1 POP PUSH2 0x36A PUSH1 0x0 DUP4 ADD DUP5 PUSH2 0x346 JUMP JUMPDEST SWAP3 SWAP2 POP POP JUMP JUMPDEST PUSH1 0x0 DUP1 PUSH1 0x0 PUSH1 0x60 DUP5 DUP7 SUB SLT ISZERO PUSH2 0x389 JUMPI PUSH2 0x388 PUSH2 0x2CB JUMP JUMPDEST JUMPDEST PUSH1 0x0 PUSH2 0x397 DUP7 DUP3 DUP8 ADD PUSH2 0x2F1 JUMP JUMPDEST SWAP4 POP POP PUSH1 0x20 PUSH2 0x3A8 DUP7 DUP3 DUP8 ADD PUSH2 0x2F1 JUMP JUMPDEST SWAP3 POP POP PUSH1 0x40 PUSH2 0x3B9 DUP7 DUP3 DUP8 ADD PUSH2 0x2F1 JUMP JUMPDEST SWAP2 POP POP SWAP3 POP SWAP3 POP SWAP3 JUMP JUMPDEST PUSH32 0x4E487B7100000000000000000000000000000000000000000000000000000000 PUSH1 0x0 MSTORE PUSH1 0x11 PUSH1 0x4 MSTORE PUSH1 0x24 PUSH1 0x0 REVERT JUMPDEST PUSH1 0x0 PUSH2 0x3FD DUP3 PUSH2 0x2D0 JUMP JUMPDEST SWAP2 POP PUSH2 0x408 DUP4 PUSH2 0x2D0 JUMP JUMPDEST SWAP3 POP DUP3 DUP3 MUL PUSH2 0x416 DUP2 PUSH2 0x2D0 JUMP JUMPDEST SWAP2 POP DUP3 DUP3 DIV DUP5 EQ DUP4 ISZERO OR PUSH2 0x42D JUMPI PUSH2 0x42C PUSH2 0x3C3 JUMP JUMPDEST JUMPDEST POP SWAP3 SWAP2 POP POP JUMP JUMPDEST PUSH1 0x0 PUSH2 0x43F DUP3 PUSH2 0x2D0 JUMP JUMPDEST SWAP2 POP PUSH2 0x44A DUP4 PUSH2 0x2D0 JUMP JUMPDEST SWAP3 POP DUP3 DUP3 SUB SWAP1 POP DUP2 DUP2 GT ISZERO PUSH2 0x462 JUMPI PUSH2 0x461 PUSH2 0x3C3 JUMP JUMPDEST JUMPDEST SWAP3 SWAP2 POP POP JUMP JUMPDEST PUSH32 0x4E487B7100000000000000000000000000000000000000000000000000000000 PUSH1 0x0 MSTORE PUSH1 0x12 PUSH1 0x4 MSTORE PUSH1 0x24 PUSH1 0x0 REVERT JUMPDEST PUSH1 0x0 PUSH2 0x4A2 DUP3 PUSH2 0x2D0 JUMP JUMPDEST SWAP2 POP PUSH2 0x4AD DUP4 PUSH2 0x2D0 JUMP JUMPDEST SWAP3 POP DUP3 PUSH2 0x4BD JUMPI PUSH2 0x4BC PUSH2 0x468 JUMP JUMPDEST JUMPDEST DUP3 DUP3 DIV SWAP1 POP SWAP3 SWAP2 POP POP JUMP JUMPDEST PUSH1 0x0 PUSH2 0x4D3 DUP3 PUSH2 0x2D0 JUMP JUMPDEST SWAP2 POP PUSH2 0x4DE DUP4 PUSH2 0x2D0 JUMP JUMPDEST SWAP3 POP DUP3 DUP3 ADD SWAP1 POP DUP1 DUP3 GT ISZERO PUSH2 0x4F6 JUMPI PUSH2 0x4F5 PUSH2 0x3C3 JUMP JUMPDEST JUMPDEST SWAP3 SWAP2 POP POP JUMP JUMPDEST PUSH1 0x0 PUSH2 0x507 DUP3 PUSH2 0x2D0 JUMP JUMPDEST SWAP2 POP PUSH2 0x512 DUP4 PUSH2 0x2D0 JUMP JUMPDEST SWAP3 POP DUP3 PUSH2 0x522 JUMPI PUSH2 0x521 PUSH2 0x468 JUMP JUMPDEST JUMPDEST DUP3 DUP3 MOD SWAP1 POP SWAP3 SWAP2 POP POP JUMP JUMPDEST PUSH1 0x0 DUP2 PUSH1 0x1 SHR SWAP1 POP SWAP2 SWAP1 POP JUMP JUMPDEST PUSH1 0x0 DUP1 DUP3 SWAP2 POP DUP4 SWAP1 POP JUMPDEST PUSH1 0x1 DUP6 GT ISZERO PUSH2 0x584 JUMPI DUP1 DUP7 DIV DUP2 GT ISZERO PUSH2 0x560 JUMPI PUSH2 0x55F PUSH2 0x3C3 JUMP JUMPDEST JUMPDEST PUSH1 0x1 DUP6 AND ISZERO PUSH2 0x56F JUMPI DUP1 DUP3 MUL SWAP2 POP JUMPDEST DUP1 DUP2 MUL SWAP1 POP PUSH2 0x57D DUP6 PUSH2 0x52D JUMP JUMPDEST SWAP5 POP PUSH2 0x544 JUMP JUMPDEST SWAP5 POP SWAP5 SWAP3 POP POP POP JUMP JUMPDEST PUSH1 0x0 DUP3 PUSH2 0x59D JUMPI PUSH1 0x1 SWAP1 POP PUSH2 0x659 JUMP JUMPDEST DUP2 PUSH2 0x5AB JUMPI PUSH1 0x0 SWAP1 POP PUSH2 0x659 JUMP JUMPDEST DUP2 PUSH1 0x1 DUP2 EQ PUSH2 0x5C1 JUMPI PUSH1 0x2 DUP2 EQ PUSH2 0x5CB JUMPI PUSH2 0x5FA JUMP JUMPDEST PUSH1 0x1 SWAP2 POP POP PUSH2 0x659 JUMP JUMPDEST PUSH1 0xFF DUP5 GT ISZERO PUSH2 0x5DD JUMPI PUSH2 0x5DC PUSH2 0x3C3 JUMP JUMPDEST JUMPDEST DUP4 PUSH1 0x2 EXP SWAP2 POP DUP5 DUP3 GT ISZERO PUSH2 0x5F4 JUMPI PUSH2 0x5F3 PUSH2 0x3C3 JUMP JUMPDEST JUMPDEST POP PUSH2 0x659 JUMP JUMPDEST POP PUSH1 0x20 DUP4 LT PUSH2 0x133 DUP4 LT AND PUSH1 0x4E DUP5 LT PUSH1 0xB DUP5 LT AND OR ISZERO PUSH2 0x62F JUMPI DUP3 DUP3 EXP SWAP1 POP DUP4 DUP2 GT ISZERO PUSH2 0x62A JUMPI PUSH2 0x629 PUSH2 0x3C3 JUMP JUMPDEST JUMPDEST PUSH2 0x659 JUMP JUMPDEST PUSH2 0x63C DUP5 DUP5 DUP5 PUSH1 0x1 PUSH2 0x53A JUMP JUMPDEST SWAP3 POP SWAP1 POP DUP2 DUP5 DIV DUP2 GT ISZERO PUSH2 0x653 JUMPI PUSH2 0x652 PUSH2 0x3C3 JUMP JUMPDEST JUMPDEST DUP2 DUP2 MUL SWAP1 POP JUMPDEST SWAP4 SWAP3 POP POP POP JUMP JUMPDEST PUSH1 0x0 PUSH2 0x66B DUP3 PUSH2 0x2D0 JUMP JUMPDEST SWAP2 POP PUSH2 0x676 DUP4 PUSH2 0x2D0 JUMP JUMPDEST SWAP3 POP PUSH2 0x6A3 PUSH32 0xFFFFFFFFFFFFFFFFFFFFFFFFFFFFFFFFFFFFFFFFFFFFFFFFFFFFFFFFFFFFFFFF DUP5 DUP5 PUSH2 0x58D JUMP JUMPDEST SWAP1 POP SWAP3 SWAP2 POP POP JUMP INVALID LOG2 PUSH5 0x6970667358 0x22 SLT KECCAK256 CALLER MSIZE CHAINID MSTORE SWAP9 0x2F 0xEB 0x4E SWAP9 0x24 ADDMOD SIGNEXTEND POP LOG2 0xE2 LT JUMPI 0xBC 0xEC DUP9 0x4B PC SLT CODESIZE BYTE RETURNDATASIZE CODESIZE 0xB1 OR MULMOD PUSH4 0x9C64736F PUSH13 0x63430008120033000000000000 "
				},
				"gasEstimates": {
					"creation": {
						"codeDepositCost": "352200",
						"executionCost": "393",
						"totalCost": "352593"
					},
					"external": {
						"_addmod(uint256,uint256,uint256)": "infinite",
						"_mulmod(uint256,uint256,uint256)": "infinite",
						"div(uint256,uint256)": "infinite",
						"exp(uint256,uint256)": "infinite",
						"mod(uint256,uint256)": "infinite",
						"prod(uint256,uint256)": "infinite",
						"resta(uint256,uint256)": "infinite",
						"suma(uint256,uint256)": "infinite"
					}
				},
				"methodIdentifiers": {
					"_addmod(uint256,uint256,uint256)": "dd125e37",
					"_mulmod(uint256,uint256,uint256)": "871f9af4",
					"div(uint256,uint256)": "a391c15b",
					"exp(uint256,uint256)": "f5f565f8",
					"mod(uint256,uint256)": "f43f523a",
					"prod(uint256,uint256)": "424bd620",
					"resta(uint256,uint256)": "52f294bc",
					"suma(uint256,uint256)": "b1b45b1b"
				}
			},
			"storageLayout": {
				"storage": [],
				"types": null
			},
			"userdoc": {
				"kind": "user",
				"methods": {},
				"version": 1
			}
		}
	}
}