{
	"Smart_Contract/contracts/3_.estructuras_datos.sol": {
		"data_structures": {
			"abi": [
				{
					"inputs": [
						{
							"internalType": "address",
							"name": "",
							"type": "address"
						}
					],
					"name": "address_dataStructure",
					"outputs": [
						{
							"internalType": "uint256",
							"name": "id",
							"type": "uint256"
						},
						{
							"internalType": "string",
							"name": "name",
							"type": "string"
						},
						{
							"internalType": "string",
							"name": "email",
							"type": "string"
						}
					],
					"stateMutability": "view",
					"type": "function"
				},
				{
					"inputs": [
						{
							"internalType": "address",
							"name": "",
							"type": "address"
						}
					],
					"name": "address_uint",
					"outputs": [
						{
							"internalType": "uint256",
							"name": "",
							"type": "uint256"
						}
					],
					"stateMutability": "view",
					"type": "function"
				},
				{
					"inputs": [
						{
							"internalType": "uint256",
							"name": "_id",
							"type": "uint256"
						},
						{
							"internalType": "string",
							"name": "name",
							"type": "string"
						},
						{
							"internalType": "string",
							"name": "email",
							"type": "string"
						}
					],
					"name": "array_modification",
					"outputs": [],
					"stateMutability": "nonpayable",
					"type": "function"
				},
				{
					"inputs": [
						{
							"internalType": "string",
							"name": "_name",
							"type": "string"
						},
						{
							"internalType": "uint256",
							"name": "_number",
							"type": "uint256"
						}
					],
					"name": "asignList",
					"outputs": [],
					"stateMutability": "nonpayable",
					"type": "function"
				},
				{
					"inputs": [
						{
							"internalType": "uint256",
							"name": "_id",
							"type": "uint256"
						},
						{
							"internalType": "string",
							"name": "_name",
							"type": "string"
						},
						{
							"internalType": "string",
							"name": "_email",
							"type": "string"
						}
					],
					"name": "assignDataStructure",
					"outputs": [],
					"stateMutability": "nonpayable",
					"type": "function"
				},
				{
					"inputs": [
						{
							"internalType": "uint256",
							"name": "_number",
							"type": "uint256"
						}
					],
					"name": "assignNumber",
					"outputs": [],
					"stateMutability": "nonpayable",
					"type": "function"
				},
				{
					"inputs": [
						{
							"internalType": "uint256",
							"name": "",
							"type": "uint256"
						}
					],
					"name": "dynamic_list_customer",
					"outputs": [
						{
							"internalType": "uint256",
							"name": "id",
							"type": "uint256"
						},
						{
							"internalType": "string",
							"name": "name",
							"type": "string"
						},
						{
							"internalType": "string",
							"name": "email",
							"type": "string"
						}
					],
					"stateMutability": "view",
					"type": "function"
				},
				{
					"inputs": [
						{
							"internalType": "uint256",
							"name": "",
							"type": "uint256"
						}
					],
					"name": "fixed_list_uints",
					"outputs": [
						{
							"internalType": "uint256",
							"name": "",
							"type": "uint256"
						}
					],
					"stateMutability": "view",
					"type": "function"
				},
				{
					"inputs": [
						{
							"internalType": "string",
							"name": "",
							"type": "string"
						},
						{
							"internalType": "uint256",
							"name": "",
							"type": "uint256"
						}
					],
					"name": "string_listUnits",
					"outputs": [
						{
							"internalType": "uint256",
							"name": "",
							"type": "uint256"
						}
					],
					"stateMutability": "view",
					"type": "function"
				}
			],
			"devdoc": {
				"kind": "dev",
				"methods": {},
				"version": 1
			},
			"evm": {
				"assembly": "    /* \"Smart_Contract/contracts/3_.estructuras_datos.sol\":62:1677  contract data_structures {... */\n  mstore(0x40, 0x80)\n    /* \"Smart_Contract/contracts/3_.estructuras_datos.sol\":294:337  Customer(1, \"alex\", \"alexrial02@gmail.com\") */\n  mload(0x40)\n  dup1\n  0x60\n  add\n  0x40\n  mstore\n  dup1\n    /* \"Smart_Contract/contracts/3_.estructuras_datos.sol\":303:304  1 */\n  0x01\n    /* \"Smart_Contract/contracts/3_.estructuras_datos.sol\":294:337  Customer(1, \"alex\", \"alexrial02@gmail.com\") */\n  dup2\n  mstore\n  0x20\n  add\n  mload(0x40)\n  dup1\n  0x40\n  add\n  0x40\n  mstore\n  dup1\n  0x04\n  dup2\n  mstore\n  0x20\n  add\n  0x616c657800000000000000000000000000000000000000000000000000000000\n  dup2\n  mstore\n  pop\n  dup2\n  mstore\n  0x20\n  add\n  mload(0x40)\n  dup1\n  0x40\n  add\n  0x40\n  mstore\n  dup1\n  0x14\n  dup2\n  mstore\n  0x20\n  add\n  0x616c65787269616c303240676d61696c2e636f6d000000000000000000000000\n  dup2\n  mstore\n  pop\n  dup2\n  mstore\n  pop\n    /* \"Smart_Contract/contracts/3_.estructuras_datos.sol\":272:337  Customer customer_1 = Customer(1, \"alex\", \"alexrial02@gmail.com\") */\n  0x00\n  dup1\n  dup3\n  add\n  mload\n  dup2\n  0x00\n  add\n  sstore\n  0x20\n  dup3\n  add\n  mload\n  dup2\n  0x01\n  add\n  swap1\n  dup2\n  tag_1\n  swap2\n  swap1\n  tag_2\n  jump\t// in\ntag_1:\n  pop\n  0x40\n  dup3\n  add\n  mload\n  dup2\n  0x02\n  add\n  swap1\n  dup2\n  tag_3\n  swap2\n  swap1\n  tag_2\n  jump\t// in\ntag_3:\n  pop\n  pop\n  pop\n    /* \"Smart_Contract/contracts/3_.estructuras_datos.sol\":385:434  uint256 [5] public fixed_list_uints = [1,2,3,4,5] */\n  mload(0x40)\n  dup1\n  0xa0\n  add\n  0x40\n  mstore\n  dup1\n    /* \"Smart_Contract/contracts/3_.estructuras_datos.sol\":424:425  1 */\n  0x01\n    /* \"Smart_Contract/contracts/3_.estructuras_datos.sol\":385:434  uint256 [5] public fixed_list_uints = [1,2,3,4,5] */\n  0xff\n  and\n  dup2\n  mstore\n  0x20\n  add\n    /* \"Smart_Contract/contracts/3_.estructuras_datos.sol\":426:427  2 */\n  0x02\n    /* \"Smart_Contract/contracts/3_.estructuras_datos.sol\":385:434  uint256 [5] public fixed_list_uints = [1,2,3,4,5] */\n  0xff\n  and\n  dup2\n  mstore\n  0x20\n  add\n    /* \"Smart_Contract/contracts/3_.estructuras_datos.sol\":428:429  3 */\n  0x03\n    /* \"Smart_Contract/contracts/3_.estructuras_datos.sol\":385:434  uint256 [5] public fixed_list_uints = [1,2,3,4,5] */\n  0xff\n  and\n  dup2\n  mstore\n  0x20\n  add\n    /* \"Smart_Contract/contracts/3_.estructuras_datos.sol\":430:431  4 */\n  0x04\n    /* \"Smart_Contract/contracts/3_.estructuras_datos.sol\":385:434  uint256 [5] public fixed_list_uints = [1,2,3,4,5] */\n  0xff\n  and\n  dup2\n  mstore\n  0x20\n  add\n    /* \"Smart_Contract/contracts/3_.estructuras_datos.sol\":432:433  5 */\n  0x05\n    /* \"Smart_Contract/contracts/3_.estructuras_datos.sol\":385:434  uint256 [5] public fixed_list_uints = [1,2,3,4,5] */\n  0xff\n  and\n  dup2\n  mstore\n  pop\n  0x03\n  swap1\n  0x05\n  tag_4\n  swap3\n  swap2\n  swap1\n  tag_5\n  jump\t// in\ntag_4:\n  pop\n    /* \"Smart_Contract/contracts/3_.estructuras_datos.sol\":62:1677  contract data_structures {... */\n  callvalue\n  dup1\n  iszero\n  tag_6\n  jumpi\n  0x00\n  dup1\n  revert\ntag_6:\n  pop\n  jump(tag_7)\ntag_5:\n  dup3\n  0x05\n  dup2\n  add\n  swap3\n  dup3\n  iszero\n  tag_8\n  jumpi\n  swap2\n  0x20\n  mul\n  dup3\n  add\ntag_9:\n  dup3\n  dup2\n  gt\n  iszero\n  tag_10\n  jumpi\n  dup3\n  mload\n  dup3\n  swap1\n  0xff\n  and\n  swap1\n  sstore\n  swap2\n  0x20\n  add\n  swap2\n  swap1\n  0x01\n  add\n  swap1\n  jump(tag_9)\ntag_10:\ntag_8:\n  pop\n  swap1\n  pop\n  tag_11\n  swap2\n  swap1\n  tag_12\n  jump\t// in\ntag_11:\n  pop\n  swap1\n  jump\t// out\ntag_12:\ntag_13:\n  dup1\n  dup3\n  gt\n  iszero\n  tag_14\n  jumpi\n  0x00\n  dup2\n  0x00\n  swap1\n  sstore\n  pop\n  0x01\n  add\n  jump(tag_13)\ntag_14:\n  pop\n  swap1\n  jump\t// out\n    /* \"#utility.yul\":7:106   */\ntag_15:\n    /* \"#utility.yul\":59:65   */\n  0x00\n    /* \"#utility.yul\":93:98   */\n  dup2\n    /* \"#utility.yul\":87:99   */\n  mload\n    /* \"#utility.yul\":77:99   */\n  swap1\n  pop\n    /* \"#utility.yul\":7:106   */\n  swap2\n  swap1\n  pop\n  jump\t// out\n    /* \"#utility.yul\":112:292   */\ntag_16:\n    /* \"#utility.yul\":160:237   */\n  0x4e487b7100000000000000000000000000000000000000000000000000000000\n    /* \"#utility.yul\":157:158   */\n  0x00\n    /* \"#utility.yul\":150:238   */\n  mstore\n    /* \"#utility.yul\":257:261   */\n  0x41\n    /* \"#utility.yul\":254:255   */\n  0x04\n    /* \"#utility.yul\":247:262   */\n  mstore\n    /* \"#utility.yul\":281:285   */\n  0x24\n    /* \"#utility.yul\":278:279   */\n  0x00\n    /* \"#utility.yul\":271:286   */\n  revert\n    /* \"#utility.yul\":298:478   */\ntag_17:\n    /* \"#utility.yul\":346:423   */\n  0x4e487b7100000000000000000000000000000000000000000000000000000000\n    /* \"#utility.yul\":343:344   */\n  0x00\n    /* \"#utility.yul\":336:424   */\n  mstore\n    /* \"#utility.yul\":443:447   */\n  0x22\n    /* \"#utility.yul\":440:441   */\n  0x04\n    /* \"#utility.yul\":433:448   */\n  mstore\n    /* \"#utility.yul\":467:471   */\n  0x24\n    /* \"#utility.yul\":464:465   */\n  0x00\n    /* \"#utility.yul\":457:472   */\n  revert\n    /* \"#utility.yul\":484:804   */\ntag_18:\n    /* \"#utility.yul\":528:534   */\n  0x00\n    /* \"#utility.yul\":565:566   */\n  0x02\n    /* \"#utility.yul\":559:563   */\n  dup3\n    /* \"#utility.yul\":555:567   */\n  div\n    /* \"#utility.yul\":545:567   */\n  swap1\n  pop\n    /* \"#utility.yul\":612:613   */\n  0x01\n    /* \"#utility.yul\":606:610   */\n  dup3\n    /* \"#utility.yul\":602:614   */\n  and\n    /* \"#utility.yul\":633:651   */\n  dup1\n    /* \"#utility.yul\":623:704   */\n  tag_40\n  jumpi\n    /* \"#utility.yul\":689:693   */\n  0x7f\n    /* \"#utility.yul\":681:687   */\n  dup3\n    /* \"#utility.yul\":677:694   */\n  and\n    /* \"#utility.yul\":667:694   */\n  swap2\n  pop\n    /* \"#utility.yul\":623:704   */\ntag_40:\n    /* \"#utility.yul\":751:753   */\n  0x20\n    /* \"#utility.yul\":743:749   */\n  dup3\n    /* \"#utility.yul\":740:754   */\n  lt\n    /* \"#utility.yul\":720:738   */\n  dup2\n    /* \"#utility.yul\":717:755   */\n  sub\n    /* \"#utility.yul\":714:798   */\n  tag_41\n  jumpi\n    /* \"#utility.yul\":770:788   */\n  tag_42\n  tag_17\n  jump\t// in\ntag_42:\n    /* \"#utility.yul\":714:798   */\ntag_41:\n    /* \"#utility.yul\":535:804   */\n  pop\n    /* \"#utility.yul\":484:804   */\n  swap2\n  swap1\n  pop\n  jump\t// out\n    /* \"#utility.yul\":810:951   */\ntag_19:\n    /* \"#utility.yul\":859:863   */\n  0x00\n    /* \"#utility.yul\":882:885   */\n  dup2\n    /* \"#utility.yul\":874:885   */\n  swap1\n  pop\n    /* \"#utility.yul\":905:908   */\n  dup2\n    /* \"#utility.yul\":902:903   */\n  0x00\n    /* \"#utility.yul\":895:909   */\n  mstore\n    /* \"#utility.yul\":939:943   */\n  0x20\n    /* \"#utility.yul\":936:937   */\n  0x00\n    /* \"#utility.yul\":926:944   */\n  keccak256\n    /* \"#utility.yul\":918:944   */\n  swap1\n  pop\n    /* \"#utility.yul\":810:951   */\n  swap2\n  swap1\n  pop\n  jump\t// out\n    /* \"#utility.yul\":957:1050   */\ntag_20:\n    /* \"#utility.yul\":994:1000   */\n  0x00\n    /* \"#utility.yul\":1041:1043   */\n  0x20\n    /* \"#utility.yul\":1036:1038   */\n  0x1f\n    /* \"#utility.yul\":1029:1034   */\n  dup4\n    /* \"#utility.yul\":1025:1039   */\n  add\n    /* \"#utility.yul\":1021:1044   */\n  div\n    /* \"#utility.yul\":1011:1044   */\n  swap1\n  pop\n    /* \"#utility.yul\":957:1050   */\n  swap2\n  swap1\n  pop\n  jump\t// out\n    /* \"#utility.yul\":1056:1163   */\ntag_21:\n    /* \"#utility.yul\":1100:1108   */\n  0x00\n    /* \"#utility.yul\":1150:1155   */\n  dup3\n    /* \"#utility.yul\":1144:1148   */\n  dup3\n    /* \"#utility.yul\":1140:1156   */\n  shl\n    /* \"#utility.yul\":1119:1156   */\n  swap1\n  pop\n    /* \"#utility.yul\":1056:1163   */\n  swap3\n  swap2\n  pop\n  pop\n  jump\t// out\n    /* \"#utility.yul\":1169:1562   */\ntag_22:\n    /* \"#utility.yul\":1238:1244   */\n  0x00\n    /* \"#utility.yul\":1288:1289   */\n  0x08\n    /* \"#utility.yul\":1276:1286   */\n  dup4\n    /* \"#utility.yul\":1272:1290   */\n  mul\n    /* \"#utility.yul\":1311:1408   */\n  tag_47\n    /* \"#utility.yul\":1341:1407   */\n  0xffffffffffffffffffffffffffffffffffffffffffffffffffffffffffffffff\n    /* \"#utility.yul\":1330:1339   */\n  dup3\n    /* \"#utility.yul\":1311:1408   */\n  tag_21\n  jump\t// in\ntag_47:\n    /* \"#utility.yul\":1429:1468   */\n  tag_48\n    /* \"#utility.yul\":1459:1467   */\n  dup7\n    /* \"#utility.yul\":1448:1457   */\n  dup4\n    /* \"#utility.yul\":1429:1468   */\n  tag_21\n  jump\t// in\ntag_48:\n    /* \"#utility.yul\":1417:1468   */\n  swap6\n  pop\n    /* \"#utility.yul\":1501:1505   */\n  dup1\n    /* \"#utility.yul\":1497:1506   */\n  not\n    /* \"#utility.yul\":1490:1495   */\n  dup5\n    /* \"#utility.yul\":1486:1507   */\n  and\n    /* \"#utility.yul\":1477:1507   */\n  swap4\n  pop\n    /* \"#utility.yul\":1550:1554   */\n  dup1\n    /* \"#utility.yul\":1540:1548   */\n  dup7\n    /* \"#utility.yul\":1536:1555   */\n  and\n    /* \"#utility.yul\":1529:1534   */\n  dup5\n    /* \"#utility.yul\":1526:1556   */\n  or\n    /* \"#utility.yul\":1516:1556   */\n  swap3\n  pop\n    /* \"#utility.yul\":1245:1562   */\n  pop\n  pop\n    /* \"#utility.yul\":1169:1562   */\n  swap4\n  swap3\n  pop\n  pop\n  pop\n  jump\t// out\n    /* \"#utility.yul\":1568:1645   */\ntag_23:\n    /* \"#utility.yul\":1605:1612   */\n  0x00\n    /* \"#utility.yul\":1634:1639   */\n  dup2\n    /* \"#utility.yul\":1623:1639   */\n  swap1\n  pop\n    /* \"#utility.yul\":1568:1645   */\n  swap2\n  swap1\n  pop\n  jump\t// out\n    /* \"#utility.yul\":1651:1711   */\ntag_24:\n    /* \"#utility.yul\":1679:1682   */\n  0x00\n    /* \"#utility.yul\":1700:1705   */\n  dup2\n    /* \"#utility.yul\":1693:1705   */\n  swap1\n  pop\n    /* \"#utility.yul\":1651:1711   */\n  swap2\n  swap1\n  pop\n  jump\t// out\n    /* \"#utility.yul\":1717:1859   */\ntag_25:\n    /* \"#utility.yul\":1767:1776   */\n  0x00\n    /* \"#utility.yul\":1800:1853   */\n  tag_52\n    /* \"#utility.yul\":1818:1852   */\n  tag_53\n    /* \"#utility.yul\":1827:1851   */\n  tag_54\n    /* \"#utility.yul\":1845:1850   */\n  dup5\n    /* \"#utility.yul\":1827:1851   */\n  tag_23\n  jump\t// in\ntag_54:\n    /* \"#utility.yul\":1818:1852   */\n  tag_24\n  jump\t// in\ntag_53:\n    /* \"#utility.yul\":1800:1853   */\n  tag_23\n  jump\t// in\ntag_52:\n    /* \"#utility.yul\":1787:1853   */\n  swap1\n  pop\n    /* \"#utility.yul\":1717:1859   */\n  swap2\n  swap1\n  pop\n  jump\t// out\n    /* \"#utility.yul\":1865:1940   */\ntag_26:\n    /* \"#utility.yul\":1908:1911   */\n  0x00\n    /* \"#utility.yul\":1929:1934   */\n  dup2\n    /* \"#utility.yul\":1922:1934   */\n  swap1\n  pop\n    /* \"#utility.yul\":1865:1940   */\n  swap2\n  swap1\n  pop\n  jump\t// out\n    /* \"#utility.yul\":1946:2215   */\ntag_27:\n    /* \"#utility.yul\":2056:2095   */\n  tag_57\n    /* \"#utility.yul\":2087:2094   */\n  dup4\n    /* \"#utility.yul\":2056:2095   */\n  tag_25\n  jump\t// in\ntag_57:\n    /* \"#utility.yul\":2117:2208   */\n  tag_58\n    /* \"#utility.yul\":2166:2207   */\n  tag_59\n    /* \"#utility.yul\":2190:2206   */\n  dup3\n    /* \"#utility.yul\":2166:2207   */\n  tag_26\n  jump\t// in\ntag_59:\n    /* \"#utility.yul\":2158:2164   */\n  dup5\n    /* \"#utility.yul\":2151:2155   */\n  dup5\n    /* \"#utility.yul\":2145:2156   */\n  sload\n    /* \"#utility.yul\":2117:2208   */\n  tag_22\n  jump\t// in\ntag_58:\n    /* \"#utility.yul\":2111:2115   */\n  dup3\n    /* \"#utility.yul\":2104:2209   */\n  sstore\n    /* \"#utility.yul\":2022:2215   */\n  pop\n    /* \"#utility.yul\":1946:2215   */\n  pop\n  pop\n  pop\n  jump\t// out\n    /* \"#utility.yul\":2221:2294   */\ntag_28:\n    /* \"#utility.yul\":2266:2269   */\n  0x00\n    /* \"#utility.yul\":2221:2294   */\n  swap1\n  jump\t// out\n    /* \"#utility.yul\":2300:2489   */\ntag_29:\n    /* \"#utility.yul\":2377:2409   */\n  tag_62\n  tag_28\n  jump\t// in\ntag_62:\n    /* \"#utility.yul\":2418:2483   */\n  tag_63\n    /* \"#utility.yul\":2476:2482   */\n  dup2\n    /* \"#utility.yul\":2468:2474   */\n  dup5\n    /* \"#utility.yul\":2462:2466   */\n  dup5\n    /* \"#utility.yul\":2418:2483   */\n  tag_27\n  jump\t// in\ntag_63:\n    /* \"#utility.yul\":2353:2489   */\n  pop\n    /* \"#utility.yul\":2300:2489   */\n  pop\n  pop\n  jump\t// out\n    /* \"#utility.yul\":2495:2681   */\ntag_30:\n    /* \"#utility.yul\":2555:2675   */\ntag_65:\n    /* \"#utility.yul\":2572:2575   */\n  dup2\n    /* \"#utility.yul\":2565:2570   */\n  dup2\n    /* \"#utility.yul\":2562:2576   */\n  lt\n    /* \"#utility.yul\":2555:2675   */\n  iszero\n  tag_67\n  jumpi\n    /* \"#utility.yul\":2626:2665   */\n  tag_68\n    /* \"#utility.yul\":2663:2664   */\n  0x00\n    /* \"#utility.yul\":2656:2661   */\n  dup3\n    /* \"#utility.yul\":2626:2665   */\n  tag_29\n  jump\t// in\ntag_68:\n    /* \"#utility.yul\":2599:2600   */\n  0x01\n    /* \"#utility.yul\":2592:2597   */\n  dup2\n    /* \"#utility.yul\":2588:2601   */\n  add\n    /* \"#utility.yul\":2579:2601   */\n  swap1\n  pop\n    /* \"#utility.yul\":2555:2675   */\n  jump(tag_65)\ntag_67:\n    /* \"#utility.yul\":2495:2681   */\n  pop\n  pop\n  jump\t// out\n    /* \"#utility.yul\":2687:3230   */\ntag_31:\n    /* \"#utility.yul\":2788:2790   */\n  0x1f\n    /* \"#utility.yul\":2783:2786   */\n  dup3\n    /* \"#utility.yul\":2780:2791   */\n  gt\n    /* \"#utility.yul\":2777:3223   */\n  iszero\n  tag_70\n  jumpi\n    /* \"#utility.yul\":2822:2860   */\n  tag_71\n    /* \"#utility.yul\":2854:2859   */\n  dup2\n    /* \"#utility.yul\":2822:2860   */\n  tag_19\n  jump\t// in\ntag_71:\n    /* \"#utility.yul\":2906:2935   */\n  tag_72\n    /* \"#utility.yul\":2924:2934   */\n  dup5\n    /* \"#utility.yul\":2906:2935   */\n  tag_20\n  jump\t// in\ntag_72:\n    /* \"#utility.yul\":2896:2904   */\n  dup2\n    /* \"#utility.yul\":2892:2936   */\n  add\n    /* \"#utility.yul\":3089:3091   */\n  0x20\n    /* \"#utility.yul\":3077:3087   */\n  dup6\n    /* \"#utility.yul\":3074:3092   */\n  lt\n    /* \"#utility.yul\":3071:3120   */\n  iszero\n  tag_73\n  jumpi\n    /* \"#utility.yul\":3110:3118   */\n  dup2\n    /* \"#utility.yul\":3095:3118   */\n  swap1\n  pop\n    /* \"#utility.yul\":3071:3120   */\ntag_73:\n    /* \"#utility.yul\":3133:3213   */\n  tag_74\n    /* \"#utility.yul\":3189:3211   */\n  tag_75\n    /* \"#utility.yul\":3207:3210   */\n  dup6\n    /* \"#utility.yul\":3189:3211   */\n  tag_20\n  jump\t// in\ntag_75:\n    /* \"#utility.yul\":3179:3187   */\n  dup4\n    /* \"#utility.yul\":3175:3212   */\n  add\n    /* \"#utility.yul\":3162:3173   */\n  dup3\n    /* \"#utility.yul\":3133:3213   */\n  tag_30\n  jump\t// in\ntag_74:\n    /* \"#utility.yul\":2792:3223   */\n  pop\n  pop\n    /* \"#utility.yul\":2777:3223   */\ntag_70:\n    /* \"#utility.yul\":2687:3230   */\n  pop\n  pop\n  pop\n  jump\t// out\n    /* \"#utility.yul\":3236:3353   */\ntag_32:\n    /* \"#utility.yul\":3290:3298   */\n  0x00\n    /* \"#utility.yul\":3340:3345   */\n  dup3\n    /* \"#utility.yul\":3334:3338   */\n  dup3\n    /* \"#utility.yul\":3330:3346   */\n  shr\n    /* \"#utility.yul\":3309:3346   */\n  swap1\n  pop\n    /* \"#utility.yul\":3236:3353   */\n  swap3\n  swap2\n  pop\n  pop\n  jump\t// out\n    /* \"#utility.yul\":3359:3528   */\ntag_33:\n    /* \"#utility.yul\":3403:3409   */\n  0x00\n    /* \"#utility.yul\":3436:3487   */\n  tag_78\n    /* \"#utility.yul\":3484:3485   */\n  0x00\n    /* \"#utility.yul\":3480:3486   */\n  not\n    /* \"#utility.yul\":3472:3477   */\n  dup5\n    /* \"#utility.yul\":3469:3470   */\n  0x08\n    /* \"#utility.yul\":3465:3478   */\n  mul\n    /* \"#utility.yul\":3436:3487   */\n  tag_32\n  jump\t// in\ntag_78:\n    /* \"#utility.yul\":3432:3488   */\n  not\n    /* \"#utility.yul\":3517:3521   */\n  dup1\n    /* \"#utility.yul\":3511:3515   */\n  dup4\n    /* \"#utility.yul\":3507:3522   */\n  and\n    /* \"#utility.yul\":3497:3522   */\n  swap2\n  pop\n    /* \"#utility.yul\":3410:3528   */\n  pop\n    /* \"#utility.yul\":3359:3528   */\n  swap3\n  swap2\n  pop\n  pop\n  jump\t// out\n    /* \"#utility.yul\":3533:3828   */\ntag_34:\n    /* \"#utility.yul\":3609:3613   */\n  0x00\n    /* \"#utility.yul\":3755:3784   */\n  tag_80\n    /* \"#utility.yul\":3780:3783   */\n  dup4\n    /* \"#utility.yul\":3774:3778   */\n  dup4\n    /* \"#utility.yul\":3755:3784   */\n  tag_33\n  jump\t// in\ntag_80:\n    /* \"#utility.yul\":3747:3784   */\n  swap2\n  pop\n    /* \"#utility.yul\":3817:3820   */\n  dup3\n    /* \"#utility.yul\":3814:3815   */\n  0x02\n    /* \"#utility.yul\":3810:3821   */\n  mul\n    /* \"#utility.yul\":3804:3808   */\n  dup3\n    /* \"#utility.yul\":3801:3822   */\n  or\n    /* \"#utility.yul\":3793:3822   */\n  swap1\n  pop\n    /* \"#utility.yul\":3533:3828   */\n  swap3\n  swap2\n  pop\n  pop\n  jump\t// out\n    /* \"#utility.yul\":3833:5228   */\ntag_2:\n    /* \"#utility.yul\":3950:3987   */\n  tag_82\n    /* \"#utility.yul\":3983:3986   */\n  dup3\n    /* \"#utility.yul\":3950:3987   */\n  tag_15\n  jump\t// in\ntag_82:\n    /* \"#utility.yul\":4052:4070   */\n  0xffffffffffffffff\n    /* \"#utility.yul\":4044:4050   */\n  dup2\n    /* \"#utility.yul\":4041:4071   */\n  gt\n    /* \"#utility.yul\":4038:4094   */\n  iszero\n  tag_83\n  jumpi\n    /* \"#utility.yul\":4074:4092   */\n  tag_84\n  tag_16\n  jump\t// in\ntag_84:\n    /* \"#utility.yul\":4038:4094   */\ntag_83:\n    /* \"#utility.yul\":4118:4156   */\n  tag_85\n    /* \"#utility.yul\":4150:4154   */\n  dup3\n    /* \"#utility.yul\":4144:4155   */\n  sload\n    /* \"#utility.yul\":4118:4156   */\n  tag_18\n  jump\t// in\ntag_85:\n    /* \"#utility.yul\":4203:4270   */\n  tag_86\n    /* \"#utility.yul\":4263:4269   */\n  dup3\n    /* \"#utility.yul\":4255:4261   */\n  dup3\n    /* \"#utility.yul\":4249:4253   */\n  dup6\n    /* \"#utility.yul\":4203:4270   */\n  tag_31\n  jump\t// in\ntag_86:\n    /* \"#utility.yul\":4297:4298   */\n  0x00\n    /* \"#utility.yul\":4321:4325   */\n  0x20\n    /* \"#utility.yul\":4308:4325   */\n  swap1\n  pop\n    /* \"#utility.yul\":4353:4355   */\n  0x1f\n    /* \"#utility.yul\":4345:4351   */\n  dup4\n    /* \"#utility.yul\":4342:4356   */\n  gt\n    /* \"#utility.yul\":4370:4371   */\n  0x01\n    /* \"#utility.yul\":4365:4983   */\n  dup2\n  eq\n  tag_88\n  jumpi\n    /* \"#utility.yul\":5027:5028   */\n  0x00\n    /* \"#utility.yul\":5044:5050   */\n  dup5\n    /* \"#utility.yul\":5041:5118   */\n  iszero\n  tag_89\n  jumpi\n    /* \"#utility.yul\":5093:5102   */\n  dup3\n    /* \"#utility.yul\":5088:5091   */\n  dup8\n    /* \"#utility.yul\":5084:5103   */\n  add\n    /* \"#utility.yul\":5078:5104   */\n  mload\n    /* \"#utility.yul\":5069:5104   */\n  swap1\n  pop\n    /* \"#utility.yul\":5041:5118   */\ntag_89:\n    /* \"#utility.yul\":5144:5211   */\n  tag_90\n    /* \"#utility.yul\":5204:5210   */\n  dup6\n    /* \"#utility.yul\":5197:5202   */\n  dup3\n    /* \"#utility.yul\":5144:5211   */\n  tag_34\n  jump\t// in\ntag_90:\n    /* \"#utility.yul\":5138:5142   */\n  dup7\n    /* \"#utility.yul\":5131:5212   */\n  sstore\n    /* \"#utility.yul\":5000:5222   */\n  pop\n    /* \"#utility.yul\":4335:5222   */\n  jump(tag_87)\n    /* \"#utility.yul\":4365:4983   */\ntag_88:\n    /* \"#utility.yul\":4417:4421   */\n  0x1f\n    /* \"#utility.yul\":4413:4422   */\n  not\n    /* \"#utility.yul\":4405:4411   */\n  dup5\n    /* \"#utility.yul\":4401:4423   */\n  and\n    /* \"#utility.yul\":4451:4488   */\n  tag_91\n    /* \"#utility.yul\":4483:4487   */\n  dup7\n    /* \"#utility.yul\":4451:4488   */\n  tag_19\n  jump\t// in\ntag_91:\n    /* \"#utility.yul\":4510:4511   */\n  0x00\n    /* \"#utility.yul\":4524:4732   */\ntag_92:\n    /* \"#utility.yul\":4538:4545   */\n  dup3\n    /* \"#utility.yul\":4535:4536   */\n  dup2\n    /* \"#utility.yul\":4532:4546   */\n  lt\n    /* \"#utility.yul\":4524:4732   */\n  iszero\n  tag_94\n  jumpi\n    /* \"#utility.yul\":4617:4626   */\n  dup5\n    /* \"#utility.yul\":4612:4615   */\n  dup10\n    /* \"#utility.yul\":4608:4627   */\n  add\n    /* \"#utility.yul\":4602:4628   */\n  mload\n    /* \"#utility.yul\":4594:4600   */\n  dup3\n    /* \"#utility.yul\":4587:4629   */\n  sstore\n    /* \"#utility.yul\":4668:4669   */\n  0x01\n    /* \"#utility.yul\":4660:4666   */\n  dup3\n    /* \"#utility.yul\":4656:4670   */\n  add\n    /* \"#utility.yul\":4646:4670   */\n  swap2\n  pop\n    /* \"#utility.yul\":4715:4717   */\n  0x20\n    /* \"#utility.yul\":4704:4713   */\n  dup6\n    /* \"#utility.yul\":4700:4718   */\n  add\n    /* \"#utility.yul\":4687:4718   */\n  swap5\n  pop\n    /* \"#utility.yul\":4561:4565   */\n  0x20\n    /* \"#utility.yul\":4558:4559   */\n  dup2\n    /* \"#utility.yul\":4554:4566   */\n  add\n    /* \"#utility.yul\":4549:4566   */\n  swap1\n  pop\n    /* \"#utility.yul\":4524:4732   */\n  jump(tag_92)\ntag_94:\n    /* \"#utility.yul\":4760:4766   */\n  dup7\n    /* \"#utility.yul\":4751:4758   */\n  dup4\n    /* \"#utility.yul\":4748:4767   */\n  lt\n    /* \"#utility.yul\":4745:4924   */\n  iszero\n  tag_95\n  jumpi\n    /* \"#utility.yul\":4818:4827   */\n  dup5\n    /* \"#utility.yul\":4813:4816   */\n  dup10\n    /* \"#utility.yul\":4809:4828   */\n  add\n    /* \"#utility.yul\":4803:4829   */\n  mload\n    /* \"#utility.yul\":4861:4909   */\n  tag_96\n    /* \"#utility.yul\":4903:4907   */\n  0x1f\n    /* \"#utility.yul\":4895:4901   */\n  dup10\n    /* \"#utility.yul\":4891:4908   */\n  and\n    /* \"#utility.yul\":4880:4889   */\n  dup3\n    /* \"#utility.yul\":4861:4909   */\n  tag_33\n  jump\t// in\ntag_96:\n    /* \"#utility.yul\":4853:4859   */\n  dup4\n    /* \"#utility.yul\":4846:4910   */\n  sstore\n    /* \"#utility.yul\":4768:4924   */\n  pop\n    /* \"#utility.yul\":4745:4924   */\ntag_95:\n    /* \"#utility.yul\":4970:4971   */\n  0x01\n    /* \"#utility.yul\":4966:4967   */\n  0x02\n    /* \"#utility.yul\":4958:4964   */\n  dup9\n    /* \"#utility.yul\":4954:4968   */\n  mul\n    /* \"#utility.yul\":4950:4972   */\n  add\n    /* \"#utility.yul\":4944:4948   */\n  dup9\n    /* \"#utility.yul\":4937:4973   */\n  sstore\n    /* \"#utility.yul\":4372:4983   */\n  pop\n  pop\n  pop\n    /* \"#utility.yul\":4335:5222   */\ntag_87:\n  pop\n    /* \"#utility.yul\":3925:5228   */\n  pop\n  pop\n  pop\n    /* \"#utility.yul\":3833:5228   */\n  pop\n  pop\n  jump\t// out\n    /* \"Smart_Contract/contracts/3_.estructuras_datos.sol\":62:1677  contract data_structures {... */\ntag_7:\n  dataSize(sub_0)\n  dup1\n  dataOffset(sub_0)\n  0x00\n  codecopy\n  0x00\n  return\nstop\n\nsub_0: assembly {\n        /* \"Smart_Contract/contracts/3_.estructuras_datos.sol\":62:1677  contract data_structures {... */\n      mstore(0x40, 0x80)\n      callvalue\n      dup1\n      iszero\n      tag_1\n      jumpi\n      0x00\n      dup1\n      revert\n    tag_1:\n      pop\n      jumpi(tag_2, lt(calldatasize, 0x04))\n      shr(0xe0, calldataload(0x00))\n      dup1\n      0xe52b008f\n      gt\n      tag_12\n      jumpi\n      dup1\n      0xe52b008f\n      eq\n      tag_7\n      jumpi\n      dup1\n      0xe990585e\n      eq\n      tag_8\n      jumpi\n      dup1\n      0xeaaefa96\n      eq\n      tag_9\n      jumpi\n      dup1\n      0xf096fa63\n      eq\n      tag_10\n      jumpi\n      dup1\n      0xfecb2c16\n      eq\n      tag_11\n      jumpi\n      jump(tag_2)\n    tag_12:\n      dup1\n      0x20716f88\n      eq\n      tag_3\n      jumpi\n      dup1\n      0x2833c8a9\n      eq\n      tag_4\n      jumpi\n      dup1\n      0x7a088a2e\n      eq\n      tag_5\n      jumpi\n      dup1\n      0x9a83e3ec\n      eq\n      tag_6\n      jumpi\n    tag_2:\n      0x00\n      dup1\n      revert\n        /* \"Smart_Contract/contracts/3_.estructuras_datos.sol\":928:982  mapping (string => uint256 []) public string_listUnits */\n    tag_3:\n      tag_13\n      0x04\n      dup1\n      calldatasize\n      sub\n      dup2\n      add\n      swap1\n      tag_14\n      swap2\n      swap1\n      tag_15\n      jump\t// in\n    tag_14:\n      tag_16\n      jump\t// in\n    tag_13:\n      mload(0x40)\n      tag_17\n      swap2\n      swap1\n      tag_18\n      jump\t// in\n    tag_17:\n      mload(0x40)\n      dup1\n      swap2\n      sub\n      swap1\n      return\n        /* \"Smart_Contract/contracts/3_.estructuras_datos.sol\":1311:1432  function asignList (string memory _name, uint256 _number) public {... */\n    tag_4:\n      tag_19\n      0x04\n      dup1\n      calldatasize\n      sub\n      dup2\n      add\n      swap1\n      tag_20\n      swap2\n      swap1\n      tag_15\n      jump\t// in\n    tag_20:\n      tag_21\n      jump\t// in\n    tag_19:\n      stop\n        /* \"Smart_Contract/contracts/3_.estructuras_datos.sol\":873:921  mapping (address => uint256) public address_uint */\n    tag_5:\n      tag_22\n      0x04\n      dup1\n      calldatasize\n      sub\n      dup2\n      add\n      swap1\n      tag_23\n      swap2\n      swap1\n      tag_24\n      jump\t// in\n    tag_23:\n      tag_25\n      jump\t// in\n    tag_22:\n      mload(0x40)\n      tag_26\n      swap2\n      swap1\n      tag_18\n      jump\t// in\n    tag_26:\n      mload(0x40)\n      dup1\n      swap2\n      sub\n      swap1\n      return\n        /* \"Smart_Contract/contracts/3_.estructuras_datos.sol\":624:848  function array_modification (uint256 _id, string memory name, string memory email) public {... */\n    tag_6:\n      tag_27\n      0x04\n      dup1\n      calldatasize\n      sub\n      dup2\n      add\n      swap1\n      tag_28\n      swap2\n      swap1\n      tag_29\n      jump\t// in\n    tag_28:\n      tag_30\n      jump\t// in\n    tag_27:\n      stop\n        /* \"Smart_Contract/contracts/3_.estructuras_datos.sol\":1098:1256  function assignNumber (uint256 _number) public {... */\n    tag_7:\n      tag_31\n      0x04\n      dup1\n      calldatasize\n      sub\n      dup2\n      add\n      swap1\n      tag_32\n      swap2\n      swap1\n      tag_33\n      jump\t// in\n    tag_32:\n      tag_34\n      jump\t// in\n    tag_31:\n      stop\n        /* \"Smart_Contract/contracts/3_.estructuras_datos.sol\":1501:1672  function assignDataStructure (uint _id, string memory _name, string memory _email) public {... */\n    tag_8:\n      tag_35\n      0x04\n      dup1\n      calldatasize\n      sub\n      dup2\n      add\n      swap1\n      tag_36\n      swap2\n      swap1\n      tag_29\n      jump\t// in\n    tag_36:\n      tag_37\n      jump\t// in\n    tag_35:\n      stop\n        /* \"Smart_Contract/contracts/3_.estructuras_datos.sol\":989:1047  mapping (address => Customer) public address_dataStructure */\n    tag_9:\n      tag_38\n      0x04\n      dup1\n      calldatasize\n      sub\n      dup2\n      add\n      swap1\n      tag_39\n      swap2\n      swap1\n      tag_24\n      jump\t// in\n    tag_39:\n      tag_40\n      jump\t// in\n    tag_38:\n      mload(0x40)\n      tag_41\n      swap4\n      swap3\n      swap2\n      swap1\n      tag_42\n      jump\t// in\n    tag_41:\n      mload(0x40)\n      dup1\n      swap2\n      sub\n      swap1\n      return\n        /* \"Smart_Contract/contracts/3_.estructuras_datos.sol\":542:582  Customer [] public dynamic_list_customer */\n    tag_10:\n      tag_43\n      0x04\n      dup1\n      calldatasize\n      sub\n      dup2\n      add\n      swap1\n      tag_44\n      swap2\n      swap1\n      tag_33\n      jump\t// in\n    tag_44:\n      tag_45\n      jump\t// in\n    tag_43:\n      mload(0x40)\n      tag_46\n      swap4\n      swap3\n      swap2\n      swap1\n      tag_42\n      jump\t// in\n    tag_46:\n      mload(0x40)\n      dup1\n      swap2\n      sub\n      swap1\n      return\n        /* \"Smart_Contract/contracts/3_.estructuras_datos.sol\":385:434  uint256 [5] public fixed_list_uints = [1,2,3,4,5] */\n    tag_11:\n      tag_47\n      0x04\n      dup1\n      calldatasize\n      sub\n      dup2\n      add\n      swap1\n      tag_48\n      swap2\n      swap1\n      tag_33\n      jump\t// in\n    tag_48:\n      tag_49\n      jump\t// in\n    tag_47:\n      mload(0x40)\n      tag_50\n      swap2\n      swap1\n      tag_18\n      jump\t// in\n    tag_50:\n      mload(0x40)\n      dup1\n      swap2\n      sub\n      swap1\n      return\n        /* \"Smart_Contract/contracts/3_.estructuras_datos.sol\":928:982  mapping (string => uint256 []) public string_listUnits */\n    tag_16:\n      0x0b\n      dup3\n      dup1\n      mload\n      0x20\n      dup2\n      add\n      dup3\n      add\n      dup1\n      mload\n      dup5\n      dup3\n      mstore\n      0x20\n      dup4\n      add\n      0x20\n      dup6\n      add\n      keccak256\n      dup2\n      dup4\n      mstore\n      dup1\n      swap6\n      pop\n      pop\n      pop\n      pop\n      pop\n      pop\n      dup2\n      dup2\n      sload\n      dup2\n      lt\n      tag_51\n      jumpi\n      0x00\n      dup1\n      revert\n    tag_51:\n      swap1\n      0x00\n      mstore\n      keccak256(0x00, 0x20)\n      add\n      0x00\n      swap2\n      pop\n      swap2\n      pop\n      pop\n      sload\n      dup2\n      jump\t// out\n        /* \"Smart_Contract/contracts/3_.estructuras_datos.sol\":1311:1432  function asignList (string memory _name, uint256 _number) public {... */\n    tag_21:\n        /* \"Smart_Contract/contracts/3_.estructuras_datos.sol\":1387:1403  string_listUnits */\n      0x0b\n        /* \"Smart_Contract/contracts/3_.estructuras_datos.sol\":1404:1409  _name */\n      dup3\n        /* \"Smart_Contract/contracts/3_.estructuras_datos.sol\":1387:1410  string_listUnits[_name] */\n      mload(0x40)\n      tag_54\n      swap2\n      swap1\n      tag_55\n      jump\t// in\n    tag_54:\n      swap1\n      dup2\n      mstore\n      0x20\n      add\n      mload(0x40)\n      dup1\n      swap2\n      sub\n      swap1\n      keccak256\n        /* \"Smart_Contract/contracts/3_.estructuras_datos.sol\":1416:1423  _number */\n      dup2\n        /* \"Smart_Contract/contracts/3_.estructuras_datos.sol\":1387:1424  string_listUnits[_name].push(_number) */\n      swap1\n      dup1\n      0x01\n      dup2\n      sload\n      add\n      dup1\n      dup3\n      sstore\n      dup1\n      swap2\n      pop\n      pop\n      0x01\n      swap1\n      sub\n      swap1\n      0x00\n      mstore\n      keccak256(0x00, 0x20)\n      add\n      0x00\n      swap1\n      swap2\n      swap1\n      swap2\n      swap1\n      swap2\n      pop\n      sstore\n        /* \"Smart_Contract/contracts/3_.estructuras_datos.sol\":1311:1432  function asignList (string memory _name, uint256 _number) public {... */\n      pop\n      pop\n      jump\t// out\n        /* \"Smart_Contract/contracts/3_.estructuras_datos.sol\":873:921  mapping (address => uint256) public address_uint */\n    tag_25:\n      mstore(0x20, 0x0a)\n      dup1\n      0x00\n      mstore\n      keccak256(0x00, 0x40)\n      0x00\n      swap2\n      pop\n      swap1\n      pop\n      sload\n      dup2\n      jump\t// out\n        /* \"Smart_Contract/contracts/3_.estructuras_datos.sol\":624:848  function array_modification (uint256 _id, string memory name, string memory email) public {... */\n    tag_30:\n        /* \"Smart_Contract/contracts/3_.estructuras_datos.sol\":725:756  Customer memory random_customer */\n      0x00\n        /* \"Smart_Contract/contracts/3_.estructuras_datos.sol\":759:786  Customer (_id, name, email) */\n      mload(0x40)\n      dup1\n      0x60\n      add\n      0x40\n      mstore\n      dup1\n        /* \"Smart_Contract/contracts/3_.estructuras_datos.sol\":769:772  _id */\n      dup6\n        /* \"Smart_Contract/contracts/3_.estructuras_datos.sol\":759:786  Customer (_id, name, email) */\n      dup2\n      mstore\n      0x20\n      add\n        /* \"Smart_Contract/contracts/3_.estructuras_datos.sol\":774:778  name */\n      dup5\n        /* \"Smart_Contract/contracts/3_.estructuras_datos.sol\":759:786  Customer (_id, name, email) */\n      dup2\n      mstore\n      0x20\n      add\n        /* \"Smart_Contract/contracts/3_.estructuras_datos.sol\":780:785  email */\n      dup4\n        /* \"Smart_Contract/contracts/3_.estructuras_datos.sol\":759:786  Customer (_id, name, email) */\n      dup2\n      mstore\n      pop\n        /* \"Smart_Contract/contracts/3_.estructuras_datos.sol\":725:786  Customer memory random_customer = Customer (_id, name, email) */\n      swap1\n      pop\n        /* \"Smart_Contract/contracts/3_.estructuras_datos.sol\":797:818  dynamic_list_customer */\n      0x09\n        /* \"Smart_Contract/contracts/3_.estructuras_datos.sol\":824:839  random_customer */\n      dup2\n        /* \"Smart_Contract/contracts/3_.estructuras_datos.sol\":797:840  dynamic_list_customer.push(random_customer) */\n      swap1\n      dup1\n      0x01\n      dup2\n      sload\n      add\n      dup1\n      dup3\n      sstore\n      dup1\n      swap2\n      pop\n      pop\n      0x01\n      swap1\n      sub\n      swap1\n      0x00\n      mstore\n      keccak256(0x00, 0x20)\n      swap1\n      0x03\n      mul\n      add\n      0x00\n      swap1\n      swap2\n      swap1\n      swap2\n      swap1\n      swap2\n      pop\n      0x00\n      dup3\n      add\n      mload\n      dup2\n      0x00\n      add\n      sstore\n      0x20\n      dup3\n      add\n      mload\n      dup2\n      0x01\n      add\n      swap1\n      dup2\n      tag_59\n      swap2\n      swap1\n      tag_60\n      jump\t// in\n    tag_59:\n      pop\n      0x40\n      dup3\n      add\n      mload\n      dup2\n      0x02\n      add\n      swap1\n      dup2\n      tag_61\n      swap2\n      swap1\n      tag_60\n      jump\t// in\n    tag_61:\n      pop\n      pop\n      pop\n        /* \"Smart_Contract/contracts/3_.estructuras_datos.sol\":714:848  {... */\n      pop\n        /* \"Smart_Contract/contracts/3_.estructuras_datos.sol\":624:848  function array_modification (uint256 _id, string memory name, string memory email) public {... */\n      pop\n      pop\n      pop\n      jump\t// out\n        /* \"Smart_Contract/contracts/3_.estructuras_datos.sol\":1098:1256  function assignNumber (uint256 _number) public {... */\n    tag_34:\n        /* \"Smart_Contract/contracts/3_.estructuras_datos.sol\":1183:1190  _number */\n      dup1\n        /* \"Smart_Contract/contracts/3_.estructuras_datos.sol\":1156:1168  address_uint */\n      0x0a\n        /* \"Smart_Contract/contracts/3_.estructuras_datos.sol\":1156:1180  address_uint[msg.sender] */\n      0x00\n        /* \"Smart_Contract/contracts/3_.estructuras_datos.sol\":1169:1179  msg.sender */\n      caller\n        /* \"Smart_Contract/contracts/3_.estructuras_datos.sol\":1156:1180  address_uint[msg.sender] */\n      0xffffffffffffffffffffffffffffffffffffffff\n      and\n      0xffffffffffffffffffffffffffffffffffffffff\n      and\n      dup2\n      mstore\n      0x20\n      add\n      swap1\n      dup2\n      mstore\n      0x20\n      add\n      0x00\n      keccak256\n        /* \"Smart_Contract/contracts/3_.estructuras_datos.sol\":1156:1190  address_uint[msg.sender] = _number */\n      dup2\n      swap1\n      sstore\n      pop\n        /* \"Smart_Contract/contracts/3_.estructuras_datos.sol\":1098:1256  function assignNumber (uint256 _number) public {... */\n      pop\n      jump\t// out\n        /* \"Smart_Contract/contracts/3_.estructuras_datos.sol\":1501:1672  function assignDataStructure (uint _id, string memory _name, string memory _email) public {... */\n    tag_37:\n        /* \"Smart_Contract/contracts/3_.estructuras_datos.sol\":1638:1664  Customer(_id,_name,_email) */\n      mload(0x40)\n      dup1\n      0x60\n      add\n      0x40\n      mstore\n      dup1\n        /* \"Smart_Contract/contracts/3_.estructuras_datos.sol\":1647:1650  _id */\n      dup5\n        /* \"Smart_Contract/contracts/3_.estructuras_datos.sol\":1638:1664  Customer(_id,_name,_email) */\n      dup2\n      mstore\n      0x20\n      add\n        /* \"Smart_Contract/contracts/3_.estructuras_datos.sol\":1651:1656  _name */\n      dup4\n        /* \"Smart_Contract/contracts/3_.estructuras_datos.sol\":1638:1664  Customer(_id,_name,_email) */\n      dup2\n      mstore\n      0x20\n      add\n        /* \"Smart_Contract/contracts/3_.estructuras_datos.sol\":1657:1663  _email */\n      dup3\n        /* \"Smart_Contract/contracts/3_.estructuras_datos.sol\":1638:1664  Customer(_id,_name,_email) */\n      dup2\n      mstore\n      pop\n        /* \"Smart_Contract/contracts/3_.estructuras_datos.sol\":1602:1623  address_dataStructure */\n      0x0c\n        /* \"Smart_Contract/contracts/3_.estructuras_datos.sol\":1602:1635  address_dataStructure[msg.sender] */\n      0x00\n        /* \"Smart_Contract/contracts/3_.estructuras_datos.sol\":1624:1634  msg.sender */\n      caller\n        /* \"Smart_Contract/contracts/3_.estructuras_datos.sol\":1602:1635  address_dataStructure[msg.sender] */\n      0xffffffffffffffffffffffffffffffffffffffff\n      and\n      0xffffffffffffffffffffffffffffffffffffffff\n      and\n      dup2\n      mstore\n      0x20\n      add\n      swap1\n      dup2\n      mstore\n      0x20\n      add\n      0x00\n      keccak256\n        /* \"Smart_Contract/contracts/3_.estructuras_datos.sol\":1602:1664  address_dataStructure[msg.sender] = Customer(_id,_name,_email) */\n      0x00\n      dup3\n      add\n      mload\n      dup2\n      0x00\n      add\n      sstore\n      0x20\n      dup3\n      add\n      mload\n      dup2\n      0x01\n      add\n      swap1\n      dup2\n      tag_64\n      swap2\n      swap1\n      tag_60\n      jump\t// in\n    tag_64:\n      pop\n      0x40\n      dup3\n      add\n      mload\n      dup2\n      0x02\n      add\n      swap1\n      dup2\n      tag_65\n      swap2\n      swap1\n      tag_60\n      jump\t// in\n    tag_65:\n      pop\n      swap1\n      pop\n      pop\n        /* \"Smart_Contract/contracts/3_.estructuras_datos.sol\":1501:1672  function assignDataStructure (uint _id, string memory _name, string memory _email) public {... */\n      pop\n      pop\n      pop\n      jump\t// out\n        /* \"Smart_Contract/contracts/3_.estructuras_datos.sol\":989:1047  mapping (address => Customer) public address_dataStructure */\n    tag_40:\n      mstore(0x20, 0x0c)\n      dup1\n      0x00\n      mstore\n      keccak256(0x00, 0x40)\n      0x00\n      swap2\n      pop\n      swap1\n      pop\n      dup1\n      0x00\n      add\n      sload\n      swap1\n      dup1\n      0x01\n      add\n      dup1\n      sload\n      tag_66\n      swap1\n      tag_67\n      jump\t// in\n    tag_66:\n      dup1\n      0x1f\n      add\n      0x20\n      dup1\n      swap2\n      div\n      mul\n      0x20\n      add\n      mload(0x40)\n      swap1\n      dup2\n      add\n      0x40\n      mstore\n      dup1\n      swap3\n      swap2\n      swap1\n      dup2\n      dup2\n      mstore\n      0x20\n      add\n      dup3\n      dup1\n      sload\n      tag_68\n      swap1\n      tag_67\n      jump\t// in\n    tag_68:\n      dup1\n      iszero\n      tag_69\n      jumpi\n      dup1\n      0x1f\n      lt\n      tag_70\n      jumpi\n      0x0100\n      dup1\n      dup4\n      sload\n      div\n      mul\n      dup4\n      mstore\n      swap2\n      0x20\n      add\n      swap2\n      jump(tag_69)\n    tag_70:\n      dup3\n      add\n      swap2\n      swap1\n      0x00\n      mstore\n      keccak256(0x00, 0x20)\n      swap1\n    tag_71:\n      dup2\n      sload\n      dup2\n      mstore\n      swap1\n      0x01\n      add\n      swap1\n      0x20\n      add\n      dup1\n      dup4\n      gt\n      tag_71\n      jumpi\n      dup3\n      swap1\n      sub\n      0x1f\n      and\n      dup3\n      add\n      swap2\n    tag_69:\n      pop\n      pop\n      pop\n      pop\n      pop\n      swap1\n      dup1\n      0x02\n      add\n      dup1\n      sload\n      tag_72\n      swap1\n      tag_67\n      jump\t// in\n    tag_72:\n      dup1\n      0x1f\n      add\n      0x20\n      dup1\n      swap2\n      div\n      mul\n      0x20\n      add\n      mload(0x40)\n      swap1\n      dup2\n      add\n      0x40\n      mstore\n      dup1\n      swap3\n      swap2\n      swap1\n      dup2\n      dup2\n      mstore\n      0x20\n      add\n      dup3\n      dup1\n      sload\n      tag_73\n      swap1\n      tag_67\n      jump\t// in\n    tag_73:\n      dup1\n      iszero\n      tag_74\n      jumpi\n      dup1\n      0x1f\n      lt\n      tag_75\n      jumpi\n      0x0100\n      dup1\n      dup4\n      sload\n      div\n      mul\n      dup4\n      mstore\n      swap2\n      0x20\n      add\n      swap2\n      jump(tag_74)\n    tag_75:\n      dup3\n      add\n      swap2\n      swap1\n      0x00\n      mstore\n      keccak256(0x00, 0x20)\n      swap1\n    tag_76:\n      dup2\n      sload\n      dup2\n      mstore\n      swap1\n      0x01\n      add\n      swap1\n      0x20\n      add\n      dup1\n      dup4\n      gt\n      tag_76\n      jumpi\n      dup3\n      swap1\n      sub\n      0x1f\n      and\n      dup3\n      add\n      swap2\n    tag_74:\n      pop\n      pop\n      pop\n      pop\n      pop\n      swap1\n      pop\n      dup4\n      jump\t// out\n        /* \"Smart_Contract/contracts/3_.estructuras_datos.sol\":542:582  Customer [] public dynamic_list_customer */\n    tag_45:\n      0x09\n      dup2\n      dup2\n      sload\n      dup2\n      lt\n      tag_77\n      jumpi\n      0x00\n      dup1\n      revert\n    tag_77:\n      swap1\n      0x00\n      mstore\n      keccak256(0x00, 0x20)\n      swap1\n      0x03\n      mul\n      add\n      0x00\n      swap2\n      pop\n      swap1\n      pop\n      dup1\n      0x00\n      add\n      sload\n      swap1\n      dup1\n      0x01\n      add\n      dup1\n      sload\n      tag_79\n      swap1\n      tag_67\n      jump\t// in\n    tag_79:\n      dup1\n      0x1f\n      add\n      0x20\n      dup1\n      swap2\n      div\n      mul\n      0x20\n      add\n      mload(0x40)\n      swap1\n      dup2\n      add\n      0x40\n      mstore\n      dup1\n      swap3\n      swap2\n      swap1\n      dup2\n      dup2\n      mstore\n      0x20\n      add\n      dup3\n      dup1\n      sload\n      tag_80\n      swap1\n      tag_67\n      jump\t// in\n    tag_80:\n      dup1\n      iszero\n      tag_81\n      jumpi\n      dup1\n      0x1f\n      lt\n      tag_82\n      jumpi\n      0x0100\n      dup1\n      dup4\n      sload\n      div\n      mul\n      dup4\n      mstore\n      swap2\n      0x20\n      add\n      swap2\n      jump(tag_81)\n    tag_82:\n      dup3\n      add\n      swap2\n      swap1\n      0x00\n      mstore\n      keccak256(0x00, 0x20)\n      swap1\n    tag_83:\n      dup2\n      sload\n      dup2\n      mstore\n      swap1\n      0x01\n      add\n      swap1\n      0x20\n      add\n      dup1\n      dup4\n      gt\n      tag_83\n      jumpi\n      dup3\n      swap1\n      sub\n      0x1f\n      and\n      dup3\n      add\n      swap2\n    tag_81:\n      pop\n      pop\n      pop\n      pop\n      pop\n      swap1\n      dup1\n      0x02\n      add\n      dup1\n      sload\n      tag_84\n      swap1\n      tag_67\n      jump\t// in\n    tag_84:\n      dup1\n      0x1f\n      add\n      0x20\n      dup1\n      swap2\n      div\n      mul\n      0x20\n      add\n      mload(0x40)\n      swap1\n      dup2\n      add\n      0x40\n      mstore\n      dup1\n      swap3\n      swap2\n      swap1\n      dup2\n      dup2\n      mstore\n      0x20\n      add\n      dup3\n      dup1\n      sload\n      tag_85\n      swap1\n      tag_67\n      jump\t// in\n    tag_85:\n      dup1\n      iszero\n      tag_86\n      jumpi\n      dup1\n      0x1f\n      lt\n      tag_87\n      jumpi\n      0x0100\n      dup1\n      dup4\n      sload\n      div\n      mul\n      dup4\n      mstore\n      swap2\n      0x20\n      add\n      swap2\n      jump(tag_86)\n    tag_87:\n      dup3\n      add\n      swap2\n      swap1\n      0x00\n      mstore\n      keccak256(0x00, 0x20)\n      swap1\n    tag_88:\n      dup2\n      sload\n      dup2\n      mstore\n      swap1\n      0x01\n      add\n      swap1\n      0x20\n      add\n      dup1\n      dup4\n      gt\n      tag_88\n      jumpi\n      dup3\n      swap1\n      sub\n      0x1f\n      and\n      dup3\n      add\n      swap2\n    tag_86:\n      pop\n      pop\n      pop\n      pop\n      pop\n      swap1\n      pop\n      dup4\n      jump\t// out\n        /* \"Smart_Contract/contracts/3_.estructuras_datos.sol\":385:434  uint256 [5] public fixed_list_uints = [1,2,3,4,5] */\n    tag_49:\n      0x03\n      dup2\n      0x05\n      dup2\n      lt\n      tag_89\n      jumpi\n      0x00\n      dup1\n      revert\n    tag_89:\n      add\n      0x00\n      swap2\n      pop\n      swap1\n      pop\n      sload\n      dup2\n      jump\t// out\n        /* \"#utility.yul\":7:82   */\n    tag_91:\n        /* \"#utility.yul\":40:46   */\n      0x00\n        /* \"#utility.yul\":73:75   */\n      0x40\n        /* \"#utility.yul\":67:76   */\n      mload\n        /* \"#utility.yul\":57:76   */\n      swap1\n      pop\n        /* \"#utility.yul\":7:82   */\n      swap1\n      jump\t// out\n        /* \"#utility.yul\":88:205   */\n    tag_92:\n        /* \"#utility.yul\":197:198   */\n      0x00\n        /* \"#utility.yul\":194:195   */\n      dup1\n        /* \"#utility.yul\":187:199   */\n      revert\n        /* \"#utility.yul\":211:328   */\n    tag_93:\n        /* \"#utility.yul\":320:321   */\n      0x00\n        /* \"#utility.yul\":317:318   */\n      dup1\n        /* \"#utility.yul\":310:322   */\n      revert\n        /* \"#utility.yul\":334:451   */\n    tag_94:\n        /* \"#utility.yul\":443:444   */\n      0x00\n        /* \"#utility.yul\":440:441   */\n      dup1\n        /* \"#utility.yul\":433:445   */\n      revert\n        /* \"#utility.yul\":457:574   */\n    tag_95:\n        /* \"#utility.yul\":566:567   */\n      0x00\n        /* \"#utility.yul\":563:564   */\n      dup1\n        /* \"#utility.yul\":556:568   */\n      revert\n        /* \"#utility.yul\":580:682   */\n    tag_96:\n        /* \"#utility.yul\":621:627   */\n      0x00\n        /* \"#utility.yul\":672:674   */\n      0x1f\n        /* \"#utility.yul\":668:675   */\n      not\n        /* \"#utility.yul\":663:665   */\n      0x1f\n        /* \"#utility.yul\":656:661   */\n      dup4\n        /* \"#utility.yul\":652:666   */\n      add\n        /* \"#utility.yul\":648:676   */\n      and\n        /* \"#utility.yul\":638:676   */\n      swap1\n      pop\n        /* \"#utility.yul\":580:682   */\n      swap2\n      swap1\n      pop\n      jump\t// out\n        /* \"#utility.yul\":688:868   */\n    tag_97:\n        /* \"#utility.yul\":736:813   */\n      0x4e487b7100000000000000000000000000000000000000000000000000000000\n        /* \"#utility.yul\":733:734   */\n      0x00\n        /* \"#utility.yul\":726:814   */\n      mstore\n        /* \"#utility.yul\":833:837   */\n      0x41\n        /* \"#utility.yul\":830:831   */\n      0x04\n        /* \"#utility.yul\":823:838   */\n      mstore\n        /* \"#utility.yul\":857:861   */\n      0x24\n        /* \"#utility.yul\":854:855   */\n      0x00\n        /* \"#utility.yul\":847:862   */\n      revert\n        /* \"#utility.yul\":874:1155   */\n    tag_98:\n        /* \"#utility.yul\":957:984   */\n      tag_143\n        /* \"#utility.yul\":979:983   */\n      dup3\n        /* \"#utility.yul\":957:984   */\n      tag_96\n      jump\t// in\n    tag_143:\n        /* \"#utility.yul\":949:955   */\n      dup2\n        /* \"#utility.yul\":945:985   */\n      add\n        /* \"#utility.yul\":1087:1093   */\n      dup2\n        /* \"#utility.yul\":1075:1085   */\n      dup2\n        /* \"#utility.yul\":1072:1094   */\n      lt\n        /* \"#utility.yul\":1051:1069   */\n      0xffffffffffffffff\n        /* \"#utility.yul\":1039:1049   */\n      dup3\n        /* \"#utility.yul\":1036:1070   */\n      gt\n        /* \"#utility.yul\":1033:1095   */\n      or\n        /* \"#utility.yul\":1030:1118   */\n      iszero\n      tag_144\n      jumpi\n        /* \"#utility.yul\":1098:1116   */\n      tag_145\n      tag_97\n      jump\t// in\n    tag_145:\n        /* \"#utility.yul\":1030:1118   */\n    tag_144:\n        /* \"#utility.yul\":1138:1148   */\n      dup1\n        /* \"#utility.yul\":1134:1136   */\n      0x40\n        /* \"#utility.yul\":1127:1149   */\n      mstore\n        /* \"#utility.yul\":917:1155   */\n      pop\n        /* \"#utility.yul\":874:1155   */\n      pop\n      pop\n      jump\t// out\n        /* \"#utility.yul\":1161:1290   */\n    tag_99:\n        /* \"#utility.yul\":1195:1201   */\n      0x00\n        /* \"#utility.yul\":1222:1242   */\n      tag_147\n      tag_91\n      jump\t// in\n    tag_147:\n        /* \"#utility.yul\":1212:1242   */\n      swap1\n      pop\n        /* \"#utility.yul\":1251:1284   */\n      tag_148\n        /* \"#utility.yul\":1279:1283   */\n      dup3\n        /* \"#utility.yul\":1271:1277   */\n      dup3\n        /* \"#utility.yul\":1251:1284   */\n      tag_98\n      jump\t// in\n    tag_148:\n        /* \"#utility.yul\":1161:1290   */\n      swap2\n      swap1\n      pop\n      jump\t// out\n        /* \"#utility.yul\":1296:1604   */\n    tag_100:\n        /* \"#utility.yul\":1358:1362   */\n      0x00\n        /* \"#utility.yul\":1448:1466   */\n      0xffffffffffffffff\n        /* \"#utility.yul\":1440:1446   */\n      dup3\n        /* \"#utility.yul\":1437:1467   */\n      gt\n        /* \"#utility.yul\":1434:1490   */\n      iszero\n      tag_150\n      jumpi\n        /* \"#utility.yul\":1470:1488   */\n      tag_151\n      tag_97\n      jump\t// in\n    tag_151:\n        /* \"#utility.yul\":1434:1490   */\n    tag_150:\n        /* \"#utility.yul\":1508:1537   */\n      tag_152\n        /* \"#utility.yul\":1530:1536   */\n      dup3\n        /* \"#utility.yul\":1508:1537   */\n      tag_96\n      jump\t// in\n    tag_152:\n        /* \"#utility.yul\":1500:1537   */\n      swap1\n      pop\n        /* \"#utility.yul\":1592:1596   */\n      0x20\n        /* \"#utility.yul\":1586:1590   */\n      dup2\n        /* \"#utility.yul\":1582:1597   */\n      add\n        /* \"#utility.yul\":1574:1597   */\n      swap1\n      pop\n        /* \"#utility.yul\":1296:1604   */\n      swap2\n      swap1\n      pop\n      jump\t// out\n        /* \"#utility.yul\":1610:1756   */\n    tag_101:\n        /* \"#utility.yul\":1707:1713   */\n      dup3\n        /* \"#utility.yul\":1702:1705   */\n      dup2\n        /* \"#utility.yul\":1697:1700   */\n      dup4\n        /* \"#utility.yul\":1684:1714   */\n      calldatacopy\n        /* \"#utility.yul\":1748:1749   */\n      0x00\n        /* \"#utility.yul\":1739:1745   */\n      dup4\n        /* \"#utility.yul\":1734:1737   */\n      dup4\n        /* \"#utility.yul\":1730:1746   */\n      add\n        /* \"#utility.yul\":1723:1750   */\n      mstore\n        /* \"#utility.yul\":1610:1756   */\n      pop\n      pop\n      pop\n      jump\t// out\n        /* \"#utility.yul\":1762:2187   */\n    tag_102:\n        /* \"#utility.yul\":1840:1845   */\n      0x00\n        /* \"#utility.yul\":1865:1931   */\n      tag_155\n        /* \"#utility.yul\":1881:1930   */\n      tag_156\n        /* \"#utility.yul\":1923:1929   */\n      dup5\n        /* \"#utility.yul\":1881:1930   */\n      tag_100\n      jump\t// in\n    tag_156:\n        /* \"#utility.yul\":1865:1931   */\n      tag_99\n      jump\t// in\n    tag_155:\n        /* \"#utility.yul\":1856:1931   */\n      swap1\n      pop\n        /* \"#utility.yul\":1954:1960   */\n      dup3\n        /* \"#utility.yul\":1947:1952   */\n      dup2\n        /* \"#utility.yul\":1940:1961   */\n      mstore\n        /* \"#utility.yul\":1992:1996   */\n      0x20\n        /* \"#utility.yul\":1985:1990   */\n      dup2\n        /* \"#utility.yul\":1981:1997   */\n      add\n        /* \"#utility.yul\":2030:2033   */\n      dup5\n        /* \"#utility.yul\":2021:2027   */\n      dup5\n        /* \"#utility.yul\":2016:2019   */\n      dup5\n        /* \"#utility.yul\":2012:2028   */\n      add\n        /* \"#utility.yul\":2009:2034   */\n      gt\n        /* \"#utility.yul\":2006:2118   */\n      iszero\n      tag_157\n      jumpi\n        /* \"#utility.yul\":2037:2116   */\n      tag_158\n      tag_95\n      jump\t// in\n    tag_158:\n        /* \"#utility.yul\":2006:2118   */\n    tag_157:\n        /* \"#utility.yul\":2127:2181   */\n      tag_159\n        /* \"#utility.yul\":2174:2180   */\n      dup5\n        /* \"#utility.yul\":2169:2172   */\n      dup3\n        /* \"#utility.yul\":2164:2167   */\n      dup6\n        /* \"#utility.yul\":2127:2181   */\n      tag_101\n      jump\t// in\n    tag_159:\n        /* \"#utility.yul\":1846:2187   */\n      pop\n        /* \"#utility.yul\":1762:2187   */\n      swap4\n      swap3\n      pop\n      pop\n      pop\n      jump\t// out\n        /* \"#utility.yul\":2207:2547   */\n    tag_103:\n        /* \"#utility.yul\":2263:2268   */\n      0x00\n        /* \"#utility.yul\":2312:2315   */\n      dup3\n        /* \"#utility.yul\":2305:2309   */\n      0x1f\n        /* \"#utility.yul\":2297:2303   */\n      dup4\n        /* \"#utility.yul\":2293:2310   */\n      add\n        /* \"#utility.yul\":2289:2316   */\n      slt\n        /* \"#utility.yul\":2279:2401   */\n      tag_161\n      jumpi\n        /* \"#utility.yul\":2320:2399   */\n      tag_162\n      tag_94\n      jump\t// in\n    tag_162:\n        /* \"#utility.yul\":2279:2401   */\n    tag_161:\n        /* \"#utility.yul\":2437:2443   */\n      dup2\n        /* \"#utility.yul\":2424:2444   */\n      calldataload\n        /* \"#utility.yul\":2462:2541   */\n      tag_163\n        /* \"#utility.yul\":2537:2540   */\n      dup5\n        /* \"#utility.yul\":2529:2535   */\n      dup3\n        /* \"#utility.yul\":2522:2526   */\n      0x20\n        /* \"#utility.yul\":2514:2520   */\n      dup7\n        /* \"#utility.yul\":2510:2527   */\n      add\n        /* \"#utility.yul\":2462:2541   */\n      tag_102\n      jump\t// in\n    tag_163:\n        /* \"#utility.yul\":2453:2541   */\n      swap2\n      pop\n        /* \"#utility.yul\":2269:2547   */\n      pop\n        /* \"#utility.yul\":2207:2547   */\n      swap3\n      swap2\n      pop\n      pop\n      jump\t// out\n        /* \"#utility.yul\":2553:2630   */\n    tag_104:\n        /* \"#utility.yul\":2590:2597   */\n      0x00\n        /* \"#utility.yul\":2619:2624   */\n      dup2\n        /* \"#utility.yul\":2608:2624   */\n      swap1\n      pop\n        /* \"#utility.yul\":2553:2630   */\n      swap2\n      swap1\n      pop\n      jump\t// out\n        /* \"#utility.yul\":2636:2758   */\n    tag_105:\n        /* \"#utility.yul\":2709:2733   */\n      tag_166\n        /* \"#utility.yul\":2727:2732   */\n      dup2\n        /* \"#utility.yul\":2709:2733   */\n      tag_104\n      jump\t// in\n    tag_166:\n        /* \"#utility.yul\":2702:2707   */\n      dup2\n        /* \"#utility.yul\":2699:2734   */\n      eq\n        /* \"#utility.yul\":2689:2752   */\n      tag_167\n      jumpi\n        /* \"#utility.yul\":2748:2749   */\n      0x00\n        /* \"#utility.yul\":2745:2746   */\n      dup1\n        /* \"#utility.yul\":2738:2750   */\n      revert\n        /* \"#utility.yul\":2689:2752   */\n    tag_167:\n        /* \"#utility.yul\":2636:2758   */\n      pop\n      jump\t// out\n        /* \"#utility.yul\":2764:2903   */\n    tag_106:\n        /* \"#utility.yul\":2810:2815   */\n      0x00\n        /* \"#utility.yul\":2848:2854   */\n      dup2\n        /* \"#utility.yul\":2835:2855   */\n      calldataload\n        /* \"#utility.yul\":2826:2855   */\n      swap1\n      pop\n        /* \"#utility.yul\":2864:2897   */\n      tag_169\n        /* \"#utility.yul\":2891:2896   */\n      dup2\n        /* \"#utility.yul\":2864:2897   */\n      tag_105\n      jump\t// in\n    tag_169:\n        /* \"#utility.yul\":2764:2903   */\n      swap3\n      swap2\n      pop\n      pop\n      jump\t// out\n        /* \"#utility.yul\":2909:3563   */\n    tag_15:\n        /* \"#utility.yul\":2987:2993   */\n      0x00\n        /* \"#utility.yul\":2995:3001   */\n      dup1\n        /* \"#utility.yul\":3044:3046   */\n      0x40\n        /* \"#utility.yul\":3032:3041   */\n      dup4\n        /* \"#utility.yul\":3023:3030   */\n      dup6\n        /* \"#utility.yul\":3019:3042   */\n      sub\n        /* \"#utility.yul\":3015:3047   */\n      slt\n        /* \"#utility.yul\":3012:3131   */\n      iszero\n      tag_171\n      jumpi\n        /* \"#utility.yul\":3050:3129   */\n      tag_172\n      tag_92\n      jump\t// in\n    tag_172:\n        /* \"#utility.yul\":3012:3131   */\n    tag_171:\n        /* \"#utility.yul\":3198:3199   */\n      0x00\n        /* \"#utility.yul\":3187:3196   */\n      dup4\n        /* \"#utility.yul\":3183:3200   */\n      add\n        /* \"#utility.yul\":3170:3201   */\n      calldataload\n        /* \"#utility.yul\":3228:3246   */\n      0xffffffffffffffff\n        /* \"#utility.yul\":3220:3226   */\n      dup2\n        /* \"#utility.yul\":3217:3247   */\n      gt\n        /* \"#utility.yul\":3214:3331   */\n      iszero\n      tag_173\n      jumpi\n        /* \"#utility.yul\":3250:3329   */\n      tag_174\n      tag_93\n      jump\t// in\n    tag_174:\n        /* \"#utility.yul\":3214:3331   */\n    tag_173:\n        /* \"#utility.yul\":3355:3418   */\n      tag_175\n        /* \"#utility.yul\":3410:3417   */\n      dup6\n        /* \"#utility.yul\":3401:3407   */\n      dup3\n        /* \"#utility.yul\":3390:3399   */\n      dup7\n        /* \"#utility.yul\":3386:3408   */\n      add\n        /* \"#utility.yul\":3355:3418   */\n      tag_103\n      jump\t// in\n    tag_175:\n        /* \"#utility.yul\":3345:3418   */\n      swap3\n      pop\n        /* \"#utility.yul\":3141:3428   */\n      pop\n        /* \"#utility.yul\":3467:3469   */\n      0x20\n        /* \"#utility.yul\":3493:3546   */\n      tag_176\n        /* \"#utility.yul\":3538:3545   */\n      dup6\n        /* \"#utility.yul\":3529:3535   */\n      dup3\n        /* \"#utility.yul\":3518:3527   */\n      dup7\n        /* \"#utility.yul\":3514:3536   */\n      add\n        /* \"#utility.yul\":3493:3546   */\n      tag_106\n      jump\t// in\n    tag_176:\n        /* \"#utility.yul\":3483:3546   */\n      swap2\n      pop\n        /* \"#utility.yul\":3438:3556   */\n      pop\n        /* \"#utility.yul\":2909:3563   */\n      swap3\n      pop\n      swap3\n      swap1\n      pop\n      jump\t// out\n        /* \"#utility.yul\":3569:3687   */\n    tag_107:\n        /* \"#utility.yul\":3656:3680   */\n      tag_178\n        /* \"#utility.yul\":3674:3679   */\n      dup2\n        /* \"#utility.yul\":3656:3680   */\n      tag_104\n      jump\t// in\n    tag_178:\n        /* \"#utility.yul\":3651:3654   */\n      dup3\n        /* \"#utility.yul\":3644:3681   */\n      mstore\n        /* \"#utility.yul\":3569:3687   */\n      pop\n      pop\n      jump\t// out\n        /* \"#utility.yul\":3693:3915   */\n    tag_18:\n        /* \"#utility.yul\":3786:3790   */\n      0x00\n        /* \"#utility.yul\":3824:3826   */\n      0x20\n        /* \"#utility.yul\":3813:3822   */\n      dup3\n        /* \"#utility.yul\":3809:3827   */\n      add\n        /* \"#utility.yul\":3801:3827   */\n      swap1\n      pop\n        /* \"#utility.yul\":3837:3908   */\n      tag_180\n        /* \"#utility.yul\":3905:3906   */\n      0x00\n        /* \"#utility.yul\":3894:3903   */\n      dup4\n        /* \"#utility.yul\":3890:3907   */\n      add\n        /* \"#utility.yul\":3881:3887   */\n      dup5\n        /* \"#utility.yul\":3837:3908   */\n      tag_107\n      jump\t// in\n    tag_180:\n        /* \"#utility.yul\":3693:3915   */\n      swap3\n      swap2\n      pop\n      pop\n      jump\t// out\n        /* \"#utility.yul\":3921:4047   */\n    tag_108:\n        /* \"#utility.yul\":3958:3965   */\n      0x00\n        /* \"#utility.yul\":3998:4040   */\n      0xffffffffffffffffffffffffffffffffffffffff\n        /* \"#utility.yul\":3991:3996   */\n      dup3\n        /* \"#utility.yul\":3987:4041   */\n      and\n        /* \"#utility.yul\":3976:4041   */\n      swap1\n      pop\n        /* \"#utility.yul\":3921:4047   */\n      swap2\n      swap1\n      pop\n      jump\t// out\n        /* \"#utility.yul\":4053:4149   */\n    tag_109:\n        /* \"#utility.yul\":4090:4097   */\n      0x00\n        /* \"#utility.yul\":4119:4143   */\n      tag_183\n        /* \"#utility.yul\":4137:4142   */\n      dup3\n        /* \"#utility.yul\":4119:4143   */\n      tag_108\n      jump\t// in\n    tag_183:\n        /* \"#utility.yul\":4108:4143   */\n      swap1\n      pop\n        /* \"#utility.yul\":4053:4149   */\n      swap2\n      swap1\n      pop\n      jump\t// out\n        /* \"#utility.yul\":4155:4277   */\n    tag_110:\n        /* \"#utility.yul\":4228:4252   */\n      tag_185\n        /* \"#utility.yul\":4246:4251   */\n      dup2\n        /* \"#utility.yul\":4228:4252   */\n      tag_109\n      jump\t// in\n    tag_185:\n        /* \"#utility.yul\":4221:4226   */\n      dup2\n        /* \"#utility.yul\":4218:4253   */\n      eq\n        /* \"#utility.yul\":4208:4271   */\n      tag_186\n      jumpi\n        /* \"#utility.yul\":4267:4268   */\n      0x00\n        /* \"#utility.yul\":4264:4265   */\n      dup1\n        /* \"#utility.yul\":4257:4269   */\n      revert\n        /* \"#utility.yul\":4208:4271   */\n    tag_186:\n        /* \"#utility.yul\":4155:4277   */\n      pop\n      jump\t// out\n        /* \"#utility.yul\":4283:4422   */\n    tag_111:\n        /* \"#utility.yul\":4329:4334   */\n      0x00\n        /* \"#utility.yul\":4367:4373   */\n      dup2\n        /* \"#utility.yul\":4354:4374   */\n      calldataload\n        /* \"#utility.yul\":4345:4374   */\n      swap1\n      pop\n        /* \"#utility.yul\":4383:4416   */\n      tag_188\n        /* \"#utility.yul\":4410:4415   */\n      dup2\n        /* \"#utility.yul\":4383:4416   */\n      tag_110\n      jump\t// in\n    tag_188:\n        /* \"#utility.yul\":4283:4422   */\n      swap3\n      swap2\n      pop\n      pop\n      jump\t// out\n        /* \"#utility.yul\":4428:4757   */\n    tag_24:\n        /* \"#utility.yul\":4487:4493   */\n      0x00\n        /* \"#utility.yul\":4536:4538   */\n      0x20\n        /* \"#utility.yul\":4524:4533   */\n      dup3\n        /* \"#utility.yul\":4515:4522   */\n      dup5\n        /* \"#utility.yul\":4511:4534   */\n      sub\n        /* \"#utility.yul\":4507:4539   */\n      slt\n        /* \"#utility.yul\":4504:4623   */\n      iszero\n      tag_190\n      jumpi\n        /* \"#utility.yul\":4542:4621   */\n      tag_191\n      tag_92\n      jump\t// in\n    tag_191:\n        /* \"#utility.yul\":4504:4623   */\n    tag_190:\n        /* \"#utility.yul\":4662:4663   */\n      0x00\n        /* \"#utility.yul\":4687:4740   */\n      tag_192\n        /* \"#utility.yul\":4732:4739   */\n      dup5\n        /* \"#utility.yul\":4723:4729   */\n      dup3\n        /* \"#utility.yul\":4712:4721   */\n      dup6\n        /* \"#utility.yul\":4708:4730   */\n      add\n        /* \"#utility.yul\":4687:4740   */\n      tag_111\n      jump\t// in\n    tag_192:\n        /* \"#utility.yul\":4677:4740   */\n      swap2\n      pop\n        /* \"#utility.yul\":4633:4750   */\n      pop\n        /* \"#utility.yul\":4428:4757   */\n      swap3\n      swap2\n      pop\n      pop\n      jump\t// out\n        /* \"#utility.yul\":4763:5742   */\n    tag_29:\n        /* \"#utility.yul\":4860:4866   */\n      0x00\n        /* \"#utility.yul\":4868:4874   */\n      dup1\n        /* \"#utility.yul\":4876:4882   */\n      0x00\n        /* \"#utility.yul\":4925:4927   */\n      0x60\n        /* \"#utility.yul\":4913:4922   */\n      dup5\n        /* \"#utility.yul\":4904:4911   */\n      dup7\n        /* \"#utility.yul\":4900:4923   */\n      sub\n        /* \"#utility.yul\":4896:4928   */\n      slt\n        /* \"#utility.yul\":4893:5012   */\n      iszero\n      tag_194\n      jumpi\n        /* \"#utility.yul\":4931:5010   */\n      tag_195\n      tag_92\n      jump\t// in\n    tag_195:\n        /* \"#utility.yul\":4893:5012   */\n    tag_194:\n        /* \"#utility.yul\":5051:5052   */\n      0x00\n        /* \"#utility.yul\":5076:5129   */\n      tag_196\n        /* \"#utility.yul\":5121:5128   */\n      dup7\n        /* \"#utility.yul\":5112:5118   */\n      dup3\n        /* \"#utility.yul\":5101:5110   */\n      dup8\n        /* \"#utility.yul\":5097:5119   */\n      add\n        /* \"#utility.yul\":5076:5129   */\n      tag_106\n      jump\t// in\n    tag_196:\n        /* \"#utility.yul\":5066:5129   */\n      swap4\n      pop\n        /* \"#utility.yul\":5022:5139   */\n      pop\n        /* \"#utility.yul\":5206:5208   */\n      0x20\n        /* \"#utility.yul\":5195:5204   */\n      dup5\n        /* \"#utility.yul\":5191:5209   */\n      add\n        /* \"#utility.yul\":5178:5210   */\n      calldataload\n        /* \"#utility.yul\":5237:5255   */\n      0xffffffffffffffff\n        /* \"#utility.yul\":5229:5235   */\n      dup2\n        /* \"#utility.yul\":5226:5256   */\n      gt\n        /* \"#utility.yul\":5223:5340   */\n      iszero\n      tag_197\n      jumpi\n        /* \"#utility.yul\":5259:5338   */\n      tag_198\n      tag_93\n      jump\t// in\n    tag_198:\n        /* \"#utility.yul\":5223:5340   */\n    tag_197:\n        /* \"#utility.yul\":5364:5427   */\n      tag_199\n        /* \"#utility.yul\":5419:5426   */\n      dup7\n        /* \"#utility.yul\":5410:5416   */\n      dup3\n        /* \"#utility.yul\":5399:5408   */\n      dup8\n        /* \"#utility.yul\":5395:5417   */\n      add\n        /* \"#utility.yul\":5364:5427   */\n      tag_103\n      jump\t// in\n    tag_199:\n        /* \"#utility.yul\":5354:5427   */\n      swap3\n      pop\n        /* \"#utility.yul\":5149:5437   */\n      pop\n        /* \"#utility.yul\":5504:5506   */\n      0x40\n        /* \"#utility.yul\":5493:5502   */\n      dup5\n        /* \"#utility.yul\":5489:5507   */\n      add\n        /* \"#utility.yul\":5476:5508   */\n      calldataload\n        /* \"#utility.yul\":5535:5553   */\n      0xffffffffffffffff\n        /* \"#utility.yul\":5527:5533   */\n      dup2\n        /* \"#utility.yul\":5524:5554   */\n      gt\n        /* \"#utility.yul\":5521:5638   */\n      iszero\n      tag_200\n      jumpi\n        /* \"#utility.yul\":5557:5636   */\n      tag_201\n      tag_93\n      jump\t// in\n    tag_201:\n        /* \"#utility.yul\":5521:5638   */\n    tag_200:\n        /* \"#utility.yul\":5662:5725   */\n      tag_202\n        /* \"#utility.yul\":5717:5724   */\n      dup7\n        /* \"#utility.yul\":5708:5714   */\n      dup3\n        /* \"#utility.yul\":5697:5706   */\n      dup8\n        /* \"#utility.yul\":5693:5715   */\n      add\n        /* \"#utility.yul\":5662:5725   */\n      tag_103\n      jump\t// in\n    tag_202:\n        /* \"#utility.yul\":5652:5725   */\n      swap2\n      pop\n        /* \"#utility.yul\":5447:5735   */\n      pop\n        /* \"#utility.yul\":4763:5742   */\n      swap3\n      pop\n      swap3\n      pop\n      swap3\n      jump\t// out\n        /* \"#utility.yul\":5748:6077   */\n    tag_33:\n        /* \"#utility.yul\":5807:5813   */\n      0x00\n        /* \"#utility.yul\":5856:5858   */\n      0x20\n        /* \"#utility.yul\":5844:5853   */\n      dup3\n        /* \"#utility.yul\":5835:5842   */\n      dup5\n        /* \"#utility.yul\":5831:5854   */\n      sub\n        /* \"#utility.yul\":5827:5859   */\n      slt\n        /* \"#utility.yul\":5824:5943   */\n      iszero\n      tag_204\n      jumpi\n        /* \"#utility.yul\":5862:5941   */\n      tag_205\n      tag_92\n      jump\t// in\n    tag_205:\n        /* \"#utility.yul\":5824:5943   */\n    tag_204:\n        /* \"#utility.yul\":5982:5983   */\n      0x00\n        /* \"#utility.yul\":6007:6060   */\n      tag_206\n        /* \"#utility.yul\":6052:6059   */\n      dup5\n        /* \"#utility.yul\":6043:6049   */\n      dup3\n        /* \"#utility.yul\":6032:6041   */\n      dup6\n        /* \"#utility.yul\":6028:6050   */\n      add\n        /* \"#utility.yul\":6007:6060   */\n      tag_106\n      jump\t// in\n    tag_206:\n        /* \"#utility.yul\":5997:6060   */\n      swap2\n      pop\n        /* \"#utility.yul\":5953:6070   */\n      pop\n        /* \"#utility.yul\":5748:6077   */\n      swap3\n      swap2\n      pop\n      pop\n      jump\t// out\n        /* \"#utility.yul\":6083:6182   */\n    tag_112:\n        /* \"#utility.yul\":6135:6141   */\n      0x00\n        /* \"#utility.yul\":6169:6174   */\n      dup2\n        /* \"#utility.yul\":6163:6175   */\n      mload\n        /* \"#utility.yul\":6153:6175   */\n      swap1\n      pop\n        /* \"#utility.yul\":6083:6182   */\n      swap2\n      swap1\n      pop\n      jump\t// out\n        /* \"#utility.yul\":6188:6357   */\n    tag_113:\n        /* \"#utility.yul\":6272:6283   */\n      0x00\n        /* \"#utility.yul\":6306:6312   */\n      dup3\n        /* \"#utility.yul\":6301:6304   */\n      dup3\n        /* \"#utility.yul\":6294:6313   */\n      mstore\n        /* \"#utility.yul\":6346:6350   */\n      0x20\n        /* \"#utility.yul\":6341:6344   */\n      dup3\n        /* \"#utility.yul\":6337:6351   */\n      add\n        /* \"#utility.yul\":6322:6351   */\n      swap1\n      pop\n        /* \"#utility.yul\":6188:6357   */\n      swap3\n      swap2\n      pop\n      pop\n      jump\t// out\n        /* \"#utility.yul\":6363:6609   */\n    tag_114:\n        /* \"#utility.yul\":6444:6445   */\n      0x00\n        /* \"#utility.yul\":6454:6567   */\n    tag_210:\n        /* \"#utility.yul\":6468:6474   */\n      dup4\n        /* \"#utility.yul\":6465:6466   */\n      dup2\n        /* \"#utility.yul\":6462:6475   */\n      lt\n        /* \"#utility.yul\":6454:6567   */\n      iszero\n      tag_212\n      jumpi\n        /* \"#utility.yul\":6553:6554   */\n      dup1\n        /* \"#utility.yul\":6548:6551   */\n      dup3\n        /* \"#utility.yul\":6544:6555   */\n      add\n        /* \"#utility.yul\":6538:6556   */\n      mload\n        /* \"#utility.yul\":6534:6535   */\n      dup2\n        /* \"#utility.yul\":6529:6532   */\n      dup5\n        /* \"#utility.yul\":6525:6536   */\n      add\n        /* \"#utility.yul\":6518:6557   */\n      mstore\n        /* \"#utility.yul\":6490:6492   */\n      0x20\n        /* \"#utility.yul\":6487:6488   */\n      dup2\n        /* \"#utility.yul\":6483:6493   */\n      add\n        /* \"#utility.yul\":6478:6493   */\n      swap1\n      pop\n        /* \"#utility.yul\":6454:6567   */\n      jump(tag_210)\n    tag_212:\n        /* \"#utility.yul\":6601:6602   */\n      0x00\n        /* \"#utility.yul\":6592:6598   */\n      dup5\n        /* \"#utility.yul\":6587:6590   */\n      dup5\n        /* \"#utility.yul\":6583:6599   */\n      add\n        /* \"#utility.yul\":6576:6603   */\n      mstore\n        /* \"#utility.yul\":6425:6609   */\n      pop\n        /* \"#utility.yul\":6363:6609   */\n      pop\n      pop\n      pop\n      jump\t// out\n        /* \"#utility.yul\":6615:6992   */\n    tag_115:\n        /* \"#utility.yul\":6703:6706   */\n      0x00\n        /* \"#utility.yul\":6731:6770   */\n      tag_214\n        /* \"#utility.yul\":6764:6769   */\n      dup3\n        /* \"#utility.yul\":6731:6770   */\n      tag_112\n      jump\t// in\n    tag_214:\n        /* \"#utility.yul\":6786:6857   */\n      tag_215\n        /* \"#utility.yul\":6850:6856   */\n      dup2\n        /* \"#utility.yul\":6845:6848   */\n      dup6\n        /* \"#utility.yul\":6786:6857   */\n      tag_113\n      jump\t// in\n    tag_215:\n        /* \"#utility.yul\":6779:6857   */\n      swap4\n      pop\n        /* \"#utility.yul\":6866:6931   */\n      tag_216\n        /* \"#utility.yul\":6924:6930   */\n      dup2\n        /* \"#utility.yul\":6919:6922   */\n      dup6\n        /* \"#utility.yul\":6912:6916   */\n      0x20\n        /* \"#utility.yul\":6905:6910   */\n      dup7\n        /* \"#utility.yul\":6901:6917   */\n      add\n        /* \"#utility.yul\":6866:6931   */\n      tag_114\n      jump\t// in\n    tag_216:\n        /* \"#utility.yul\":6956:6985   */\n      tag_217\n        /* \"#utility.yul\":6978:6984   */\n      dup2\n        /* \"#utility.yul\":6956:6985   */\n      tag_96\n      jump\t// in\n    tag_217:\n        /* \"#utility.yul\":6951:6954   */\n      dup5\n        /* \"#utility.yul\":6947:6986   */\n      add\n        /* \"#utility.yul\":6940:6986   */\n      swap2\n      pop\n        /* \"#utility.yul\":6707:6992   */\n      pop\n        /* \"#utility.yul\":6615:6992   */\n      swap3\n      swap2\n      pop\n      pop\n      jump\t// out\n        /* \"#utility.yul\":6998:7622   */\n    tag_42:\n        /* \"#utility.yul\":7187:7191   */\n      0x00\n        /* \"#utility.yul\":7225:7227   */\n      0x60\n        /* \"#utility.yul\":7214:7223   */\n      dup3\n        /* \"#utility.yul\":7210:7228   */\n      add\n        /* \"#utility.yul\":7202:7228   */\n      swap1\n      pop\n        /* \"#utility.yul\":7238:7309   */\n      tag_219\n        /* \"#utility.yul\":7306:7307   */\n      0x00\n        /* \"#utility.yul\":7295:7304   */\n      dup4\n        /* \"#utility.yul\":7291:7308   */\n      add\n        /* \"#utility.yul\":7282:7288   */\n      dup7\n        /* \"#utility.yul\":7238:7309   */\n      tag_107\n      jump\t// in\n    tag_219:\n        /* \"#utility.yul\":7356:7365   */\n      dup2\n        /* \"#utility.yul\":7350:7354   */\n      dup2\n        /* \"#utility.yul\":7346:7366   */\n      sub\n        /* \"#utility.yul\":7341:7343   */\n      0x20\n        /* \"#utility.yul\":7330:7339   */\n      dup4\n        /* \"#utility.yul\":7326:7344   */\n      add\n        /* \"#utility.yul\":7319:7367   */\n      mstore\n        /* \"#utility.yul\":7384:7462   */\n      tag_220\n        /* \"#utility.yul\":7457:7461   */\n      dup2\n        /* \"#utility.yul\":7448:7454   */\n      dup6\n        /* \"#utility.yul\":7384:7462   */\n      tag_115\n      jump\t// in\n    tag_220:\n        /* \"#utility.yul\":7376:7462   */\n      swap1\n      pop\n        /* \"#utility.yul\":7509:7518   */\n      dup2\n        /* \"#utility.yul\":7503:7507   */\n      dup2\n        /* \"#utility.yul\":7499:7519   */\n      sub\n        /* \"#utility.yul\":7494:7496   */\n      0x40\n        /* \"#utility.yul\":7483:7492   */\n      dup4\n        /* \"#utility.yul\":7479:7497   */\n      add\n        /* \"#utility.yul\":7472:7520   */\n      mstore\n        /* \"#utility.yul\":7537:7615   */\n      tag_221\n        /* \"#utility.yul\":7610:7614   */\n      dup2\n        /* \"#utility.yul\":7601:7607   */\n      dup5\n        /* \"#utility.yul\":7537:7615   */\n      tag_115\n      jump\t// in\n    tag_221:\n        /* \"#utility.yul\":7529:7615   */\n      swap1\n      pop\n        /* \"#utility.yul\":6998:7622   */\n      swap5\n      swap4\n      pop\n      pop\n      pop\n      pop\n      jump\t// out\n        /* \"#utility.yul\":7628:7776   */\n    tag_116:\n        /* \"#utility.yul\":7730:7741   */\n      0x00\n        /* \"#utility.yul\":7767:7770   */\n      dup2\n        /* \"#utility.yul\":7752:7770   */\n      swap1\n      pop\n        /* \"#utility.yul\":7628:7776   */\n      swap3\n      swap2\n      pop\n      pop\n      jump\t// out\n        /* \"#utility.yul\":7782:8172   */\n    tag_117:\n        /* \"#utility.yul\":7888:7891   */\n      0x00\n        /* \"#utility.yul\":7916:7955   */\n      tag_224\n        /* \"#utility.yul\":7949:7954   */\n      dup3\n        /* \"#utility.yul\":7916:7955   */\n      tag_112\n      jump\t// in\n    tag_224:\n        /* \"#utility.yul\":7971:8060   */\n      tag_225\n        /* \"#utility.yul\":8053:8059   */\n      dup2\n        /* \"#utility.yul\":8048:8051   */\n      dup6\n        /* \"#utility.yul\":7971:8060   */\n      tag_116\n      jump\t// in\n    tag_225:\n        /* \"#utility.yul\":7964:8060   */\n      swap4\n      pop\n        /* \"#utility.yul\":8069:8134   */\n      tag_226\n        /* \"#utility.yul\":8127:8133   */\n      dup2\n        /* \"#utility.yul\":8122:8125   */\n      dup6\n        /* \"#utility.yul\":8115:8119   */\n      0x20\n        /* \"#utility.yul\":8108:8113   */\n      dup7\n        /* \"#utility.yul\":8104:8120   */\n      add\n        /* \"#utility.yul\":8069:8134   */\n      tag_114\n      jump\t// in\n    tag_226:\n        /* \"#utility.yul\":8159:8165   */\n      dup1\n        /* \"#utility.yul\":8154:8157   */\n      dup5\n        /* \"#utility.yul\":8150:8166   */\n      add\n        /* \"#utility.yul\":8143:8166   */\n      swap2\n      pop\n        /* \"#utility.yul\":7892:8172   */\n      pop\n        /* \"#utility.yul\":7782:8172   */\n      swap3\n      swap2\n      pop\n      pop\n      jump\t// out\n        /* \"#utility.yul\":8178:8453   */\n    tag_55:\n        /* \"#utility.yul\":8310:8313   */\n      0x00\n        /* \"#utility.yul\":8332:8427   */\n      tag_228\n        /* \"#utility.yul\":8423:8426   */\n      dup3\n        /* \"#utility.yul\":8414:8420   */\n      dup5\n        /* \"#utility.yul\":8332:8427   */\n      tag_117\n      jump\t// in\n    tag_228:\n        /* \"#utility.yul\":8325:8427   */\n      swap2\n      pop\n        /* \"#utility.yul\":8444:8447   */\n      dup2\n        /* \"#utility.yul\":8437:8447   */\n      swap1\n      pop\n        /* \"#utility.yul\":8178:8453   */\n      swap3\n      swap2\n      pop\n      pop\n      jump\t// out\n        /* \"#utility.yul\":8459:8639   */\n    tag_118:\n        /* \"#utility.yul\":8507:8584   */\n      0x4e487b7100000000000000000000000000000000000000000000000000000000\n        /* \"#utility.yul\":8504:8505   */\n      0x00\n        /* \"#utility.yul\":8497:8585   */\n      mstore\n        /* \"#utility.yul\":8604:8608   */\n      0x22\n        /* \"#utility.yul\":8601:8602   */\n      0x04\n        /* \"#utility.yul\":8594:8609   */\n      mstore\n        /* \"#utility.yul\":8628:8632   */\n      0x24\n        /* \"#utility.yul\":8625:8626   */\n      0x00\n        /* \"#utility.yul\":8618:8633   */\n      revert\n        /* \"#utility.yul\":8645:8965   */\n    tag_67:\n        /* \"#utility.yul\":8689:8695   */\n      0x00\n        /* \"#utility.yul\":8726:8727   */\n      0x02\n        /* \"#utility.yul\":8720:8724   */\n      dup3\n        /* \"#utility.yul\":8716:8728   */\n      div\n        /* \"#utility.yul\":8706:8728   */\n      swap1\n      pop\n        /* \"#utility.yul\":8773:8774   */\n      0x01\n        /* \"#utility.yul\":8767:8771   */\n      dup3\n        /* \"#utility.yul\":8763:8775   */\n      and\n        /* \"#utility.yul\":8794:8812   */\n      dup1\n        /* \"#utility.yul\":8784:8865   */\n      tag_231\n      jumpi\n        /* \"#utility.yul\":8850:8854   */\n      0x7f\n        /* \"#utility.yul\":8842:8848   */\n      dup3\n        /* \"#utility.yul\":8838:8855   */\n      and\n        /* \"#utility.yul\":8828:8855   */\n      swap2\n      pop\n        /* \"#utility.yul\":8784:8865   */\n    tag_231:\n        /* \"#utility.yul\":8912:8914   */\n      0x20\n        /* \"#utility.yul\":8904:8910   */\n      dup3\n        /* \"#utility.yul\":8901:8915   */\n      lt\n        /* \"#utility.yul\":8881:8899   */\n      dup2\n        /* \"#utility.yul\":8878:8916   */\n      sub\n        /* \"#utility.yul\":8875:8959   */\n      tag_232\n      jumpi\n        /* \"#utility.yul\":8931:8949   */\n      tag_233\n      tag_118\n      jump\t// in\n    tag_233:\n        /* \"#utility.yul\":8875:8959   */\n    tag_232:\n        /* \"#utility.yul\":8696:8965   */\n      pop\n        /* \"#utility.yul\":8645:8965   */\n      swap2\n      swap1\n      pop\n      jump\t// out\n        /* \"#utility.yul\":8971:9112   */\n    tag_119:\n        /* \"#utility.yul\":9020:9024   */\n      0x00\n        /* \"#utility.yul\":9043:9046   */\n      dup2\n        /* \"#utility.yul\":9035:9046   */\n      swap1\n      pop\n        /* \"#utility.yul\":9066:9069   */\n      dup2\n        /* \"#utility.yul\":9063:9064   */\n      0x00\n        /* \"#utility.yul\":9056:9070   */\n      mstore\n        /* \"#utility.yul\":9100:9104   */\n      0x20\n        /* \"#utility.yul\":9097:9098   */\n      0x00\n        /* \"#utility.yul\":9087:9105   */\n      keccak256\n        /* \"#utility.yul\":9079:9105   */\n      swap1\n      pop\n        /* \"#utility.yul\":8971:9112   */\n      swap2\n      swap1\n      pop\n      jump\t// out\n        /* \"#utility.yul\":9118:9211   */\n    tag_120:\n        /* \"#utility.yul\":9155:9161   */\n      0x00\n        /* \"#utility.yul\":9202:9204   */\n      0x20\n        /* \"#utility.yul\":9197:9199   */\n      0x1f\n        /* \"#utility.yul\":9190:9195   */\n      dup4\n        /* \"#utility.yul\":9186:9200   */\n      add\n        /* \"#utility.yul\":9182:9205   */\n      div\n        /* \"#utility.yul\":9172:9205   */\n      swap1\n      pop\n        /* \"#utility.yul\":9118:9211   */\n      swap2\n      swap1\n      pop\n      jump\t// out\n        /* \"#utility.yul\":9217:9324   */\n    tag_121:\n        /* \"#utility.yul\":9261:9269   */\n      0x00\n        /* \"#utility.yul\":9311:9316   */\n      dup3\n        /* \"#utility.yul\":9305:9309   */\n      dup3\n        /* \"#utility.yul\":9301:9317   */\n      shl\n        /* \"#utility.yul\":9280:9317   */\n      swap1\n      pop\n        /* \"#utility.yul\":9217:9324   */\n      swap3\n      swap2\n      pop\n      pop\n      jump\t// out\n        /* \"#utility.yul\":9330:9723   */\n    tag_122:\n        /* \"#utility.yul\":9399:9405   */\n      0x00\n        /* \"#utility.yul\":9449:9450   */\n      0x08\n        /* \"#utility.yul\":9437:9447   */\n      dup4\n        /* \"#utility.yul\":9433:9451   */\n      mul\n        /* \"#utility.yul\":9472:9569   */\n      tag_238\n        /* \"#utility.yul\":9502:9568   */\n      0xffffffffffffffffffffffffffffffffffffffffffffffffffffffffffffffff\n        /* \"#utility.yul\":9491:9500   */\n      dup3\n        /* \"#utility.yul\":9472:9569   */\n      tag_121\n      jump\t// in\n    tag_238:\n        /* \"#utility.yul\":9590:9629   */\n      tag_239\n        /* \"#utility.yul\":9620:9628   */\n      dup7\n        /* \"#utility.yul\":9609:9618   */\n      dup4\n        /* \"#utility.yul\":9590:9629   */\n      tag_121\n      jump\t// in\n    tag_239:\n        /* \"#utility.yul\":9578:9629   */\n      swap6\n      pop\n        /* \"#utility.yul\":9662:9666   */\n      dup1\n        /* \"#utility.yul\":9658:9667   */\n      not\n        /* \"#utility.yul\":9651:9656   */\n      dup5\n        /* \"#utility.yul\":9647:9668   */\n      and\n        /* \"#utility.yul\":9638:9668   */\n      swap4\n      pop\n        /* \"#utility.yul\":9711:9715   */\n      dup1\n        /* \"#utility.yul\":9701:9709   */\n      dup7\n        /* \"#utility.yul\":9697:9716   */\n      and\n        /* \"#utility.yul\":9690:9695   */\n      dup5\n        /* \"#utility.yul\":9687:9717   */\n      or\n        /* \"#utility.yul\":9677:9717   */\n      swap3\n      pop\n        /* \"#utility.yul\":9406:9723   */\n      pop\n      pop\n        /* \"#utility.yul\":9330:9723   */\n      swap4\n      swap3\n      pop\n      pop\n      pop\n      jump\t// out\n        /* \"#utility.yul\":9729:9789   */\n    tag_123:\n        /* \"#utility.yul\":9757:9760   */\n      0x00\n        /* \"#utility.yul\":9778:9783   */\n      dup2\n        /* \"#utility.yul\":9771:9783   */\n      swap1\n      pop\n        /* \"#utility.yul\":9729:9789   */\n      swap2\n      swap1\n      pop\n      jump\t// out\n        /* \"#utility.yul\":9795:9937   */\n    tag_124:\n        /* \"#utility.yul\":9845:9854   */\n      0x00\n        /* \"#utility.yul\":9878:9931   */\n      tag_242\n        /* \"#utility.yul\":9896:9930   */\n      tag_243\n        /* \"#utility.yul\":9905:9929   */\n      tag_244\n        /* \"#utility.yul\":9923:9928   */\n      dup5\n        /* \"#utility.yul\":9905:9929   */\n      tag_104\n      jump\t// in\n    tag_244:\n        /* \"#utility.yul\":9896:9930   */\n      tag_123\n      jump\t// in\n    tag_243:\n        /* \"#utility.yul\":9878:9931   */\n      tag_104\n      jump\t// in\n    tag_242:\n        /* \"#utility.yul\":9865:9931   */\n      swap1\n      pop\n        /* \"#utility.yul\":9795:9937   */\n      swap2\n      swap1\n      pop\n      jump\t// out\n        /* \"#utility.yul\":9943:10018   */\n    tag_125:\n        /* \"#utility.yul\":9986:9989   */\n      0x00\n        /* \"#utility.yul\":10007:10012   */\n      dup2\n        /* \"#utility.yul\":10000:10012   */\n      swap1\n      pop\n        /* \"#utility.yul\":9943:10018   */\n      swap2\n      swap1\n      pop\n      jump\t// out\n        /* \"#utility.yul\":10024:10293   */\n    tag_126:\n        /* \"#utility.yul\":10134:10173   */\n      tag_247\n        /* \"#utility.yul\":10165:10172   */\n      dup4\n        /* \"#utility.yul\":10134:10173   */\n      tag_124\n      jump\t// in\n    tag_247:\n        /* \"#utility.yul\":10195:10286   */\n      tag_248\n        /* \"#utility.yul\":10244:10285   */\n      tag_249\n        /* \"#utility.yul\":10268:10284   */\n      dup3\n        /* \"#utility.yul\":10244:10285   */\n      tag_125\n      jump\t// in\n    tag_249:\n        /* \"#utility.yul\":10236:10242   */\n      dup5\n        /* \"#utility.yul\":10229:10233   */\n      dup5\n        /* \"#utility.yul\":10223:10234   */\n      sload\n        /* \"#utility.yul\":10195:10286   */\n      tag_122\n      jump\t// in\n    tag_248:\n        /* \"#utility.yul\":10189:10193   */\n      dup3\n        /* \"#utility.yul\":10182:10287   */\n      sstore\n        /* \"#utility.yul\":10100:10293   */\n      pop\n        /* \"#utility.yul\":10024:10293   */\n      pop\n      pop\n      pop\n      jump\t// out\n        /* \"#utility.yul\":10299:10372   */\n    tag_127:\n        /* \"#utility.yul\":10344:10347   */\n      0x00\n        /* \"#utility.yul\":10299:10372   */\n      swap1\n      jump\t// out\n        /* \"#utility.yul\":10378:10567   */\n    tag_128:\n        /* \"#utility.yul\":10455:10487   */\n      tag_252\n      tag_127\n      jump\t// in\n    tag_252:\n        /* \"#utility.yul\":10496:10561   */\n      tag_253\n        /* \"#utility.yul\":10554:10560   */\n      dup2\n        /* \"#utility.yul\":10546:10552   */\n      dup5\n        /* \"#utility.yul\":10540:10544   */\n      dup5\n        /* \"#utility.yul\":10496:10561   */\n      tag_126\n      jump\t// in\n    tag_253:\n        /* \"#utility.yul\":10431:10567   */\n      pop\n        /* \"#utility.yul\":10378:10567   */\n      pop\n      pop\n      jump\t// out\n        /* \"#utility.yul\":10573:10759   */\n    tag_129:\n        /* \"#utility.yul\":10633:10753   */\n    tag_255:\n        /* \"#utility.yul\":10650:10653   */\n      dup2\n        /* \"#utility.yul\":10643:10648   */\n      dup2\n        /* \"#utility.yul\":10640:10654   */\n      lt\n        /* \"#utility.yul\":10633:10753   */\n      iszero\n      tag_257\n      jumpi\n        /* \"#utility.yul\":10704:10743   */\n      tag_258\n        /* \"#utility.yul\":10741:10742   */\n      0x00\n        /* \"#utility.yul\":10734:10739   */\n      dup3\n        /* \"#utility.yul\":10704:10743   */\n      tag_128\n      jump\t// in\n    tag_258:\n        /* \"#utility.yul\":10677:10678   */\n      0x01\n        /* \"#utility.yul\":10670:10675   */\n      dup2\n        /* \"#utility.yul\":10666:10679   */\n      add\n        /* \"#utility.yul\":10657:10679   */\n      swap1\n      pop\n        /* \"#utility.yul\":10633:10753   */\n      jump(tag_255)\n    tag_257:\n        /* \"#utility.yul\":10573:10759   */\n      pop\n      pop\n      jump\t// out\n        /* \"#utility.yul\":10765:11308   */\n    tag_130:\n        /* \"#utility.yul\":10866:10868   */\n      0x1f\n        /* \"#utility.yul\":10861:10864   */\n      dup3\n        /* \"#utility.yul\":10858:10869   */\n      gt\n        /* \"#utility.yul\":10855:11301   */\n      iszero\n      tag_260\n      jumpi\n        /* \"#utility.yul\":10900:10938   */\n      tag_261\n        /* \"#utility.yul\":10932:10937   */\n      dup2\n        /* \"#utility.yul\":10900:10938   */\n      tag_119\n      jump\t// in\n    tag_261:\n        /* \"#utility.yul\":10984:11013   */\n      tag_262\n        /* \"#utility.yul\":11002:11012   */\n      dup5\n        /* \"#utility.yul\":10984:11013   */\n      tag_120\n      jump\t// in\n    tag_262:\n        /* \"#utility.yul\":10974:10982   */\n      dup2\n        /* \"#utility.yul\":10970:11014   */\n      add\n        /* \"#utility.yul\":11167:11169   */\n      0x20\n        /* \"#utility.yul\":11155:11165   */\n      dup6\n        /* \"#utility.yul\":11152:11170   */\n      lt\n        /* \"#utility.yul\":11149:11198   */\n      iszero\n      tag_263\n      jumpi\n        /* \"#utility.yul\":11188:11196   */\n      dup2\n        /* \"#utility.yul\":11173:11196   */\n      swap1\n      pop\n        /* \"#utility.yul\":11149:11198   */\n    tag_263:\n        /* \"#utility.yul\":11211:11291   */\n      tag_264\n        /* \"#utility.yul\":11267:11289   */\n      tag_265\n        /* \"#utility.yul\":11285:11288   */\n      dup6\n        /* \"#utility.yul\":11267:11289   */\n      tag_120\n      jump\t// in\n    tag_265:\n        /* \"#utility.yul\":11257:11265   */\n      dup4\n        /* \"#utility.yul\":11253:11290   */\n      add\n        /* \"#utility.yul\":11240:11251   */\n      dup3\n        /* \"#utility.yul\":11211:11291   */\n      tag_129\n      jump\t// in\n    tag_264:\n        /* \"#utility.yul\":10870:11301   */\n      pop\n      pop\n        /* \"#utility.yul\":10855:11301   */\n    tag_260:\n        /* \"#utility.yul\":10765:11308   */\n      pop\n      pop\n      pop\n      jump\t// out\n        /* \"#utility.yul\":11314:11431   */\n    tag_131:\n        /* \"#utility.yul\":11368:11376   */\n      0x00\n        /* \"#utility.yul\":11418:11423   */\n      dup3\n        /* \"#utility.yul\":11412:11416   */\n      dup3\n        /* \"#utility.yul\":11408:11424   */\n      shr\n        /* \"#utility.yul\":11387:11424   */\n      swap1\n      pop\n        /* \"#utility.yul\":11314:11431   */\n      swap3\n      swap2\n      pop\n      pop\n      jump\t// out\n        /* \"#utility.yul\":11437:11606   */\n    tag_132:\n        /* \"#utility.yul\":11481:11487   */\n      0x00\n        /* \"#utility.yul\":11514:11565   */\n      tag_268\n        /* \"#utility.yul\":11562:11563   */\n      0x00\n        /* \"#utility.yul\":11558:11564   */\n      not\n        /* \"#utility.yul\":11550:11555   */\n      dup5\n        /* \"#utility.yul\":11547:11548   */\n      0x08\n        /* \"#utility.yul\":11543:11556   */\n      mul\n        /* \"#utility.yul\":11514:11565   */\n      tag_131\n      jump\t// in\n    tag_268:\n        /* \"#utility.yul\":11510:11566   */\n      not\n        /* \"#utility.yul\":11595:11599   */\n      dup1\n        /* \"#utility.yul\":11589:11593   */\n      dup4\n        /* \"#utility.yul\":11585:11600   */\n      and\n        /* \"#utility.yul\":11575:11600   */\n      swap2\n      pop\n        /* \"#utility.yul\":11488:11606   */\n      pop\n        /* \"#utility.yul\":11437:11606   */\n      swap3\n      swap2\n      pop\n      pop\n      jump\t// out\n        /* \"#utility.yul\":11611:11906   */\n    tag_133:\n        /* \"#utility.yul\":11687:11691   */\n      0x00\n        /* \"#utility.yul\":11833:11862   */\n      tag_270\n        /* \"#utility.yul\":11858:11861   */\n      dup4\n        /* \"#utility.yul\":11852:11856   */\n      dup4\n        /* \"#utility.yul\":11833:11862   */\n      tag_132\n      jump\t// in\n    tag_270:\n        /* \"#utility.yul\":11825:11862   */\n      swap2\n      pop\n        /* \"#utility.yul\":11895:11898   */\n      dup3\n        /* \"#utility.yul\":11892:11893   */\n      0x02\n        /* \"#utility.yul\":11888:11899   */\n      mul\n        /* \"#utility.yul\":11882:11886   */\n      dup3\n        /* \"#utility.yul\":11879:11900   */\n      or\n        /* \"#utility.yul\":11871:11900   */\n      swap1\n      pop\n        /* \"#utility.yul\":11611:11906   */\n      swap3\n      swap2\n      pop\n      pop\n      jump\t// out\n        /* \"#utility.yul\":11911:13306   */\n    tag_60:\n        /* \"#utility.yul\":12028:12065   */\n      tag_272\n        /* \"#utility.yul\":12061:12064   */\n      dup3\n        /* \"#utility.yul\":12028:12065   */\n      tag_112\n      jump\t// in\n    tag_272:\n        /* \"#utility.yul\":12130:12148   */\n      0xffffffffffffffff\n        /* \"#utility.yul\":12122:12128   */\n      dup2\n        /* \"#utility.yul\":12119:12149   */\n      gt\n        /* \"#utility.yul\":12116:12172   */\n      iszero\n      tag_273\n      jumpi\n        /* \"#utility.yul\":12152:12170   */\n      tag_274\n      tag_97\n      jump\t// in\n    tag_274:\n        /* \"#utility.yul\":12116:12172   */\n    tag_273:\n        /* \"#utility.yul\":12196:12234   */\n      tag_275\n        /* \"#utility.yul\":12228:12232   */\n      dup3\n        /* \"#utility.yul\":12222:12233   */\n      sload\n        /* \"#utility.yul\":12196:12234   */\n      tag_67\n      jump\t// in\n    tag_275:\n        /* \"#utility.yul\":12281:12348   */\n      tag_276\n        /* \"#utility.yul\":12341:12347   */\n      dup3\n        /* \"#utility.yul\":12333:12339   */\n      dup3\n        /* \"#utility.yul\":12327:12331   */\n      dup6\n        /* \"#utility.yul\":12281:12348   */\n      tag_130\n      jump\t// in\n    tag_276:\n        /* \"#utility.yul\":12375:12376   */\n      0x00\n        /* \"#utility.yul\":12399:12403   */\n      0x20\n        /* \"#utility.yul\":12386:12403   */\n      swap1\n      pop\n        /* \"#utility.yul\":12431:12433   */\n      0x1f\n        /* \"#utility.yul\":12423:12429   */\n      dup4\n        /* \"#utility.yul\":12420:12434   */\n      gt\n        /* \"#utility.yul\":12448:12449   */\n      0x01\n        /* \"#utility.yul\":12443:13061   */\n      dup2\n      eq\n      tag_278\n      jumpi\n        /* \"#utility.yul\":13105:13106   */\n      0x00\n        /* \"#utility.yul\":13122:13128   */\n      dup5\n        /* \"#utility.yul\":13119:13196   */\n      iszero\n      tag_279\n      jumpi\n        /* \"#utility.yul\":13171:13180   */\n      dup3\n        /* \"#utility.yul\":13166:13169   */\n      dup8\n        /* \"#utility.yul\":13162:13181   */\n      add\n        /* \"#utility.yul\":13156:13182   */\n      mload\n        /* \"#utility.yul\":13147:13182   */\n      swap1\n      pop\n        /* \"#utility.yul\":13119:13196   */\n    tag_279:\n        /* \"#utility.yul\":13222:13289   */\n      tag_280\n        /* \"#utility.yul\":13282:13288   */\n      dup6\n        /* \"#utility.yul\":13275:13280   */\n      dup3\n        /* \"#utility.yul\":13222:13289   */\n      tag_133\n      jump\t// in\n    tag_280:\n        /* \"#utility.yul\":13216:13220   */\n      dup7\n        /* \"#utility.yul\":13209:13290   */\n      sstore\n        /* \"#utility.yul\":13078:13300   */\n      pop\n        /* \"#utility.yul\":12413:13300   */\n      jump(tag_277)\n        /* \"#utility.yul\":12443:13061   */\n    tag_278:\n        /* \"#utility.yul\":12495:12499   */\n      0x1f\n        /* \"#utility.yul\":12491:12500   */\n      not\n        /* \"#utility.yul\":12483:12489   */\n      dup5\n        /* \"#utility.yul\":12479:12501   */\n      and\n        /* \"#utility.yul\":12529:12566   */\n      tag_281\n        /* \"#utility.yul\":12561:12565   */\n      dup7\n        /* \"#utility.yul\":12529:12566   */\n      tag_119\n      jump\t// in\n    tag_281:\n        /* \"#utility.yul\":12588:12589   */\n      0x00\n        /* \"#utility.yul\":12602:12810   */\n    tag_282:\n        /* \"#utility.yul\":12616:12623   */\n      dup3\n        /* \"#utility.yul\":12613:12614   */\n      dup2\n        /* \"#utility.yul\":12610:12624   */\n      lt\n        /* \"#utility.yul\":12602:12810   */\n      iszero\n      tag_284\n      jumpi\n        /* \"#utility.yul\":12695:12704   */\n      dup5\n        /* \"#utility.yul\":12690:12693   */\n      dup10\n        /* \"#utility.yul\":12686:12705   */\n      add\n        /* \"#utility.yul\":12680:12706   */\n      mload\n        /* \"#utility.yul\":12672:12678   */\n      dup3\n        /* \"#utility.yul\":12665:12707   */\n      sstore\n        /* \"#utility.yul\":12746:12747   */\n      0x01\n        /* \"#utility.yul\":12738:12744   */\n      dup3\n        /* \"#utility.yul\":12734:12748   */\n      add\n        /* \"#utility.yul\":12724:12748   */\n      swap2\n      pop\n        /* \"#utility.yul\":12793:12795   */\n      0x20\n        /* \"#utility.yul\":12782:12791   */\n      dup6\n        /* \"#utility.yul\":12778:12796   */\n      add\n        /* \"#utility.yul\":12765:12796   */\n      swap5\n      pop\n        /* \"#utility.yul\":12639:12643   */\n      0x20\n        /* \"#utility.yul\":12636:12637   */\n      dup2\n        /* \"#utility.yul\":12632:12644   */\n      add\n        /* \"#utility.yul\":12627:12644   */\n      swap1\n      pop\n        /* \"#utility.yul\":12602:12810   */\n      jump(tag_282)\n    tag_284:\n        /* \"#utility.yul\":12838:12844   */\n      dup7\n        /* \"#utility.yul\":12829:12836   */\n      dup4\n        /* \"#utility.yul\":12826:12845   */\n      lt\n        /* \"#utility.yul\":12823:13002   */\n      iszero\n      tag_285\n      jumpi\n        /* \"#utility.yul\":12896:12905   */\n      dup5\n        /* \"#utility.yul\":12891:12894   */\n      dup10\n        /* \"#utility.yul\":12887:12906   */\n      add\n        /* \"#utility.yul\":12881:12907   */\n      mload\n        /* \"#utility.yul\":12939:12987   */\n      tag_286\n        /* \"#utility.yul\":12981:12985   */\n      0x1f\n        /* \"#utility.yul\":12973:12979   */\n      dup10\n        /* \"#utility.yul\":12969:12986   */\n      and\n        /* \"#utility.yul\":12958:12967   */\n      dup3\n        /* \"#utility.yul\":12939:12987   */\n      tag_132\n      jump\t// in\n    tag_286:\n        /* \"#utility.yul\":12931:12937   */\n      dup4\n        /* \"#utility.yul\":12924:12988   */\n      sstore\n        /* \"#utility.yul\":12846:13002   */\n      pop\n        /* \"#utility.yul\":12823:13002   */\n    tag_285:\n        /* \"#utility.yul\":13048:13049   */\n      0x01\n        /* \"#utility.yul\":13044:13045   */\n      0x02\n        /* \"#utility.yul\":13036:13042   */\n      dup9\n        /* \"#utility.yul\":13032:13046   */\n      mul\n        /* \"#utility.yul\":13028:13050   */\n      add\n        /* \"#utility.yul\":13022:13026   */\n      dup9\n        /* \"#utility.yul\":13015:13051   */\n      sstore\n        /* \"#utility.yul\":12450:13061   */\n      pop\n      pop\n      pop\n        /* \"#utility.yul\":12413:13300   */\n    tag_277:\n      pop\n        /* \"#utility.yul\":12003:13306   */\n      pop\n      pop\n      pop\n        /* \"#utility.yul\":11911:13306   */\n      pop\n      pop\n      jump\t// out\n\n    auxdata: 0xa2646970667358221220975941412a7165958dec3cf8e8f3f127e4d0c5fdbc9bd611b2655e9158dbcc7264736f6c63430008120033\n}\n",
				"bytecode": {
					"linkReferences": {},
					"object": "60806040526040518060600160405280600181526020016040518060400160405280600481526020017f616c65780000000000000000000000000000000000000000000000000000000081525081526020016040518060400160405280601481526020017f616c65787269616c303240676d61696c2e636f6d00000000000000000000000081525081525060008082015181600001556020820151816001019081620000ac91906200040c565b506040820151816002019081620000c491906200040c565b5050506040518060a00160405280600160ff168152602001600260ff168152602001600360ff168152602001600460ff168152602001600560ff1681525060039060056200011492919062000129565b503480156200012257600080fd5b50620004f3565b826005810192821562000160579160200282015b828111156200015f578251829060ff169055916020019190600101906200013d565b5b5090506200016f919062000173565b5090565b5b808211156200018e57600081600090555060010162000174565b5090565b600081519050919050565b7f4e487b7100000000000000000000000000000000000000000000000000000000600052604160045260246000fd5b7f4e487b7100000000000000000000000000000000000000000000000000000000600052602260045260246000fd5b600060028204905060018216806200021457607f821691505b6020821081036200022a5762000229620001cc565b5b50919050565b60008190508160005260206000209050919050565b60006020601f8301049050919050565b600082821b905092915050565b600060088302620002947fffffffffffffffffffffffffffffffffffffffffffffffffffffffffffffffff8262000255565b620002a0868362000255565b95508019841693508086168417925050509392505050565b6000819050919050565b6000819050919050565b6000620002ed620002e7620002e184620002b8565b620002c2565b620002b8565b9050919050565b6000819050919050565b6200030983620002cc565b620003216200031882620002f4565b84845462000262565b825550505050565b600090565b6200033862000329565b62000345818484620002fe565b505050565b5b818110156200036d57620003616000826200032e565b6001810190506200034b565b5050565b601f821115620003bc57620003868162000230565b620003918462000245565b81016020851015620003a1578190505b620003b9620003b08562000245565b8301826200034a565b50505b505050565b600082821c905092915050565b6000620003e160001984600802620003c1565b1980831691505092915050565b6000620003fc8383620003ce565b9150826002028217905092915050565b620004178262000192565b67ffffffffffffffff8111156200043357620004326200019d565b5b6200043f8254620001fb565b6200044c82828562000371565b600060209050601f8311600181146200048457600084156200046f578287015190505b6200047b8582620003ee565b865550620004eb565b601f198416620004948662000230565b60005b82811015620004be5784890151825560018201915060208501945060208101905062000497565b86831015620004de5784890151620004da601f891682620003ce565b8355505b6001600288020188555050505b505050505050565b610e2f80620005036000396000f3fe608060405234801561001057600080fd5b50600436106100935760003560e01c8063e52b008f11610066578063e52b008f14610130578063e990585e1461014c578063eaaefa9614610168578063f096fa631461019a578063fecb2c16146101cc57610093565b806320716f88146100985780632833c8a9146100c85780637a088a2e146100e45780639a83e3ec14610114575b600080fd5b6100b260048036038101906100ad919061083b565b6101fc565b6040516100bf91906108a6565b60405180910390f35b6100e260048036038101906100dd919061083b565b610243565b005b6100fe60048036038101906100f9919061091f565b61028c565b60405161010b91906108a6565b60405180910390f35b61012e6004803603810190610129919061094c565b6102a4565b005b61014a600480360381019061014591906109d7565b61032d565b005b6101666004803603810190610161919061094c565b610374565b005b610182600480360381019061017d919061091f565b61040c565b60405161019193929190610a83565b60405180910390f35b6101b460048036038101906101af91906109d7565b610546565b6040516101c393929190610a83565b60405180910390f35b6101e660048036038101906101e191906109d7565b610690565b6040516101f391906108a6565b60405180910390f35b600b82805160208101820180518482526020830160208501208183528095505050505050818154811061022e57600080fd5b90600052602060002001600091509150505481565b600b826040516102539190610b04565b90815260200160405180910390208190806001815401808255809150506001900390600052602060002001600090919091909150555050565b600a6020528060005260406000206000915090505481565b60006040518060600160405280858152602001848152602001838152509050600981908060018154018082558091505060019003906000526020600020906003020160009091909190915060008201518160000155602082015181600101908161030e9190610d27565b5060408201518160020190816103249190610d27565b50505050505050565b80600a60003373ffffffffffffffffffffffffffffffffffffffff1673ffffffffffffffffffffffffffffffffffffffff1681526020019081526020016000208190555050565b604051806060016040528084815260200183815260200182815250600c60003373ffffffffffffffffffffffffffffffffffffffff1673ffffffffffffffffffffffffffffffffffffffff1681526020019081526020016000206000820151816000015560208201518160010190816103ed9190610d27565b5060408201518160020190816104039190610d27565b50905050505050565b600c60205280600052604060002060009150905080600001549080600101805461043590610b4a565b80601f016020809104026020016040519081016040528092919081815260200182805461046190610b4a565b80156104ae5780601f10610483576101008083540402835291602001916104ae565b820191906000526020600020905b81548152906001019060200180831161049157829003601f168201915b5050505050908060020180546104c390610b4a565b80601f01602080910402602001604051908101604052809291908181526020018280546104ef90610b4a565b801561053c5780601f106105115761010080835404028352916020019161053c565b820191906000526020600020905b81548152906001019060200180831161051f57829003601f168201915b5050505050905083565b6009818154811061055657600080fd5b906000526020600020906003020160009150905080600001549080600101805461057f90610b4a565b80601f01602080910402602001604051908101604052809291908181526020018280546105ab90610b4a565b80156105f85780601f106105cd576101008083540402835291602001916105f8565b820191906000526020600020905b8154815290600101906020018083116105db57829003601f168201915b50505050509080600201805461060d90610b4a565b80601f016020809104026020016040519081016040528092919081815260200182805461063990610b4a565b80156106865780601f1061065b57610100808354040283529160200191610686565b820191906000526020600020905b81548152906001019060200180831161066957829003601f168201915b5050505050905083565b600381600581106106a057600080fd5b016000915090505481565b6000604051905090565b600080fd5b600080fd5b600080fd5b600080fd5b6000601f19601f8301169050919050565b7f4e487b7100000000000000000000000000000000000000000000000000000000600052604160045260246000fd5b610712826106c9565b810181811067ffffffffffffffff82111715610731576107306106da565b5b80604052505050565b60006107446106ab565b90506107508282610709565b919050565b600067ffffffffffffffff8211156107705761076f6106da565b5b610779826106c9565b9050602081019050919050565b82818337600083830152505050565b60006107a86107a384610755565b61073a565b9050828152602081018484840111156107c4576107c36106c4565b5b6107cf848285610786565b509392505050565b600082601f8301126107ec576107eb6106bf565b5b81356107fc848260208601610795565b91505092915050565b6000819050919050565b61081881610805565b811461082357600080fd5b50565b6000813590506108358161080f565b92915050565b60008060408385031215610852576108516106b5565b5b600083013567ffffffffffffffff8111156108705761086f6106ba565b5b61087c858286016107d7565b925050602061088d85828601610826565b9150509250929050565b6108a081610805565b82525050565b60006020820190506108bb6000830184610897565b92915050565b600073ffffffffffffffffffffffffffffffffffffffff82169050919050565b60006108ec826108c1565b9050919050565b6108fc816108e1565b811461090757600080fd5b50565b600081359050610919816108f3565b92915050565b600060208284031215610935576109346106b5565b5b60006109438482850161090a565b91505092915050565b600080600060608486031215610965576109646106b5565b5b600061097386828701610826565b935050602084013567ffffffffffffffff811115610994576109936106ba565b5b6109a0868287016107d7565b925050604084013567ffffffffffffffff8111156109c1576109c06106ba565b5b6109cd868287016107d7565b9150509250925092565b6000602082840312156109ed576109ec6106b5565b5b60006109fb84828501610826565b91505092915050565b600081519050919050565b600082825260208201905092915050565b60005b83811015610a3e578082015181840152602081019050610a23565b60008484015250505050565b6000610a5582610a04565b610a5f8185610a0f565b9350610a6f818560208601610a20565b610a78816106c9565b840191505092915050565b6000606082019050610a986000830186610897565b8181036020830152610aaa8185610a4a565b90508181036040830152610abe8184610a4a565b9050949350505050565b600081905092915050565b6000610ade82610a04565b610ae88185610ac8565b9350610af8818560208601610a20565b80840191505092915050565b6000610b108284610ad3565b915081905092915050565b7f4e487b7100000000000000000000000000000000000000000000000000000000600052602260045260246000fd5b60006002820490506001821680610b6257607f821691505b602082108103610b7557610b74610b1b565b5b50919050565b60008190508160005260206000209050919050565b60006020601f8301049050919050565b600082821b905092915050565b600060088302610bdd7fffffffffffffffffffffffffffffffffffffffffffffffffffffffffffffffff82610ba0565b610be78683610ba0565b95508019841693508086168417925050509392505050565b6000819050919050565b6000610c24610c1f610c1a84610805565b610bff565b610805565b9050919050565b6000819050919050565b610c3e83610c09565b610c52610c4a82610c2b565b848454610bad565b825550505050565b600090565b610c67610c5a565b610c72818484610c35565b505050565b5b81811015610c9657610c8b600082610c5f565b600181019050610c78565b5050565b601f821115610cdb57610cac81610b7b565b610cb584610b90565b81016020851015610cc4578190505b610cd8610cd085610b90565b830182610c77565b50505b505050565b600082821c905092915050565b6000610cfe60001984600802610ce0565b1980831691505092915050565b6000610d178383610ced565b9150826002028217905092915050565b610d3082610a04565b67ffffffffffffffff811115610d4957610d486106da565b5b610d538254610b4a565b610d5e828285610c9a565b600060209050601f831160018114610d915760008415610d7f578287015190505b610d898582610d0b565b865550610df1565b601f198416610d9f86610b7b565b60005b82811015610dc757848901518255600182019150602085019450602081019050610da2565b86831015610de45784890151610de0601f891682610ced565b8355505b6001600288020188555050505b50505050505056fea2646970667358221220975941412a7165958dec3cf8e8f3f127e4d0c5fdbc9bd611b2655e9158dbcc7264736f6c63430008120033",
					"opcodes": "PUSH1 0x80 PUSH1 0x40 MSTORE PUSH1 0x40 MLOAD DUP1 PUSH1 0x60 ADD PUSH1 0x40 MSTORE DUP1 PUSH1 0x1 DUP2 MSTORE PUSH1 0x20 ADD PUSH1 0x40 MLOAD DUP1 PUSH1 0x40 ADD PUSH1 0x40 MSTORE DUP1 PUSH1 0x4 DUP2 MSTORE PUSH1 0x20 ADD PUSH32 0x616C657800000000000000000000000000000000000000000000000000000000 DUP2 MSTORE POP DUP2 MSTORE PUSH1 0x20 ADD PUSH1 0x40 MLOAD DUP1 PUSH1 0x40 ADD PUSH1 0x40 MSTORE DUP1 PUSH1 0x14 DUP2 MSTORE PUSH1 0x20 ADD PUSH32 0x616C65787269616C303240676D61696C2E636F6D000000000000000000000000 DUP2 MSTORE POP DUP2 MSTORE POP PUSH1 0x0 DUP1 DUP3 ADD MLOAD DUP2 PUSH1 0x0 ADD SSTORE PUSH1 0x20 DUP3 ADD MLOAD DUP2 PUSH1 0x1 ADD SWAP1 DUP2 PUSH3 0xAC SWAP2 SWAP1 PUSH3 0x40C JUMP JUMPDEST POP PUSH1 0x40 DUP3 ADD MLOAD DUP2 PUSH1 0x2 ADD SWAP1 DUP2 PUSH3 0xC4 SWAP2 SWAP1 PUSH3 0x40C JUMP JUMPDEST POP POP POP PUSH1 0x40 MLOAD DUP1 PUSH1 0xA0 ADD PUSH1 0x40 MSTORE DUP1 PUSH1 0x1 PUSH1 0xFF AND DUP2 MSTORE PUSH1 0x20 ADD PUSH1 0x2 PUSH1 0xFF AND DUP2 MSTORE PUSH1 0x20 ADD PUSH1 0x3 PUSH1 0xFF AND DUP2 MSTORE PUSH1 0x20 ADD PUSH1 0x4 PUSH1 0xFF AND DUP2 MSTORE PUSH1 0x20 ADD PUSH1 0x5 PUSH1 0xFF AND DUP2 MSTORE POP PUSH1 0x3 SWAP1 PUSH1 0x5 PUSH3 0x114 SWAP3 SWAP2 SWAP1 PUSH3 0x129 JUMP JUMPDEST POP CALLVALUE DUP1 ISZERO PUSH3 0x122 JUMPI PUSH1 0x0 DUP1 REVERT JUMPDEST POP PUSH3 0x4F3 JUMP JUMPDEST DUP3 PUSH1 0x5 DUP2 ADD SWAP3 DUP3 ISZERO PUSH3 0x160 JUMPI SWAP2 PUSH1 0x20 MUL DUP3 ADD JUMPDEST DUP3 DUP2 GT ISZERO PUSH3 0x15F JUMPI DUP3 MLOAD DUP3 SWAP1 PUSH1 0xFF AND SWAP1 SSTORE SWAP2 PUSH1 0x20 ADD SWAP2 SWAP1 PUSH1 0x1 ADD SWAP1 PUSH3 0x13D JUMP JUMPDEST JUMPDEST POP SWAP1 POP PUSH3 0x16F SWAP2 SWAP1 PUSH3 0x173 JUMP JUMPDEST POP SWAP1 JUMP JUMPDEST JUMPDEST DUP1 DUP3 GT ISZERO PUSH3 0x18E JUMPI PUSH1 0x0 DUP2 PUSH1 0x0 SWAP1 SSTORE POP PUSH1 0x1 ADD PUSH3 0x174 JUMP JUMPDEST POP SWAP1 JUMP JUMPDEST PUSH1 0x0 DUP2 MLOAD SWAP1 POP SWAP2 SWAP1 POP JUMP JUMPDEST PUSH32 0x4E487B7100000000000000000000000000000000000000000000000000000000 PUSH1 0x0 MSTORE PUSH1 0x41 PUSH1 0x4 MSTORE PUSH1 0x24 PUSH1 0x0 REVERT JUMPDEST PUSH32 0x4E487B7100000000000000000000000000000000000000000000000000000000 PUSH1 0x0 MSTORE PUSH1 0x22 PUSH1 0x4 MSTORE PUSH1 0x24 PUSH1 0x0 REVERT JUMPDEST PUSH1 0x0 PUSH1 0x2 DUP3 DIV SWAP1 POP PUSH1 0x1 DUP3 AND DUP1 PUSH3 0x214 JUMPI PUSH1 0x7F DUP3 AND SWAP2 POP JUMPDEST PUSH1 0x20 DUP3 LT DUP2 SUB PUSH3 0x22A JUMPI PUSH3 0x229 PUSH3 0x1CC JUMP JUMPDEST JUMPDEST POP SWAP2 SWAP1 POP JUMP JUMPDEST PUSH1 0x0 DUP2 SWAP1 POP DUP2 PUSH1 0x0 MSTORE PUSH1 0x20 PUSH1 0x0 KECCAK256 SWAP1 POP SWAP2 SWAP1 POP JUMP JUMPDEST PUSH1 0x0 PUSH1 0x20 PUSH1 0x1F DUP4 ADD DIV SWAP1 POP SWAP2 SWAP1 POP JUMP JUMPDEST PUSH1 0x0 DUP3 DUP3 SHL SWAP1 POP SWAP3 SWAP2 POP POP JUMP JUMPDEST PUSH1 0x0 PUSH1 0x8 DUP4 MUL PUSH3 0x294 PUSH32 0xFFFFFFFFFFFFFFFFFFFFFFFFFFFFFFFFFFFFFFFFFFFFFFFFFFFFFFFFFFFFFFFF DUP3 PUSH3 0x255 JUMP JUMPDEST PUSH3 0x2A0 DUP7 DUP4 PUSH3 0x255 JUMP JUMPDEST SWAP6 POP DUP1 NOT DUP5 AND SWAP4 POP DUP1 DUP7 AND DUP5 OR SWAP3 POP POP POP SWAP4 SWAP3 POP POP POP JUMP JUMPDEST PUSH1 0x0 DUP2 SWAP1 POP SWAP2 SWAP1 POP JUMP JUMPDEST PUSH1 0x0 DUP2 SWAP1 POP SWAP2 SWAP1 POP JUMP JUMPDEST PUSH1 0x0 PUSH3 0x2ED PUSH3 0x2E7 PUSH3 0x2E1 DUP5 PUSH3 0x2B8 JUMP JUMPDEST PUSH3 0x2C2 JUMP JUMPDEST PUSH3 0x2B8 JUMP JUMPDEST SWAP1 POP SWAP2 SWAP1 POP JUMP JUMPDEST PUSH1 0x0 DUP2 SWAP1 POP SWAP2 SWAP1 POP JUMP JUMPDEST PUSH3 0x309 DUP4 PUSH3 0x2CC JUMP JUMPDEST PUSH3 0x321 PUSH3 0x318 DUP3 PUSH3 0x2F4 JUMP JUMPDEST DUP5 DUP5 SLOAD PUSH3 0x262 JUMP JUMPDEST DUP3 SSTORE POP POP POP POP JUMP JUMPDEST PUSH1 0x0 SWAP1 JUMP JUMPDEST PUSH3 0x338 PUSH3 0x329 JUMP JUMPDEST PUSH3 0x345 DUP2 DUP5 DUP5 PUSH3 0x2FE JUMP JUMPDEST POP POP POP JUMP JUMPDEST JUMPDEST DUP2 DUP2 LT ISZERO PUSH3 0x36D JUMPI PUSH3 0x361 PUSH1 0x0 DUP3 PUSH3 0x32E JUMP JUMPDEST PUSH1 0x1 DUP2 ADD SWAP1 POP PUSH3 0x34B JUMP JUMPDEST POP POP JUMP JUMPDEST PUSH1 0x1F DUP3 GT ISZERO PUSH3 0x3BC JUMPI PUSH3 0x386 DUP2 PUSH3 0x230 JUMP JUMPDEST PUSH3 0x391 DUP5 PUSH3 0x245 JUMP JUMPDEST DUP2 ADD PUSH1 0x20 DUP6 LT ISZERO PUSH3 0x3A1 JUMPI DUP2 SWAP1 POP JUMPDEST PUSH3 0x3B9 PUSH3 0x3B0 DUP6 PUSH3 0x245 JUMP JUMPDEST DUP4 ADD DUP3 PUSH3 0x34A JUMP JUMPDEST POP POP JUMPDEST POP POP POP JUMP JUMPDEST PUSH1 0x0 DUP3 DUP3 SHR SWAP1 POP SWAP3 SWAP2 POP POP JUMP JUMPDEST PUSH1 0x0 PUSH3 0x3E1 PUSH1 0x0 NOT DUP5 PUSH1 0x8 MUL PUSH3 0x3C1 JUMP JUMPDEST NOT DUP1 DUP4 AND SWAP2 POP POP SWAP3 SWAP2 POP POP JUMP JUMPDEST PUSH1 0x0 PUSH3 0x3FC DUP4 DUP4 PUSH3 0x3CE JUMP JUMPDEST SWAP2 POP DUP3 PUSH1 0x2 MUL DUP3 OR SWAP1 POP SWAP3 SWAP2 POP POP JUMP JUMPDEST PUSH3 0x417 DUP3 PUSH3 0x192 JUMP JUMPDEST PUSH8 0xFFFFFFFFFFFFFFFF DUP2 GT ISZERO PUSH3 0x433 JUMPI PUSH3 0x432 PUSH3 0x19D JUMP JUMPDEST JUMPDEST PUSH3 0x43F DUP3 SLOAD PUSH3 0x1FB JUMP JUMPDEST PUSH3 0x44C DUP3 DUP3 DUP6 PUSH3 0x371 JUMP JUMPDEST PUSH1 0x0 PUSH1 0x20 SWAP1 POP PUSH1 0x1F DUP4 GT PUSH1 0x1 DUP2 EQ PUSH3 0x484 JUMPI PUSH1 0x0 DUP5 ISZERO PUSH3 0x46F JUMPI DUP3 DUP8 ADD MLOAD SWAP1 POP JUMPDEST PUSH3 0x47B DUP6 DUP3 PUSH3 0x3EE JUMP JUMPDEST DUP7 SSTORE POP PUSH3 0x4EB JUMP JUMPDEST PUSH1 0x1F NOT DUP5 AND PUSH3 0x494 DUP7 PUSH3 0x230 JUMP JUMPDEST PUSH1 0x0 JUMPDEST DUP3 DUP2 LT ISZERO PUSH3 0x4BE JUMPI DUP5 DUP10 ADD MLOAD DUP3 SSTORE PUSH1 0x1 DUP3 ADD SWAP2 POP PUSH1 0x20 DUP6 ADD SWAP5 POP PUSH1 0x20 DUP2 ADD SWAP1 POP PUSH3 0x497 JUMP JUMPDEST DUP7 DUP4 LT ISZERO PUSH3 0x4DE JUMPI DUP5 DUP10 ADD MLOAD PUSH3 0x4DA PUSH1 0x1F DUP10 AND DUP3 PUSH3 0x3CE JUMP JUMPDEST DUP4 SSTORE POP JUMPDEST PUSH1 0x1 PUSH1 0x2 DUP9 MUL ADD DUP9 SSTORE POP POP POP JUMPDEST POP POP POP POP POP POP JUMP JUMPDEST PUSH2 0xE2F DUP1 PUSH3 0x503 PUSH1 0x0 CODECOPY PUSH1 0x0 RETURN INVALID PUSH1 0x80 PUSH1 0x40 MSTORE CALLVALUE DUP1 ISZERO PUSH2 0x10 JUMPI PUSH1 0x0 DUP1 REVERT JUMPDEST POP PUSH1 0x4 CALLDATASIZE LT PUSH2 0x93 JUMPI PUSH1 0x0 CALLDATALOAD PUSH1 0xE0 SHR DUP1 PUSH4 0xE52B008F GT PUSH2 0x66 JUMPI DUP1 PUSH4 0xE52B008F EQ PUSH2 0x130 JUMPI DUP1 PUSH4 0xE990585E EQ PUSH2 0x14C JUMPI DUP1 PUSH4 0xEAAEFA96 EQ PUSH2 0x168 JUMPI DUP1 PUSH4 0xF096FA63 EQ PUSH2 0x19A JUMPI DUP1 PUSH4 0xFECB2C16 EQ PUSH2 0x1CC JUMPI PUSH2 0x93 JUMP JUMPDEST DUP1 PUSH4 0x20716F88 EQ PUSH2 0x98 JUMPI DUP1 PUSH4 0x2833C8A9 EQ PUSH2 0xC8 JUMPI DUP1 PUSH4 0x7A088A2E EQ PUSH2 0xE4 JUMPI DUP1 PUSH4 0x9A83E3EC EQ PUSH2 0x114 JUMPI JUMPDEST PUSH1 0x0 DUP1 REVERT JUMPDEST PUSH2 0xB2 PUSH1 0x4 DUP1 CALLDATASIZE SUB DUP2 ADD SWAP1 PUSH2 0xAD SWAP2 SWAP1 PUSH2 0x83B JUMP JUMPDEST PUSH2 0x1FC JUMP JUMPDEST PUSH1 0x40 MLOAD PUSH2 0xBF SWAP2 SWAP1 PUSH2 0x8A6 JUMP JUMPDEST PUSH1 0x40 MLOAD DUP1 SWAP2 SUB SWAP1 RETURN JUMPDEST PUSH2 0xE2 PUSH1 0x4 DUP1 CALLDATASIZE SUB DUP2 ADD SWAP1 PUSH2 0xDD SWAP2 SWAP1 PUSH2 0x83B JUMP JUMPDEST PUSH2 0x243 JUMP JUMPDEST STOP JUMPDEST PUSH2 0xFE PUSH1 0x4 DUP1 CALLDATASIZE SUB DUP2 ADD SWAP1 PUSH2 0xF9 SWAP2 SWAP1 PUSH2 0x91F JUMP JUMPDEST PUSH2 0x28C JUMP JUMPDEST PUSH1 0x40 MLOAD PUSH2 0x10B SWAP2 SWAP1 PUSH2 0x8A6 JUMP JUMPDEST PUSH1 0x40 MLOAD DUP1 SWAP2 SUB SWAP1 RETURN JUMPDEST PUSH2 0x12E PUSH1 0x4 DUP1 CALLDATASIZE SUB DUP2 ADD SWAP1 PUSH2 0x129 SWAP2 SWAP1 PUSH2 0x94C JUMP JUMPDEST PUSH2 0x2A4 JUMP JUMPDEST STOP JUMPDEST PUSH2 0x14A PUSH1 0x4 DUP1 CALLDATASIZE SUB DUP2 ADD SWAP1 PUSH2 0x145 SWAP2 SWAP1 PUSH2 0x9D7 JUMP JUMPDEST PUSH2 0x32D JUMP JUMPDEST STOP JUMPDEST PUSH2 0x166 PUSH1 0x4 DUP1 CALLDATASIZE SUB DUP2 ADD SWAP1 PUSH2 0x161 SWAP2 SWAP1 PUSH2 0x94C JUMP JUMPDEST PUSH2 0x374 JUMP JUMPDEST STOP JUMPDEST PUSH2 0x182 PUSH1 0x4 DUP1 CALLDATASIZE SUB DUP2 ADD SWAP1 PUSH2 0x17D SWAP2 SWAP1 PUSH2 0x91F JUMP JUMPDEST PUSH2 0x40C JUMP JUMPDEST PUSH1 0x40 MLOAD PUSH2 0x191 SWAP4 SWAP3 SWAP2 SWAP1 PUSH2 0xA83 JUMP JUMPDEST PUSH1 0x40 MLOAD DUP1 SWAP2 SUB SWAP1 RETURN JUMPDEST PUSH2 0x1B4 PUSH1 0x4 DUP1 CALLDATASIZE SUB DUP2 ADD SWAP1 PUSH2 0x1AF SWAP2 SWAP1 PUSH2 0x9D7 JUMP JUMPDEST PUSH2 0x546 JUMP JUMPDEST PUSH1 0x40 MLOAD PUSH2 0x1C3 SWAP4 SWAP3 SWAP2 SWAP1 PUSH2 0xA83 JUMP JUMPDEST PUSH1 0x40 MLOAD DUP1 SWAP2 SUB SWAP1 RETURN JUMPDEST PUSH2 0x1E6 PUSH1 0x4 DUP1 CALLDATASIZE SUB DUP2 ADD SWAP1 PUSH2 0x1E1 SWAP2 SWAP1 PUSH2 0x9D7 JUMP JUMPDEST PUSH2 0x690 JUMP JUMPDEST PUSH1 0x40 MLOAD PUSH2 0x1F3 SWAP2 SWAP1 PUSH2 0x8A6 JUMP JUMPDEST PUSH1 0x40 MLOAD DUP1 SWAP2 SUB SWAP1 RETURN JUMPDEST PUSH1 0xB DUP3 DUP1 MLOAD PUSH1 0x20 DUP2 ADD DUP3 ADD DUP1 MLOAD DUP5 DUP3 MSTORE PUSH1 0x20 DUP4 ADD PUSH1 0x20 DUP6 ADD KECCAK256 DUP2 DUP4 MSTORE DUP1 SWAP6 POP POP POP POP POP POP DUP2 DUP2 SLOAD DUP2 LT PUSH2 0x22E JUMPI PUSH1 0x0 DUP1 REVERT JUMPDEST SWAP1 PUSH1 0x0 MSTORE PUSH1 0x20 PUSH1 0x0 KECCAK256 ADD PUSH1 0x0 SWAP2 POP SWAP2 POP POP SLOAD DUP2 JUMP JUMPDEST PUSH1 0xB DUP3 PUSH1 0x40 MLOAD PUSH2 0x253 SWAP2 SWAP1 PUSH2 0xB04 JUMP JUMPDEST SWAP1 DUP2 MSTORE PUSH1 0x20 ADD PUSH1 0x40 MLOAD DUP1 SWAP2 SUB SWAP1 KECCAK256 DUP2 SWAP1 DUP1 PUSH1 0x1 DUP2 SLOAD ADD DUP1 DUP3 SSTORE DUP1 SWAP2 POP POP PUSH1 0x1 SWAP1 SUB SWAP1 PUSH1 0x0 MSTORE PUSH1 0x20 PUSH1 0x0 KECCAK256 ADD PUSH1 0x0 SWAP1 SWAP2 SWAP1 SWAP2 SWAP1 SWAP2 POP SSTORE POP POP JUMP JUMPDEST PUSH1 0xA PUSH1 0x20 MSTORE DUP1 PUSH1 0x0 MSTORE PUSH1 0x40 PUSH1 0x0 KECCAK256 PUSH1 0x0 SWAP2 POP SWAP1 POP SLOAD DUP2 JUMP JUMPDEST PUSH1 0x0 PUSH1 0x40 MLOAD DUP1 PUSH1 0x60 ADD PUSH1 0x40 MSTORE DUP1 DUP6 DUP2 MSTORE PUSH1 0x20 ADD DUP5 DUP2 MSTORE PUSH1 0x20 ADD DUP4 DUP2 MSTORE POP SWAP1 POP PUSH1 0x9 DUP2 SWAP1 DUP1 PUSH1 0x1 DUP2 SLOAD ADD DUP1 DUP3 SSTORE DUP1 SWAP2 POP POP PUSH1 0x1 SWAP1 SUB SWAP1 PUSH1 0x0 MSTORE PUSH1 0x20 PUSH1 0x0 KECCAK256 SWAP1 PUSH1 0x3 MUL ADD PUSH1 0x0 SWAP1 SWAP2 SWAP1 SWAP2 SWAP1 SWAP2 POP PUSH1 0x0 DUP3 ADD MLOAD DUP2 PUSH1 0x0 ADD SSTORE PUSH1 0x20 DUP3 ADD MLOAD DUP2 PUSH1 0x1 ADD SWAP1 DUP2 PUSH2 0x30E SWAP2 SWAP1 PUSH2 0xD27 JUMP JUMPDEST POP PUSH1 0x40 DUP3 ADD MLOAD DUP2 PUSH1 0x2 ADD SWAP1 DUP2 PUSH2 0x324 SWAP2 SWAP1 PUSH2 0xD27 JUMP JUMPDEST POP POP POP POP POP POP POP JUMP JUMPDEST DUP1 PUSH1 0xA PUSH1 0x0 CALLER PUSH20 0xFFFFFFFFFFFFFFFFFFFFFFFFFFFFFFFFFFFFFFFF AND PUSH20 0xFFFFFFFFFFFFFFFFFFFFFFFFFFFFFFFFFFFFFFFF AND DUP2 MSTORE PUSH1 0x20 ADD SWAP1 DUP2 MSTORE PUSH1 0x20 ADD PUSH1 0x0 KECCAK256 DUP2 SWAP1 SSTORE POP POP JUMP JUMPDEST PUSH1 0x40 MLOAD DUP1 PUSH1 0x60 ADD PUSH1 0x40 MSTORE DUP1 DUP5 DUP2 MSTORE PUSH1 0x20 ADD DUP4 DUP2 MSTORE PUSH1 0x20 ADD DUP3 DUP2 MSTORE POP PUSH1 0xC PUSH1 0x0 CALLER PUSH20 0xFFFFFFFFFFFFFFFFFFFFFFFFFFFFFFFFFFFFFFFF AND PUSH20 0xFFFFFFFFFFFFFFFFFFFFFFFFFFFFFFFFFFFFFFFF AND DUP2 MSTORE PUSH1 0x20 ADD SWAP1 DUP2 MSTORE PUSH1 0x20 ADD PUSH1 0x0 KECCAK256 PUSH1 0x0 DUP3 ADD MLOAD DUP2 PUSH1 0x0 ADD SSTORE PUSH1 0x20 DUP3 ADD MLOAD DUP2 PUSH1 0x1 ADD SWAP1 DUP2 PUSH2 0x3ED SWAP2 SWAP1 PUSH2 0xD27 JUMP JUMPDEST POP PUSH1 0x40 DUP3 ADD MLOAD DUP2 PUSH1 0x2 ADD SWAP1 DUP2 PUSH2 0x403 SWAP2 SWAP1 PUSH2 0xD27 JUMP JUMPDEST POP SWAP1 POP POP POP POP POP JUMP JUMPDEST PUSH1 0xC PUSH1 0x20 MSTORE DUP1 PUSH1 0x0 MSTORE PUSH1 0x40 PUSH1 0x0 KECCAK256 PUSH1 0x0 SWAP2 POP SWAP1 POP DUP1 PUSH1 0x0 ADD SLOAD SWAP1 DUP1 PUSH1 0x1 ADD DUP1 SLOAD PUSH2 0x435 SWAP1 PUSH2 0xB4A JUMP JUMPDEST DUP1 PUSH1 0x1F ADD PUSH1 0x20 DUP1 SWAP2 DIV MUL PUSH1 0x20 ADD PUSH1 0x40 MLOAD SWAP1 DUP2 ADD PUSH1 0x40 MSTORE DUP1 SWAP3 SWAP2 SWAP1 DUP2 DUP2 MSTORE PUSH1 0x20 ADD DUP3 DUP1 SLOAD PUSH2 0x461 SWAP1 PUSH2 0xB4A JUMP JUMPDEST DUP1 ISZERO PUSH2 0x4AE JUMPI DUP1 PUSH1 0x1F LT PUSH2 0x483 JUMPI PUSH2 0x100 DUP1 DUP4 SLOAD DIV MUL DUP4 MSTORE SWAP2 PUSH1 0x20 ADD SWAP2 PUSH2 0x4AE JUMP JUMPDEST DUP3 ADD SWAP2 SWAP1 PUSH1 0x0 MSTORE PUSH1 0x20 PUSH1 0x0 KECCAK256 SWAP1 JUMPDEST DUP2 SLOAD DUP2 MSTORE SWAP1 PUSH1 0x1 ADD SWAP1 PUSH1 0x20 ADD DUP1 DUP4 GT PUSH2 0x491 JUMPI DUP3 SWAP1 SUB PUSH1 0x1F AND DUP3 ADD SWAP2 JUMPDEST POP POP POP POP POP SWAP1 DUP1 PUSH1 0x2 ADD DUP1 SLOAD PUSH2 0x4C3 SWAP1 PUSH2 0xB4A JUMP JUMPDEST DUP1 PUSH1 0x1F ADD PUSH1 0x20 DUP1 SWAP2 DIV MUL PUSH1 0x20 ADD PUSH1 0x40 MLOAD SWAP1 DUP2 ADD PUSH1 0x40 MSTORE DUP1 SWAP3 SWAP2 SWAP1 DUP2 DUP2 MSTORE PUSH1 0x20 ADD DUP3 DUP1 SLOAD PUSH2 0x4EF SWAP1 PUSH2 0xB4A JUMP JUMPDEST DUP1 ISZERO PUSH2 0x53C JUMPI DUP1 PUSH1 0x1F LT PUSH2 0x511 JUMPI PUSH2 0x100 DUP1 DUP4 SLOAD DIV MUL DUP4 MSTORE SWAP2 PUSH1 0x20 ADD SWAP2 PUSH2 0x53C JUMP JUMPDEST DUP3 ADD SWAP2 SWAP1 PUSH1 0x0 MSTORE PUSH1 0x20 PUSH1 0x0 KECCAK256 SWAP1 JUMPDEST DUP2 SLOAD DUP2 MSTORE SWAP1 PUSH1 0x1 ADD SWAP1 PUSH1 0x20 ADD DUP1 DUP4 GT PUSH2 0x51F JUMPI DUP3 SWAP1 SUB PUSH1 0x1F AND DUP3 ADD SWAP2 JUMPDEST POP POP POP POP POP SWAP1 POP DUP4 JUMP JUMPDEST PUSH1 0x9 DUP2 DUP2 SLOAD DUP2 LT PUSH2 0x556 JUMPI PUSH1 0x0 DUP1 REVERT JUMPDEST SWAP1 PUSH1 0x0 MSTORE PUSH1 0x20 PUSH1 0x0 KECCAK256 SWAP1 PUSH1 0x3 MUL ADD PUSH1 0x0 SWAP2 POP SWAP1 POP DUP1 PUSH1 0x0 ADD SLOAD SWAP1 DUP1 PUSH1 0x1 ADD DUP1 SLOAD PUSH2 0x57F SWAP1 PUSH2 0xB4A JUMP JUMPDEST DUP1 PUSH1 0x1F ADD PUSH1 0x20 DUP1 SWAP2 DIV MUL PUSH1 0x20 ADD PUSH1 0x40 MLOAD SWAP1 DUP2 ADD PUSH1 0x40 MSTORE DUP1 SWAP3 SWAP2 SWAP1 DUP2 DUP2 MSTORE PUSH1 0x20 ADD DUP3 DUP1 SLOAD PUSH2 0x5AB SWAP1 PUSH2 0xB4A JUMP JUMPDEST DUP1 ISZERO PUSH2 0x5F8 JUMPI DUP1 PUSH1 0x1F LT PUSH2 0x5CD JUMPI PUSH2 0x100 DUP1 DUP4 SLOAD DIV MUL DUP4 MSTORE SWAP2 PUSH1 0x20 ADD SWAP2 PUSH2 0x5F8 JUMP JUMPDEST DUP3 ADD SWAP2 SWAP1 PUSH1 0x0 MSTORE PUSH1 0x20 PUSH1 0x0 KECCAK256 SWAP1 JUMPDEST DUP2 SLOAD DUP2 MSTORE SWAP1 PUSH1 0x1 ADD SWAP1 PUSH1 0x20 ADD DUP1 DUP4 GT PUSH2 0x5DB JUMPI DUP3 SWAP1 SUB PUSH1 0x1F AND DUP3 ADD SWAP2 JUMPDEST POP POP POP POP POP SWAP1 DUP1 PUSH1 0x2 ADD DUP1 SLOAD PUSH2 0x60D SWAP1 PUSH2 0xB4A JUMP JUMPDEST DUP1 PUSH1 0x1F ADD PUSH1 0x20 DUP1 SWAP2 DIV MUL PUSH1 0x20 ADD PUSH1 0x40 MLOAD SWAP1 DUP2 ADD PUSH1 0x40 MSTORE DUP1 SWAP3 SWAP2 SWAP1 DUP2 DUP2 MSTORE PUSH1 0x20 ADD DUP3 DUP1 SLOAD PUSH2 0x639 SWAP1 PUSH2 0xB4A JUMP JUMPDEST DUP1 ISZERO PUSH2 0x686 JUMPI DUP1 PUSH1 0x1F LT PUSH2 0x65B JUMPI PUSH2 0x100 DUP1 DUP4 SLOAD DIV MUL DUP4 MSTORE SWAP2 PUSH1 0x20 ADD SWAP2 PUSH2 0x686 JUMP JUMPDEST DUP3 ADD SWAP2 SWAP1 PUSH1 0x0 MSTORE PUSH1 0x20 PUSH1 0x0 KECCAK256 SWAP1 JUMPDEST DUP2 SLOAD DUP2 MSTORE SWAP1 PUSH1 0x1 ADD SWAP1 PUSH1 0x20 ADD DUP1 DUP4 GT PUSH2 0x669 JUMPI DUP3 SWAP1 SUB PUSH1 0x1F AND DUP3 ADD SWAP2 JUMPDEST POP POP POP POP POP SWAP1 POP DUP4 JUMP JUMPDEST PUSH1 0x3 DUP2 PUSH1 0x5 DUP2 LT PUSH2 0x6A0 JUMPI PUSH1 0x0 DUP1 REVERT JUMPDEST ADD PUSH1 0x0 SWAP2 POP SWAP1 POP SLOAD DUP2 JUMP JUMPDEST PUSH1 0x0 PUSH1 0x40 MLOAD SWAP1 POP SWAP1 JUMP JUMPDEST PUSH1 0x0 DUP1 REVERT JUMPDEST PUSH1 0x0 DUP1 REVERT JUMPDEST PUSH1 0x0 DUP1 REVERT JUMPDEST PUSH1 0x0 DUP1 REVERT JUMPDEST PUSH1 0x0 PUSH1 0x1F NOT PUSH1 0x1F DUP4 ADD AND SWAP1 POP SWAP2 SWAP1 POP JUMP JUMPDEST PUSH32 0x4E487B7100000000000000000000000000000000000000000000000000000000 PUSH1 0x0 MSTORE PUSH1 0x41 PUSH1 0x4 MSTORE PUSH1 0x24 PUSH1 0x0 REVERT JUMPDEST PUSH2 0x712 DUP3 PUSH2 0x6C9 JUMP JUMPDEST DUP2 ADD DUP2 DUP2 LT PUSH8 0xFFFFFFFFFFFFFFFF DUP3 GT OR ISZERO PUSH2 0x731 JUMPI PUSH2 0x730 PUSH2 0x6DA JUMP JUMPDEST JUMPDEST DUP1 PUSH1 0x40 MSTORE POP POP POP JUMP JUMPDEST PUSH1 0x0 PUSH2 0x744 PUSH2 0x6AB JUMP JUMPDEST SWAP1 POP PUSH2 0x750 DUP3 DUP3 PUSH2 0x709 JUMP JUMPDEST SWAP2 SWAP1 POP JUMP JUMPDEST PUSH1 0x0 PUSH8 0xFFFFFFFFFFFFFFFF DUP3 GT ISZERO PUSH2 0x770 JUMPI PUSH2 0x76F PUSH2 0x6DA JUMP JUMPDEST JUMPDEST PUSH2 0x779 DUP3 PUSH2 0x6C9 JUMP JUMPDEST SWAP1 POP PUSH1 0x20 DUP2 ADD SWAP1 POP SWAP2 SWAP1 POP JUMP JUMPDEST DUP3 DUP2 DUP4 CALLDATACOPY PUSH1 0x0 DUP4 DUP4 ADD MSTORE POP POP POP JUMP JUMPDEST PUSH1 0x0 PUSH2 0x7A8 PUSH2 0x7A3 DUP5 PUSH2 0x755 JUMP JUMPDEST PUSH2 0x73A JUMP JUMPDEST SWAP1 POP DUP3 DUP2 MSTORE PUSH1 0x20 DUP2 ADD DUP5 DUP5 DUP5 ADD GT ISZERO PUSH2 0x7C4 JUMPI PUSH2 0x7C3 PUSH2 0x6C4 JUMP JUMPDEST JUMPDEST PUSH2 0x7CF DUP5 DUP3 DUP6 PUSH2 0x786 JUMP JUMPDEST POP SWAP4 SWAP3 POP POP POP JUMP JUMPDEST PUSH1 0x0 DUP3 PUSH1 0x1F DUP4 ADD SLT PUSH2 0x7EC JUMPI PUSH2 0x7EB PUSH2 0x6BF JUMP JUMPDEST JUMPDEST DUP2 CALLDATALOAD PUSH2 0x7FC DUP5 DUP3 PUSH1 0x20 DUP7 ADD PUSH2 0x795 JUMP JUMPDEST SWAP2 POP POP SWAP3 SWAP2 POP POP JUMP JUMPDEST PUSH1 0x0 DUP2 SWAP1 POP SWAP2 SWAP1 POP JUMP JUMPDEST PUSH2 0x818 DUP2 PUSH2 0x805 JUMP JUMPDEST DUP2 EQ PUSH2 0x823 JUMPI PUSH1 0x0 DUP1 REVERT JUMPDEST POP JUMP JUMPDEST PUSH1 0x0 DUP2 CALLDATALOAD SWAP1 POP PUSH2 0x835 DUP2 PUSH2 0x80F JUMP JUMPDEST SWAP3 SWAP2 POP POP JUMP JUMPDEST PUSH1 0x0 DUP1 PUSH1 0x40 DUP4 DUP6 SUB SLT ISZERO PUSH2 0x852 JUMPI PUSH2 0x851 PUSH2 0x6B5 JUMP JUMPDEST JUMPDEST PUSH1 0x0 DUP4 ADD CALLDATALOAD PUSH8 0xFFFFFFFFFFFFFFFF DUP2 GT ISZERO PUSH2 0x870 JUMPI PUSH2 0x86F PUSH2 0x6BA JUMP JUMPDEST JUMPDEST PUSH2 0x87C DUP6 DUP3 DUP7 ADD PUSH2 0x7D7 JUMP JUMPDEST SWAP3 POP POP PUSH1 0x20 PUSH2 0x88D DUP6 DUP3 DUP7 ADD PUSH2 0x826 JUMP JUMPDEST SWAP2 POP POP SWAP3 POP SWAP3 SWAP1 POP JUMP JUMPDEST PUSH2 0x8A0 DUP2 PUSH2 0x805 JUMP JUMPDEST DUP3 MSTORE POP POP JUMP JUMPDEST PUSH1 0x0 PUSH1 0x20 DUP3 ADD SWAP1 POP PUSH2 0x8BB PUSH1 0x0 DUP4 ADD DUP5 PUSH2 0x897 JUMP JUMPDEST SWAP3 SWAP2 POP POP JUMP JUMPDEST PUSH1 0x0 PUSH20 0xFFFFFFFFFFFFFFFFFFFFFFFFFFFFFFFFFFFFFFFF DUP3 AND SWAP1 POP SWAP2 SWAP1 POP JUMP JUMPDEST PUSH1 0x0 PUSH2 0x8EC DUP3 PUSH2 0x8C1 JUMP JUMPDEST SWAP1 POP SWAP2 SWAP1 POP JUMP JUMPDEST PUSH2 0x8FC DUP2 PUSH2 0x8E1 JUMP JUMPDEST DUP2 EQ PUSH2 0x907 JUMPI PUSH1 0x0 DUP1 REVERT JUMPDEST POP JUMP JUMPDEST PUSH1 0x0 DUP2 CALLDATALOAD SWAP1 POP PUSH2 0x919 DUP2 PUSH2 0x8F3 JUMP JUMPDEST SWAP3 SWAP2 POP POP JUMP JUMPDEST PUSH1 0x0 PUSH1 0x20 DUP3 DUP5 SUB SLT ISZERO PUSH2 0x935 JUMPI PUSH2 0x934 PUSH2 0x6B5 JUMP JUMPDEST JUMPDEST PUSH1 0x0 PUSH2 0x943 DUP5 DUP3 DUP6 ADD PUSH2 0x90A JUMP JUMPDEST SWAP2 POP POP SWAP3 SWAP2 POP POP JUMP JUMPDEST PUSH1 0x0 DUP1 PUSH1 0x0 PUSH1 0x60 DUP5 DUP7 SUB SLT ISZERO PUSH2 0x965 JUMPI PUSH2 0x964 PUSH2 0x6B5 JUMP JUMPDEST JUMPDEST PUSH1 0x0 PUSH2 0x973 DUP7 DUP3 DUP8 ADD PUSH2 0x826 JUMP JUMPDEST SWAP4 POP POP PUSH1 0x20 DUP5 ADD CALLDATALOAD PUSH8 0xFFFFFFFFFFFFFFFF DUP2 GT ISZERO PUSH2 0x994 JUMPI PUSH2 0x993 PUSH2 0x6BA JUMP JUMPDEST JUMPDEST PUSH2 0x9A0 DUP7 DUP3 DUP8 ADD PUSH2 0x7D7 JUMP JUMPDEST SWAP3 POP POP PUSH1 0x40 DUP5 ADD CALLDATALOAD PUSH8 0xFFFFFFFFFFFFFFFF DUP2 GT ISZERO PUSH2 0x9C1 JUMPI PUSH2 0x9C0 PUSH2 0x6BA JUMP JUMPDEST JUMPDEST PUSH2 0x9CD DUP7 DUP3 DUP8 ADD PUSH2 0x7D7 JUMP JUMPDEST SWAP2 POP POP SWAP3 POP SWAP3 POP SWAP3 JUMP JUMPDEST PUSH1 0x0 PUSH1 0x20 DUP3 DUP5 SUB SLT ISZERO PUSH2 0x9ED JUMPI PUSH2 0x9EC PUSH2 0x6B5 JUMP JUMPDEST JUMPDEST PUSH1 0x0 PUSH2 0x9FB DUP5 DUP3 DUP6 ADD PUSH2 0x826 JUMP JUMPDEST SWAP2 POP POP SWAP3 SWAP2 POP POP JUMP JUMPDEST PUSH1 0x0 DUP2 MLOAD SWAP1 POP SWAP2 SWAP1 POP JUMP JUMPDEST PUSH1 0x0 DUP3 DUP3 MSTORE PUSH1 0x20 DUP3 ADD SWAP1 POP SWAP3 SWAP2 POP POP JUMP JUMPDEST PUSH1 0x0 JUMPDEST DUP4 DUP2 LT ISZERO PUSH2 0xA3E JUMPI DUP1 DUP3 ADD MLOAD DUP2 DUP5 ADD MSTORE PUSH1 0x20 DUP2 ADD SWAP1 POP PUSH2 0xA23 JUMP JUMPDEST PUSH1 0x0 DUP5 DUP5 ADD MSTORE POP POP POP POP JUMP JUMPDEST PUSH1 0x0 PUSH2 0xA55 DUP3 PUSH2 0xA04 JUMP JUMPDEST PUSH2 0xA5F DUP2 DUP6 PUSH2 0xA0F JUMP JUMPDEST SWAP4 POP PUSH2 0xA6F DUP2 DUP6 PUSH1 0x20 DUP7 ADD PUSH2 0xA20 JUMP JUMPDEST PUSH2 0xA78 DUP2 PUSH2 0x6C9 JUMP JUMPDEST DUP5 ADD SWAP2 POP POP SWAP3 SWAP2 POP POP JUMP JUMPDEST PUSH1 0x0 PUSH1 0x60 DUP3 ADD SWAP1 POP PUSH2 0xA98 PUSH1 0x0 DUP4 ADD DUP7 PUSH2 0x897 JUMP JUMPDEST DUP2 DUP2 SUB PUSH1 0x20 DUP4 ADD MSTORE PUSH2 0xAAA DUP2 DUP6 PUSH2 0xA4A JUMP JUMPDEST SWAP1 POP DUP2 DUP2 SUB PUSH1 0x40 DUP4 ADD MSTORE PUSH2 0xABE DUP2 DUP5 PUSH2 0xA4A JUMP JUMPDEST SWAP1 POP SWAP5 SWAP4 POP POP POP POP JUMP JUMPDEST PUSH1 0x0 DUP2 SWAP1 POP SWAP3 SWAP2 POP POP JUMP JUMPDEST PUSH1 0x0 PUSH2 0xADE DUP3 PUSH2 0xA04 JUMP JUMPDEST PUSH2 0xAE8 DUP2 DUP6 PUSH2 0xAC8 JUMP JUMPDEST SWAP4 POP PUSH2 0xAF8 DUP2 DUP6 PUSH1 0x20 DUP7 ADD PUSH2 0xA20 JUMP JUMPDEST DUP1 DUP5 ADD SWAP2 POP POP SWAP3 SWAP2 POP POP JUMP JUMPDEST PUSH1 0x0 PUSH2 0xB10 DUP3 DUP5 PUSH2 0xAD3 JUMP JUMPDEST SWAP2 POP DUP2 SWAP1 POP SWAP3 SWAP2 POP POP JUMP JUMPDEST PUSH32 0x4E487B7100000000000000000000000000000000000000000000000000000000 PUSH1 0x0 MSTORE PUSH1 0x22 PUSH1 0x4 MSTORE PUSH1 0x24 PUSH1 0x0 REVERT JUMPDEST PUSH1 0x0 PUSH1 0x2 DUP3 DIV SWAP1 POP PUSH1 0x1 DUP3 AND DUP1 PUSH2 0xB62 JUMPI PUSH1 0x7F DUP3 AND SWAP2 POP JUMPDEST PUSH1 0x20 DUP3 LT DUP2 SUB PUSH2 0xB75 JUMPI PUSH2 0xB74 PUSH2 0xB1B JUMP JUMPDEST JUMPDEST POP SWAP2 SWAP1 POP JUMP JUMPDEST PUSH1 0x0 DUP2 SWAP1 POP DUP2 PUSH1 0x0 MSTORE PUSH1 0x20 PUSH1 0x0 KECCAK256 SWAP1 POP SWAP2 SWAP1 POP JUMP JUMPDEST PUSH1 0x0 PUSH1 0x20 PUSH1 0x1F DUP4 ADD DIV SWAP1 POP SWAP2 SWAP1 POP JUMP JUMPDEST PUSH1 0x0 DUP3 DUP3 SHL SWAP1 POP SWAP3 SWAP2 POP POP JUMP JUMPDEST PUSH1 0x0 PUSH1 0x8 DUP4 MUL PUSH2 0xBDD PUSH32 0xFFFFFFFFFFFFFFFFFFFFFFFFFFFFFFFFFFFFFFFFFFFFFFFFFFFFFFFFFFFFFFFF DUP3 PUSH2 0xBA0 JUMP JUMPDEST PUSH2 0xBE7 DUP7 DUP4 PUSH2 0xBA0 JUMP JUMPDEST SWAP6 POP DUP1 NOT DUP5 AND SWAP4 POP DUP1 DUP7 AND DUP5 OR SWAP3 POP POP POP SWAP4 SWAP3 POP POP POP JUMP JUMPDEST PUSH1 0x0 DUP2 SWAP1 POP SWAP2 SWAP1 POP JUMP JUMPDEST PUSH1 0x0 PUSH2 0xC24 PUSH2 0xC1F PUSH2 0xC1A DUP5 PUSH2 0x805 JUMP JUMPDEST PUSH2 0xBFF JUMP JUMPDEST PUSH2 0x805 JUMP JUMPDEST SWAP1 POP SWAP2 SWAP1 POP JUMP JUMPDEST PUSH1 0x0 DUP2 SWAP1 POP SWAP2 SWAP1 POP JUMP JUMPDEST PUSH2 0xC3E DUP4 PUSH2 0xC09 JUMP JUMPDEST PUSH2 0xC52 PUSH2 0xC4A DUP3 PUSH2 0xC2B JUMP JUMPDEST DUP5 DUP5 SLOAD PUSH2 0xBAD JUMP JUMPDEST DUP3 SSTORE POP POP POP POP JUMP JUMPDEST PUSH1 0x0 SWAP1 JUMP JUMPDEST PUSH2 0xC67 PUSH2 0xC5A JUMP JUMPDEST PUSH2 0xC72 DUP2 DUP5 DUP5 PUSH2 0xC35 JUMP JUMPDEST POP POP POP JUMP JUMPDEST JUMPDEST DUP2 DUP2 LT ISZERO PUSH2 0xC96 JUMPI PUSH2 0xC8B PUSH1 0x0 DUP3 PUSH2 0xC5F JUMP JUMPDEST PUSH1 0x1 DUP2 ADD SWAP1 POP PUSH2 0xC78 JUMP JUMPDEST POP POP JUMP JUMPDEST PUSH1 0x1F DUP3 GT ISZERO PUSH2 0xCDB JUMPI PUSH2 0xCAC DUP2 PUSH2 0xB7B JUMP JUMPDEST PUSH2 0xCB5 DUP5 PUSH2 0xB90 JUMP JUMPDEST DUP2 ADD PUSH1 0x20 DUP6 LT ISZERO PUSH2 0xCC4 JUMPI DUP2 SWAP1 POP JUMPDEST PUSH2 0xCD8 PUSH2 0xCD0 DUP6 PUSH2 0xB90 JUMP JUMPDEST DUP4 ADD DUP3 PUSH2 0xC77 JUMP JUMPDEST POP POP JUMPDEST POP POP POP JUMP JUMPDEST PUSH1 0x0 DUP3 DUP3 SHR SWAP1 POP SWAP3 SWAP2 POP POP JUMP JUMPDEST PUSH1 0x0 PUSH2 0xCFE PUSH1 0x0 NOT DUP5 PUSH1 0x8 MUL PUSH2 0xCE0 JUMP JUMPDEST NOT DUP1 DUP4 AND SWAP2 POP POP SWAP3 SWAP2 POP POP JUMP JUMPDEST PUSH1 0x0 PUSH2 0xD17 DUP4 DUP4 PUSH2 0xCED JUMP JUMPDEST SWAP2 POP DUP3 PUSH1 0x2 MUL DUP3 OR SWAP1 POP SWAP3 SWAP2 POP POP JUMP JUMPDEST PUSH2 0xD30 DUP3 PUSH2 0xA04 JUMP JUMPDEST PUSH8 0xFFFFFFFFFFFFFFFF DUP2 GT ISZERO PUSH2 0xD49 JUMPI PUSH2 0xD48 PUSH2 0x6DA JUMP JUMPDEST JUMPDEST PUSH2 0xD53 DUP3 SLOAD PUSH2 0xB4A JUMP JUMPDEST PUSH2 0xD5E DUP3 DUP3 DUP6 PUSH2 0xC9A JUMP JUMPDEST PUSH1 0x0 PUSH1 0x20 SWAP1 POP PUSH1 0x1F DUP4 GT PUSH1 0x1 DUP2 EQ PUSH2 0xD91 JUMPI PUSH1 0x0 DUP5 ISZERO PUSH2 0xD7F JUMPI DUP3 DUP8 ADD MLOAD SWAP1 POP JUMPDEST PUSH2 0xD89 DUP6 DUP3 PUSH2 0xD0B JUMP JUMPDEST DUP7 SSTORE POP PUSH2 0xDF1 JUMP JUMPDEST PUSH1 0x1F NOT DUP5 AND PUSH2 0xD9F DUP7 PUSH2 0xB7B JUMP JUMPDEST PUSH1 0x0 JUMPDEST DUP3 DUP2 LT ISZERO PUSH2 0xDC7 JUMPI DUP5 DUP10 ADD MLOAD DUP3 SSTORE PUSH1 0x1 DUP3 ADD SWAP2 POP PUSH1 0x20 DUP6 ADD SWAP5 POP PUSH1 0x20 DUP2 ADD SWAP1 POP PUSH2 0xDA2 JUMP JUMPDEST DUP7 DUP4 LT ISZERO PUSH2 0xDE4 JUMPI DUP5 DUP10 ADD MLOAD PUSH2 0xDE0 PUSH1 0x1F DUP10 AND DUP3 PUSH2 0xCED JUMP JUMPDEST DUP4 SSTORE POP JUMPDEST PUSH1 0x1 PUSH1 0x2 DUP9 MUL ADD DUP9 SSTORE POP POP POP JUMPDEST POP POP POP POP POP POP JUMP INVALID LOG2 PUSH5 0x6970667358 0x22 SLT KECCAK256 SWAP8 MSIZE COINBASE COINBASE 0x2A PUSH18 0x65958DEC3CF8E8F3F127E4D0C5FDBC9BD611 0xB2 PUSH6 0x5E9158DBCC72 PUSH5 0x736F6C6343 STOP ADDMOD SLT STOP CALLER "
				},
				"gasEstimates": {
					"creation": {
						"codeDepositCost": "726200",
						"executionCost": "infinite",
						"totalCost": "infinite"
					},
					"external": {
						"address_dataStructure(address)": "infinite",
						"address_uint(address)": "2859",
						"array_modification(uint256,string,string)": "infinite",
						"asignList(string,uint256)": "infinite",
						"assignDataStructure(uint256,string,string)": "infinite",
						"assignNumber(uint256)": "22609",
						"dynamic_list_customer(uint256)": "infinite",
						"fixed_list_uints(uint256)": "infinite",
						"string_listUnits(string,uint256)": "infinite"
					}
				},
				"methodIdentifiers": {
					"address_dataStructure(address)": "eaaefa96",
					"address_uint(address)": "7a088a2e",
					"array_modification(uint256,string,string)": "9a83e3ec",
					"asignList(string,uint256)": "2833c8a9",
					"assignDataStructure(uint256,string,string)": "e990585e",
					"assignNumber(uint256)": "e52b008f",
					"dynamic_list_customer(uint256)": "f096fa63",
					"fixed_list_uints(uint256)": "fecb2c16",
					"string_listUnits(string,uint256)": "20716f88"
				}
			},
			"storageLayout": {
				"storage": [
					{
						"astId": 16,
						"contract": "Smart_Contract/contracts/3_.estructuras_datos.sol:data_structures",
						"label": "customer_1",
						"offset": 0,
						"slot": "0",
						"type": "t_struct(Customer)8_storage"
					},
					{
						"astId": 26,
						"contract": "Smart_Contract/contracts/3_.estructuras_datos.sol:data_structures",
						"label": "fixed_list_uints",
						"offset": 0,
						"slot": "3",
						"type": "t_array(t_uint256)5_storage"
					},
					{
						"astId": 29,
						"contract": "Smart_Contract/contracts/3_.estructuras_datos.sol:data_structures",
						"label": "dynamic_list_uints",
						"offset": 0,
						"slot": "8",
						"type": "t_array(t_uint256)dyn_storage"
					},
					{
						"astId": 33,
						"contract": "Smart_Contract/contracts/3_.estructuras_datos.sol:data_structures",
						"label": "dynamic_list_customer",
						"offset": 0,
						"slot": "9",
						"type": "t_array(t_struct(Customer)8_storage)dyn_storage"
					},
					{
						"astId": 62,
						"contract": "Smart_Contract/contracts/3_.estructuras_datos.sol:data_structures",
						"label": "address_uint",
						"offset": 0,
						"slot": "10",
						"type": "t_mapping(t_address,t_uint256)"
					},
					{
						"astId": 67,
						"contract": "Smart_Contract/contracts/3_.estructuras_datos.sol:data_structures",
						"label": "string_listUnits",
						"offset": 0,
						"slot": "11",
						"type": "t_mapping(t_string_memory_ptr,t_array(t_uint256)dyn_storage)"
					},
					{
						"astId": 72,
						"contract": "Smart_Contract/contracts/3_.estructuras_datos.sol:data_structures",
						"label": "address_dataStructure",
						"offset": 0,
						"slot": "12",
						"type": "t_mapping(t_address,t_struct(Customer)8_storage)"
					}
				],
				"types": {
					"t_address": {
						"encoding": "inplace",
						"label": "address",
						"numberOfBytes": "20"
					},
					"t_array(t_struct(Customer)8_storage)dyn_storage": {
						"base": "t_struct(Customer)8_storage",
						"encoding": "dynamic_array",
						"label": "struct data_structures.Customer[]",
						"numberOfBytes": "32"
					},
					"t_array(t_uint256)5_storage": {
						"base": "t_uint256",
						"encoding": "inplace",
						"label": "uint256[5]",
						"numberOfBytes": "160"
					},
					"t_array(t_uint256)dyn_storage": {
						"base": "t_uint256",
						"encoding": "dynamic_array",
						"label": "uint256[]",
						"numberOfBytes": "32"
					},
					"t_mapping(t_address,t_struct(Customer)8_storage)": {
						"encoding": "mapping",
						"key": "t_address",
						"label": "mapping(address => struct data_structures.Customer)",
						"numberOfBytes": "32",
						"value": "t_struct(Customer)8_storage"
					},
					"t_mapping(t_address,t_uint256)": {
						"encoding": "mapping",
						"key": "t_address",
						"label": "mapping(address => uint256)",
						"numberOfBytes": "32",
						"value": "t_uint256"
					},
					"t_mapping(t_string_memory_ptr,t_array(t_uint256)dyn_storage)": {
						"encoding": "mapping",
						"key": "t_string_memory_ptr",
						"label": "mapping(string => uint256[])",
						"numberOfBytes": "32",
						"value": "t_array(t_uint256)dyn_storage"
					},
					"t_string_memory_ptr": {
						"encoding": "bytes",
						"label": "string",
						"numberOfBytes": "32"
					},
					"t_string_storage": {
						"encoding": "bytes",
						"label": "string",
						"numberOfBytes": "32"
					},
					"t_struct(Customer)8_storage": {
						"encoding": "inplace",
						"label": "struct data_structures.Customer",
						"members": [
							{
								"astId": 3,
								"contract": "Smart_Contract/contracts/3_.estructuras_datos.sol:data_structures",
								"label": "id",
								"offset": 0,
								"slot": "0",
								"type": "t_uint256"
							},
							{
								"astId": 5,
								"contract": "Smart_Contract/contracts/3_.estructuras_datos.sol:data_structures",
								"label": "name",
								"offset": 0,
								"slot": "1",
								"type": "t_string_storage"
							},
							{
								"astId": 7,
								"contract": "Smart_Contract/contracts/3_.estructuras_datos.sol:data_structures",
								"label": "email",
								"offset": 0,
								"slot": "2",
								"type": "t_string_storage"
							}
						],
						"numberOfBytes": "96"
					},
					"t_uint256": {
						"encoding": "inplace",
						"label": "uint256",
						"numberOfBytes": "32"
					}
				}
			},
			"userdoc": {
				"kind": "user",
				"methods": {},
				"version": 1
			}
		}
	}
}