{
	"data": {
		"bytecode": {
			"linkReferences": {},
			"object": "608060405234801561001057600080fd5b5033600160006101000a81548173ffffffffffffffffffffffffffffffffffffffff021916908373ffffffffffffffffffffffffffffffffffffffff160217905550610be2806100616000396000f3fe608060405234801561001057600080fd5b506004361061004c5760003560e01c80638da5cb5b14610051578063bda028421461006f578063cffb703c1461009f578063dd595ee4146100d0575b600080fd5b6100596100ec565b6040516100669190610450565b60405180910390f35b610089600480360381019061008491906104b5565b610112565b60405161009691906104fb565b60405180910390f35b6100b960048036038101906100b491906104b5565b6101d2565b6040516100c79291906105a6565b60405180910390f35b6100ea60048036038101906100e59190610712565b610316565b005b600160009054906101000a900473ffffffffffffffffffffffffffffffffffffffff1681565b60003373ffffffffffffffffffffffffffffffffffffffff16600160009054906101000a900473ffffffffffffffffffffffffffffffffffffffff1673ffffffffffffffffffffffffffffffffffffffff16146101a4576040517f08c379a000000000000000000000000000000000000000000000000000000000815260040161019b906107e0565b60405180910390fd5b816040516020016101b59190610821565b604051602081830303815290604052805190602001209050919050565b600081815481106101e257600080fd5b90600052602060002090600202016000915090508060000180546102059061086b565b80601f01602080910402602001604051908101604052809291908181526020018280546102319061086b565b801561027e5780601f106102535761010080835404028352916020019161027e565b820191906000526020600020905b81548152906001019060200180831161026157829003601f168201915b5050505050908060010180546102939061086b565b80601f01602080910402602001604051908101604052809291908181526020018280546102bf9061086b565b801561030c5780601f106102e15761010080835404028352916020019161030c565b820191906000526020600020905b8154815290600101906020018083116102ef57829003601f168201915b5050505050905082565b600581111561035a576040517f08c379a00000000000000000000000000000000000000000000000000000000081526004016103519061090e565b60405180910390fd5b6103996040518060400160405280600a81526020017f48616d62757267756572000000000000000000000000000000000000000000008152508361039d565b5050565b6000604051806040016040528084815260200183815250908060018154018082558091505060019003906000526020600020906002020160009091909190915060008201518160000190816103f29190610ada565b5060208201518160010190816104089190610ada565b5050505050565b600073ffffffffffffffffffffffffffffffffffffffff82169050919050565b600061043a8261040f565b9050919050565b61044a8161042f565b82525050565b60006020820190506104656000830184610441565b92915050565b6000604051905090565b600080fd5b600080fd5b6000819050919050565b6104928161047f565b811461049d57600080fd5b50565b6000813590506104af81610489565b92915050565b6000602082840312156104cb576104ca610475565b5b60006104d9848285016104a0565b91505092915050565b6000819050919050565b6104f5816104e2565b82525050565b600060208201905061051060008301846104ec565b92915050565b600081519050919050565b600082825260208201905092915050565b60005b83811015610550578082015181840152602081019050610535565b60008484015250505050565b6000601f19601f8301169050919050565b600061057882610516565b6105828185610521565b9350610592818560208601610532565b61059b8161055c565b840191505092915050565b600060408201905081810360008301526105c0818561056d565b905081810360208301526105d4818461056d565b90509392505050565b600080fd5b600080fd5b7f4e487b7100000000000000000000000000000000000000000000000000000000600052604160045260246000fd5b61061f8261055c565b810181811067ffffffffffffffff8211171561063e5761063d6105e7565b5b80604052505050565b600061065161046b565b905061065d8282610616565b919050565b600067ffffffffffffffff82111561067d5761067c6105e7565b5b6106868261055c565b9050602081019050919050565b82818337600083830152505050565b60006106b56106b084610662565b610647565b9050828152602081018484840111156106d1576106d06105e2565b5b6106dc848285610693565b509392505050565b600082601f8301126106f9576106f86105dd565b5b81356107098482602086016106a2565b91505092915050565b6000806040838503121561072957610728610475565b5b600083013567ffffffffffffffff8111156107475761074661047a565b5b610753858286016106e4565b9250506020610764858286016104a0565b9150509250929050565b7f4e6f207469656e6573207065726d69736f73207061726120656a65637574617260008201527f20657374612066756e63696f6e00000000000000000000000000000000000000602082015250565b60006107ca602d83610521565b91506107d58261076e565b604082019050919050565b600060208201905081810360008301526107f9816107bd565b9050919050565b6000819050919050565b61081b6108168261047f565b610800565b82525050565b600061082d828461080a565b60208201915081905092915050565b7f4e487b7100000000000000000000000000000000000000000000000000000000600052602260045260246000fd5b6000600282049050600182168061088357607f821691505b6020821081036108965761089561083c565b5b50919050565b7f4e6f20707565646573207065646972206d617320646520352068616d6275726760008201527f7565736173000000000000000000000000000000000000000000000000000000602082015250565b60006108f8602583610521565b91506109038261089c565b604082019050919050565b60006020820190508181036000830152610927816108eb565b9050919050565b60008190508160005260206000209050919050565b60006020601f8301049050919050565b600082821b905092915050565b6000600883026109907fffffffffffffffffffffffffffffffffffffffffffffffffffffffffffffffff82610953565b61099a8683610953565b95508019841693508086168417925050509392505050565b6000819050919050565b60006109d76109d26109cd8461047f565b6109b2565b61047f565b9050919050565b6000819050919050565b6109f1836109bc565b610a056109fd826109de565b848454610960565b825550505050565b600090565b610a1a610a0d565b610a258184846109e8565b505050565b5b81811015610a4957610a3e600082610a12565b600181019050610a2b565b5050565b601f821115610a8e57610a5f8161092e565b610a6884610943565b81016020851015610a77578190505b610a8b610a8385610943565b830182610a2a565b50505b505050565b600082821c905092915050565b6000610ab160001984600802610a93565b1980831691505092915050565b6000610aca8383610aa0565b9150826002028217905092915050565b610ae382610516565b67ffffffffffffffff811115610afc57610afb6105e7565b5b610b06825461086b565b610b11828285610a4d565b600060209050601f831160018114610b445760008415610b32578287015190505b610b3c8582610abe565b865550610ba4565b601f198416610b528661092e565b60005b82811015610b7a57848901518255600182019150602085019450602081019050610b55565b86831015610b975784890151610b93601f891682610aa0565b8355505b6001600288020188555050505b50505050505056fea2646970667358221220b2a969713fbaace3ea211af43b58744eb40481b6943389b857ab6e7ca2b48c2564736f6c63430008120033",
			"opcodes": "PUSH1 0x80 PUSH1 0x40 MSTORE CALLVALUE DUP1 ISZERO PUSH2 0x10 JUMPI PUSH1 0x0 DUP1 REVERT JUMPDEST POP CALLER PUSH1 0x1 PUSH1 0x0 PUSH2 0x100 EXP DUP2 SLOAD DUP2 PUSH20 0xFFFFFFFFFFFFFFFFFFFFFFFFFFFFFFFFFFFFFFFF MUL NOT AND SWAP1 DUP4 PUSH20 0xFFFFFFFFFFFFFFFFFFFFFFFFFFFFFFFFFFFFFFFF AND MUL OR SWAP1 SSTORE POP PUSH2 0xBE2 DUP1 PUSH2 0x61 PUSH1 0x0 CODECOPY PUSH1 0x0 RETURN INVALID PUSH1 0x80 PUSH1 0x40 MSTORE CALLVALUE DUP1 ISZERO PUSH2 0x10 JUMPI PUSH1 0x0 DUP1 REVERT JUMPDEST POP PUSH1 0x4 CALLDATASIZE LT PUSH2 0x4C JUMPI PUSH1 0x0 CALLDATALOAD PUSH1 0xE0 SHR DUP1 PUSH4 0x8DA5CB5B EQ PUSH2 0x51 JUMPI DUP1 PUSH4 0xBDA02842 EQ PUSH2 0x6F JUMPI DUP1 PUSH4 0xCFFB703C EQ PUSH2 0x9F JUMPI DUP1 PUSH4 0xDD595EE4 EQ PUSH2 0xD0 JUMPI JUMPDEST PUSH1 0x0 DUP1 REVERT JUMPDEST PUSH2 0x59 PUSH2 0xEC JUMP JUMPDEST PUSH1 0x40 MLOAD PUSH2 0x66 SWAP2 SWAP1 PUSH2 0x450 JUMP JUMPDEST PUSH1 0x40 MLOAD DUP1 SWAP2 SUB SWAP1 RETURN JUMPDEST PUSH2 0x89 PUSH1 0x4 DUP1 CALLDATASIZE SUB DUP2 ADD SWAP1 PUSH2 0x84 SWAP2 SWAP1 PUSH2 0x4B5 JUMP JUMPDEST PUSH2 0x112 JUMP JUMPDEST PUSH1 0x40 MLOAD PUSH2 0x96 SWAP2 SWAP1 PUSH2 0x4FB JUMP JUMPDEST PUSH1 0x40 MLOAD DUP1 SWAP2 SUB SWAP1 RETURN JUMPDEST PUSH2 0xB9 PUSH1 0x4 DUP1 CALLDATASIZE SUB DUP2 ADD SWAP1 PUSH2 0xB4 SWAP2 SWAP1 PUSH2 0x4B5 JUMP JUMPDEST PUSH2 0x1D2 JUMP JUMPDEST PUSH1 0x40 MLOAD PUSH2 0xC7 SWAP3 SWAP2 SWAP1 PUSH2 0x5A6 JUMP JUMPDEST PUSH1 0x40 MLOAD DUP1 SWAP2 SUB SWAP1 RETURN JUMPDEST PUSH2 0xEA PUSH1 0x4 DUP1 CALLDATASIZE SUB DUP2 ADD SWAP1 PUSH2 0xE5 SWAP2 SWAP1 PUSH2 0x712 JUMP JUMPDEST PUSH2 0x316 JUMP JUMPDEST STOP JUMPDEST PUSH1 0x1 PUSH1 0x0 SWAP1 SLOAD SWAP1 PUSH2 0x100 EXP SWAP1 DIV PUSH20 0xFFFFFFFFFFFFFFFFFFFFFFFFFFFFFFFFFFFFFFFF AND DUP2 JUMP JUMPDEST PUSH1 0x0 CALLER PUSH20 0xFFFFFFFFFFFFFFFFFFFFFFFFFFFFFFFFFFFFFFFF AND PUSH1 0x1 PUSH1 0x0 SWAP1 SLOAD SWAP1 PUSH2 0x100 EXP SWAP1 DIV PUSH20 0xFFFFFFFFFFFFFFFFFFFFFFFFFFFFFFFFFFFFFFFF AND PUSH20 0xFFFFFFFFFFFFFFFFFFFFFFFFFFFFFFFFFFFFFFFF AND EQ PUSH2 0x1A4 JUMPI PUSH1 0x40 MLOAD PUSH32 0x8C379A000000000000000000000000000000000000000000000000000000000 DUP2 MSTORE PUSH1 0x4 ADD PUSH2 0x19B SWAP1 PUSH2 0x7E0 JUMP JUMPDEST PUSH1 0x40 MLOAD DUP1 SWAP2 SUB SWAP1 REVERT JUMPDEST DUP2 PUSH1 0x40 MLOAD PUSH1 0x20 ADD PUSH2 0x1B5 SWAP2 SWAP1 PUSH2 0x821 JUMP JUMPDEST PUSH1 0x40 MLOAD PUSH1 0x20 DUP2 DUP4 SUB SUB DUP2 MSTORE SWAP1 PUSH1 0x40 MSTORE DUP1 MLOAD SWAP1 PUSH1 0x20 ADD KECCAK256 SWAP1 POP SWAP2 SWAP1 POP JUMP JUMPDEST PUSH1 0x0 DUP2 DUP2 SLOAD DUP2 LT PUSH2 0x1E2 JUMPI PUSH1 0x0 DUP1 REVERT JUMPDEST SWAP1 PUSH1 0x0 MSTORE PUSH1 0x20 PUSH1 0x0 KECCAK256 SWAP1 PUSH1 0x2 MUL ADD PUSH1 0x0 SWAP2 POP SWAP1 POP DUP1 PUSH1 0x0 ADD DUP1 SLOAD PUSH2 0x205 SWAP1 PUSH2 0x86B JUMP JUMPDEST DUP1 PUSH1 0x1F ADD PUSH1 0x20 DUP1 SWAP2 DIV MUL PUSH1 0x20 ADD PUSH1 0x40 MLOAD SWAP1 DUP2 ADD PUSH1 0x40 MSTORE DUP1 SWAP3 SWAP2 SWAP1 DUP2 DUP2 MSTORE PUSH1 0x20 ADD DUP3 DUP1 SLOAD PUSH2 0x231 SWAP1 PUSH2 0x86B JUMP JUMPDEST DUP1 ISZERO PUSH2 0x27E JUMPI DUP1 PUSH1 0x1F LT PUSH2 0x253 JUMPI PUSH2 0x100 DUP1 DUP4 SLOAD DIV MUL DUP4 MSTORE SWAP2 PUSH1 0x20 ADD SWAP2 PUSH2 0x27E JUMP JUMPDEST DUP3 ADD SWAP2 SWAP1 PUSH1 0x0 MSTORE PUSH1 0x20 PUSH1 0x0 KECCAK256 SWAP1 JUMPDEST DUP2 SLOAD DUP2 MSTORE SWAP1 PUSH1 0x1 ADD SWAP1 PUSH1 0x20 ADD DUP1 DUP4 GT PUSH2 0x261 JUMPI DUP3 SWAP1 SUB PUSH1 0x1F AND DUP3 ADD SWAP2 JUMPDEST POP POP POP POP POP SWAP1 DUP1 PUSH1 0x1 ADD DUP1 SLOAD PUSH2 0x293 SWAP1 PUSH2 0x86B JUMP JUMPDEST DUP1 PUSH1 0x1F ADD PUSH1 0x20 DUP1 SWAP2 DIV MUL PUSH1 0x20 ADD PUSH1 0x40 MLOAD SWAP1 DUP2 ADD PUSH1 0x40 MSTORE DUP1 SWAP3 SWAP2 SWAP1 DUP2 DUP2 MSTORE PUSH1 0x20 ADD DUP3 DUP1 SLOAD PUSH2 0x2BF SWAP1 PUSH2 0x86B JUMP JUMPDEST DUP1 ISZERO PUSH2 0x30C JUMPI DUP1 PUSH1 0x1F LT PUSH2 0x2E1 JUMPI PUSH2 0x100 DUP1 DUP4 SLOAD DIV MUL DUP4 MSTORE SWAP2 PUSH1 0x20 ADD SWAP2 PUSH2 0x30C JUMP JUMPDEST DUP3 ADD SWAP2 SWAP1 PUSH1 0x0 MSTORE PUSH1 0x20 PUSH1 0x0 KECCAK256 SWAP1 JUMPDEST DUP2 SLOAD DUP2 MSTORE SWAP1 PUSH1 0x1 ADD SWAP1 PUSH1 0x20 ADD DUP1 DUP4 GT PUSH2 0x2EF JUMPI DUP3 SWAP1 SUB PUSH1 0x1F AND DUP3 ADD SWAP2 JUMPDEST POP POP POP POP POP SWAP1 POP DUP3 JUMP JUMPDEST PUSH1 0x5 DUP2 GT ISZERO PUSH2 0x35A JUMPI PUSH1 0x40 MLOAD PUSH32 0x8C379A000000000000000000000000000000000000000000000000000000000 DUP2 MSTORE PUSH1 0x4 ADD PUSH2 0x351 SWAP1 PUSH2 0x90E JUMP JUMPDEST PUSH1 0x40 MLOAD DUP1 SWAP2 SUB SWAP1 REVERT JUMPDEST PUSH2 0x399 PUSH1 0x40 MLOAD DUP1 PUSH1 0x40 ADD PUSH1 0x40 MSTORE DUP1 PUSH1 0xA DUP2 MSTORE PUSH1 0x20 ADD PUSH32 0x48616D6275726775657200000000000000000000000000000000000000000000 DUP2 MSTORE POP DUP4 PUSH2 0x39D JUMP JUMPDEST POP POP JUMP JUMPDEST PUSH1 0x0 PUSH1 0x40 MLOAD DUP1 PUSH1 0x40 ADD PUSH1 0x40 MSTORE DUP1 DUP5 DUP2 MSTORE PUSH1 0x20 ADD DUP4 DUP2 MSTORE POP SWAP1 DUP1 PUSH1 0x1 DUP2 SLOAD ADD DUP1 DUP3 SSTORE DUP1 SWAP2 POP POP PUSH1 0x1 SWAP1 SUB SWAP1 PUSH1 0x0 MSTORE PUSH1 0x20 PUSH1 0x0 KECCAK256 SWAP1 PUSH1 0x2 MUL ADD PUSH1 0x0 SWAP1 SWAP2 SWAP1 SWAP2 SWAP1 SWAP2 POP PUSH1 0x0 DUP3 ADD MLOAD DUP2 PUSH1 0x0 ADD SWAP1 DUP2 PUSH2 0x3F2 SWAP2 SWAP1 PUSH2 0xADA JUMP JUMPDEST POP PUSH1 0x20 DUP3 ADD MLOAD DUP2 PUSH1 0x1 ADD SWAP1 DUP2 PUSH2 0x408 SWAP2 SWAP1 PUSH2 0xADA JUMP JUMPDEST POP POP POP POP POP JUMP JUMPDEST PUSH1 0x0 PUSH20 0xFFFFFFFFFFFFFFFFFFFFFFFFFFFFFFFFFFFFFFFF DUP3 AND SWAP1 POP SWAP2 SWAP1 POP JUMP JUMPDEST PUSH1 0x0 PUSH2 0x43A DUP3 PUSH2 0x40F JUMP JUMPDEST SWAP1 POP SWAP2 SWAP1 POP JUMP JUMPDEST PUSH2 0x44A DUP2 PUSH2 0x42F JUMP JUMPDEST DUP3 MSTORE POP POP JUMP JUMPDEST PUSH1 0x0 PUSH1 0x20 DUP3 ADD SWAP1 POP PUSH2 0x465 PUSH1 0x0 DUP4 ADD DUP5 PUSH2 0x441 JUMP JUMPDEST SWAP3 SWAP2 POP POP JUMP JUMPDEST PUSH1 0x0 PUSH1 0x40 MLOAD SWAP1 POP SWAP1 JUMP JUMPDEST PUSH1 0x0 DUP1 REVERT JUMPDEST PUSH1 0x0 DUP1 REVERT JUMPDEST PUSH1 0x0 DUP2 SWAP1 POP SWAP2 SWAP1 POP JUMP JUMPDEST PUSH2 0x492 DUP2 PUSH2 0x47F JUMP JUMPDEST DUP2 EQ PUSH2 0x49D JUMPI PUSH1 0x0 DUP1 REVERT JUMPDEST POP JUMP JUMPDEST PUSH1 0x0 DUP2 CALLDATALOAD SWAP1 POP PUSH2 0x4AF DUP2 PUSH2 0x489 JUMP JUMPDEST SWAP3 SWAP2 POP POP JUMP JUMPDEST PUSH1 0x0 PUSH1 0x20 DUP3 DUP5 SUB SLT ISZERO PUSH2 0x4CB JUMPI PUSH2 0x4CA PUSH2 0x475 JUMP JUMPDEST JUMPDEST PUSH1 0x0 PUSH2 0x4D9 DUP5 DUP3 DUP6 ADD PUSH2 0x4A0 JUMP JUMPDEST SWAP2 POP POP SWAP3 SWAP2 POP POP JUMP JUMPDEST PUSH1 0x0 DUP2 SWAP1 POP SWAP2 SWAP1 POP JUMP JUMPDEST PUSH2 0x4F5 DUP2 PUSH2 0x4E2 JUMP JUMPDEST DUP3 MSTORE POP POP JUMP JUMPDEST PUSH1 0x0 PUSH1 0x20 DUP3 ADD SWAP1 POP PUSH2 0x510 PUSH1 0x0 DUP4 ADD DUP5 PUSH2 0x4EC JUMP JUMPDEST SWAP3 SWAP2 POP POP JUMP JUMPDEST PUSH1 0x0 DUP2 MLOAD SWAP1 POP SWAP2 SWAP1 POP JUMP JUMPDEST PUSH1 0x0 DUP3 DUP3 MSTORE PUSH1 0x20 DUP3 ADD SWAP1 POP SWAP3 SWAP2 POP POP JUMP JUMPDEST PUSH1 0x0 JUMPDEST DUP4 DUP2 LT ISZERO PUSH2 0x550 JUMPI DUP1 DUP3 ADD MLOAD DUP2 DUP5 ADD MSTORE PUSH1 0x20 DUP2 ADD SWAP1 POP PUSH2 0x535 JUMP JUMPDEST PUSH1 0x0 DUP5 DUP5 ADD MSTORE POP POP POP POP JUMP JUMPDEST PUSH1 0x0 PUSH1 0x1F NOT PUSH1 0x1F DUP4 ADD AND SWAP1 POP SWAP2 SWAP1 POP JUMP JUMPDEST PUSH1 0x0 PUSH2 0x578 DUP3 PUSH2 0x516 JUMP JUMPDEST PUSH2 0x582 DUP2 DUP6 PUSH2 0x521 JUMP JUMPDEST SWAP4 POP PUSH2 0x592 DUP2 DUP6 PUSH1 0x20 DUP7 ADD PUSH2 0x532 JUMP JUMPDEST PUSH2 0x59B DUP2 PUSH2 0x55C JUMP JUMPDEST DUP5 ADD SWAP2 POP POP SWAP3 SWAP2 POP POP JUMP JUMPDEST PUSH1 0x0 PUSH1 0x40 DUP3 ADD SWAP1 POP DUP2 DUP2 SUB PUSH1 0x0 DUP4 ADD MSTORE PUSH2 0x5C0 DUP2 DUP6 PUSH2 0x56D JUMP JUMPDEST SWAP1 POP DUP2 DUP2 SUB PUSH1 0x20 DUP4 ADD MSTORE PUSH2 0x5D4 DUP2 DUP5 PUSH2 0x56D JUMP JUMPDEST SWAP1 POP SWAP4 SWAP3 POP POP POP JUMP JUMPDEST PUSH1 0x0 DUP1 REVERT JUMPDEST PUSH1 0x0 DUP1 REVERT JUMPDEST PUSH32 0x4E487B7100000000000000000000000000000000000000000000000000000000 PUSH1 0x0 MSTORE PUSH1 0x41 PUSH1 0x4 MSTORE PUSH1 0x24 PUSH1 0x0 REVERT JUMPDEST PUSH2 0x61F DUP3 PUSH2 0x55C JUMP JUMPDEST DUP2 ADD DUP2 DUP2 LT PUSH8 0xFFFFFFFFFFFFFFFF DUP3 GT OR ISZERO PUSH2 0x63E JUMPI PUSH2 0x63D PUSH2 0x5E7 JUMP JUMPDEST JUMPDEST DUP1 PUSH1 0x40 MSTORE POP POP POP JUMP JUMPDEST PUSH1 0x0 PUSH2 0x651 PUSH2 0x46B JUMP JUMPDEST SWAP1 POP PUSH2 0x65D DUP3 DUP3 PUSH2 0x616 JUMP JUMPDEST SWAP2 SWAP1 POP JUMP JUMPDEST PUSH1 0x0 PUSH8 0xFFFFFFFFFFFFFFFF DUP3 GT ISZERO PUSH2 0x67D JUMPI PUSH2 0x67C PUSH2 0x5E7 JUMP JUMPDEST JUMPDEST PUSH2 0x686 DUP3 PUSH2 0x55C JUMP JUMPDEST SWAP1 POP PUSH1 0x20 DUP2 ADD SWAP1 POP SWAP2 SWAP1 POP JUMP JUMPDEST DUP3 DUP2 DUP4 CALLDATACOPY PUSH1 0x0 DUP4 DUP4 ADD MSTORE POP POP POP JUMP JUMPDEST PUSH1 0x0 PUSH2 0x6B5 PUSH2 0x6B0 DUP5 PUSH2 0x662 JUMP JUMPDEST PUSH2 0x647 JUMP JUMPDEST SWAP1 POP DUP3 DUP2 MSTORE PUSH1 0x20 DUP2 ADD DUP5 DUP5 DUP5 ADD GT ISZERO PUSH2 0x6D1 JUMPI PUSH2 0x6D0 PUSH2 0x5E2 JUMP JUMPDEST JUMPDEST PUSH2 0x6DC DUP5 DUP3 DUP6 PUSH2 0x693 JUMP JUMPDEST POP SWAP4 SWAP3 POP POP POP JUMP JUMPDEST PUSH1 0x0 DUP3 PUSH1 0x1F DUP4 ADD SLT PUSH2 0x6F9 JUMPI PUSH2 0x6F8 PUSH2 0x5DD JUMP JUMPDEST JUMPDEST DUP2 CALLDATALOAD PUSH2 0x709 DUP5 DUP3 PUSH1 0x20 DUP7 ADD PUSH2 0x6A2 JUMP JUMPDEST SWAP2 POP POP SWAP3 SWAP2 POP POP JUMP JUMPDEST PUSH1 0x0 DUP1 PUSH1 0x40 DUP4 DUP6 SUB SLT ISZERO PUSH2 0x729 JUMPI PUSH2 0x728 PUSH2 0x475 JUMP JUMPDEST JUMPDEST PUSH1 0x0 DUP4 ADD CALLDATALOAD PUSH8 0xFFFFFFFFFFFFFFFF DUP2 GT ISZERO PUSH2 0x747 JUMPI PUSH2 0x746 PUSH2 0x47A JUMP JUMPDEST JUMPDEST PUSH2 0x753 DUP6 DUP3 DUP7 ADD PUSH2 0x6E4 JUMP JUMPDEST SWAP3 POP POP PUSH1 0x20 PUSH2 0x764 DUP6 DUP3 DUP7 ADD PUSH2 0x4A0 JUMP JUMPDEST SWAP2 POP POP SWAP3 POP SWAP3 SWAP1 POP JUMP JUMPDEST PUSH32 0x4E6F207469656E6573207065726D69736F73207061726120656A656375746172 PUSH1 0x0 DUP3 ADD MSTORE PUSH32 0x20657374612066756E63696F6E00000000000000000000000000000000000000 PUSH1 0x20 DUP3 ADD MSTORE POP JUMP JUMPDEST PUSH1 0x0 PUSH2 0x7CA PUSH1 0x2D DUP4 PUSH2 0x521 JUMP JUMPDEST SWAP2 POP PUSH2 0x7D5 DUP3 PUSH2 0x76E JUMP JUMPDEST PUSH1 0x40 DUP3 ADD SWAP1 POP SWAP2 SWAP1 POP JUMP JUMPDEST PUSH1 0x0 PUSH1 0x20 DUP3 ADD SWAP1 POP DUP2 DUP2 SUB PUSH1 0x0 DUP4 ADD MSTORE PUSH2 0x7F9 DUP2 PUSH2 0x7BD JUMP JUMPDEST SWAP1 POP SWAP2 SWAP1 POP JUMP JUMPDEST PUSH1 0x0 DUP2 SWAP1 POP SWAP2 SWAP1 POP JUMP JUMPDEST PUSH2 0x81B PUSH2 0x816 DUP3 PUSH2 0x47F JUMP JUMPDEST PUSH2 0x800 JUMP JUMPDEST DUP3 MSTORE POP POP JUMP JUMPDEST PUSH1 0x0 PUSH2 0x82D DUP3 DUP5 PUSH2 0x80A JUMP JUMPDEST PUSH1 0x20 DUP3 ADD SWAP2 POP DUP2 SWAP1 POP SWAP3 SWAP2 POP POP JUMP JUMPDEST PUSH32 0x4E487B7100000000000000000000000000000000000000000000000000000000 PUSH1 0x0 MSTORE PUSH1 0x22 PUSH1 0x4 MSTORE PUSH1 0x24 PUSH1 0x0 REVERT JUMPDEST PUSH1 0x0 PUSH1 0x2 DUP3 DIV SWAP1 POP PUSH1 0x1 DUP3 AND DUP1 PUSH2 0x883 JUMPI PUSH1 0x7F DUP3 AND SWAP2 POP JUMPDEST PUSH1 0x20 DUP3 LT DUP2 SUB PUSH2 0x896 JUMPI PUSH2 0x895 PUSH2 0x83C JUMP JUMPDEST JUMPDEST POP SWAP2 SWAP1 POP JUMP JUMPDEST PUSH32 0x4E6F20707565646573207065646972206D617320646520352068616D62757267 PUSH1 0x0 DUP3 ADD MSTORE PUSH32 0x7565736173000000000000000000000000000000000000000000000000000000 PUSH1 0x20 DUP3 ADD MSTORE POP JUMP JUMPDEST PUSH1 0x0 PUSH2 0x8F8 PUSH1 0x25 DUP4 PUSH2 0x521 JUMP JUMPDEST SWAP2 POP PUSH2 0x903 DUP3 PUSH2 0x89C JUMP JUMPDEST PUSH1 0x40 DUP3 ADD SWAP1 POP SWAP2 SWAP1 POP JUMP JUMPDEST PUSH1 0x0 PUSH1 0x20 DUP3 ADD SWAP1 POP DUP2 DUP2 SUB PUSH1 0x0 DUP4 ADD MSTORE PUSH2 0x927 DUP2 PUSH2 0x8EB JUMP JUMPDEST SWAP1 POP SWAP2 SWAP1 POP JUMP JUMPDEST PUSH1 0x0 DUP2 SWAP1 POP DUP2 PUSH1 0x0 MSTORE PUSH1 0x20 PUSH1 0x0 KECCAK256 SWAP1 POP SWAP2 SWAP1 POP JUMP JUMPDEST PUSH1 0x0 PUSH1 0x20 PUSH1 0x1F DUP4 ADD DIV SWAP1 POP SWAP2 SWAP1 POP JUMP JUMPDEST PUSH1 0x0 DUP3 DUP3 SHL SWAP1 POP SWAP3 SWAP2 POP POP JUMP JUMPDEST PUSH1 0x0 PUSH1 0x8 DUP4 MUL PUSH2 0x990 PUSH32 0xFFFFFFFFFFFFFFFFFFFFFFFFFFFFFFFFFFFFFFFFFFFFFFFFFFFFFFFFFFFFFFFF DUP3 PUSH2 0x953 JUMP JUMPDEST PUSH2 0x99A DUP7 DUP4 PUSH2 0x953 JUMP JUMPDEST SWAP6 POP DUP1 NOT DUP5 AND SWAP4 POP DUP1 DUP7 AND DUP5 OR SWAP3 POP POP POP SWAP4 SWAP3 POP POP POP JUMP JUMPDEST PUSH1 0x0 DUP2 SWAP1 POP SWAP2 SWAP1 POP JUMP JUMPDEST PUSH1 0x0 PUSH2 0x9D7 PUSH2 0x9D2 PUSH2 0x9CD DUP5 PUSH2 0x47F JUMP JUMPDEST PUSH2 0x9B2 JUMP JUMPDEST PUSH2 0x47F JUMP JUMPDEST SWAP1 POP SWAP2 SWAP1 POP JUMP JUMPDEST PUSH1 0x0 DUP2 SWAP1 POP SWAP2 SWAP1 POP JUMP JUMPDEST PUSH2 0x9F1 DUP4 PUSH2 0x9BC JUMP JUMPDEST PUSH2 0xA05 PUSH2 0x9FD DUP3 PUSH2 0x9DE JUMP JUMPDEST DUP5 DUP5 SLOAD PUSH2 0x960 JUMP JUMPDEST DUP3 SSTORE POP POP POP POP JUMP JUMPDEST PUSH1 0x0 SWAP1 JUMP JUMPDEST PUSH2 0xA1A PUSH2 0xA0D JUMP JUMPDEST PUSH2 0xA25 DUP2 DUP5 DUP5 PUSH2 0x9E8 JUMP JUMPDEST POP POP POP JUMP JUMPDEST JUMPDEST DUP2 DUP2 LT ISZERO PUSH2 0xA49 JUMPI PUSH2 0xA3E PUSH1 0x0 DUP3 PUSH2 0xA12 JUMP JUMPDEST PUSH1 0x1 DUP2 ADD SWAP1 POP PUSH2 0xA2B JUMP JUMPDEST POP POP JUMP JUMPDEST PUSH1 0x1F DUP3 GT ISZERO PUSH2 0xA8E JUMPI PUSH2 0xA5F DUP2 PUSH2 0x92E JUMP JUMPDEST PUSH2 0xA68 DUP5 PUSH2 0x943 JUMP JUMPDEST DUP2 ADD PUSH1 0x20 DUP6 LT ISZERO PUSH2 0xA77 JUMPI DUP2 SWAP1 POP JUMPDEST PUSH2 0xA8B PUSH2 0xA83 DUP6 PUSH2 0x943 JUMP JUMPDEST DUP4 ADD DUP3 PUSH2 0xA2A JUMP JUMPDEST POP POP JUMPDEST POP POP POP JUMP JUMPDEST PUSH1 0x0 DUP3 DUP3 SHR SWAP1 POP SWAP3 SWAP2 POP POP JUMP JUMPDEST PUSH1 0x0 PUSH2 0xAB1 PUSH1 0x0 NOT DUP5 PUSH1 0x8 MUL PUSH2 0xA93 JUMP JUMPDEST NOT DUP1 DUP4 AND SWAP2 POP POP SWAP3 SWAP2 POP POP JUMP JUMPDEST PUSH1 0x0 PUSH2 0xACA DUP4 DUP4 PUSH2 0xAA0 JUMP JUMPDEST SWAP2 POP DUP3 PUSH1 0x2 MUL DUP3 OR SWAP1 POP SWAP3 SWAP2 POP POP JUMP JUMPDEST PUSH2 0xAE3 DUP3 PUSH2 0x516 JUMP JUMPDEST PUSH8 0xFFFFFFFFFFFFFFFF DUP2 GT ISZERO PUSH2 0xAFC JUMPI PUSH2 0xAFB PUSH2 0x5E7 JUMP JUMPDEST JUMPDEST PUSH2 0xB06 DUP3 SLOAD PUSH2 0x86B JUMP JUMPDEST PUSH2 0xB11 DUP3 DUP3 DUP6 PUSH2 0xA4D JUMP JUMPDEST PUSH1 0x0 PUSH1 0x20 SWAP1 POP PUSH1 0x1F DUP4 GT PUSH1 0x1 DUP2 EQ PUSH2 0xB44 JUMPI PUSH1 0x0 DUP5 ISZERO PUSH2 0xB32 JUMPI DUP3 DUP8 ADD MLOAD SWAP1 POP JUMPDEST PUSH2 0xB3C DUP6 DUP3 PUSH2 0xABE JUMP JUMPDEST DUP7 SSTORE POP PUSH2 0xBA4 JUMP JUMPDEST PUSH1 0x1F NOT DUP5 AND PUSH2 0xB52 DUP7 PUSH2 0x92E JUMP JUMPDEST PUSH1 0x0 JUMPDEST DUP3 DUP2 LT ISZERO PUSH2 0xB7A JUMPI DUP5 DUP10 ADD MLOAD DUP3 SSTORE PUSH1 0x1 DUP3 ADD SWAP2 POP PUSH1 0x20 DUP6 ADD SWAP5 POP PUSH1 0x20 DUP2 ADD SWAP1 POP PUSH2 0xB55 JUMP JUMPDEST DUP7 DUP4 LT ISZERO PUSH2 0xB97 JUMPI DUP5 DUP10 ADD MLOAD PUSH2 0xB93 PUSH1 0x1F DUP10 AND DUP3 PUSH2 0xAA0 JUMP JUMPDEST DUP4 SSTORE POP JUMPDEST PUSH1 0x1 PUSH1 0x2 DUP9 MUL ADD DUP9 SSTORE POP POP POP JUMPDEST POP POP POP POP POP POP JUMP INVALID LOG2 PUSH5 0x6970667358 0x22 SLT KECCAK256 0xB2 0xA9 PUSH10 0x713FBAACE3EA211AF43B PC PUSH21 0x4EB40481B6943389B857AB6E7CA2B48C2564736F6C PUSH4 0x43000812 STOP CALLER "
		},
		"gasEstimates": {
			"creation": {
				"codeDepositCost": "608400",
				"executionCost": "24911",
				"totalCost": "633311"
			},
			"external": {
				"doHamburguer(string,uint256)": "infinite",
				"hashPrivateNumber(uint256)": "infinite",
				"menu(uint256)": "infinite",
				"owner()": "2492"
			}
		},
		"methodIdentifiers": {
			"doHamburguer(string,uint256)": "dd595ee4",
			"hashPrivateNumber(uint256)": "bda02842",
			"menu(uint256)": "cffb703c",
			"owner()": "8da5cb5b"
		}
	},
	"abi": [
		{
			"inputs": [],
			"stateMutability": "nonpayable",
			"type": "constructor"
		},
		{
			"inputs": [
				{
					"internalType": "string",
					"name": "_ingredients",
					"type": "string"
				},
				{
					"internalType": "uint256",
					"name": "_units",
					"type": "uint256"
				}
			],
			"name": "doHamburguer",
			"outputs": [],
			"stateMutability": "nonpayable",
			"type": "function"
		},
		{
			"inputs": [
				{
					"internalType": "uint256",
					"name": "_number",
					"type": "uint256"
				}
			],
			"name": "hashPrivateNumber",
			"outputs": [
				{
					"internalType": "bytes32",
					"name": "",
					"type": "bytes32"
				}
			],
			"stateMutability": "view",
			"type": "function"
		},
		{
			"inputs": [
				{
					"internalType": "uint256",
					"name": "",
					"type": "uint256"
				}
			],
			"name": "menu",
			"outputs": [
				{
					"internalType": "string",
					"name": "name",
					"type": "string"
				},
				{
					"internalType": "string",
					"name": "ingredientes",
					"type": "string"
				}
			],
			"stateMutability": "view",
			"type": "function"
		},
		{
			"inputs": [],
			"name": "owner",
			"outputs": [
				{
					"internalType": "address",
					"name": "",
					"type": "address"
				}
			],
			"stateMutability": "view",
			"type": "function"
		}
	]
}